{
	"contracts/SafeProtocolRegistry.sol": {
		"SafeProtocolRegistry": {
			"abi": [
				{
					"inputs": [
						{
							"internalType": "address",
							"name": "initialOwner",
							"type": "address"
						}
					],
					"stateMutability": "nonpayable",
					"type": "constructor"
				},
				{
					"inputs": [
						{
							"internalType": "address",
							"name": "module",
							"type": "address"
						},
						{
							"internalType": "uint8",
							"name": "moduleTypes",
							"type": "uint8"
						}
					],
					"name": "CannotAddModule",
					"type": "error"
				},
				{
					"inputs": [
						{
							"internalType": "address",
							"name": "module",
							"type": "address"
						}
					],
					"name": "CannotFlagModule",
					"type": "error"
				},
				{
					"inputs": [
						{
							"internalType": "address",
							"name": "module",
							"type": "address"
						},
						{
							"internalType": "bytes4",
							"name": "expectedInterfaceId",
							"type": "bytes4"
						}
					],
					"name": "ModuleDoesNotSupportExpectedInterfaceId",
					"type": "error"
				},
				{
					"anonymous": false,
					"inputs": [
						{
							"indexed": true,
							"internalType": "address",
							"name": "module",
							"type": "address"
						}
					],
					"name": "ModuleAdded",
					"type": "event"
				},
				{
					"anonymous": false,
					"inputs": [
						{
							"indexed": true,
							"internalType": "address",
							"name": "module",
							"type": "address"
						}
					],
					"name": "ModuleFlagged",
					"type": "event"
				},
				{
					"anonymous": false,
					"inputs": [
						{
							"indexed": true,
							"internalType": "address",
							"name": "previousOwner",
							"type": "address"
						},
						{
							"indexed": true,
							"internalType": "address",
							"name": "newOwner",
							"type": "address"
						}
					],
					"name": "OwnershipTransferStarted",
					"type": "event"
				},
				{
					"anonymous": false,
					"inputs": [
						{
							"indexed": true,
							"internalType": "address",
							"name": "previousOwner",
							"type": "address"
						},
						{
							"indexed": true,
							"internalType": "address",
							"name": "newOwner",
							"type": "address"
						}
					],
					"name": "OwnershipTransferred",
					"type": "event"
				},
				{
					"inputs": [],
					"name": "acceptOwnership",
					"outputs": [],
					"stateMutability": "nonpayable",
					"type": "function"
				},
				{
					"inputs": [
						{
							"internalType": "address",
							"name": "module",
							"type": "address"
						},
						{
							"internalType": "uint8",
							"name": "moduleTypes",
							"type": "uint8"
						}
					],
					"name": "addModule",
					"outputs": [],
					"stateMutability": "nonpayable",
					"type": "function"
				},
				{
					"inputs": [
						{
							"internalType": "address",
							"name": "module",
							"type": "address"
						},
						{
							"internalType": "bytes32",
							"name": "data",
							"type": "bytes32"
						}
					],
					"name": "check",
					"outputs": [
						{
							"internalType": "uint64",
							"name": "listedAt",
							"type": "uint64"
						},
						{
							"internalType": "uint64",
							"name": "flaggedAt",
							"type": "uint64"
						}
					],
					"stateMutability": "view",
					"type": "function"
				},
				{
					"inputs": [
						{
							"internalType": "address",
							"name": "module",
							"type": "address"
						}
					],
					"name": "flagModule",
					"outputs": [],
					"stateMutability": "nonpayable",
					"type": "function"
				},
				{
					"inputs": [
						{
							"internalType": "address",
							"name": "",
							"type": "address"
						}
					],
					"name": "listedModules",
					"outputs": [
						{
							"internalType": "uint64",
							"name": "listedAt",
							"type": "uint64"
						},
						{
							"internalType": "uint64",
							"name": "flaggedAt",
							"type": "uint64"
						},
						{
							"internalType": "uint8",
							"name": "moduleTypes",
							"type": "uint8"
						}
					],
					"stateMutability": "view",
					"type": "function"
				},
				{
					"inputs": [],
					"name": "owner",
					"outputs": [
						{
							"internalType": "address",
							"name": "",
							"type": "address"
						}
					],
					"stateMutability": "view",
					"type": "function"
				},
				{
					"inputs": [],
					"name": "pendingOwner",
					"outputs": [
						{
							"internalType": "address",
							"name": "",
							"type": "address"
						}
					],
					"stateMutability": "view",
					"type": "function"
				},
				{
					"inputs": [],
					"name": "renounceOwnership",
					"outputs": [],
					"stateMutability": "nonpayable",
					"type": "function"
				},
				{
					"inputs": [
						{
							"internalType": "bytes4",
							"name": "interfaceId",
							"type": "bytes4"
						}
					],
					"name": "supportsInterface",
					"outputs": [
						{
							"internalType": "bool",
							"name": "",
							"type": "bool"
						}
					],
					"stateMutability": "view",
					"type": "function"
				},
				{
					"inputs": [
						{
							"internalType": "address",
							"name": "newOwner",
							"type": "address"
						}
					],
					"name": "transferOwnership",
					"outputs": [],
					"stateMutability": "nonpayable",
					"type": "function"
				}
			],
			"devdoc": {
				"kind": "dev",
				"methods": {
					"acceptOwnership()": {
						"details": "The new owner accepts the ownership transfer."
					},
					"addModule(address,uint8)": {
						"params": {
							"module": "Address of the module",
							"moduleTypes": "uint8 indicating the types of module"
						}
					},
					"check(address,bytes32)": {
						"params": {
							"module": "Address of the module to be checked"
						},
						"returns": {
							"flaggedAt": "Timestamp of falgging the module. This value will be 0 if not flagged.",
							"listedAt": "Timestamp of listing the module. This value will be 0 if not listed."
						}
					},
					"flagModule(address)": {
						"params": {
							"module": "Address of the module"
						}
					},
					"owner()": {
						"details": "Returns the address of the current owner."
					},
					"pendingOwner()": {
						"details": "Returns the address of the pending owner."
					},
					"renounceOwnership()": {
						"details": "Leaves the contract without owner. It will not be possible to call `onlyOwner` functions. Can only be called by the current owner. NOTE: Renouncing ownership will leave the contract without an owner, thereby disabling any functionality that is only available to the owner."
					},
					"supportsInterface(bytes4)": {
						"details": "Returns true if this contract implements the interface defined by `interfaceId`. See the corresponding https://eips.ethereum.org/EIPS/eip-165#how-interfaces-are-identified[EIP section] to learn more about how these ids are created. This function call must use less than 30 000 gas."
					},
					"transferOwnership(address)": {
						"details": "Starts the ownership transfer of the contract to a new account. Replaces the pending transfer if there is one. Can only be called by the current owner."
					}
				},
				"version": 1
			},
			"evm": {
				"assembly": "    /* \"contracts/SafeProtocolRegistry.sol\":561:5057  contract SafeProtocolRegistry is ISafeProtocolRegistry, Ownable2Step {... */\n  mstore(0x40, 0x80)\n    /* \"contracts/SafeProtocolRegistry.sol\":1118:1203  constructor(address initialOwner) {... */\n  callvalue\n  dup1\n  iszero\n  tag_1\n  jumpi\n  0x00\n  dup1\n  revert\ntag_1:\n  pop\n  mload(0x40)\n  sub(codesize, bytecodeSize)\n  dup1\n  bytecodeSize\n  dup4\n  codecopy\n  dup2\n  dup2\n  add\n  0x40\n  mstore\n  dup2\n  add\n  swap1\n  tag_2\n  swap2\n  swap1\n  tag_3\n  jump\t// in\ntag_2:\n    /* \"@openzeppelin/contracts/access/Ownable.sol\":936:968  _transferOwnership(_msgSender()) */\n  tag_7\n    /* \"@openzeppelin/contracts/access/Ownable.sol\":955:967  _msgSender() */\n  tag_8\n    /* \"@openzeppelin/contracts/access/Ownable.sol\":955:965  _msgSender */\n  shl(0x20, tag_9)\n    /* \"@openzeppelin/contracts/access/Ownable.sol\":955:967  _msgSender() */\n  0x20\n  shr\n  jump\t// in\ntag_8:\n    /* \"@openzeppelin/contracts/access/Ownable.sol\":936:954  _transferOwnership */\n  shl(0x20, tag_10)\n    /* \"@openzeppelin/contracts/access/Ownable.sol\":936:968  _transferOwnership(_msgSender()) */\n  0x20\n  shr\n  jump\t// in\ntag_7:\n    /* \"contracts/SafeProtocolRegistry.sol\":1163:1195  _transferOwnership(initialOwner) */\n  tag_12\n    /* \"contracts/SafeProtocolRegistry.sol\":1182:1194  initialOwner */\n  dup2\n    /* \"contracts/SafeProtocolRegistry.sol\":1163:1181  _transferOwnership */\n  shl(0x20, tag_10)\n    /* \"contracts/SafeProtocolRegistry.sol\":1163:1195  _transferOwnership(initialOwner) */\n  0x20\n  shr\n  jump\t// in\ntag_12:\n    /* \"contracts/SafeProtocolRegistry.sol\":1118:1203  constructor(address initialOwner) {... */\n  pop\n    /* \"contracts/SafeProtocolRegistry.sol\":561:5057  contract SafeProtocolRegistry is ISafeProtocolRegistry, Ownable2Step {... */\n  jump(tag_13)\n    /* \"@openzeppelin/contracts/utils/Context.sol\":640:736  function _msgSender() internal view virtual returns (address) {... */\ntag_9:\n    /* \"@openzeppelin/contracts/utils/Context.sol\":693:700  address */\n  0x00\n    /* \"@openzeppelin/contracts/utils/Context.sol\":719:729  msg.sender */\n  caller\n    /* \"@openzeppelin/contracts/utils/Context.sol\":712:729  return msg.sender */\n  swap1\n  pop\n    /* \"@openzeppelin/contracts/utils/Context.sol\":640:736  function _msgSender() internal view virtual returns (address) {... */\n  swap1\n  jump\t// out\n    /* \"@openzeppelin/contracts/access/Ownable2Step.sol\":1501:1654  function _transferOwnership(address newOwner) internal virtual override {... */\ntag_10:\n    /* \"@openzeppelin/contracts/access/Ownable2Step.sol\":1590:1603  _pendingOwner */\n  0x01\n  0x00\n    /* \"@openzeppelin/contracts/access/Ownable2Step.sol\":1583:1603  delete _pendingOwner */\n  0x0100\n  exp\n  dup2\n  sload\n  swap1\n  0xffffffffffffffffffffffffffffffffffffffff\n  mul\n  not\n  and\n  swap1\n  sstore\n    /* \"@openzeppelin/contracts/access/Ownable2Step.sol\":1613:1647  super._transferOwnership(newOwner) */\n  tag_16\n    /* \"@openzeppelin/contracts/access/Ownable2Step.sol\":1638:1646  newOwner */\n  dup2\n    /* \"@openzeppelin/contracts/access/Ownable2Step.sol\":1613:1637  super._transferOwnership */\n  or(tag_0_53, shl(0x20, tag_17))\n    /* \"@openzeppelin/contracts/access/Ownable2Step.sol\":1613:1647  super._transferOwnership(newOwner) */\n  0x20\n  shr\n  jump\t// in\ntag_16:\n    /* \"@openzeppelin/contracts/access/Ownable2Step.sol\":1501:1654  function _transferOwnership(address newOwner) internal virtual override {... */\n  pop\n  jump\t// out\n    /* \"@openzeppelin/contracts/access/Ownable.sol\":2426:2613  function _transferOwnership(address newOwner) internal virtual {... */\ntag_17:\n    /* \"@openzeppelin/contracts/access/Ownable.sol\":2499:2515  address oldOwner */\n  0x00\n    /* \"@openzeppelin/contracts/access/Ownable.sol\":2518:2524  _owner */\n  dup1\n  0x00\n  swap1\n  sload\n  swap1\n  0x0100\n  exp\n  swap1\n  div\n  0xffffffffffffffffffffffffffffffffffffffff\n  and\n    /* \"@openzeppelin/contracts/access/Ownable.sol\":2499:2524  address oldOwner = _owner */\n  swap1\n  pop\n    /* \"@openzeppelin/contracts/access/Ownable.sol\":2543:2551  newOwner */\n  dup2\n    /* \"@openzeppelin/contracts/access/Ownable.sol\":2534:2540  _owner */\n  0x00\n  dup1\n    /* \"@openzeppelin/contracts/access/Ownable.sol\":2534:2551  _owner = newOwner */\n  0x0100\n  exp\n  dup2\n  sload\n  dup2\n  0xffffffffffffffffffffffffffffffffffffffff\n  mul\n  not\n  and\n  swap1\n  dup4\n  0xffffffffffffffffffffffffffffffffffffffff\n  and\n  mul\n  or\n  swap1\n  sstore\n  pop\n    /* \"@openzeppelin/contracts/access/Ownable.sol\":2597:2605  newOwner */\n  dup2\n    /* \"@openzeppelin/contracts/access/Ownable.sol\":2566:2606  OwnershipTransferred(oldOwner, newOwner) */\n  0xffffffffffffffffffffffffffffffffffffffff\n  and\n    /* \"@openzeppelin/contracts/access/Ownable.sol\":2587:2595  oldOwner */\n  dup2\n    /* \"@openzeppelin/contracts/access/Ownable.sol\":2566:2606  OwnershipTransferred(oldOwner, newOwner) */\n  0xffffffffffffffffffffffffffffffffffffffff\n  and\n  0x8be0079c531659141344cd1fd0a4f28419497f9722a3daafe3b4186f6b6457e0\n  mload(0x40)\n  mload(0x40)\n  dup1\n  swap2\n  sub\n  swap1\n  log3\n    /* \"@openzeppelin/contracts/access/Ownable.sol\":2489:2613  {... */\n  pop\n    /* \"@openzeppelin/contracts/access/Ownable.sol\":2426:2613  function _transferOwnership(address newOwner) internal virtual {... */\n  pop\n  jump\t// out\n    /* \"#utility.yul\":88:205   */\ntag_20:\n    /* \"#utility.yul\":197:198   */\n  0x00\n    /* \"#utility.yul\":194:195   */\n  dup1\n    /* \"#utility.yul\":187:199   */\n  revert\n    /* \"#utility.yul\":334:460   */\ntag_22:\n    /* \"#utility.yul\":371:378   */\n  0x00\n    /* \"#utility.yul\":411:453   */\n  0xffffffffffffffffffffffffffffffffffffffff\n    /* \"#utility.yul\":404:409   */\n  dup3\n    /* \"#utility.yul\":400:454   */\n  and\n    /* \"#utility.yul\":389:454   */\n  swap1\n  pop\n    /* \"#utility.yul\":334:460   */\n  swap2\n  swap1\n  pop\n  jump\t// out\n    /* \"#utility.yul\":466:562   */\ntag_23:\n    /* \"#utility.yul\":503:510   */\n  0x00\n    /* \"#utility.yul\":532:556   */\n  tag_32\n    /* \"#utility.yul\":550:555   */\n  dup3\n    /* \"#utility.yul\":532:556   */\n  tag_22\n  jump\t// in\ntag_32:\n    /* \"#utility.yul\":521:556   */\n  swap1\n  pop\n    /* \"#utility.yul\":466:562   */\n  swap2\n  swap1\n  pop\n  jump\t// out\n    /* \"#utility.yul\":568:690   */\ntag_24:\n    /* \"#utility.yul\":641:665   */\n  tag_34\n    /* \"#utility.yul\":659:664   */\n  dup2\n    /* \"#utility.yul\":641:665   */\n  tag_23\n  jump\t// in\ntag_34:\n    /* \"#utility.yul\":634:639   */\n  dup2\n    /* \"#utility.yul\":631:666   */\n  eq\n    /* \"#utility.yul\":621:684   */\n  tag_35\n  jumpi\n    /* \"#utility.yul\":680:681   */\n  0x00\n    /* \"#utility.yul\":677:678   */\n  dup1\n    /* \"#utility.yul\":670:682   */\n  revert\n    /* \"#utility.yul\":621:684   */\ntag_35:\n    /* \"#utility.yul\":568:690   */\n  pop\n  jump\t// out\n    /* \"#utility.yul\":696:839   */\ntag_25:\n    /* \"#utility.yul\":753:758   */\n  0x00\n    /* \"#utility.yul\":784:790   */\n  dup2\n    /* \"#utility.yul\":778:791   */\n  mload\n    /* \"#utility.yul\":769:791   */\n  swap1\n  pop\n    /* \"#utility.yul\":800:833   */\n  tag_37\n    /* \"#utility.yul\":827:832   */\n  dup2\n    /* \"#utility.yul\":800:833   */\n  tag_24\n  jump\t// in\ntag_37:\n    /* \"#utility.yul\":696:839   */\n  swap3\n  swap2\n  pop\n  pop\n  jump\t// out\n    /* \"#utility.yul\":845:1196   */\ntag_3:\n    /* \"#utility.yul\":915:921   */\n  0x00\n    /* \"#utility.yul\":964:966   */\n  0x20\n    /* \"#utility.yul\":952:961   */\n  dup3\n    /* \"#utility.yul\":943:950   */\n  dup5\n    /* \"#utility.yul\":939:962   */\n  sub\n    /* \"#utility.yul\":935:967   */\n  slt\n    /* \"#utility.yul\":932:1051   */\n  iszero\n  tag_39\n  jumpi\n    /* \"#utility.yul\":970:1049   */\n  tag_40\n  tag_20\n  jump\t// in\ntag_40:\n    /* \"#utility.yul\":932:1051   */\ntag_39:\n    /* \"#utility.yul\":1090:1091   */\n  0x00\n    /* \"#utility.yul\":1115:1179   */\n  tag_41\n    /* \"#utility.yul\":1171:1178   */\n  dup5\n    /* \"#utility.yul\":1162:1168   */\n  dup3\n    /* \"#utility.yul\":1151:1160   */\n  dup6\n    /* \"#utility.yul\":1147:1169   */\n  add\n    /* \"#utility.yul\":1115:1179   */\n  tag_25\n  jump\t// in\ntag_41:\n    /* \"#utility.yul\":1105:1179   */\n  swap2\n  pop\n    /* \"#utility.yul\":1061:1189   */\n  pop\n    /* \"#utility.yul\":845:1196   */\n  swap3\n  swap2\n  pop\n  pop\n  jump\t// out\n    /* \"contracts/SafeProtocolRegistry.sol\":561:5057  contract SafeProtocolRegistry is ISafeProtocolRegistry, Ownable2Step {... */\ntag_13:\n  dataSize(sub_0)\n  dup1\n  dataOffset(sub_0)\n  0x00\n  codecopy\n  0x00\n  return\nstop\n\nsub_0: assembly {\n        /* \"contracts/SafeProtocolRegistry.sol\":561:5057  contract SafeProtocolRegistry is ISafeProtocolRegistry, Ownable2Step {... */\n      mstore(0x40, 0x80)\n      callvalue\n      dup1\n      iszero\n      tag_1\n      jumpi\n      0x00\n      dup1\n      revert\n    tag_1:\n      pop\n      jumpi(tag_2, lt(calldatasize, 0x04))\n      shr(0xe0, calldataload(0x00))\n      dup1\n      0x715018a6\n      gt\n      tag_13\n      jumpi\n      dup1\n      0x715018a6\n      eq\n      tag_8\n      jumpi\n      dup1\n      0x79ba5097\n      eq\n      tag_9\n      jumpi\n      dup1\n      0x8da5cb5b\n      eq\n      tag_10\n      jumpi\n      dup1\n      0xe30c3978\n      eq\n      tag_11\n      jumpi\n      dup1\n      0xf2fde38b\n      eq\n      tag_12\n      jumpi\n      jump(tag_2)\n    tag_13:\n      dup1\n      0x01ffc9a7\n      eq\n      tag_3\n      jumpi\n      dup1\n      0x08252d21\n      eq\n      tag_4\n      jumpi\n      dup1\n      0x253bd7b7\n      eq\n      tag_5\n      jumpi\n      dup1\n      0x32b3d20e\n      eq\n      tag_6\n      jumpi\n      dup1\n      0x40f182c5\n      eq\n      tag_7\n      jumpi\n    tag_2:\n      0x00\n      dup1\n      revert\n        /* \"contracts/SafeProtocolRegistry.sol\":4845:5054  function supportsInterface(bytes4 interfaceId) external view override returns (bool) {... */\n    tag_3:\n      tag_14\n      0x04\n      dup1\n      calldatasize\n      sub\n      dup2\n      add\n      swap1\n      tag_15\n      swap2\n      swap1\n      tag_16\n      jump\t// in\n    tag_15:\n      tag_17\n      jump\t// in\n    tag_14:\n      mload(0x40)\n      tag_18\n      swap2\n      swap1\n      tag_19\n      jump\t// in\n    tag_18:\n      mload(0x40)\n      dup1\n      swap2\n      sub\n      swap1\n      return\n        /* \"contracts/SafeProtocolRegistry.sol\":4428:4837  function flagModule(address module) external onlyOwner {... */\n    tag_4:\n      tag_20\n      0x04\n      dup1\n      calldatasize\n      sub\n      dup2\n      add\n      swap1\n      tag_21\n      swap2\n      swap1\n      tag_22\n      jump\t// in\n    tag_21:\n      tag_23\n      jump\t// in\n    tag_20:\n      stop\n        /* \"contracts/SafeProtocolRegistry.sol\":1543:2017  function check(address module, bytes32 data) external view returns (uint64 listedAt, uint64 flaggedAt) {... */\n    tag_5:\n      tag_24\n      0x04\n      dup1\n      calldatasize\n      sub\n      dup2\n      add\n      swap1\n      tag_25\n      swap2\n      swap1\n      tag_26\n      jump\t// in\n    tag_25:\n      tag_27\n      jump\t// in\n    tag_24:\n      mload(0x40)\n      tag_28\n      swap3\n      swap2\n      swap1\n      tag_29\n      jump\t// in\n    tag_28:\n      mload(0x40)\n      dup1\n      swap2\n      sub\n      swap1\n      return\n        /* \"contracts/SafeProtocolRegistry.sol\":637:688  mapping(address => ModuleInfo) public listedModules */\n    tag_6:\n      tag_30\n      0x04\n      dup1\n      calldatasize\n      sub\n      dup2\n      add\n      swap1\n      tag_31\n      swap2\n      swap1\n      tag_22\n      jump\t// in\n    tag_31:\n      tag_32\n      jump\t// in\n    tag_30:\n      mload(0x40)\n      tag_33\n      swap4\n      swap3\n      swap2\n      swap1\n      tag_34\n      jump\t// in\n    tag_33:\n      mload(0x40)\n      dup1\n      swap2\n      sub\n      swap1\n      return\n        /* \"contracts/SafeProtocolRegistry.sol\":2396:2527  function addModule(address module, uint8 moduleTypes) external virtual onlyOwner {... */\n    tag_7:\n      tag_35\n      0x04\n      dup1\n      calldatasize\n      sub\n      dup2\n      add\n      swap1\n      tag_36\n      swap2\n      swap1\n      tag_37\n      jump\t// in\n    tag_36:\n      tag_38\n      jump\t// in\n    tag_35:\n      stop\n        /* \"@openzeppelin/contracts/access/Ownable.sol\":1824:1925  function renounceOwnership() public virtual onlyOwner {... */\n    tag_8:\n      tag_39\n      tag_40\n      jump\t// in\n    tag_39:\n      stop\n        /* \"@openzeppelin/contracts/access/Ownable2Step.sol\":1734:1946  function acceptOwnership() public virtual {... */\n    tag_9:\n      tag_41\n      tag_42\n      jump\t// in\n    tag_41:\n      stop\n        /* \"@openzeppelin/contracts/access/Ownable.sol\":1201:1286  function owner() public view virtual returns (address) {... */\n    tag_10:\n      tag_43\n      tag_44\n      jump\t// in\n    tag_43:\n      mload(0x40)\n      tag_45\n      swap2\n      swap1\n      tag_46\n      jump\t// in\n    tag_45:\n      mload(0x40)\n      dup1\n      swap2\n      sub\n      swap1\n      return\n        /* \"@openzeppelin/contracts/access/Ownable2Step.sol\":847:946  function pendingOwner() public view virtual returns (address) {... */\n    tag_11:\n      tag_47\n      tag_48\n      jump\t// in\n    tag_47:\n      mload(0x40)\n      tag_49\n      swap2\n      swap1\n      tag_46\n      jump\t// in\n    tag_49:\n      mload(0x40)\n      dup1\n      swap2\n      sub\n      swap1\n      return\n        /* \"@openzeppelin/contracts/access/Ownable2Step.sol\":1139:1317  function transferOwnership(address newOwner) public virtual override onlyOwner {... */\n    tag_12:\n      tag_50\n      0x04\n      dup1\n      calldatasize\n      sub\n      dup2\n      add\n      swap1\n      tag_51\n      swap2\n      swap1\n      tag_22\n      jump\t// in\n    tag_51:\n      tag_52\n      jump\t// in\n    tag_50:\n      stop\n        /* \"contracts/SafeProtocolRegistry.sol\":4845:5054  function supportsInterface(bytes4 interfaceId) external view override returns (bool) {... */\n    tag_17:\n        /* \"contracts/SafeProtocolRegistry.sol\":4924:4928  bool */\n      0x00\n        /* \"contracts/SafeProtocolRegistry.sol\":4963:5002  type(ISafeProtocolRegistry).interfaceId */\n      0x253bd7b700000000000000000000000000000000000000000000000000000000\n        /* \"contracts/SafeProtocolRegistry.sol\":4948:5002  interfaceId == type(ISafeProtocolRegistry).interfaceId */\n      not(0xffffffffffffffffffffffffffffffffffffffffffffffffffffffff)\n      and\n        /* \"contracts/SafeProtocolRegistry.sol\":4948:4959  interfaceId */\n      dup3\n        /* \"contracts/SafeProtocolRegistry.sol\":4948:5002  interfaceId == type(ISafeProtocolRegistry).interfaceId */\n      not(0xffffffffffffffffffffffffffffffffffffffffffffffffffffffff)\n      and\n      eq\n        /* \"contracts/SafeProtocolRegistry.sol\":4948:5046  interfaceId == type(ISafeProtocolRegistry).interfaceId || interfaceId == type(IERC165).interfaceId */\n      dup1\n      tag_55\n      jumpi\n      pop\n        /* \"contracts/SafeProtocolRegistry.sol\":5021:5046  type(IERC165).interfaceId */\n      0x01ffc9a700000000000000000000000000000000000000000000000000000000\n        /* \"contracts/SafeProtocolRegistry.sol\":5006:5046  interfaceId == type(IERC165).interfaceId */\n      not(0xffffffffffffffffffffffffffffffffffffffffffffffffffffffff)\n      and\n        /* \"contracts/SafeProtocolRegistry.sol\":5006:5017  interfaceId */\n      dup3\n        /* \"contracts/SafeProtocolRegistry.sol\":5006:5046  interfaceId == type(IERC165).interfaceId */\n      not(0xffffffffffffffffffffffffffffffffffffffffffffffffffffffff)\n      and\n      eq\n        /* \"contracts/SafeProtocolRegistry.sol\":4948:5046  interfaceId == type(ISafeProtocolRegistry).interfaceId || interfaceId == type(IERC165).interfaceId */\n    tag_55:\n        /* \"contracts/SafeProtocolRegistry.sol\":4941:5046  return interfaceId == type(ISafeProtocolRegistry).interfaceId || interfaceId == type(IERC165).interfaceId */\n      swap1\n      pop\n        /* \"contracts/SafeProtocolRegistry.sol\":4845:5054  function supportsInterface(bytes4 interfaceId) external view override returns (bool) {... */\n      swap2\n      swap1\n      pop\n      jump\t// out\n        /* \"contracts/SafeProtocolRegistry.sol\":4428:4837  function flagModule(address module) external onlyOwner {... */\n    tag_23:\n        /* \"@openzeppelin/contracts/access/Ownable.sol\":1094:1107  _checkOwner() */\n      tag_57\n        /* \"@openzeppelin/contracts/access/Ownable.sol\":1094:1105  _checkOwner */\n      tag_58\n        /* \"@openzeppelin/contracts/access/Ownable.sol\":1094:1107  _checkOwner() */\n      jump\t// in\n    tag_57:\n        /* \"contracts/SafeProtocolRegistry.sol\":4494:4522  ModuleInfo memory moduleInfo */\n      0x00\n        /* \"contracts/SafeProtocolRegistry.sol\":4525:4538  listedModules */\n      0x02\n        /* \"contracts/SafeProtocolRegistry.sol\":4525:4546  listedModules[module] */\n      0x00\n        /* \"contracts/SafeProtocolRegistry.sol\":4539:4545  module */\n      dup4\n        /* \"contracts/SafeProtocolRegistry.sol\":4525:4546  listedModules[module] */\n      0xffffffffffffffffffffffffffffffffffffffff\n      and\n      0xffffffffffffffffffffffffffffffffffffffff\n      and\n      dup2\n      mstore\n      0x20\n      add\n      swap1\n      dup2\n      mstore\n      0x20\n      add\n      0x00\n      keccak256\n        /* \"contracts/SafeProtocolRegistry.sol\":4494:4546  ModuleInfo memory moduleInfo = listedModules[module] */\n      mload(0x40)\n      dup1\n      0x60\n      add\n      0x40\n      mstore\n      swap1\n      dup2\n      0x00\n      dup3\n      add\n      0x00\n      swap1\n      sload\n      swap1\n      0x0100\n      exp\n      swap1\n      div\n      0xffffffffffffffff\n      and\n      0xffffffffffffffff\n      and\n      0xffffffffffffffff\n      and\n      dup2\n      mstore\n      0x20\n      add\n      0x00\n      dup3\n      add\n      0x08\n      swap1\n      sload\n      swap1\n      0x0100\n      exp\n      swap1\n      div\n      0xffffffffffffffff\n      and\n      0xffffffffffffffff\n      and\n      0xffffffffffffffff\n      and\n      dup2\n      mstore\n      0x20\n      add\n      0x00\n      dup3\n      add\n      0x10\n      swap1\n      sload\n      swap1\n      0x0100\n      exp\n      swap1\n      div\n      0xff\n      and\n      0xff\n      and\n      0xff\n      and\n      dup2\n      mstore\n      pop\n      pop\n      swap1\n      pop\n        /* \"contracts/SafeProtocolRegistry.sol\":4586:4587  0 */\n      0x00\n        /* \"contracts/SafeProtocolRegistry.sol\":4563:4573  moduleInfo */\n      dup2\n        /* \"contracts/SafeProtocolRegistry.sol\":4563:4582  moduleInfo.listedAt */\n      0x00\n      add\n      mload\n        /* \"contracts/SafeProtocolRegistry.sol\":4563:4587  moduleInfo.listedAt == 0 */\n      0xffffffffffffffff\n      and\n      eq\n        /* \"contracts/SafeProtocolRegistry.sol\":4563:4616  moduleInfo.listedAt == 0 || moduleInfo.flaggedAt != 0 */\n      dup1\n      tag_60\n      jumpi\n      pop\n        /* \"contracts/SafeProtocolRegistry.sol\":4615:4616  0 */\n      0x00\n        /* \"contracts/SafeProtocolRegistry.sol\":4591:4601  moduleInfo */\n      dup2\n        /* \"contracts/SafeProtocolRegistry.sol\":4591:4611  moduleInfo.flaggedAt */\n      0x20\n      add\n      mload\n        /* \"contracts/SafeProtocolRegistry.sol\":4591:4616  moduleInfo.flaggedAt != 0 */\n      0xffffffffffffffff\n      and\n      eq\n      iszero\n        /* \"contracts/SafeProtocolRegistry.sol\":4563:4616  moduleInfo.listedAt == 0 || moduleInfo.flaggedAt != 0 */\n    tag_60:\n        /* \"contracts/SafeProtocolRegistry.sol\":4559:4676  if (moduleInfo.listedAt == 0 || moduleInfo.flaggedAt != 0) {... */\n      iszero\n      tag_61\n      jumpi\n        /* \"contracts/SafeProtocolRegistry.sol\":4657:4663  module */\n      dup2\n        /* \"contracts/SafeProtocolRegistry.sol\":4640:4664  CannotFlagModule(module) */\n      mload(0x40)\n      0x71165a1f00000000000000000000000000000000000000000000000000000000\n      dup2\n      mstore\n      0x04\n      add\n      tag_62\n      swap2\n      swap1\n      tag_46\n      jump\t// in\n    tag_62:\n      mload(0x40)\n      dup1\n      swap2\n      sub\n      swap1\n      revert\n        /* \"contracts/SafeProtocolRegistry.sol\":4559:4676  if (moduleInfo.listedAt == 0 || moduleInfo.flaggedAt != 0) {... */\n    tag_61:\n        /* \"contracts/SafeProtocolRegistry.sol\":4712:4792  ModuleInfo(moduleInfo.listedAt, uint64(block.timestamp), moduleInfo.moduleTypes) */\n      mload(0x40)\n      dup1\n      0x60\n      add\n      0x40\n      mstore\n      dup1\n        /* \"contracts/SafeProtocolRegistry.sol\":4723:4733  moduleInfo */\n      dup3\n        /* \"contracts/SafeProtocolRegistry.sol\":4723:4742  moduleInfo.listedAt */\n      0x00\n      add\n      mload\n        /* \"contracts/SafeProtocolRegistry.sol\":4712:4792  ModuleInfo(moduleInfo.listedAt, uint64(block.timestamp), moduleInfo.moduleTypes) */\n      0xffffffffffffffff\n      and\n      dup2\n      mstore\n      0x20\n      add\n        /* \"contracts/SafeProtocolRegistry.sol\":4751:4766  block.timestamp */\n      timestamp\n        /* \"contracts/SafeProtocolRegistry.sol\":4712:4792  ModuleInfo(moduleInfo.listedAt, uint64(block.timestamp), moduleInfo.moduleTypes) */\n      0xffffffffffffffff\n      and\n      dup2\n      mstore\n      0x20\n      add\n        /* \"contracts/SafeProtocolRegistry.sol\":4769:4779  moduleInfo */\n      dup3\n        /* \"contracts/SafeProtocolRegistry.sol\":4769:4791  moduleInfo.moduleTypes */\n      0x40\n      add\n      mload\n        /* \"contracts/SafeProtocolRegistry.sol\":4712:4792  ModuleInfo(moduleInfo.listedAt, uint64(block.timestamp), moduleInfo.moduleTypes) */\n      0xff\n      and\n      dup2\n      mstore\n      pop\n        /* \"contracts/SafeProtocolRegistry.sol\":4688:4701  listedModules */\n      0x02\n        /* \"contracts/SafeProtocolRegistry.sol\":4688:4709  listedModules[module] */\n      0x00\n        /* \"contracts/SafeProtocolRegistry.sol\":4702:4708  module */\n      dup5\n        /* \"contracts/SafeProtocolRegistry.sol\":4688:4709  listedModules[module] */\n      0xffffffffffffffffffffffffffffffffffffffff\n      and\n      0xffffffffffffffffffffffffffffffffffffffff\n      and\n      dup2\n      mstore\n      0x20\n      add\n      swap1\n      dup2\n      mstore\n      0x20\n      add\n      0x00\n      keccak256\n        /* \"contracts/SafeProtocolRegistry.sol\":4688:4792  listedModules[module] = ModuleInfo(moduleInfo.listedAt, uint64(block.timestamp), moduleInfo.moduleTypes) */\n      0x00\n      dup3\n      add\n      mload\n      dup2\n      0x00\n      add\n      exp(0x0100, 0x00)\n      dup2\n      sload\n      dup2\n      0xffffffffffffffff\n      mul\n      not\n      and\n      swap1\n      dup4\n      0xffffffffffffffff\n      and\n      mul\n      or\n      swap1\n      sstore\n      pop\n      0x20\n      dup3\n      add\n      mload\n      dup2\n      0x00\n      add\n      exp(0x0100, 0x08)\n      dup2\n      sload\n      dup2\n      0xffffffffffffffff\n      mul\n      not\n      and\n      swap1\n      dup4\n      0xffffffffffffffff\n      and\n      mul\n      or\n      swap1\n      sstore\n      pop\n      0x40\n      dup3\n      add\n      mload\n      dup2\n      0x00\n      add\n      exp(0x0100, 0x10)\n      dup2\n      sload\n      dup2\n      0xff\n      mul\n      not\n      and\n      swap1\n      dup4\n      0xff\n      and\n      mul\n      or\n      swap1\n      sstore\n      pop\n      swap1\n      pop\n      pop\n        /* \"contracts/SafeProtocolRegistry.sol\":4822:4828  module */\n      dup2\n        /* \"contracts/SafeProtocolRegistry.sol\":4808:4829  ModuleFlagged(module) */\n      0xffffffffffffffffffffffffffffffffffffffff\n      and\n      0x19b35fede4ce74a5490b8148c89fd80803570d1a89cbe8fa93d8c354c926426b\n      mload(0x40)\n      mload(0x40)\n      dup1\n      swap2\n      sub\n      swap1\n      log2\n        /* \"contracts/SafeProtocolRegistry.sol\":4483:4837  {... */\n      pop\n        /* \"contracts/SafeProtocolRegistry.sol\":4428:4837  function flagModule(address module) external onlyOwner {... */\n      pop\n      jump\t// out\n        /* \"contracts/SafeProtocolRegistry.sol\":1543:2017  function check(address module, bytes32 data) external view returns (uint64 listedAt, uint64 flaggedAt) {... */\n    tag_27:\n        /* \"contracts/SafeProtocolRegistry.sol\":1611:1626  uint64 listedAt */\n      0x00\n        /* \"contracts/SafeProtocolRegistry.sol\":1628:1644  uint64 flaggedAt */\n      dup1\n        /* \"contracts/SafeProtocolRegistry.sol\":1657:1685  ModuleInfo memory moduleInfo */\n      0x00\n        /* \"contracts/SafeProtocolRegistry.sol\":1688:1701  listedModules */\n      0x02\n        /* \"contracts/SafeProtocolRegistry.sol\":1688:1709  listedModules[module] */\n      0x00\n        /* \"contracts/SafeProtocolRegistry.sol\":1702:1708  module */\n      dup7\n        /* \"contracts/SafeProtocolRegistry.sol\":1688:1709  listedModules[module] */\n      0xffffffffffffffffffffffffffffffffffffffff\n      and\n      0xffffffffffffffffffffffffffffffffffffffff\n      and\n      dup2\n      mstore\n      0x20\n      add\n      swap1\n      dup2\n      mstore\n      0x20\n      add\n      0x00\n      keccak256\n        /* \"contracts/SafeProtocolRegistry.sol\":1657:1709  ModuleInfo memory moduleInfo = listedModules[module] */\n      mload(0x40)\n      dup1\n      0x60\n      add\n      0x40\n      mstore\n      swap1\n      dup2\n      0x00\n      dup3\n      add\n      0x00\n      swap1\n      sload\n      swap1\n      0x0100\n      exp\n      swap1\n      div\n      0xffffffffffffffff\n      and\n      0xffffffffffffffff\n      and\n      0xffffffffffffffff\n      and\n      dup2\n      mstore\n      0x20\n      add\n      0x00\n      dup3\n      add\n      0x08\n      swap1\n      sload\n      swap1\n      0x0100\n      exp\n      swap1\n      div\n      0xffffffffffffffff\n      and\n      0xffffffffffffffff\n      and\n      0xffffffffffffffff\n      and\n      dup2\n      mstore\n      0x20\n      add\n      0x00\n      dup3\n      add\n      0x10\n      swap1\n      sload\n      swap1\n      0x0100\n      exp\n      swap1\n      div\n      0xff\n      and\n      0xff\n      and\n      0xff\n      and\n      dup2\n      mstore\n      pop\n      pop\n      swap1\n      pop\n        /* \"contracts/SafeProtocolRegistry.sol\":1731:1741  moduleInfo */\n      dup1\n        /* \"contracts/SafeProtocolRegistry.sol\":1731:1750  moduleInfo.listedAt */\n      0x00\n      add\n      mload\n        /* \"contracts/SafeProtocolRegistry.sol\":1720:1750  listedAt = moduleInfo.listedAt */\n      swap3\n      pop\n        /* \"contracts/SafeProtocolRegistry.sol\":1773:1783  moduleInfo */\n      dup1\n        /* \"contracts/SafeProtocolRegistry.sol\":1773:1793  moduleInfo.flaggedAt */\n      0x20\n      add\n      mload\n        /* \"contracts/SafeProtocolRegistry.sol\":1761:1793  flaggedAt = moduleInfo.flaggedAt */\n      swap2\n      pop\n        /* \"contracts/SafeProtocolRegistry.sol\":1940:1941  0 */\n      0x00\n        /* \"contracts/SafeProtocolRegistry.sol\":1930:1934  data */\n      dup5\n        /* \"contracts/SafeProtocolRegistry.sol\":1922:1935  uint256(data) */\n      0x00\n      shr\n        /* \"contracts/SafeProtocolRegistry.sol\":1891:1901  moduleInfo */\n      dup3\n        /* \"contracts/SafeProtocolRegistry.sol\":1891:1913  moduleInfo.moduleTypes */\n      0x40\n      add\n      mload\n        /* \"contracts/SafeProtocolRegistry.sol\":1891:1936  moduleInfo.moduleTypes & uint8(uint256(data)) */\n      and\n        /* \"contracts/SafeProtocolRegistry.sol\":1891:1941  moduleInfo.moduleTypes & uint8(uint256(data)) == 0 */\n      0xff\n      and\n      sub\n        /* \"contracts/SafeProtocolRegistry.sol\":1887:2010  if (moduleInfo.moduleTypes & uint8(uint256(data)) == 0) {... */\n      tag_64\n      jumpi\n        /* \"contracts/SafeProtocolRegistry.sol\":1969:1970  0 */\n      0x00\n        /* \"contracts/SafeProtocolRegistry.sol\":1958:1970  listedAt = 0 */\n      swap3\n      pop\n        /* \"contracts/SafeProtocolRegistry.sol\":1997:1998  0 */\n      0x00\n        /* \"contracts/SafeProtocolRegistry.sol\":1985:1998  flaggedAt = 0 */\n      swap2\n      pop\n        /* \"contracts/SafeProtocolRegistry.sol\":1887:2010  if (moduleInfo.moduleTypes & uint8(uint256(data)) == 0) {... */\n    tag_64:\n        /* \"contracts/SafeProtocolRegistry.sol\":1646:2017  {... */\n      pop\n        /* \"contracts/SafeProtocolRegistry.sol\":1543:2017  function check(address module, bytes32 data) external view returns (uint64 listedAt, uint64 flaggedAt) {... */\n      swap3\n      pop\n      swap3\n      swap1\n      pop\n      jump\t// out\n        /* \"contracts/SafeProtocolRegistry.sol\":637:688  mapping(address => ModuleInfo) public listedModules */\n    tag_32:\n      mstore(0x20, 0x02)\n      dup1\n      0x00\n      mstore\n      keccak256(0x00, 0x40)\n      0x00\n      swap2\n      pop\n      swap1\n      pop\n      dup1\n      0x00\n      add\n      0x00\n      swap1\n      sload\n      swap1\n      0x0100\n      exp\n      swap1\n      div\n      0xffffffffffffffff\n      and\n      swap1\n      dup1\n      0x00\n      add\n      0x08\n      swap1\n      sload\n      swap1\n      0x0100\n      exp\n      swap1\n      div\n      0xffffffffffffffff\n      and\n      swap1\n      dup1\n      0x00\n      add\n      0x10\n      swap1\n      sload\n      swap1\n      0x0100\n      exp\n      swap1\n      div\n      0xff\n      and\n      swap1\n      pop\n      dup4\n      jump\t// out\n        /* \"contracts/SafeProtocolRegistry.sol\":2396:2527  function addModule(address module, uint8 moduleTypes) external virtual onlyOwner {... */\n    tag_38:\n        /* \"@openzeppelin/contracts/access/Ownable.sol\":1094:1107  _checkOwner() */\n      tag_66\n        /* \"@openzeppelin/contracts/access/Ownable.sol\":1094:1105  _checkOwner */\n      tag_58\n        /* \"@openzeppelin/contracts/access/Ownable.sol\":1094:1107  _checkOwner() */\n      jump\t// in\n    tag_66:\n        /* \"contracts/SafeProtocolRegistry.sol\":2488:2519  _addModule(module, moduleTypes) */\n      tag_68\n        /* \"contracts/SafeProtocolRegistry.sol\":2499:2505  module */\n      dup3\n        /* \"contracts/SafeProtocolRegistry.sol\":2507:2518  moduleTypes */\n      dup3\n        /* \"contracts/SafeProtocolRegistry.sol\":2488:2498  _addModule */\n      tag_69\n        /* \"contracts/SafeProtocolRegistry.sol\":2488:2519  _addModule(module, moduleTypes) */\n      jump\t// in\n    tag_68:\n        /* \"contracts/SafeProtocolRegistry.sol\":2396:2527  function addModule(address module, uint8 moduleTypes) external virtual onlyOwner {... */\n      pop\n      pop\n      jump\t// out\n        /* \"@openzeppelin/contracts/access/Ownable.sol\":1824:1925  function renounceOwnership() public virtual onlyOwner {... */\n    tag_40:\n        /* \"@openzeppelin/contracts/access/Ownable.sol\":1094:1107  _checkOwner() */\n      tag_71\n        /* \"@openzeppelin/contracts/access/Ownable.sol\":1094:1105  _checkOwner */\n      tag_58\n        /* \"@openzeppelin/contracts/access/Ownable.sol\":1094:1107  _checkOwner() */\n      jump\t// in\n    tag_71:\n        /* \"@openzeppelin/contracts/access/Ownable.sol\":1888:1918  _transferOwnership(address(0)) */\n      tag_73\n        /* \"@openzeppelin/contracts/access/Ownable.sol\":1915:1916  0 */\n      0x00\n        /* \"@openzeppelin/contracts/access/Ownable.sol\":1888:1906  _transferOwnership */\n      tag_74\n        /* \"@openzeppelin/contracts/access/Ownable.sol\":1888:1918  _transferOwnership(address(0)) */\n      jump\t// in\n    tag_73:\n        /* \"@openzeppelin/contracts/access/Ownable.sol\":1824:1925  function renounceOwnership() public virtual onlyOwner {... */\n      jump\t// out\n        /* \"@openzeppelin/contracts/access/Ownable2Step.sol\":1734:1946  function acceptOwnership() public virtual {... */\n    tag_42:\n        /* \"@openzeppelin/contracts/access/Ownable2Step.sol\":1786:1800  address sender */\n      0x00\n        /* \"@openzeppelin/contracts/access/Ownable2Step.sol\":1803:1815  _msgSender() */\n      tag_76\n        /* \"@openzeppelin/contracts/access/Ownable2Step.sol\":1803:1813  _msgSender */\n      tag_77\n        /* \"@openzeppelin/contracts/access/Ownable2Step.sol\":1803:1815  _msgSender() */\n      jump\t// in\n    tag_76:\n        /* \"@openzeppelin/contracts/access/Ownable2Step.sol\":1786:1815  address sender = _msgSender() */\n      swap1\n      pop\n        /* \"@openzeppelin/contracts/access/Ownable2Step.sol\":1851:1857  sender */\n      dup1\n        /* \"@openzeppelin/contracts/access/Ownable2Step.sol\":1833:1857  pendingOwner() == sender */\n      0xffffffffffffffffffffffffffffffffffffffff\n      and\n        /* \"@openzeppelin/contracts/access/Ownable2Step.sol\":1833:1847  pendingOwner() */\n      tag_78\n        /* \"@openzeppelin/contracts/access/Ownable2Step.sol\":1833:1845  pendingOwner */\n      tag_48\n        /* \"@openzeppelin/contracts/access/Ownable2Step.sol\":1833:1847  pendingOwner() */\n      jump\t// in\n    tag_78:\n        /* \"@openzeppelin/contracts/access/Ownable2Step.sol\":1833:1857  pendingOwner() == sender */\n      0xffffffffffffffffffffffffffffffffffffffff\n      and\n      eq\n        /* \"@openzeppelin/contracts/access/Ownable2Step.sol\":1825:1903  require(pendingOwner() == sender, \"Ownable2Step: caller is not the new owner\") */\n      tag_79\n      jumpi\n      mload(0x40)\n      0x08c379a000000000000000000000000000000000000000000000000000000000\n      dup2\n      mstore\n      0x04\n      add\n      tag_80\n      swap1\n      tag_81\n      jump\t// in\n    tag_80:\n      mload(0x40)\n      dup1\n      swap2\n      sub\n      swap1\n      revert\n    tag_79:\n        /* \"@openzeppelin/contracts/access/Ownable2Step.sol\":1913:1939  _transferOwnership(sender) */\n      tag_82\n        /* \"@openzeppelin/contracts/access/Ownable2Step.sol\":1932:1938  sender */\n      dup2\n        /* \"@openzeppelin/contracts/access/Ownable2Step.sol\":1913:1931  _transferOwnership */\n      tag_74\n        /* \"@openzeppelin/contracts/access/Ownable2Step.sol\":1913:1939  _transferOwnership(sender) */\n      jump\t// in\n    tag_82:\n        /* \"@openzeppelin/contracts/access/Ownable2Step.sol\":1776:1946  {... */\n      pop\n        /* \"@openzeppelin/contracts/access/Ownable2Step.sol\":1734:1946  function acceptOwnership() public virtual {... */\n      jump\t// out\n        /* \"@openzeppelin/contracts/access/Ownable.sol\":1201:1286  function owner() public view virtual returns (address) {... */\n    tag_44:\n        /* \"@openzeppelin/contracts/access/Ownable.sol\":1247:1254  address */\n      0x00\n        /* \"@openzeppelin/contracts/access/Ownable.sol\":1273:1279  _owner */\n      dup1\n      0x00\n      swap1\n      sload\n      swap1\n      0x0100\n      exp\n      swap1\n      div\n      0xffffffffffffffffffffffffffffffffffffffff\n      and\n        /* \"@openzeppelin/contracts/access/Ownable.sol\":1266:1279  return _owner */\n      swap1\n      pop\n        /* \"@openzeppelin/contracts/access/Ownable.sol\":1201:1286  function owner() public view virtual returns (address) {... */\n      swap1\n      jump\t// out\n        /* \"@openzeppelin/contracts/access/Ownable2Step.sol\":847:946  function pendingOwner() public view virtual returns (address) {... */\n    tag_48:\n        /* \"@openzeppelin/contracts/access/Ownable2Step.sol\":900:907  address */\n      0x00\n        /* \"@openzeppelin/contracts/access/Ownable2Step.sol\":926:939  _pendingOwner */\n      0x01\n      0x00\n      swap1\n      sload\n      swap1\n      0x0100\n      exp\n      swap1\n      div\n      0xffffffffffffffffffffffffffffffffffffffff\n      and\n        /* \"@openzeppelin/contracts/access/Ownable2Step.sol\":919:939  return _pendingOwner */\n      swap1\n      pop\n        /* \"@openzeppelin/contracts/access/Ownable2Step.sol\":847:946  function pendingOwner() public view virtual returns (address) {... */\n      swap1\n      jump\t// out\n        /* \"@openzeppelin/contracts/access/Ownable2Step.sol\":1139:1317  function transferOwnership(address newOwner) public virtual override onlyOwner {... */\n    tag_52:\n        /* \"@openzeppelin/contracts/access/Ownable.sol\":1094:1107  _checkOwner() */\n      tag_86\n        /* \"@openzeppelin/contracts/access/Ownable.sol\":1094:1105  _checkOwner */\n      tag_58\n        /* \"@openzeppelin/contracts/access/Ownable.sol\":1094:1107  _checkOwner() */\n      jump\t// in\n    tag_86:\n        /* \"@openzeppelin/contracts/access/Ownable2Step.sol\":1244:1252  newOwner */\n      dup1\n        /* \"@openzeppelin/contracts/access/Ownable2Step.sol\":1228:1241  _pendingOwner */\n      0x01\n      0x00\n        /* \"@openzeppelin/contracts/access/Ownable2Step.sol\":1228:1252  _pendingOwner = newOwner */\n      0x0100\n      exp\n      dup2\n      sload\n      dup2\n      0xffffffffffffffffffffffffffffffffffffffff\n      mul\n      not\n      and\n      swap1\n      dup4\n      0xffffffffffffffffffffffffffffffffffffffff\n      and\n      mul\n      or\n      swap1\n      sstore\n      pop\n        /* \"@openzeppelin/contracts/access/Ownable2Step.sol\":1301:1309  newOwner */\n      dup1\n        /* \"@openzeppelin/contracts/access/Ownable2Step.sol\":1267:1310  OwnershipTransferStarted(owner(), newOwner) */\n      0xffffffffffffffffffffffffffffffffffffffff\n      and\n        /* \"@openzeppelin/contracts/access/Ownable2Step.sol\":1292:1299  owner() */\n      tag_88\n        /* \"@openzeppelin/contracts/access/Ownable2Step.sol\":1292:1297  owner */\n      tag_44\n        /* \"@openzeppelin/contracts/access/Ownable2Step.sol\":1292:1299  owner() */\n      jump\t// in\n    tag_88:\n        /* \"@openzeppelin/contracts/access/Ownable2Step.sol\":1267:1310  OwnershipTransferStarted(owner(), newOwner) */\n      0xffffffffffffffffffffffffffffffffffffffff\n      and\n      0x38d16b8cac22d99fc7c124b9cd0de2d3fa1faef420bfe791d8c362d765e22700\n      mload(0x40)\n      mload(0x40)\n      dup1\n      swap2\n      sub\n      swap1\n      log3\n        /* \"@openzeppelin/contracts/access/Ownable2Step.sol\":1139:1317  function transferOwnership(address newOwner) public virtual override onlyOwner {... */\n      pop\n      jump\t// out\n        /* \"@openzeppelin/contracts/access/Ownable.sol\":2426:2613  function _transferOwnership(address newOwner) internal virtual {... */\n    tag_53:\n        /* \"@openzeppelin/contracts/access/Ownable.sol\":2499:2515  address oldOwner */\n      0x00\n        /* \"@openzeppelin/contracts/access/Ownable.sol\":2518:2524  _owner */\n      dup1\n      0x00\n      swap1\n      sload\n      swap1\n      0x0100\n      exp\n      swap1\n      div\n      0xffffffffffffffffffffffffffffffffffffffff\n      and\n        /* \"@openzeppelin/contracts/access/Ownable.sol\":2499:2524  address oldOwner = _owner */\n      swap1\n      pop\n        /* \"@openzeppelin/contracts/access/Ownable.sol\":2543:2551  newOwner */\n      dup2\n        /* \"@openzeppelin/contracts/access/Ownable.sol\":2534:2540  _owner */\n      0x00\n      dup1\n        /* \"@openzeppelin/contracts/access/Ownable.sol\":2534:2551  _owner = newOwner */\n      0x0100\n      exp\n      dup2\n      sload\n      dup2\n      0xffffffffffffffffffffffffffffffffffffffff\n      mul\n      not\n      and\n      swap1\n      dup4\n      0xffffffffffffffffffffffffffffffffffffffff\n      and\n      mul\n      or\n      swap1\n      sstore\n      pop\n        /* \"@openzeppelin/contracts/access/Ownable.sol\":2597:2605  newOwner */\n      dup2\n        /* \"@openzeppelin/contracts/access/Ownable.sol\":2566:2606  OwnershipTransferred(oldOwner, newOwner) */\n      0xffffffffffffffffffffffffffffffffffffffff\n      and\n        /* \"@openzeppelin/contracts/access/Ownable.sol\":2587:2595  oldOwner */\n      dup2\n        /* \"@openzeppelin/contracts/access/Ownable.sol\":2566:2606  OwnershipTransferred(oldOwner, newOwner) */\n      0xffffffffffffffffffffffffffffffffffffffff\n      and\n      0x8be0079c531659141344cd1fd0a4f28419497f9722a3daafe3b4186f6b6457e0\n      mload(0x40)\n      mload(0x40)\n      dup1\n      swap2\n      sub\n      swap1\n      log3\n        /* \"@openzeppelin/contracts/access/Ownable.sol\":2489:2613  {... */\n      pop\n        /* \"@openzeppelin/contracts/access/Ownable.sol\":2426:2613  function _transferOwnership(address newOwner) internal virtual {... */\n      pop\n      jump\t// out\n        /* \"@openzeppelin/contracts/access/Ownable.sol\":1359:1489  function _checkOwner() internal view virtual {... */\n    tag_58:\n        /* \"@openzeppelin/contracts/access/Ownable.sol\":1433:1445  _msgSender() */\n      tag_91\n        /* \"@openzeppelin/contracts/access/Ownable.sol\":1433:1443  _msgSender */\n      tag_77\n        /* \"@openzeppelin/contracts/access/Ownable.sol\":1433:1445  _msgSender() */\n      jump\t// in\n    tag_91:\n        /* \"@openzeppelin/contracts/access/Ownable.sol\":1422:1445  owner() == _msgSender() */\n      0xffffffffffffffffffffffffffffffffffffffff\n      and\n        /* \"@openzeppelin/contracts/access/Ownable.sol\":1422:1429  owner() */\n      tag_92\n        /* \"@openzeppelin/contracts/access/Ownable.sol\":1422:1427  owner */\n      tag_44\n        /* \"@openzeppelin/contracts/access/Ownable.sol\":1422:1429  owner() */\n      jump\t// in\n    tag_92:\n        /* \"@openzeppelin/contracts/access/Ownable.sol\":1422:1445  owner() == _msgSender() */\n      0xffffffffffffffffffffffffffffffffffffffff\n      and\n      eq\n        /* \"@openzeppelin/contracts/access/Ownable.sol\":1414:1482  require(owner() == _msgSender(), \"Ownable: caller is not the owner\") */\n      tag_93\n      jumpi\n      mload(0x40)\n      0x08c379a000000000000000000000000000000000000000000000000000000000\n      dup2\n      mstore\n      0x04\n      add\n      tag_94\n      swap1\n      tag_95\n      jump\t// in\n    tag_94:\n      mload(0x40)\n      dup1\n      swap2\n      sub\n      swap1\n      revert\n    tag_93:\n        /* \"@openzeppelin/contracts/access/Ownable.sol\":1359:1489  function _checkOwner() internal view virtual {... */\n      jump\t// out\n        /* \"contracts/SafeProtocolRegistry.sol\":2535:4114  function _addModule(address module, uint8 moduleTypes) internal {... */\n    tag_69:\n        /* \"contracts/SafeProtocolRegistry.sol\":2610:2638  ModuleInfo memory moduleInfo */\n      0x00\n        /* \"contracts/SafeProtocolRegistry.sol\":2641:2654  listedModules */\n      0x02\n        /* \"contracts/SafeProtocolRegistry.sol\":2641:2662  listedModules[module] */\n      0x00\n        /* \"contracts/SafeProtocolRegistry.sol\":2655:2661  module */\n      dup5\n        /* \"contracts/SafeProtocolRegistry.sol\":2641:2662  listedModules[module] */\n      0xffffffffffffffffffffffffffffffffffffffff\n      and\n      0xffffffffffffffffffffffffffffffffffffffff\n      and\n      dup2\n      mstore\n      0x20\n      add\n      swap1\n      dup2\n      mstore\n      0x20\n      add\n      0x00\n      keccak256\n        /* \"contracts/SafeProtocolRegistry.sol\":2610:2662  ModuleInfo memory moduleInfo = listedModules[module] */\n      mload(0x40)\n      dup1\n      0x60\n      add\n      0x40\n      mstore\n      swap1\n      dup2\n      0x00\n      dup3\n      add\n      0x00\n      swap1\n      sload\n      swap1\n      0x0100\n      exp\n      swap1\n      div\n      0xffffffffffffffff\n      and\n      0xffffffffffffffff\n      and\n      0xffffffffffffffff\n      and\n      dup2\n      mstore\n      0x20\n      add\n      0x00\n      dup3\n      add\n      0x08\n      swap1\n      sload\n      swap1\n      0x0100\n      exp\n      swap1\n      div\n      0xffffffffffffffff\n      and\n      0xffffffffffffffff\n      and\n      0xffffffffffffffff\n      and\n      dup2\n      mstore\n      0x20\n      add\n      0x00\n      dup3\n      add\n      0x10\n      swap1\n      sload\n      swap1\n      0x0100\n      exp\n      swap1\n      div\n      0xff\n      and\n      0xff\n      and\n      0xff\n      and\n      dup2\n      mstore\n      pop\n      pop\n      swap1\n      pop\n        /* \"contracts/SafeProtocolRegistry.sol\":2897:2898  0 */\n      0x00\n        /* \"contracts/SafeProtocolRegistry.sol\":2874:2884  moduleInfo */\n      dup2\n        /* \"contracts/SafeProtocolRegistry.sol\":2874:2893  moduleInfo.listedAt */\n      0x00\n      add\n      mload\n        /* \"contracts/SafeProtocolRegistry.sol\":2874:2898  moduleInfo.listedAt != 0 */\n      0xffffffffffffffff\n      and\n      eq\n      iszero\n        /* \"contracts/SafeProtocolRegistry.sol\":2874:2917  moduleInfo.listedAt != 0 || moduleTypes > 7 */\n      dup1\n      tag_97\n      jumpi\n      pop\n        /* \"contracts/SafeProtocolRegistry.sol\":2916:2917  7 */\n      0x07\n        /* \"contracts/SafeProtocolRegistry.sol\":2902:2913  moduleTypes */\n      dup3\n        /* \"contracts/SafeProtocolRegistry.sol\":2902:2917  moduleTypes > 7 */\n      0xff\n      and\n      gt\n        /* \"contracts/SafeProtocolRegistry.sol\":2874:2917  moduleInfo.listedAt != 0 || moduleTypes > 7 */\n    tag_97:\n        /* \"contracts/SafeProtocolRegistry.sol\":2870:2989  if (moduleInfo.listedAt != 0 || moduleTypes > 7) {... */\n      iszero\n      tag_98\n      jumpi\n        /* \"contracts/SafeProtocolRegistry.sol\":2957:2963  module */\n      dup3\n        /* \"contracts/SafeProtocolRegistry.sol\":2965:2976  moduleTypes */\n      dup3\n        /* \"contracts/SafeProtocolRegistry.sol\":2941:2977  CannotAddModule(module, moduleTypes) */\n      mload(0x40)\n      0x4b2001fd00000000000000000000000000000000000000000000000000000000\n      dup2\n      mstore\n      0x04\n      add\n      tag_99\n      swap3\n      swap2\n      swap1\n      tag_100\n      jump\t// in\n    tag_99:\n      mload(0x40)\n      dup1\n      swap2\n      sub\n      swap1\n      revert\n        /* \"contracts/SafeProtocolRegistry.sol\":2870:2989  if (moduleInfo.listedAt != 0 || moduleTypes > 7) {... */\n    tag_98:\n        /* \"contracts/common/Constants.sol\":446:447  4 */\n      0x04\n        /* \"contracts/SafeProtocolRegistry.sol\":3075:3127  moduleTypes & MODULE_TYPE_HOOKS == MODULE_TYPE_HOOKS */\n      0xff\n      and\n        /* \"contracts/common/Constants.sol\":446:447  4 */\n      0x04\n        /* \"contracts/SafeProtocolRegistry.sol\":3075:3086  moduleTypes */\n      dup4\n        /* \"contracts/SafeProtocolRegistry.sol\":3075:3106  moduleTypes & MODULE_TYPE_HOOKS */\n      and\n        /* \"contracts/SafeProtocolRegistry.sol\":3075:3127  moduleTypes & MODULE_TYPE_HOOKS == MODULE_TYPE_HOOKS */\n      0xff\n      and\n      eq\n        /* \"contracts/SafeProtocolRegistry.sol\":3075:3203  moduleTypes & MODULE_TYPE_HOOKS == MODULE_TYPE_HOOKS && !IERC165(module).supportsInterface(type(ISafeProtocolHooks).interfaceId) */\n      dup1\n      iszero\n      tag_101\n      jumpi\n      pop\n        /* \"contracts/SafeProtocolRegistry.sol\":3140:3146  module */\n      dup3\n        /* \"contracts/SafeProtocolRegistry.sol\":3132:3165  IERC165(module).supportsInterface */\n      0xffffffffffffffffffffffffffffffffffffffff\n      and\n      0x01ffc9a7\n        /* \"contracts/SafeProtocolRegistry.sol\":3166:3202  type(ISafeProtocolHooks).interfaceId */\n      0x907e1c5600000000000000000000000000000000000000000000000000000000\n        /* \"contracts/SafeProtocolRegistry.sol\":3132:3203  IERC165(module).supportsInterface(type(ISafeProtocolHooks).interfaceId) */\n      mload(0x40)\n      dup3\n      0xffffffff\n      and\n      0xe0\n      shl\n      dup2\n      mstore\n      0x04\n      add\n      tag_102\n      swap2\n      swap1\n      tag_103\n      jump\t// in\n    tag_102:\n      0x20\n      mload(0x40)\n      dup1\n      dup4\n      sub\n      dup2\n      dup7\n      gas\n      staticcall\n      iszero\n      dup1\n      iszero\n      tag_105\n      jumpi\n      returndatasize\n      0x00\n      dup1\n      returndatacopy\n      revert(0x00, returndatasize)\n    tag_105:\n      pop\n      pop\n      pop\n      pop\n      mload(0x40)\n      returndatasize\n      not(0x1f)\n      0x1f\n      dup3\n      add\n      and\n      dup3\n      add\n      dup1\n      0x40\n      mstore\n      pop\n      dup2\n      add\n      swap1\n      tag_106\n      swap2\n      swap1\n      tag_107\n      jump\t// in\n    tag_106:\n        /* \"contracts/SafeProtocolRegistry.sol\":3131:3203  !IERC165(module).supportsInterface(type(ISafeProtocolHooks).interfaceId) */\n      iszero\n        /* \"contracts/SafeProtocolRegistry.sol\":3075:3203  moduleTypes & MODULE_TYPE_HOOKS == MODULE_TYPE_HOOKS && !IERC165(module).supportsInterface(type(ISafeProtocolHooks).interfaceId) */\n    tag_101:\n        /* \"contracts/SafeProtocolRegistry.sol\":3057:3334  if (... */\n      iszero\n      tag_108\n      jumpi\n        /* \"contracts/SafeProtocolRegistry.sol\":3277:3283  module */\n      dup3\n        /* \"contracts/SafeProtocolRegistry.sol\":3285:3321  type(ISafeProtocolHooks).interfaceId */\n      0x907e1c5600000000000000000000000000000000000000000000000000000000\n        /* \"contracts/SafeProtocolRegistry.sol\":3237:3322  ModuleDoesNotSupportExpectedInterfaceId(module, type(ISafeProtocolHooks).interfaceId) */\n      mload(0x40)\n      0xd8bdb00100000000000000000000000000000000000000000000000000000000\n      dup2\n      mstore\n      0x04\n      add\n      tag_109\n      swap3\n      swap2\n      swap1\n      tag_110\n      jump\t// in\n    tag_109:\n      mload(0x40)\n      dup1\n      swap2\n      sub\n      swap1\n      revert\n        /* \"contracts/SafeProtocolRegistry.sol\":3057:3334  if (... */\n    tag_108:\n        /* \"contracts/common/Constants.sol\":357:358  1 */\n      0x01\n        /* \"contracts/SafeProtocolRegistry.sol\":3364:3418  moduleTypes & MODULE_TYPE_PLUGIN == MODULE_TYPE_PLUGIN */\n      0xff\n      and\n        /* \"contracts/common/Constants.sol\":357:358  1 */\n      0x01\n        /* \"contracts/SafeProtocolRegistry.sol\":3364:3375  moduleTypes */\n      dup4\n        /* \"contracts/SafeProtocolRegistry.sol\":3364:3396  moduleTypes & MODULE_TYPE_PLUGIN */\n      and\n        /* \"contracts/SafeProtocolRegistry.sol\":3364:3418  moduleTypes & MODULE_TYPE_PLUGIN == MODULE_TYPE_PLUGIN */\n      0xff\n      and\n      eq\n        /* \"contracts/SafeProtocolRegistry.sol\":3364:3508  moduleTypes & MODULE_TYPE_PLUGIN == MODULE_TYPE_PLUGIN &&... */\n      dup1\n      iszero\n      tag_111\n      jumpi\n      pop\n        /* \"contracts/SafeProtocolRegistry.sol\":3444:3450  module */\n      dup3\n        /* \"contracts/SafeProtocolRegistry.sol\":3436:3469  IERC165(module).supportsInterface */\n      0xffffffffffffffffffffffffffffffffffffffff\n      and\n      0x01ffc9a7\n        /* \"contracts/SafeProtocolRegistry.sol\":3470:3507  type(ISafeProtocolPlugin).interfaceId */\n      0x6930ebcc00000000000000000000000000000000000000000000000000000000\n        /* \"contracts/SafeProtocolRegistry.sol\":3436:3508  IERC165(module).supportsInterface(type(ISafeProtocolPlugin).interfaceId) */\n      mload(0x40)\n      dup3\n      0xffffffff\n      and\n      0xe0\n      shl\n      dup2\n      mstore\n      0x04\n      add\n      tag_112\n      swap2\n      swap1\n      tag_103\n      jump\t// in\n    tag_112:\n      0x20\n      mload(0x40)\n      dup1\n      dup4\n      sub\n      dup2\n      dup7\n      gas\n      staticcall\n      iszero\n      dup1\n      iszero\n      tag_114\n      jumpi\n      returndatasize\n      0x00\n      dup1\n      returndatacopy\n      revert(0x00, returndatasize)\n    tag_114:\n      pop\n      pop\n      pop\n      pop\n      mload(0x40)\n      returndatasize\n      not(0x1f)\n      0x1f\n      dup3\n      add\n      and\n      dup3\n      add\n      dup1\n      0x40\n      mstore\n      pop\n      dup2\n      add\n      swap1\n      tag_115\n      swap2\n      swap1\n      tag_107\n      jump\t// in\n    tag_115:\n        /* \"contracts/SafeProtocolRegistry.sol\":3435:3508  !IERC165(module).supportsInterface(type(ISafeProtocolPlugin).interfaceId) */\n      iszero\n        /* \"contracts/SafeProtocolRegistry.sol\":3364:3508  moduleTypes & MODULE_TYPE_PLUGIN == MODULE_TYPE_PLUGIN &&... */\n    tag_111:\n        /* \"contracts/SafeProtocolRegistry.sol\":3346:3640  if (... */\n      iszero\n      tag_116\n      jumpi\n        /* \"contracts/SafeProtocolRegistry.sol\":3582:3588  module */\n      dup3\n        /* \"contracts/SafeProtocolRegistry.sol\":3590:3627  type(ISafeProtocolPlugin).interfaceId */\n      0x6930ebcc00000000000000000000000000000000000000000000000000000000\n        /* \"contracts/SafeProtocolRegistry.sol\":3542:3628  ModuleDoesNotSupportExpectedInterfaceId(module, type(ISafeProtocolPlugin).interfaceId) */\n      mload(0x40)\n      0xd8bdb00100000000000000000000000000000000000000000000000000000000\n      dup2\n      mstore\n      0x04\n      add\n      tag_117\n      swap3\n      swap2\n      swap1\n      tag_110\n      jump\t// in\n    tag_117:\n      mload(0x40)\n      dup1\n      swap2\n      sub\n      swap1\n      revert\n        /* \"contracts/SafeProtocolRegistry.sol\":3346:3640  if (... */\n    tag_116:\n        /* \"contracts/common/Constants.sol\":407:408  2 */\n      0x02\n        /* \"contracts/SafeProtocolRegistry.sol\":3670:3744  moduleTypes & MODULE_TYPE_FUNCTION_HANDLER == MODULE_TYPE_FUNCTION_HANDLER */\n      0xff\n      and\n        /* \"contracts/common/Constants.sol\":407:408  2 */\n      0x02\n        /* \"contracts/SafeProtocolRegistry.sol\":3670:3681  moduleTypes */\n      dup4\n        /* \"contracts/SafeProtocolRegistry.sol\":3670:3712  moduleTypes & MODULE_TYPE_FUNCTION_HANDLER */\n      and\n        /* \"contracts/SafeProtocolRegistry.sol\":3670:3744  moduleTypes & MODULE_TYPE_FUNCTION_HANDLER == MODULE_TYPE_FUNCTION_HANDLER */\n      0xff\n      and\n      eq\n        /* \"contracts/SafeProtocolRegistry.sol\":3670:3843  moduleTypes & MODULE_TYPE_FUNCTION_HANDLER == MODULE_TYPE_FUNCTION_HANDLER &&... */\n      dup1\n      iszero\n      tag_118\n      jumpi\n      pop\n        /* \"contracts/SafeProtocolRegistry.sol\":3770:3776  module */\n      dup3\n        /* \"contracts/SafeProtocolRegistry.sol\":3762:3795  IERC165(module).supportsInterface */\n      0xffffffffffffffffffffffffffffffffffffffff\n      and\n      0x01ffc9a7\n        /* \"contracts/SafeProtocolRegistry.sol\":3796:3842  type(ISafeProtocolFunctionHandler).interfaceId */\n      0xf601ad1500000000000000000000000000000000000000000000000000000000\n        /* \"contracts/SafeProtocolRegistry.sol\":3762:3843  IERC165(module).supportsInterface(type(ISafeProtocolFunctionHandler).interfaceId) */\n      mload(0x40)\n      dup3\n      0xffffffff\n      and\n      0xe0\n      shl\n      dup2\n      mstore\n      0x04\n      add\n      tag_119\n      swap2\n      swap1\n      tag_103\n      jump\t// in\n    tag_119:\n      0x20\n      mload(0x40)\n      dup1\n      dup4\n      sub\n      dup2\n      dup7\n      gas\n      staticcall\n      iszero\n      dup1\n      iszero\n      tag_121\n      jumpi\n      returndatasize\n      0x00\n      dup1\n      returndatacopy\n      revert(0x00, returndatasize)\n    tag_121:\n      pop\n      pop\n      pop\n      pop\n      mload(0x40)\n      returndatasize\n      not(0x1f)\n      0x1f\n      dup3\n      add\n      and\n      dup3\n      add\n      dup1\n      0x40\n      mstore\n      pop\n      dup2\n      add\n      swap1\n      tag_122\n      swap2\n      swap1\n      tag_107\n      jump\t// in\n    tag_122:\n        /* \"contracts/SafeProtocolRegistry.sol\":3761:3843  !IERC165(module).supportsInterface(type(ISafeProtocolFunctionHandler).interfaceId) */\n      iszero\n        /* \"contracts/SafeProtocolRegistry.sol\":3670:3843  moduleTypes & MODULE_TYPE_FUNCTION_HANDLER == MODULE_TYPE_FUNCTION_HANDLER &&... */\n    tag_118:\n        /* \"contracts/SafeProtocolRegistry.sol\":3652:3984  if (... */\n      iszero\n      tag_123\n      jumpi\n        /* \"contracts/SafeProtocolRegistry.sol\":3917:3923  module */\n      dup3\n        /* \"contracts/SafeProtocolRegistry.sol\":3925:3971  type(ISafeProtocolFunctionHandler).interfaceId */\n      0xf601ad1500000000000000000000000000000000000000000000000000000000\n        /* \"contracts/SafeProtocolRegistry.sol\":3877:3972  ModuleDoesNotSupportExpectedInterfaceId(module, type(ISafeProtocolFunctionHandler).interfaceId) */\n      mload(0x40)\n      0xd8bdb00100000000000000000000000000000000000000000000000000000000\n      dup2\n      mstore\n      0x04\n      add\n      tag_124\n      swap3\n      swap2\n      swap1\n      tag_110\n      jump\t// in\n    tag_124:\n      mload(0x40)\n      dup1\n      swap2\n      sub\n      swap1\n      revert\n        /* \"contracts/SafeProtocolRegistry.sol\":3652:3984  if (... */\n    tag_123:\n        /* \"contracts/SafeProtocolRegistry.sol\":4020:4071  ModuleInfo(uint64(block.timestamp), 0, moduleTypes) */\n      mload(0x40)\n      dup1\n      0x60\n      add\n      0x40\n      mstore\n      dup1\n        /* \"contracts/SafeProtocolRegistry.sol\":4038:4053  block.timestamp */\n      timestamp\n        /* \"contracts/SafeProtocolRegistry.sol\":4020:4071  ModuleInfo(uint64(block.timestamp), 0, moduleTypes) */\n      0xffffffffffffffff\n      and\n      dup2\n      mstore\n      0x20\n      add\n        /* \"contracts/SafeProtocolRegistry.sol\":4056:4057  0 */\n      0x00\n        /* \"contracts/SafeProtocolRegistry.sol\":4020:4071  ModuleInfo(uint64(block.timestamp), 0, moduleTypes) */\n      0xffffffffffffffff\n      and\n      dup2\n      mstore\n      0x20\n      add\n        /* \"contracts/SafeProtocolRegistry.sol\":4059:4070  moduleTypes */\n      dup4\n        /* \"contracts/SafeProtocolRegistry.sol\":4020:4071  ModuleInfo(uint64(block.timestamp), 0, moduleTypes) */\n      0xff\n      and\n      dup2\n      mstore\n      pop\n        /* \"contracts/SafeProtocolRegistry.sol\":3996:4009  listedModules */\n      0x02\n        /* \"contracts/SafeProtocolRegistry.sol\":3996:4017  listedModules[module] */\n      0x00\n        /* \"contracts/SafeProtocolRegistry.sol\":4010:4016  module */\n      dup6\n        /* \"contracts/SafeProtocolRegistry.sol\":3996:4017  listedModules[module] */\n      0xffffffffffffffffffffffffffffffffffffffff\n      and\n      0xffffffffffffffffffffffffffffffffffffffff\n      and\n      dup2\n      mstore\n      0x20\n      add\n      swap1\n      dup2\n      mstore\n      0x20\n      add\n      0x00\n      keccak256\n        /* \"contracts/SafeProtocolRegistry.sol\":3996:4071  listedModules[module] = ModuleInfo(uint64(block.timestamp), 0, moduleTypes) */\n      0x00\n      dup3\n      add\n      mload\n      dup2\n      0x00\n      add\n      exp(0x0100, 0x00)\n      dup2\n      sload\n      dup2\n      0xffffffffffffffff\n      mul\n      not\n      and\n      swap1\n      dup4\n      0xffffffffffffffff\n      and\n      mul\n      or\n      swap1\n      sstore\n      pop\n      0x20\n      dup3\n      add\n      mload\n      dup2\n      0x00\n      add\n      exp(0x0100, 0x08)\n      dup2\n      sload\n      dup2\n      0xffffffffffffffff\n      mul\n      not\n      and\n      swap1\n      dup4\n      0xffffffffffffffff\n      and\n      mul\n      or\n      swap1\n      sstore\n      pop\n      0x40\n      dup3\n      add\n      mload\n      dup2\n      0x00\n      add\n      exp(0x0100, 0x10)\n      dup2\n      sload\n      dup2\n      0xff\n      mul\n      not\n      and\n      swap1\n      dup4\n      0xff\n      and\n      mul\n      or\n      swap1\n      sstore\n      pop\n      swap1\n      pop\n      pop\n        /* \"contracts/SafeProtocolRegistry.sol\":4099:4105  module */\n      dup3\n        /* \"contracts/SafeProtocolRegistry.sol\":4087:4106  ModuleAdded(module) */\n      0xffffffffffffffffffffffffffffffffffffffff\n      and\n      0xead6a006345da1073a106d5f32372d2d2204f46cb0b4bca8f5ebafcbbed12b8a\n      mload(0x40)\n      mload(0x40)\n      dup1\n      swap2\n      sub\n      swap1\n      log2\n        /* \"contracts/SafeProtocolRegistry.sol\":2599:4114  {... */\n      pop\n        /* \"contracts/SafeProtocolRegistry.sol\":2535:4114  function _addModule(address module, uint8 moduleTypes) internal {... */\n      pop\n      pop\n      jump\t// out\n        /* \"@openzeppelin/contracts/access/Ownable2Step.sol\":1501:1654  function _transferOwnership(address newOwner) internal virtual override {... */\n    tag_74:\n        /* \"@openzeppelin/contracts/access/Ownable2Step.sol\":1590:1603  _pendingOwner */\n      0x01\n      0x00\n        /* \"@openzeppelin/contracts/access/Ownable2Step.sol\":1583:1603  delete _pendingOwner */\n      0x0100\n      exp\n      dup2\n      sload\n      swap1\n      0xffffffffffffffffffffffffffffffffffffffff\n      mul\n      not\n      and\n      swap1\n      sstore\n        /* \"@openzeppelin/contracts/access/Ownable2Step.sol\":1613:1647  super._transferOwnership(newOwner) */\n      tag_126\n        /* \"@openzeppelin/contracts/access/Ownable2Step.sol\":1638:1646  newOwner */\n      dup2\n        /* \"@openzeppelin/contracts/access/Ownable2Step.sol\":1613:1637  super._transferOwnership */\n      tag_53\n        /* \"@openzeppelin/contracts/access/Ownable2Step.sol\":1613:1647  super._transferOwnership(newOwner) */\n      jump\t// in\n    tag_126:\n        /* \"@openzeppelin/contracts/access/Ownable2Step.sol\":1501:1654  function _transferOwnership(address newOwner) internal virtual override {... */\n      pop\n      jump\t// out\n        /* \"@openzeppelin/contracts/utils/Context.sol\":640:736  function _msgSender() internal view virtual returns (address) {... */\n    tag_77:\n        /* \"@openzeppelin/contracts/utils/Context.sol\":693:700  address */\n      0x00\n        /* \"@openzeppelin/contracts/utils/Context.sol\":719:729  msg.sender */\n      caller\n        /* \"@openzeppelin/contracts/utils/Context.sol\":712:729  return msg.sender */\n      swap1\n      pop\n        /* \"@openzeppelin/contracts/utils/Context.sol\":640:736  function _msgSender() internal view virtual returns (address) {... */\n      swap1\n      jump\t// out\n        /* \"#utility.yul\":88:205   */\n    tag_129:\n        /* \"#utility.yul\":197:198   */\n      0x00\n        /* \"#utility.yul\":194:195   */\n      dup1\n        /* \"#utility.yul\":187:199   */\n      revert\n        /* \"#utility.yul\":334:483   */\n    tag_131:\n        /* \"#utility.yul\":370:377   */\n      0x00\n        /* \"#utility.yul\":410:476   */\n      0xffffffff00000000000000000000000000000000000000000000000000000000\n        /* \"#utility.yul\":403:408   */\n      dup3\n        /* \"#utility.yul\":399:477   */\n      and\n        /* \"#utility.yul\":388:477   */\n      swap1\n      pop\n        /* \"#utility.yul\":334:483   */\n      swap2\n      swap1\n      pop\n      jump\t// out\n        /* \"#utility.yul\":489:609   */\n    tag_132:\n        /* \"#utility.yul\":561:584   */\n      tag_164\n        /* \"#utility.yul\":578:583   */\n      dup2\n        /* \"#utility.yul\":561:584   */\n      tag_131\n      jump\t// in\n    tag_164:\n        /* \"#utility.yul\":554:559   */\n      dup2\n        /* \"#utility.yul\":551:585   */\n      eq\n        /* \"#utility.yul\":541:603   */\n      tag_165\n      jumpi\n        /* \"#utility.yul\":599:600   */\n      0x00\n        /* \"#utility.yul\":596:597   */\n      dup1\n        /* \"#utility.yul\":589:601   */\n      revert\n        /* \"#utility.yul\":541:603   */\n    tag_165:\n        /* \"#utility.yul\":489:609   */\n      pop\n      jump\t// out\n        /* \"#utility.yul\":615:752   */\n    tag_133:\n        /* \"#utility.yul\":660:665   */\n      0x00\n        /* \"#utility.yul\":698:704   */\n      dup2\n        /* \"#utility.yul\":685:705   */\n      calldataload\n        /* \"#utility.yul\":676:705   */\n      swap1\n      pop\n        /* \"#utility.yul\":714:746   */\n      tag_167\n        /* \"#utility.yul\":740:745   */\n      dup2\n        /* \"#utility.yul\":714:746   */\n      tag_132\n      jump\t// in\n    tag_167:\n        /* \"#utility.yul\":615:752   */\n      swap3\n      swap2\n      pop\n      pop\n      jump\t// out\n        /* \"#utility.yul\":758:1085   */\n    tag_16:\n        /* \"#utility.yul\":816:822   */\n      0x00\n        /* \"#utility.yul\":865:867   */\n      0x20\n        /* \"#utility.yul\":853:862   */\n      dup3\n        /* \"#utility.yul\":844:851   */\n      dup5\n        /* \"#utility.yul\":840:863   */\n      sub\n        /* \"#utility.yul\":836:868   */\n      slt\n        /* \"#utility.yul\":833:952   */\n      iszero\n      tag_169\n      jumpi\n        /* \"#utility.yul\":871:950   */\n      tag_170\n      tag_129\n      jump\t// in\n    tag_170:\n        /* \"#utility.yul\":833:952   */\n    tag_169:\n        /* \"#utility.yul\":991:992   */\n      0x00\n        /* \"#utility.yul\":1016:1068   */\n      tag_171\n        /* \"#utility.yul\":1060:1067   */\n      dup5\n        /* \"#utility.yul\":1051:1057   */\n      dup3\n        /* \"#utility.yul\":1040:1049   */\n      dup6\n        /* \"#utility.yul\":1036:1058   */\n      add\n        /* \"#utility.yul\":1016:1068   */\n      tag_133\n      jump\t// in\n    tag_171:\n        /* \"#utility.yul\":1006:1068   */\n      swap2\n      pop\n        /* \"#utility.yul\":962:1078   */\n      pop\n        /* \"#utility.yul\":758:1085   */\n      swap3\n      swap2\n      pop\n      pop\n      jump\t// out\n        /* \"#utility.yul\":1091:1181   */\n    tag_134:\n        /* \"#utility.yul\":1125:1132   */\n      0x00\n        /* \"#utility.yul\":1168:1173   */\n      dup2\n        /* \"#utility.yul\":1161:1174   */\n      iszero\n        /* \"#utility.yul\":1154:1175   */\n      iszero\n        /* \"#utility.yul\":1143:1175   */\n      swap1\n      pop\n        /* \"#utility.yul\":1091:1181   */\n      swap2\n      swap1\n      pop\n      jump\t// out\n        /* \"#utility.yul\":1187:1296   */\n    tag_135:\n        /* \"#utility.yul\":1268:1289   */\n      tag_174\n        /* \"#utility.yul\":1283:1288   */\n      dup2\n        /* \"#utility.yul\":1268:1289   */\n      tag_134\n      jump\t// in\n    tag_174:\n        /* \"#utility.yul\":1263:1266   */\n      dup3\n        /* \"#utility.yul\":1256:1290   */\n      mstore\n        /* \"#utility.yul\":1187:1296   */\n      pop\n      pop\n      jump\t// out\n        /* \"#utility.yul\":1302:1512   */\n    tag_19:\n        /* \"#utility.yul\":1389:1393   */\n      0x00\n        /* \"#utility.yul\":1427:1429   */\n      0x20\n        /* \"#utility.yul\":1416:1425   */\n      dup3\n        /* \"#utility.yul\":1412:1430   */\n      add\n        /* \"#utility.yul\":1404:1430   */\n      swap1\n      pop\n        /* \"#utility.yul\":1440:1505   */\n      tag_176\n        /* \"#utility.yul\":1502:1503   */\n      0x00\n        /* \"#utility.yul\":1491:1500   */\n      dup4\n        /* \"#utility.yul\":1487:1504   */\n      add\n        /* \"#utility.yul\":1478:1484   */\n      dup5\n        /* \"#utility.yul\":1440:1505   */\n      tag_135\n      jump\t// in\n    tag_176:\n        /* \"#utility.yul\":1302:1512   */\n      swap3\n      swap2\n      pop\n      pop\n      jump\t// out\n        /* \"#utility.yul\":1518:1644   */\n    tag_136:\n        /* \"#utility.yul\":1555:1562   */\n      0x00\n        /* \"#utility.yul\":1595:1637   */\n      0xffffffffffffffffffffffffffffffffffffffff\n        /* \"#utility.yul\":1588:1593   */\n      dup3\n        /* \"#utility.yul\":1584:1638   */\n      and\n        /* \"#utility.yul\":1573:1638   */\n      swap1\n      pop\n        /* \"#utility.yul\":1518:1644   */\n      swap2\n      swap1\n      pop\n      jump\t// out\n        /* \"#utility.yul\":1650:1746   */\n    tag_137:\n        /* \"#utility.yul\":1687:1694   */\n      0x00\n        /* \"#utility.yul\":1716:1740   */\n      tag_179\n        /* \"#utility.yul\":1734:1739   */\n      dup3\n        /* \"#utility.yul\":1716:1740   */\n      tag_136\n      jump\t// in\n    tag_179:\n        /* \"#utility.yul\":1705:1740   */\n      swap1\n      pop\n        /* \"#utility.yul\":1650:1746   */\n      swap2\n      swap1\n      pop\n      jump\t// out\n        /* \"#utility.yul\":1752:1874   */\n    tag_138:\n        /* \"#utility.yul\":1825:1849   */\n      tag_181\n        /* \"#utility.yul\":1843:1848   */\n      dup2\n        /* \"#utility.yul\":1825:1849   */\n      tag_137\n      jump\t// in\n    tag_181:\n        /* \"#utility.yul\":1818:1823   */\n      dup2\n        /* \"#utility.yul\":1815:1850   */\n      eq\n        /* \"#utility.yul\":1805:1868   */\n      tag_182\n      jumpi\n        /* \"#utility.yul\":1864:1865   */\n      0x00\n        /* \"#utility.yul\":1861:1862   */\n      dup1\n        /* \"#utility.yul\":1854:1866   */\n      revert\n        /* \"#utility.yul\":1805:1868   */\n    tag_182:\n        /* \"#utility.yul\":1752:1874   */\n      pop\n      jump\t// out\n        /* \"#utility.yul\":1880:2019   */\n    tag_139:\n        /* \"#utility.yul\":1926:1931   */\n      0x00\n        /* \"#utility.yul\":1964:1970   */\n      dup2\n        /* \"#utility.yul\":1951:1971   */\n      calldataload\n        /* \"#utility.yul\":1942:1971   */\n      swap1\n      pop\n        /* \"#utility.yul\":1980:2013   */\n      tag_184\n        /* \"#utility.yul\":2007:2012   */\n      dup2\n        /* \"#utility.yul\":1980:2013   */\n      tag_138\n      jump\t// in\n    tag_184:\n        /* \"#utility.yul\":1880:2019   */\n      swap3\n      swap2\n      pop\n      pop\n      jump\t// out\n        /* \"#utility.yul\":2025:2354   */\n    tag_22:\n        /* \"#utility.yul\":2084:2090   */\n      0x00\n        /* \"#utility.yul\":2133:2135   */\n      0x20\n        /* \"#utility.yul\":2121:2130   */\n      dup3\n        /* \"#utility.yul\":2112:2119   */\n      dup5\n        /* \"#utility.yul\":2108:2131   */\n      sub\n        /* \"#utility.yul\":2104:2136   */\n      slt\n        /* \"#utility.yul\":2101:2220   */\n      iszero\n      tag_186\n      jumpi\n        /* \"#utility.yul\":2139:2218   */\n      tag_187\n      tag_129\n      jump\t// in\n    tag_187:\n        /* \"#utility.yul\":2101:2220   */\n    tag_186:\n        /* \"#utility.yul\":2259:2260   */\n      0x00\n        /* \"#utility.yul\":2284:2337   */\n      tag_188\n        /* \"#utility.yul\":2329:2336   */\n      dup5\n        /* \"#utility.yul\":2320:2326   */\n      dup3\n        /* \"#utility.yul\":2309:2318   */\n      dup6\n        /* \"#utility.yul\":2305:2327   */\n      add\n        /* \"#utility.yul\":2284:2337   */\n      tag_139\n      jump\t// in\n    tag_188:\n        /* \"#utility.yul\":2274:2337   */\n      swap2\n      pop\n        /* \"#utility.yul\":2230:2347   */\n      pop\n        /* \"#utility.yul\":2025:2354   */\n      swap3\n      swap2\n      pop\n      pop\n      jump\t// out\n        /* \"#utility.yul\":2360:2437   */\n    tag_140:\n        /* \"#utility.yul\":2397:2404   */\n      0x00\n        /* \"#utility.yul\":2426:2431   */\n      dup2\n        /* \"#utility.yul\":2415:2431   */\n      swap1\n      pop\n        /* \"#utility.yul\":2360:2437   */\n      swap2\n      swap1\n      pop\n      jump\t// out\n        /* \"#utility.yul\":2443:2565   */\n    tag_141:\n        /* \"#utility.yul\":2516:2540   */\n      tag_191\n        /* \"#utility.yul\":2534:2539   */\n      dup2\n        /* \"#utility.yul\":2516:2540   */\n      tag_140\n      jump\t// in\n    tag_191:\n        /* \"#utility.yul\":2509:2514   */\n      dup2\n        /* \"#utility.yul\":2506:2541   */\n      eq\n        /* \"#utility.yul\":2496:2559   */\n      tag_192\n      jumpi\n        /* \"#utility.yul\":2555:2556   */\n      0x00\n        /* \"#utility.yul\":2552:2553   */\n      dup1\n        /* \"#utility.yul\":2545:2557   */\n      revert\n        /* \"#utility.yul\":2496:2559   */\n    tag_192:\n        /* \"#utility.yul\":2443:2565   */\n      pop\n      jump\t// out\n        /* \"#utility.yul\":2571:2710   */\n    tag_142:\n        /* \"#utility.yul\":2617:2622   */\n      0x00\n        /* \"#utility.yul\":2655:2661   */\n      dup2\n        /* \"#utility.yul\":2642:2662   */\n      calldataload\n        /* \"#utility.yul\":2633:2662   */\n      swap1\n      pop\n        /* \"#utility.yul\":2671:2704   */\n      tag_194\n        /* \"#utility.yul\":2698:2703   */\n      dup2\n        /* \"#utility.yul\":2671:2704   */\n      tag_141\n      jump\t// in\n    tag_194:\n        /* \"#utility.yul\":2571:2710   */\n      swap3\n      swap2\n      pop\n      pop\n      jump\t// out\n        /* \"#utility.yul\":2716:3190   */\n    tag_26:\n        /* \"#utility.yul\":2784:2790   */\n      0x00\n        /* \"#utility.yul\":2792:2798   */\n      dup1\n        /* \"#utility.yul\":2841:2843   */\n      0x40\n        /* \"#utility.yul\":2829:2838   */\n      dup4\n        /* \"#utility.yul\":2820:2827   */\n      dup6\n        /* \"#utility.yul\":2816:2839   */\n      sub\n        /* \"#utility.yul\":2812:2844   */\n      slt\n        /* \"#utility.yul\":2809:2928   */\n      iszero\n      tag_196\n      jumpi\n        /* \"#utility.yul\":2847:2926   */\n      tag_197\n      tag_129\n      jump\t// in\n    tag_197:\n        /* \"#utility.yul\":2809:2928   */\n    tag_196:\n        /* \"#utility.yul\":2967:2968   */\n      0x00\n        /* \"#utility.yul\":2992:3045   */\n      tag_198\n        /* \"#utility.yul\":3037:3044   */\n      dup6\n        /* \"#utility.yul\":3028:3034   */\n      dup3\n        /* \"#utility.yul\":3017:3026   */\n      dup7\n        /* \"#utility.yul\":3013:3035   */\n      add\n        /* \"#utility.yul\":2992:3045   */\n      tag_139\n      jump\t// in\n    tag_198:\n        /* \"#utility.yul\":2982:3045   */\n      swap3\n      pop\n        /* \"#utility.yul\":2938:3055   */\n      pop\n        /* \"#utility.yul\":3094:3096   */\n      0x20\n        /* \"#utility.yul\":3120:3173   */\n      tag_199\n        /* \"#utility.yul\":3165:3172   */\n      dup6\n        /* \"#utility.yul\":3156:3162   */\n      dup3\n        /* \"#utility.yul\":3145:3154   */\n      dup7\n        /* \"#utility.yul\":3141:3163   */\n      add\n        /* \"#utility.yul\":3120:3173   */\n      tag_142\n      jump\t// in\n    tag_199:\n        /* \"#utility.yul\":3110:3173   */\n      swap2\n      pop\n        /* \"#utility.yul\":3065:3183   */\n      pop\n        /* \"#utility.yul\":2716:3190   */\n      swap3\n      pop\n      swap3\n      swap1\n      pop\n      jump\t// out\n        /* \"#utility.yul\":3196:3297   */\n    tag_143:\n        /* \"#utility.yul\":3232:3239   */\n      0x00\n        /* \"#utility.yul\":3272:3290   */\n      0xffffffffffffffff\n        /* \"#utility.yul\":3265:3270   */\n      dup3\n        /* \"#utility.yul\":3261:3291   */\n      and\n        /* \"#utility.yul\":3250:3291   */\n      swap1\n      pop\n        /* \"#utility.yul\":3196:3297   */\n      swap2\n      swap1\n      pop\n      jump\t// out\n        /* \"#utility.yul\":3303:3418   */\n    tag_144:\n        /* \"#utility.yul\":3388:3411   */\n      tag_202\n        /* \"#utility.yul\":3405:3410   */\n      dup2\n        /* \"#utility.yul\":3388:3411   */\n      tag_143\n      jump\t// in\n    tag_202:\n        /* \"#utility.yul\":3383:3386   */\n      dup3\n        /* \"#utility.yul\":3376:3412   */\n      mstore\n        /* \"#utility.yul\":3303:3418   */\n      pop\n      pop\n      jump\t// out\n        /* \"#utility.yul\":3424:3748   */\n    tag_29:\n        /* \"#utility.yul\":3541:3545   */\n      0x00\n        /* \"#utility.yul\":3579:3581   */\n      0x40\n        /* \"#utility.yul\":3568:3577   */\n      dup3\n        /* \"#utility.yul\":3564:3582   */\n      add\n        /* \"#utility.yul\":3556:3582   */\n      swap1\n      pop\n        /* \"#utility.yul\":3592:3661   */\n      tag_204\n        /* \"#utility.yul\":3658:3659   */\n      0x00\n        /* \"#utility.yul\":3647:3656   */\n      dup4\n        /* \"#utility.yul\":3643:3660   */\n      add\n        /* \"#utility.yul\":3634:3640   */\n      dup6\n        /* \"#utility.yul\":3592:3661   */\n      tag_144\n      jump\t// in\n    tag_204:\n        /* \"#utility.yul\":3671:3741   */\n      tag_205\n        /* \"#utility.yul\":3737:3739   */\n      0x20\n        /* \"#utility.yul\":3726:3735   */\n      dup4\n        /* \"#utility.yul\":3722:3740   */\n      add\n        /* \"#utility.yul\":3713:3719   */\n      dup5\n        /* \"#utility.yul\":3671:3741   */\n      tag_144\n      jump\t// in\n    tag_205:\n        /* \"#utility.yul\":3424:3748   */\n      swap4\n      swap3\n      pop\n      pop\n      pop\n      jump\t// out\n        /* \"#utility.yul\":3754:3840   */\n    tag_145:\n        /* \"#utility.yul\":3789:3796   */\n      0x00\n        /* \"#utility.yul\":3829:3833   */\n      0xff\n        /* \"#utility.yul\":3822:3827   */\n      dup3\n        /* \"#utility.yul\":3818:3834   */\n      and\n        /* \"#utility.yul\":3807:3834   */\n      swap1\n      pop\n        /* \"#utility.yul\":3754:3840   */\n      swap2\n      swap1\n      pop\n      jump\t// out\n        /* \"#utility.yul\":3846:3958   */\n    tag_146:\n        /* \"#utility.yul\":3929:3951   */\n      tag_208\n        /* \"#utility.yul\":3945:3950   */\n      dup2\n        /* \"#utility.yul\":3929:3951   */\n      tag_145\n      jump\t// in\n    tag_208:\n        /* \"#utility.yul\":3924:3927   */\n      dup3\n        /* \"#utility.yul\":3917:3952   */\n      mstore\n        /* \"#utility.yul\":3846:3958   */\n      pop\n      pop\n      jump\t// out\n        /* \"#utility.yul\":3964:4390   */\n    tag_34:\n        /* \"#utility.yul\":4105:4109   */\n      0x00\n        /* \"#utility.yul\":4143:4145   */\n      0x60\n        /* \"#utility.yul\":4132:4141   */\n      dup3\n        /* \"#utility.yul\":4128:4146   */\n      add\n        /* \"#utility.yul\":4120:4146   */\n      swap1\n      pop\n        /* \"#utility.yul\":4156:4225   */\n      tag_210\n        /* \"#utility.yul\":4222:4223   */\n      0x00\n        /* \"#utility.yul\":4211:4220   */\n      dup4\n        /* \"#utility.yul\":4207:4224   */\n      add\n        /* \"#utility.yul\":4198:4204   */\n      dup7\n        /* \"#utility.yul\":4156:4225   */\n      tag_144\n      jump\t// in\n    tag_210:\n        /* \"#utility.yul\":4235:4305   */\n      tag_211\n        /* \"#utility.yul\":4301:4303   */\n      0x20\n        /* \"#utility.yul\":4290:4299   */\n      dup4\n        /* \"#utility.yul\":4286:4304   */\n      add\n        /* \"#utility.yul\":4277:4283   */\n      dup6\n        /* \"#utility.yul\":4235:4305   */\n      tag_144\n      jump\t// in\n    tag_211:\n        /* \"#utility.yul\":4315:4383   */\n      tag_212\n        /* \"#utility.yul\":4379:4381   */\n      0x40\n        /* \"#utility.yul\":4368:4377   */\n      dup4\n        /* \"#utility.yul\":4364:4382   */\n      add\n        /* \"#utility.yul\":4355:4361   */\n      dup5\n        /* \"#utility.yul\":4315:4383   */\n      tag_146\n      jump\t// in\n    tag_212:\n        /* \"#utility.yul\":3964:4390   */\n      swap5\n      swap4\n      pop\n      pop\n      pop\n      pop\n      jump\t// out\n        /* \"#utility.yul\":4396:4514   */\n    tag_147:\n        /* \"#utility.yul\":4467:4489   */\n      tag_214\n        /* \"#utility.yul\":4483:4488   */\n      dup2\n        /* \"#utility.yul\":4467:4489   */\n      tag_145\n      jump\t// in\n    tag_214:\n        /* \"#utility.yul\":4460:4465   */\n      dup2\n        /* \"#utility.yul\":4457:4490   */\n      eq\n        /* \"#utility.yul\":4447:4508   */\n      tag_215\n      jumpi\n        /* \"#utility.yul\":4504:4505   */\n      0x00\n        /* \"#utility.yul\":4501:4502   */\n      dup1\n        /* \"#utility.yul\":4494:4506   */\n      revert\n        /* \"#utility.yul\":4447:4508   */\n    tag_215:\n        /* \"#utility.yul\":4396:4514   */\n      pop\n      jump\t// out\n        /* \"#utility.yul\":4520:4655   */\n    tag_148:\n        /* \"#utility.yul\":4564:4569   */\n      0x00\n        /* \"#utility.yul\":4602:4608   */\n      dup2\n        /* \"#utility.yul\":4589:4609   */\n      calldataload\n        /* \"#utility.yul\":4580:4609   */\n      swap1\n      pop\n        /* \"#utility.yul\":4618:4649   */\n      tag_217\n        /* \"#utility.yul\":4643:4648   */\n      dup2\n        /* \"#utility.yul\":4618:4649   */\n      tag_147\n      jump\t// in\n    tag_217:\n        /* \"#utility.yul\":4520:4655   */\n      swap3\n      swap2\n      pop\n      pop\n      jump\t// out\n        /* \"#utility.yul\":4661:5131   */\n    tag_37:\n        /* \"#utility.yul\":4727:4733   */\n      0x00\n        /* \"#utility.yul\":4735:4741   */\n      dup1\n        /* \"#utility.yul\":4784:4786   */\n      0x40\n        /* \"#utility.yul\":4772:4781   */\n      dup4\n        /* \"#utility.yul\":4763:4770   */\n      dup6\n        /* \"#utility.yul\":4759:4782   */\n      sub\n        /* \"#utility.yul\":4755:4787   */\n      slt\n        /* \"#utility.yul\":4752:4871   */\n      iszero\n      tag_219\n      jumpi\n        /* \"#utility.yul\":4790:4869   */\n      tag_220\n      tag_129\n      jump\t// in\n    tag_220:\n        /* \"#utility.yul\":4752:4871   */\n    tag_219:\n        /* \"#utility.yul\":4910:4911   */\n      0x00\n        /* \"#utility.yul\":4935:4988   */\n      tag_221\n        /* \"#utility.yul\":4980:4987   */\n      dup6\n        /* \"#utility.yul\":4971:4977   */\n      dup3\n        /* \"#utility.yul\":4960:4969   */\n      dup7\n        /* \"#utility.yul\":4956:4978   */\n      add\n        /* \"#utility.yul\":4935:4988   */\n      tag_139\n      jump\t// in\n    tag_221:\n        /* \"#utility.yul\":4925:4988   */\n      swap3\n      pop\n        /* \"#utility.yul\":4881:4998   */\n      pop\n        /* \"#utility.yul\":5037:5039   */\n      0x20\n        /* \"#utility.yul\":5063:5114   */\n      tag_222\n        /* \"#utility.yul\":5106:5113   */\n      dup6\n        /* \"#utility.yul\":5097:5103   */\n      dup3\n        /* \"#utility.yul\":5086:5095   */\n      dup7\n        /* \"#utility.yul\":5082:5104   */\n      add\n        /* \"#utility.yul\":5063:5114   */\n      tag_148\n      jump\t// in\n    tag_222:\n        /* \"#utility.yul\":5053:5114   */\n      swap2\n      pop\n        /* \"#utility.yul\":5008:5124   */\n      pop\n        /* \"#utility.yul\":4661:5131   */\n      swap3\n      pop\n      swap3\n      swap1\n      pop\n      jump\t// out\n        /* \"#utility.yul\":5137:5255   */\n    tag_149:\n        /* \"#utility.yul\":5224:5248   */\n      tag_224\n        /* \"#utility.yul\":5242:5247   */\n      dup2\n        /* \"#utility.yul\":5224:5248   */\n      tag_137\n      jump\t// in\n    tag_224:\n        /* \"#utility.yul\":5219:5222   */\n      dup3\n        /* \"#utility.yul\":5212:5249   */\n      mstore\n        /* \"#utility.yul\":5137:5255   */\n      pop\n      pop\n      jump\t// out\n        /* \"#utility.yul\":5261:5483   */\n    tag_46:\n        /* \"#utility.yul\":5354:5358   */\n      0x00\n        /* \"#utility.yul\":5392:5394   */\n      0x20\n        /* \"#utility.yul\":5381:5390   */\n      dup3\n        /* \"#utility.yul\":5377:5395   */\n      add\n        /* \"#utility.yul\":5369:5395   */\n      swap1\n      pop\n        /* \"#utility.yul\":5405:5476   */\n      tag_226\n        /* \"#utility.yul\":5473:5474   */\n      0x00\n        /* \"#utility.yul\":5462:5471   */\n      dup4\n        /* \"#utility.yul\":5458:5475   */\n      add\n        /* \"#utility.yul\":5449:5455   */\n      dup5\n        /* \"#utility.yul\":5405:5476   */\n      tag_149\n      jump\t// in\n    tag_226:\n        /* \"#utility.yul\":5261:5483   */\n      swap3\n      swap2\n      pop\n      pop\n      jump\t// out\n        /* \"#utility.yul\":5489:5658   */\n    tag_150:\n        /* \"#utility.yul\":5573:5584   */\n      0x00\n        /* \"#utility.yul\":5607:5613   */\n      dup3\n        /* \"#utility.yul\":5602:5605   */\n      dup3\n        /* \"#utility.yul\":5595:5614   */\n      mstore\n        /* \"#utility.yul\":5647:5651   */\n      0x20\n        /* \"#utility.yul\":5642:5645   */\n      dup3\n        /* \"#utility.yul\":5638:5652   */\n      add\n        /* \"#utility.yul\":5623:5652   */\n      swap1\n      pop\n        /* \"#utility.yul\":5489:5658   */\n      swap3\n      swap2\n      pop\n      pop\n      jump\t// out\n        /* \"#utility.yul\":5664:5892   */\n    tag_151:\n        /* \"#utility.yul\":5804:5838   */\n      0x4f776e61626c6532537465703a2063616c6c6572206973206e6f742074686520\n        /* \"#utility.yul\":5800:5801   */\n      0x00\n        /* \"#utility.yul\":5792:5798   */\n      dup3\n        /* \"#utility.yul\":5788:5802   */\n      add\n        /* \"#utility.yul\":5781:5839   */\n      mstore\n        /* \"#utility.yul\":5873:5884   */\n      0x6e6577206f776e65720000000000000000000000000000000000000000000000\n        /* \"#utility.yul\":5868:5870   */\n      0x20\n        /* \"#utility.yul\":5860:5866   */\n      dup3\n        /* \"#utility.yul\":5856:5871   */\n      add\n        /* \"#utility.yul\":5849:5885   */\n      mstore\n        /* \"#utility.yul\":5664:5892   */\n      pop\n      jump\t// out\n        /* \"#utility.yul\":5898:6264   */\n    tag_152:\n        /* \"#utility.yul\":6040:6043   */\n      0x00\n        /* \"#utility.yul\":6061:6128   */\n      tag_230\n        /* \"#utility.yul\":6125:6127   */\n      0x29\n        /* \"#utility.yul\":6120:6123   */\n      dup4\n        /* \"#utility.yul\":6061:6128   */\n      tag_150\n      jump\t// in\n    tag_230:\n        /* \"#utility.yul\":6054:6128   */\n      swap2\n      pop\n        /* \"#utility.yul\":6137:6230   */\n      tag_231\n        /* \"#utility.yul\":6226:6229   */\n      dup3\n        /* \"#utility.yul\":6137:6230   */\n      tag_151\n      jump\t// in\n    tag_231:\n        /* \"#utility.yul\":6255:6257   */\n      0x40\n        /* \"#utility.yul\":6250:6253   */\n      dup3\n        /* \"#utility.yul\":6246:6258   */\n      add\n        /* \"#utility.yul\":6239:6258   */\n      swap1\n      pop\n        /* \"#utility.yul\":5898:6264   */\n      swap2\n      swap1\n      pop\n      jump\t// out\n        /* \"#utility.yul\":6270:6689   */\n    tag_81:\n        /* \"#utility.yul\":6436:6440   */\n      0x00\n        /* \"#utility.yul\":6474:6476   */\n      0x20\n        /* \"#utility.yul\":6463:6472   */\n      dup3\n        /* \"#utility.yul\":6459:6477   */\n      add\n        /* \"#utility.yul\":6451:6477   */\n      swap1\n      pop\n        /* \"#utility.yul\":6523:6532   */\n      dup2\n        /* \"#utility.yul\":6517:6521   */\n      dup2\n        /* \"#utility.yul\":6513:6533   */\n      sub\n        /* \"#utility.yul\":6509:6510   */\n      0x00\n        /* \"#utility.yul\":6498:6507   */\n      dup4\n        /* \"#utility.yul\":6494:6511   */\n      add\n        /* \"#utility.yul\":6487:6534   */\n      mstore\n        /* \"#utility.yul\":6551:6682   */\n      tag_233\n        /* \"#utility.yul\":6677:6681   */\n      dup2\n        /* \"#utility.yul\":6551:6682   */\n      tag_152\n      jump\t// in\n    tag_233:\n        /* \"#utility.yul\":6543:6682   */\n      swap1\n      pop\n        /* \"#utility.yul\":6270:6689   */\n      swap2\n      swap1\n      pop\n      jump\t// out\n        /* \"#utility.yul\":6695:6877   */\n    tag_153:\n        /* \"#utility.yul\":6835:6869   */\n      0x4f776e61626c653a2063616c6c6572206973206e6f7420746865206f776e6572\n        /* \"#utility.yul\":6831:6832   */\n      0x00\n        /* \"#utility.yul\":6823:6829   */\n      dup3\n        /* \"#utility.yul\":6819:6833   */\n      add\n        /* \"#utility.yul\":6812:6870   */\n      mstore\n        /* \"#utility.yul\":6695:6877   */\n      pop\n      jump\t// out\n        /* \"#utility.yul\":6883:7249   */\n    tag_154:\n        /* \"#utility.yul\":7025:7028   */\n      0x00\n        /* \"#utility.yul\":7046:7113   */\n      tag_236\n        /* \"#utility.yul\":7110:7112   */\n      0x20\n        /* \"#utility.yul\":7105:7108   */\n      dup4\n        /* \"#utility.yul\":7046:7113   */\n      tag_150\n      jump\t// in\n    tag_236:\n        /* \"#utility.yul\":7039:7113   */\n      swap2\n      pop\n        /* \"#utility.yul\":7122:7215   */\n      tag_237\n        /* \"#utility.yul\":7211:7214   */\n      dup3\n        /* \"#utility.yul\":7122:7215   */\n      tag_153\n      jump\t// in\n    tag_237:\n        /* \"#utility.yul\":7240:7242   */\n      0x20\n        /* \"#utility.yul\":7235:7238   */\n      dup3\n        /* \"#utility.yul\":7231:7243   */\n      add\n        /* \"#utility.yul\":7224:7243   */\n      swap1\n      pop\n        /* \"#utility.yul\":6883:7249   */\n      swap2\n      swap1\n      pop\n      jump\t// out\n        /* \"#utility.yul\":7255:7674   */\n    tag_95:\n        /* \"#utility.yul\":7421:7425   */\n      0x00\n        /* \"#utility.yul\":7459:7461   */\n      0x20\n        /* \"#utility.yul\":7448:7457   */\n      dup3\n        /* \"#utility.yul\":7444:7462   */\n      add\n        /* \"#utility.yul\":7436:7462   */\n      swap1\n      pop\n        /* \"#utility.yul\":7508:7517   */\n      dup2\n        /* \"#utility.yul\":7502:7506   */\n      dup2\n        /* \"#utility.yul\":7498:7518   */\n      sub\n        /* \"#utility.yul\":7494:7495   */\n      0x00\n        /* \"#utility.yul\":7483:7492   */\n      dup4\n        /* \"#utility.yul\":7479:7496   */\n      add\n        /* \"#utility.yul\":7472:7519   */\n      mstore\n        /* \"#utility.yul\":7536:7667   */\n      tag_239\n        /* \"#utility.yul\":7662:7666   */\n      dup2\n        /* \"#utility.yul\":7536:7667   */\n      tag_154\n      jump\t// in\n    tag_239:\n        /* \"#utility.yul\":7528:7667   */\n      swap1\n      pop\n        /* \"#utility.yul\":7255:7674   */\n      swap2\n      swap1\n      pop\n      jump\t// out\n        /* \"#utility.yul\":7680:8004   */\n    tag_100:\n        /* \"#utility.yul\":7797:7801   */\n      0x00\n        /* \"#utility.yul\":7835:7837   */\n      0x40\n        /* \"#utility.yul\":7824:7833   */\n      dup3\n        /* \"#utility.yul\":7820:7838   */\n      add\n        /* \"#utility.yul\":7812:7838   */\n      swap1\n      pop\n        /* \"#utility.yul\":7848:7919   */\n      tag_241\n        /* \"#utility.yul\":7916:7917   */\n      0x00\n        /* \"#utility.yul\":7905:7914   */\n      dup4\n        /* \"#utility.yul\":7901:7918   */\n      add\n        /* \"#utility.yul\":7892:7898   */\n      dup6\n        /* \"#utility.yul\":7848:7919   */\n      tag_149\n      jump\t// in\n    tag_241:\n        /* \"#utility.yul\":7929:7997   */\n      tag_242\n        /* \"#utility.yul\":7993:7995   */\n      0x20\n        /* \"#utility.yul\":7982:7991   */\n      dup4\n        /* \"#utility.yul\":7978:7996   */\n      add\n        /* \"#utility.yul\":7969:7975   */\n      dup5\n        /* \"#utility.yul\":7929:7997   */\n      tag_146\n      jump\t// in\n    tag_242:\n        /* \"#utility.yul\":7680:8004   */\n      swap4\n      swap3\n      pop\n      pop\n      pop\n      jump\t// out\n        /* \"#utility.yul\":8010:8125   */\n    tag_155:\n        /* \"#utility.yul\":8095:8118   */\n      tag_244\n        /* \"#utility.yul\":8112:8117   */\n      dup2\n        /* \"#utility.yul\":8095:8118   */\n      tag_131\n      jump\t// in\n    tag_244:\n        /* \"#utility.yul\":8090:8093   */\n      dup3\n        /* \"#utility.yul\":8083:8119   */\n      mstore\n        /* \"#utility.yul\":8010:8125   */\n      pop\n      pop\n      jump\t// out\n        /* \"#utility.yul\":8131:8349   */\n    tag_103:\n        /* \"#utility.yul\":8222:8226   */\n      0x00\n        /* \"#utility.yul\":8260:8262   */\n      0x20\n        /* \"#utility.yul\":8249:8258   */\n      dup3\n        /* \"#utility.yul\":8245:8263   */\n      add\n        /* \"#utility.yul\":8237:8263   */\n      swap1\n      pop\n        /* \"#utility.yul\":8273:8342   */\n      tag_246\n        /* \"#utility.yul\":8339:8340   */\n      0x00\n        /* \"#utility.yul\":8328:8337   */\n      dup4\n        /* \"#utility.yul\":8324:8341   */\n      add\n        /* \"#utility.yul\":8315:8321   */\n      dup5\n        /* \"#utility.yul\":8273:8342   */\n      tag_155\n      jump\t// in\n    tag_246:\n        /* \"#utility.yul\":8131:8349   */\n      swap3\n      swap2\n      pop\n      pop\n      jump\t// out\n        /* \"#utility.yul\":8355:8471   */\n    tag_156:\n        /* \"#utility.yul\":8425:8446   */\n      tag_248\n        /* \"#utility.yul\":8440:8445   */\n      dup2\n        /* \"#utility.yul\":8425:8446   */\n      tag_134\n      jump\t// in\n    tag_248:\n        /* \"#utility.yul\":8418:8423   */\n      dup2\n        /* \"#utility.yul\":8415:8447   */\n      eq\n        /* \"#utility.yul\":8405:8465   */\n      tag_249\n      jumpi\n        /* \"#utility.yul\":8461:8462   */\n      0x00\n        /* \"#utility.yul\":8458:8459   */\n      dup1\n        /* \"#utility.yul\":8451:8463   */\n      revert\n        /* \"#utility.yul\":8405:8465   */\n    tag_249:\n        /* \"#utility.yul\":8355:8471   */\n      pop\n      jump\t// out\n        /* \"#utility.yul\":8477:8614   */\n    tag_157:\n        /* \"#utility.yul\":8531:8536   */\n      0x00\n        /* \"#utility.yul\":8562:8568   */\n      dup2\n        /* \"#utility.yul\":8556:8569   */\n      mload\n        /* \"#utility.yul\":8547:8569   */\n      swap1\n      pop\n        /* \"#utility.yul\":8578:8608   */\n      tag_251\n        /* \"#utility.yul\":8602:8607   */\n      dup2\n        /* \"#utility.yul\":8578:8608   */\n      tag_156\n      jump\t// in\n    tag_251:\n        /* \"#utility.yul\":8477:8614   */\n      swap3\n      swap2\n      pop\n      pop\n      jump\t// out\n        /* \"#utility.yul\":8620:8965   */\n    tag_107:\n        /* \"#utility.yul\":8687:8693   */\n      0x00\n        /* \"#utility.yul\":8736:8738   */\n      0x20\n        /* \"#utility.yul\":8724:8733   */\n      dup3\n        /* \"#utility.yul\":8715:8722   */\n      dup5\n        /* \"#utility.yul\":8711:8734   */\n      sub\n        /* \"#utility.yul\":8707:8739   */\n      slt\n        /* \"#utility.yul\":8704:8823   */\n      iszero\n      tag_253\n      jumpi\n        /* \"#utility.yul\":8742:8821   */\n      tag_254\n      tag_129\n      jump\t// in\n    tag_254:\n        /* \"#utility.yul\":8704:8823   */\n    tag_253:\n        /* \"#utility.yul\":8862:8863   */\n      0x00\n        /* \"#utility.yul\":8887:8948   */\n      tag_255\n        /* \"#utility.yul\":8940:8947   */\n      dup5\n        /* \"#utility.yul\":8931:8937   */\n      dup3\n        /* \"#utility.yul\":8920:8929   */\n      dup6\n        /* \"#utility.yul\":8916:8938   */\n      add\n        /* \"#utility.yul\":8887:8948   */\n      tag_157\n      jump\t// in\n    tag_255:\n        /* \"#utility.yul\":8877:8948   */\n      swap2\n      pop\n        /* \"#utility.yul\":8833:8958   */\n      pop\n        /* \"#utility.yul\":8620:8965   */\n      swap3\n      swap2\n      pop\n      pop\n      jump\t// out\n        /* \"#utility.yul\":8971:9299   */\n    tag_110:\n        /* \"#utility.yul\":9090:9094   */\n      0x00\n        /* \"#utility.yul\":9128:9130   */\n      0x40\n        /* \"#utility.yul\":9117:9126   */\n      dup3\n        /* \"#utility.yul\":9113:9131   */\n      add\n        /* \"#utility.yul\":9105:9131   */\n      swap1\n      pop\n        /* \"#utility.yul\":9141:9212   */\n      tag_257\n        /* \"#utility.yul\":9209:9210   */\n      0x00\n        /* \"#utility.yul\":9198:9207   */\n      dup4\n        /* \"#utility.yul\":9194:9211   */\n      add\n        /* \"#utility.yul\":9185:9191   */\n      dup6\n        /* \"#utility.yul\":9141:9212   */\n      tag_149\n      jump\t// in\n    tag_257:\n        /* \"#utility.yul\":9222:9292   */\n      tag_258\n        /* \"#utility.yul\":9288:9290   */\n      0x20\n        /* \"#utility.yul\":9277:9286   */\n      dup4\n        /* \"#utility.yul\":9273:9291   */\n      add\n        /* \"#utility.yul\":9264:9270   */\n      dup5\n        /* \"#utility.yul\":9222:9292   */\n      tag_155\n      jump\t// in\n    tag_258:\n        /* \"#utility.yul\":8971:9299   */\n      swap4\n      swap3\n      pop\n      pop\n      pop\n      jump\t// out\n\n    auxdata: 0xa264697066735822122003a174a7c99968eb72558b58ff2f4fbc38df2b7984d97a9331e4d9a70486225664736f6c63430008120033\n}\n",
				"bytecode": {
					"linkReferences": {},
					"object": "60806040523480156200001157600080fd5b50604051620016aa380380620016aa8339818101604052810190620000379190620001e3565b620000576200004b6200006f60201b60201c565b6200007760201b60201c565b62000068816200007760201b60201c565b5062000215565b600033905090565b600160006101000a81549073ffffffffffffffffffffffffffffffffffffffff0219169055620000b281620000b560201b6200084e1760201c565b50565b60008060009054906101000a900473ffffffffffffffffffffffffffffffffffffffff169050816000806101000a81548173ffffffffffffffffffffffffffffffffffffffff021916908373ffffffffffffffffffffffffffffffffffffffff1602179055508173ffffffffffffffffffffffffffffffffffffffff168173ffffffffffffffffffffffffffffffffffffffff167f8be0079c531659141344cd1fd0a4f28419497f9722a3daafe3b4186f6b6457e060405160405180910390a35050565b600080fd5b600073ffffffffffffffffffffffffffffffffffffffff82169050919050565b6000620001ab826200017e565b9050919050565b620001bd816200019e565b8114620001c957600080fd5b50565b600081519050620001dd81620001b2565b92915050565b600060208284031215620001fc57620001fb62000179565b5b60006200020c84828501620001cc565b91505092915050565b61148580620002256000396000f3fe608060405234801561001057600080fd5b506004361061009e5760003560e01c8063715018a611610066578063715018a61461016e57806379ba5097146101785780638da5cb5b14610182578063e30c3978146101a0578063f2fde38b146101be5761009e565b806301ffc9a7146100a357806308252d21146100d3578063253bd7b7146100ef57806332b3d20e1461012057806340f182c514610152575b600080fd5b6100bd60048036038101906100b89190610fd2565b6101da565b6040516100ca919061101a565b60405180910390f35b6100ed60048036038101906100e89190611093565b6102ac565b005b610109600480360381019061010491906110f6565b610533565b604051610117929190611159565b60405180910390f35b61013a60048036038101906101359190611093565b610638565b6040516101499392919061119e565b60405180910390f35b61016c60048036038101906101679190611201565b610697565b005b6101766106ad565b005b6101806106c1565b005b61018a61074e565b6040516101979190611250565b60405180910390f35b6101a8610777565b6040516101b59190611250565b60405180910390f35b6101d860048036038101906101d39190611093565b6107a1565b005b60007f253bd7b7000000000000000000000000000000000000000000000000000000007bffffffffffffffffffffffffffffffffffffffffffffffffffffffff1916827bffffffffffffffffffffffffffffffffffffffffffffffffffffffff191614806102a557507f01ffc9a7000000000000000000000000000000000000000000000000000000007bffffffffffffffffffffffffffffffffffffffffffffffffffffffff1916827bffffffffffffffffffffffffffffffffffffffffffffffffffffffff1916145b9050919050565b6102b4610912565b6000600260008373ffffffffffffffffffffffffffffffffffffffff1673ffffffffffffffffffffffffffffffffffffffff1681526020019081526020016000206040518060600160405290816000820160009054906101000a900467ffffffffffffffff1667ffffffffffffffff1667ffffffffffffffff1681526020016000820160089054906101000a900467ffffffffffffffff1667ffffffffffffffff1667ffffffffffffffff1681526020016000820160109054906101000a900460ff1660ff1660ff168152505090506000816000015167ffffffffffffffff1614806103af57506000816020015167ffffffffffffffff1614155b156103f157816040517f71165a1f0000000000000000000000000000000000000000000000000000000081526004016103e89190611250565b60405180910390fd5b6040518060600160405280826000015167ffffffffffffffff1681526020014267ffffffffffffffff168152602001826040015160ff16815250600260008473ffffffffffffffffffffffffffffffffffffffff1673ffffffffffffffffffffffffffffffffffffffff16815260200190815260200160002060008201518160000160006101000a81548167ffffffffffffffff021916908367ffffffffffffffff16021790555060208201518160000160086101000a81548167ffffffffffffffff021916908367ffffffffffffffff16021790555060408201518160000160106101000a81548160ff021916908360ff1602179055509050508173ffffffffffffffffffffffffffffffffffffffff167f19b35fede4ce74a5490b8148c89fd80803570d1a89cbe8fa93d8c354c926426b60405160405180910390a25050565b6000806000600260008673ffffffffffffffffffffffffffffffffffffffff1673ffffffffffffffffffffffffffffffffffffffff1681526020019081526020016000206040518060600160405290816000820160009054906101000a900467ffffffffffffffff1667ffffffffffffffff1667ffffffffffffffff1681526020016000820160089054906101000a900467ffffffffffffffff1667ffffffffffffffff1667ffffffffffffffff1681526020016000820160109054906101000a900460ff1660ff1660ff16815250509050806000015192508060200151915060008460001c82604001511660ff16036106305760009250600091505b509250929050565b60026020528060005260406000206000915090508060000160009054906101000a900467ffffffffffffffff16908060000160089054906101000a900467ffffffffffffffff16908060000160109054906101000a900460ff16905083565b61069f610912565b6106a98282610990565b5050565b6106b5610912565b6106bf6000610f3c565b565b60006106cb610f6d565b90508073ffffffffffffffffffffffffffffffffffffffff166106ec610777565b73ffffffffffffffffffffffffffffffffffffffff1614610742576040517f08c379a0000000000000000000000000000000000000000000000000000000008152600401610739906112ee565b60405180910390fd5b61074b81610f3c565b50565b60008060009054906101000a900473ffffffffffffffffffffffffffffffffffffffff16905090565b6000600160009054906101000a900473ffffffffffffffffffffffffffffffffffffffff16905090565b6107a9610912565b80600160006101000a81548173ffffffffffffffffffffffffffffffffffffffff021916908373ffffffffffffffffffffffffffffffffffffffff1602179055508073ffffffffffffffffffffffffffffffffffffffff1661080961074e565b73ffffffffffffffffffffffffffffffffffffffff167f38d16b8cac22d99fc7c124b9cd0de2d3fa1faef420bfe791d8c362d765e2270060405160405180910390a350565b60008060009054906101000a900473ffffffffffffffffffffffffffffffffffffffff169050816000806101000a81548173ffffffffffffffffffffffffffffffffffffffff021916908373ffffffffffffffffffffffffffffffffffffffff1602179055508173ffffffffffffffffffffffffffffffffffffffff168173ffffffffffffffffffffffffffffffffffffffff167f8be0079c531659141344cd1fd0a4f28419497f9722a3daafe3b4186f6b6457e060405160405180910390a35050565b61091a610f6d565b73ffffffffffffffffffffffffffffffffffffffff1661093861074e565b73ffffffffffffffffffffffffffffffffffffffff161461098e576040517f08c379a00000000000000000000000000000000000000000000000000000000081526004016109859061135a565b60405180910390fd5b565b6000600260008473ffffffffffffffffffffffffffffffffffffffff1673ffffffffffffffffffffffffffffffffffffffff1681526020019081526020016000206040518060600160405290816000820160009054906101000a900467ffffffffffffffff1667ffffffffffffffff1667ffffffffffffffff1681526020016000820160089054906101000a900467ffffffffffffffff1667ffffffffffffffff1667ffffffffffffffff1681526020016000820160109054906101000a900460ff1660ff1660ff168152505090506000816000015167ffffffffffffffff16141580610a80575060078260ff16115b15610ac45782826040517f4b2001fd000000000000000000000000000000000000000000000000000000008152600401610abb92919061137a565b60405180910390fd5b600460ff166004831660ff16148015610b7457508273ffffffffffffffffffffffffffffffffffffffff166301ffc9a77f907e1c56000000000000000000000000000000000000000000000000000000006040518263ffffffff1660e01b8152600401610b3191906113b2565b602060405180830381865afa158015610b4e573d6000803e3d6000fd5b505050506040513d601f19601f82011682018060405250810190610b7291906113f9565b155b15610bd857827f907e1c56000000000000000000000000000000000000000000000000000000006040517fd8bdb001000000000000000000000000000000000000000000000000000000008152600401610bcf929190611426565b60405180910390fd5b600160ff166001831660ff16148015610c8857508273ffffffffffffffffffffffffffffffffffffffff166301ffc9a77f6930ebcc000000000000000000000000000000000000000000000000000000006040518263ffffffff1660e01b8152600401610c4591906113b2565b602060405180830381865afa158015610c62573d6000803e3d6000fd5b505050506040513d601f19601f82011682018060405250810190610c8691906113f9565b155b15610cec57827f6930ebcc000000000000000000000000000000000000000000000000000000006040517fd8bdb001000000000000000000000000000000000000000000000000000000008152600401610ce3929190611426565b60405180910390fd5b600260ff166002831660ff16148015610d9c57508273ffffffffffffffffffffffffffffffffffffffff166301ffc9a77ff601ad15000000000000000000000000000000000000000000000000000000006040518263ffffffff1660e01b8152600401610d5991906113b2565b602060405180830381865afa158015610d76573d6000803e3d6000fd5b505050506040513d601f19601f82011682018060405250810190610d9a91906113f9565b155b15610e0057827ff601ad15000000000000000000000000000000000000000000000000000000006040517fd8bdb001000000000000000000000000000000000000000000000000000000008152600401610df7929190611426565b60405180910390fd5b60405180606001604052804267ffffffffffffffff168152602001600067ffffffffffffffff1681526020018360ff16815250600260008573ffffffffffffffffffffffffffffffffffffffff1673ffffffffffffffffffffffffffffffffffffffff16815260200190815260200160002060008201518160000160006101000a81548167ffffffffffffffff021916908367ffffffffffffffff16021790555060208201518160000160086101000a81548167ffffffffffffffff021916908367ffffffffffffffff16021790555060408201518160000160106101000a81548160ff021916908360ff1602179055509050508273ffffffffffffffffffffffffffffffffffffffff167fead6a006345da1073a106d5f32372d2d2204f46cb0b4bca8f5ebafcbbed12b8a60405160405180910390a2505050565b600160006101000a81549073ffffffffffffffffffffffffffffffffffffffff0219169055610f6a8161084e565b50565b600033905090565b600080fd5b60007fffffffff0000000000000000000000000000000000000000000000000000000082169050919050565b610faf81610f7a565b8114610fba57600080fd5b50565b600081359050610fcc81610fa6565b92915050565b600060208284031215610fe857610fe7610f75565b5b6000610ff684828501610fbd565b91505092915050565b60008115159050919050565b61101481610fff565b82525050565b600060208201905061102f600083018461100b565b92915050565b600073ffffffffffffffffffffffffffffffffffffffff82169050919050565b600061106082611035565b9050919050565b61107081611055565b811461107b57600080fd5b50565b60008135905061108d81611067565b92915050565b6000602082840312156110a9576110a8610f75565b5b60006110b78482850161107e565b91505092915050565b6000819050919050565b6110d3816110c0565b81146110de57600080fd5b50565b6000813590506110f0816110ca565b92915050565b6000806040838503121561110d5761110c610f75565b5b600061111b8582860161107e565b925050602061112c858286016110e1565b9150509250929050565b600067ffffffffffffffff82169050919050565b61115381611136565b82525050565b600060408201905061116e600083018561114a565b61117b602083018461114a565b9392505050565b600060ff82169050919050565b61119881611182565b82525050565b60006060820190506111b3600083018661114a565b6111c0602083018561114a565b6111cd604083018461118f565b949350505050565b6111de81611182565b81146111e957600080fd5b50565b6000813590506111fb816111d5565b92915050565b6000806040838503121561121857611217610f75565b5b60006112268582860161107e565b9250506020611237858286016111ec565b9150509250929050565b61124a81611055565b82525050565b60006020820190506112656000830184611241565b92915050565b600082825260208201905092915050565b7f4f776e61626c6532537465703a2063616c6c6572206973206e6f74207468652060008201527f6e6577206f776e65720000000000000000000000000000000000000000000000602082015250565b60006112d860298361126b565b91506112e38261127c565b604082019050919050565b60006020820190508181036000830152611307816112cb565b9050919050565b7f4f776e61626c653a2063616c6c6572206973206e6f7420746865206f776e6572600082015250565b600061134460208361126b565b915061134f8261130e565b602082019050919050565b6000602082019050818103600083015261137381611337565b9050919050565b600060408201905061138f6000830185611241565b61139c602083018461118f565b9392505050565b6113ac81610f7a565b82525050565b60006020820190506113c760008301846113a3565b92915050565b6113d681610fff565b81146113e157600080fd5b50565b6000815190506113f3816113cd565b92915050565b60006020828403121561140f5761140e610f75565b5b600061141d848285016113e4565b91505092915050565b600060408201905061143b6000830185611241565b61144860208301846113a3565b939250505056fea264697066735822122003a174a7c99968eb72558b58ff2f4fbc38df2b7984d97a9331e4d9a70486225664736f6c63430008120033",
					"opcodes": "PUSH1 0x80 PUSH1 0x40 MSTORE CALLVALUE DUP1 ISZERO PUSH3 0x11 JUMPI PUSH1 0x0 DUP1 REVERT JUMPDEST POP PUSH1 0x40 MLOAD PUSH3 0x16AA CODESIZE SUB DUP1 PUSH3 0x16AA DUP4 CODECOPY DUP2 DUP2 ADD PUSH1 0x40 MSTORE DUP2 ADD SWAP1 PUSH3 0x37 SWAP2 SWAP1 PUSH3 0x1E3 JUMP JUMPDEST PUSH3 0x57 PUSH3 0x4B PUSH3 0x6F PUSH1 0x20 SHL PUSH1 0x20 SHR JUMP JUMPDEST PUSH3 0x77 PUSH1 0x20 SHL PUSH1 0x20 SHR JUMP JUMPDEST PUSH3 0x68 DUP2 PUSH3 0x77 PUSH1 0x20 SHL PUSH1 0x20 SHR JUMP JUMPDEST POP PUSH3 0x215 JUMP JUMPDEST PUSH1 0x0 CALLER SWAP1 POP SWAP1 JUMP JUMPDEST PUSH1 0x1 PUSH1 0x0 PUSH2 0x100 EXP DUP2 SLOAD SWAP1 PUSH20 0xFFFFFFFFFFFFFFFFFFFFFFFFFFFFFFFFFFFFFFFF MUL NOT AND SWAP1 SSTORE PUSH3 0xB2 DUP2 PUSH3 0xB5 PUSH1 0x20 SHL PUSH3 0x84E OR PUSH1 0x20 SHR JUMP JUMPDEST POP JUMP JUMPDEST PUSH1 0x0 DUP1 PUSH1 0x0 SWAP1 SLOAD SWAP1 PUSH2 0x100 EXP SWAP1 DIV PUSH20 0xFFFFFFFFFFFFFFFFFFFFFFFFFFFFFFFFFFFFFFFF AND SWAP1 POP DUP2 PUSH1 0x0 DUP1 PUSH2 0x100 EXP DUP2 SLOAD DUP2 PUSH20 0xFFFFFFFFFFFFFFFFFFFFFFFFFFFFFFFFFFFFFFFF MUL NOT AND SWAP1 DUP4 PUSH20 0xFFFFFFFFFFFFFFFFFFFFFFFFFFFFFFFFFFFFFFFF AND MUL OR SWAP1 SSTORE POP DUP2 PUSH20 0xFFFFFFFFFFFFFFFFFFFFFFFFFFFFFFFFFFFFFFFF AND DUP2 PUSH20 0xFFFFFFFFFFFFFFFFFFFFFFFFFFFFFFFFFFFFFFFF AND PUSH32 0x8BE0079C531659141344CD1FD0A4F28419497F9722A3DAAFE3B4186F6B6457E0 PUSH1 0x40 MLOAD PUSH1 0x40 MLOAD DUP1 SWAP2 SUB SWAP1 LOG3 POP POP JUMP JUMPDEST PUSH1 0x0 DUP1 REVERT JUMPDEST PUSH1 0x0 PUSH20 0xFFFFFFFFFFFFFFFFFFFFFFFFFFFFFFFFFFFFFFFF DUP3 AND SWAP1 POP SWAP2 SWAP1 POP JUMP JUMPDEST PUSH1 0x0 PUSH3 0x1AB DUP3 PUSH3 0x17E JUMP JUMPDEST SWAP1 POP SWAP2 SWAP1 POP JUMP JUMPDEST PUSH3 0x1BD DUP2 PUSH3 0x19E JUMP JUMPDEST DUP2 EQ PUSH3 0x1C9 JUMPI PUSH1 0x0 DUP1 REVERT JUMPDEST POP JUMP JUMPDEST PUSH1 0x0 DUP2 MLOAD SWAP1 POP PUSH3 0x1DD DUP2 PUSH3 0x1B2 JUMP JUMPDEST SWAP3 SWAP2 POP POP JUMP JUMPDEST PUSH1 0x0 PUSH1 0x20 DUP3 DUP5 SUB SLT ISZERO PUSH3 0x1FC JUMPI PUSH3 0x1FB PUSH3 0x179 JUMP JUMPDEST JUMPDEST PUSH1 0x0 PUSH3 0x20C DUP5 DUP3 DUP6 ADD PUSH3 0x1CC JUMP JUMPDEST SWAP2 POP POP SWAP3 SWAP2 POP POP JUMP JUMPDEST PUSH2 0x1485 DUP1 PUSH3 0x225 PUSH1 0x0 CODECOPY PUSH1 0x0 RETURN INVALID PUSH1 0x80 PUSH1 0x40 MSTORE CALLVALUE DUP1 ISZERO PUSH2 0x10 JUMPI PUSH1 0x0 DUP1 REVERT JUMPDEST POP PUSH1 0x4 CALLDATASIZE LT PUSH2 0x9E JUMPI PUSH1 0x0 CALLDATALOAD PUSH1 0xE0 SHR DUP1 PUSH4 0x715018A6 GT PUSH2 0x66 JUMPI DUP1 PUSH4 0x715018A6 EQ PUSH2 0x16E JUMPI DUP1 PUSH4 0x79BA5097 EQ PUSH2 0x178 JUMPI DUP1 PUSH4 0x8DA5CB5B EQ PUSH2 0x182 JUMPI DUP1 PUSH4 0xE30C3978 EQ PUSH2 0x1A0 JUMPI DUP1 PUSH4 0xF2FDE38B EQ PUSH2 0x1BE JUMPI PUSH2 0x9E JUMP JUMPDEST DUP1 PUSH4 0x1FFC9A7 EQ PUSH2 0xA3 JUMPI DUP1 PUSH4 0x8252D21 EQ PUSH2 0xD3 JUMPI DUP1 PUSH4 0x253BD7B7 EQ PUSH2 0xEF JUMPI DUP1 PUSH4 0x32B3D20E EQ PUSH2 0x120 JUMPI DUP1 PUSH4 0x40F182C5 EQ PUSH2 0x152 JUMPI JUMPDEST PUSH1 0x0 DUP1 REVERT JUMPDEST PUSH2 0xBD PUSH1 0x4 DUP1 CALLDATASIZE SUB DUP2 ADD SWAP1 PUSH2 0xB8 SWAP2 SWAP1 PUSH2 0xFD2 JUMP JUMPDEST PUSH2 0x1DA JUMP JUMPDEST PUSH1 0x40 MLOAD PUSH2 0xCA SWAP2 SWAP1 PUSH2 0x101A JUMP JUMPDEST PUSH1 0x40 MLOAD DUP1 SWAP2 SUB SWAP1 RETURN JUMPDEST PUSH2 0xED PUSH1 0x4 DUP1 CALLDATASIZE SUB DUP2 ADD SWAP1 PUSH2 0xE8 SWAP2 SWAP1 PUSH2 0x1093 JUMP JUMPDEST PUSH2 0x2AC JUMP JUMPDEST STOP JUMPDEST PUSH2 0x109 PUSH1 0x4 DUP1 CALLDATASIZE SUB DUP2 ADD SWAP1 PUSH2 0x104 SWAP2 SWAP1 PUSH2 0x10F6 JUMP JUMPDEST PUSH2 0x533 JUMP JUMPDEST PUSH1 0x40 MLOAD PUSH2 0x117 SWAP3 SWAP2 SWAP1 PUSH2 0x1159 JUMP JUMPDEST PUSH1 0x40 MLOAD DUP1 SWAP2 SUB SWAP1 RETURN JUMPDEST PUSH2 0x13A PUSH1 0x4 DUP1 CALLDATASIZE SUB DUP2 ADD SWAP1 PUSH2 0x135 SWAP2 SWAP1 PUSH2 0x1093 JUMP JUMPDEST PUSH2 0x638 JUMP JUMPDEST PUSH1 0x40 MLOAD PUSH2 0x149 SWAP4 SWAP3 SWAP2 SWAP1 PUSH2 0x119E JUMP JUMPDEST PUSH1 0x40 MLOAD DUP1 SWAP2 SUB SWAP1 RETURN JUMPDEST PUSH2 0x16C PUSH1 0x4 DUP1 CALLDATASIZE SUB DUP2 ADD SWAP1 PUSH2 0x167 SWAP2 SWAP1 PUSH2 0x1201 JUMP JUMPDEST PUSH2 0x697 JUMP JUMPDEST STOP JUMPDEST PUSH2 0x176 PUSH2 0x6AD JUMP JUMPDEST STOP JUMPDEST PUSH2 0x180 PUSH2 0x6C1 JUMP JUMPDEST STOP JUMPDEST PUSH2 0x18A PUSH2 0x74E JUMP JUMPDEST PUSH1 0x40 MLOAD PUSH2 0x197 SWAP2 SWAP1 PUSH2 0x1250 JUMP JUMPDEST PUSH1 0x40 MLOAD DUP1 SWAP2 SUB SWAP1 RETURN JUMPDEST PUSH2 0x1A8 PUSH2 0x777 JUMP JUMPDEST PUSH1 0x40 MLOAD PUSH2 0x1B5 SWAP2 SWAP1 PUSH2 0x1250 JUMP JUMPDEST PUSH1 0x40 MLOAD DUP1 SWAP2 SUB SWAP1 RETURN JUMPDEST PUSH2 0x1D8 PUSH1 0x4 DUP1 CALLDATASIZE SUB DUP2 ADD SWAP1 PUSH2 0x1D3 SWAP2 SWAP1 PUSH2 0x1093 JUMP JUMPDEST PUSH2 0x7A1 JUMP JUMPDEST STOP JUMPDEST PUSH1 0x0 PUSH32 0x253BD7B700000000000000000000000000000000000000000000000000000000 PUSH28 0xFFFFFFFFFFFFFFFFFFFFFFFFFFFFFFFFFFFFFFFFFFFFFFFFFFFFFFFF NOT AND DUP3 PUSH28 0xFFFFFFFFFFFFFFFFFFFFFFFFFFFFFFFFFFFFFFFFFFFFFFFFFFFFFFFF NOT AND EQ DUP1 PUSH2 0x2A5 JUMPI POP PUSH32 0x1FFC9A700000000000000000000000000000000000000000000000000000000 PUSH28 0xFFFFFFFFFFFFFFFFFFFFFFFFFFFFFFFFFFFFFFFFFFFFFFFFFFFFFFFF NOT AND DUP3 PUSH28 0xFFFFFFFFFFFFFFFFFFFFFFFFFFFFFFFFFFFFFFFFFFFFFFFFFFFFFFFF NOT AND EQ JUMPDEST SWAP1 POP SWAP2 SWAP1 POP JUMP JUMPDEST PUSH2 0x2B4 PUSH2 0x912 JUMP JUMPDEST PUSH1 0x0 PUSH1 0x2 PUSH1 0x0 DUP4 PUSH20 0xFFFFFFFFFFFFFFFFFFFFFFFFFFFFFFFFFFFFFFFF AND PUSH20 0xFFFFFFFFFFFFFFFFFFFFFFFFFFFFFFFFFFFFFFFF AND DUP2 MSTORE PUSH1 0x20 ADD SWAP1 DUP2 MSTORE PUSH1 0x20 ADD PUSH1 0x0 KECCAK256 PUSH1 0x40 MLOAD DUP1 PUSH1 0x60 ADD PUSH1 0x40 MSTORE SWAP1 DUP2 PUSH1 0x0 DUP3 ADD PUSH1 0x0 SWAP1 SLOAD SWAP1 PUSH2 0x100 EXP SWAP1 DIV PUSH8 0xFFFFFFFFFFFFFFFF AND PUSH8 0xFFFFFFFFFFFFFFFF AND PUSH8 0xFFFFFFFFFFFFFFFF AND DUP2 MSTORE PUSH1 0x20 ADD PUSH1 0x0 DUP3 ADD PUSH1 0x8 SWAP1 SLOAD SWAP1 PUSH2 0x100 EXP SWAP1 DIV PUSH8 0xFFFFFFFFFFFFFFFF AND PUSH8 0xFFFFFFFFFFFFFFFF AND PUSH8 0xFFFFFFFFFFFFFFFF AND DUP2 MSTORE PUSH1 0x20 ADD PUSH1 0x0 DUP3 ADD PUSH1 0x10 SWAP1 SLOAD SWAP1 PUSH2 0x100 EXP SWAP1 DIV PUSH1 0xFF AND PUSH1 0xFF AND PUSH1 0xFF AND DUP2 MSTORE POP POP SWAP1 POP PUSH1 0x0 DUP2 PUSH1 0x0 ADD MLOAD PUSH8 0xFFFFFFFFFFFFFFFF AND EQ DUP1 PUSH2 0x3AF JUMPI POP PUSH1 0x0 DUP2 PUSH1 0x20 ADD MLOAD PUSH8 0xFFFFFFFFFFFFFFFF AND EQ ISZERO JUMPDEST ISZERO PUSH2 0x3F1 JUMPI DUP2 PUSH1 0x40 MLOAD PUSH32 0x71165A1F00000000000000000000000000000000000000000000000000000000 DUP2 MSTORE PUSH1 0x4 ADD PUSH2 0x3E8 SWAP2 SWAP1 PUSH2 0x1250 JUMP JUMPDEST PUSH1 0x40 MLOAD DUP1 SWAP2 SUB SWAP1 REVERT JUMPDEST PUSH1 0x40 MLOAD DUP1 PUSH1 0x60 ADD PUSH1 0x40 MSTORE DUP1 DUP3 PUSH1 0x0 ADD MLOAD PUSH8 0xFFFFFFFFFFFFFFFF AND DUP2 MSTORE PUSH1 0x20 ADD TIMESTAMP PUSH8 0xFFFFFFFFFFFFFFFF AND DUP2 MSTORE PUSH1 0x20 ADD DUP3 PUSH1 0x40 ADD MLOAD PUSH1 0xFF AND DUP2 MSTORE POP PUSH1 0x2 PUSH1 0x0 DUP5 PUSH20 0xFFFFFFFFFFFFFFFFFFFFFFFFFFFFFFFFFFFFFFFF AND PUSH20 0xFFFFFFFFFFFFFFFFFFFFFFFFFFFFFFFFFFFFFFFF AND DUP2 MSTORE PUSH1 0x20 ADD SWAP1 DUP2 MSTORE PUSH1 0x20 ADD PUSH1 0x0 KECCAK256 PUSH1 0x0 DUP3 ADD MLOAD DUP2 PUSH1 0x0 ADD PUSH1 0x0 PUSH2 0x100 EXP DUP2 SLOAD DUP2 PUSH8 0xFFFFFFFFFFFFFFFF MUL NOT AND SWAP1 DUP4 PUSH8 0xFFFFFFFFFFFFFFFF AND MUL OR SWAP1 SSTORE POP PUSH1 0x20 DUP3 ADD MLOAD DUP2 PUSH1 0x0 ADD PUSH1 0x8 PUSH2 0x100 EXP DUP2 SLOAD DUP2 PUSH8 0xFFFFFFFFFFFFFFFF MUL NOT AND SWAP1 DUP4 PUSH8 0xFFFFFFFFFFFFFFFF AND MUL OR SWAP1 SSTORE POP PUSH1 0x40 DUP3 ADD MLOAD DUP2 PUSH1 0x0 ADD PUSH1 0x10 PUSH2 0x100 EXP DUP2 SLOAD DUP2 PUSH1 0xFF MUL NOT AND SWAP1 DUP4 PUSH1 0xFF AND MUL OR SWAP1 SSTORE POP SWAP1 POP POP DUP2 PUSH20 0xFFFFFFFFFFFFFFFFFFFFFFFFFFFFFFFFFFFFFFFF AND PUSH32 0x19B35FEDE4CE74A5490B8148C89FD80803570D1A89CBE8FA93D8C354C926426B PUSH1 0x40 MLOAD PUSH1 0x40 MLOAD DUP1 SWAP2 SUB SWAP1 LOG2 POP POP JUMP JUMPDEST PUSH1 0x0 DUP1 PUSH1 0x0 PUSH1 0x2 PUSH1 0x0 DUP7 PUSH20 0xFFFFFFFFFFFFFFFFFFFFFFFFFFFFFFFFFFFFFFFF AND PUSH20 0xFFFFFFFFFFFFFFFFFFFFFFFFFFFFFFFFFFFFFFFF AND DUP2 MSTORE PUSH1 0x20 ADD SWAP1 DUP2 MSTORE PUSH1 0x20 ADD PUSH1 0x0 KECCAK256 PUSH1 0x40 MLOAD DUP1 PUSH1 0x60 ADD PUSH1 0x40 MSTORE SWAP1 DUP2 PUSH1 0x0 DUP3 ADD PUSH1 0x0 SWAP1 SLOAD SWAP1 PUSH2 0x100 EXP SWAP1 DIV PUSH8 0xFFFFFFFFFFFFFFFF AND PUSH8 0xFFFFFFFFFFFFFFFF AND PUSH8 0xFFFFFFFFFFFFFFFF AND DUP2 MSTORE PUSH1 0x20 ADD PUSH1 0x0 DUP3 ADD PUSH1 0x8 SWAP1 SLOAD SWAP1 PUSH2 0x100 EXP SWAP1 DIV PUSH8 0xFFFFFFFFFFFFFFFF AND PUSH8 0xFFFFFFFFFFFFFFFF AND PUSH8 0xFFFFFFFFFFFFFFFF AND DUP2 MSTORE PUSH1 0x20 ADD PUSH1 0x0 DUP3 ADD PUSH1 0x10 SWAP1 SLOAD SWAP1 PUSH2 0x100 EXP SWAP1 DIV PUSH1 0xFF AND PUSH1 0xFF AND PUSH1 0xFF AND DUP2 MSTORE POP POP SWAP1 POP DUP1 PUSH1 0x0 ADD MLOAD SWAP3 POP DUP1 PUSH1 0x20 ADD MLOAD SWAP2 POP PUSH1 0x0 DUP5 PUSH1 0x0 SHR DUP3 PUSH1 0x40 ADD MLOAD AND PUSH1 0xFF AND SUB PUSH2 0x630 JUMPI PUSH1 0x0 SWAP3 POP PUSH1 0x0 SWAP2 POP JUMPDEST POP SWAP3 POP SWAP3 SWAP1 POP JUMP JUMPDEST PUSH1 0x2 PUSH1 0x20 MSTORE DUP1 PUSH1 0x0 MSTORE PUSH1 0x40 PUSH1 0x0 KECCAK256 PUSH1 0x0 SWAP2 POP SWAP1 POP DUP1 PUSH1 0x0 ADD PUSH1 0x0 SWAP1 SLOAD SWAP1 PUSH2 0x100 EXP SWAP1 DIV PUSH8 0xFFFFFFFFFFFFFFFF AND SWAP1 DUP1 PUSH1 0x0 ADD PUSH1 0x8 SWAP1 SLOAD SWAP1 PUSH2 0x100 EXP SWAP1 DIV PUSH8 0xFFFFFFFFFFFFFFFF AND SWAP1 DUP1 PUSH1 0x0 ADD PUSH1 0x10 SWAP1 SLOAD SWAP1 PUSH2 0x100 EXP SWAP1 DIV PUSH1 0xFF AND SWAP1 POP DUP4 JUMP JUMPDEST PUSH2 0x69F PUSH2 0x912 JUMP JUMPDEST PUSH2 0x6A9 DUP3 DUP3 PUSH2 0x990 JUMP JUMPDEST POP POP JUMP JUMPDEST PUSH2 0x6B5 PUSH2 0x912 JUMP JUMPDEST PUSH2 0x6BF PUSH1 0x0 PUSH2 0xF3C JUMP JUMPDEST JUMP JUMPDEST PUSH1 0x0 PUSH2 0x6CB PUSH2 0xF6D JUMP JUMPDEST SWAP1 POP DUP1 PUSH20 0xFFFFFFFFFFFFFFFFFFFFFFFFFFFFFFFFFFFFFFFF AND PUSH2 0x6EC PUSH2 0x777 JUMP JUMPDEST PUSH20 0xFFFFFFFFFFFFFFFFFFFFFFFFFFFFFFFFFFFFFFFF AND EQ PUSH2 0x742 JUMPI PUSH1 0x40 MLOAD PUSH32 0x8C379A000000000000000000000000000000000000000000000000000000000 DUP2 MSTORE PUSH1 0x4 ADD PUSH2 0x739 SWAP1 PUSH2 0x12EE JUMP JUMPDEST PUSH1 0x40 MLOAD DUP1 SWAP2 SUB SWAP1 REVERT JUMPDEST PUSH2 0x74B DUP2 PUSH2 0xF3C JUMP JUMPDEST POP JUMP JUMPDEST PUSH1 0x0 DUP1 PUSH1 0x0 SWAP1 SLOAD SWAP1 PUSH2 0x100 EXP SWAP1 DIV PUSH20 0xFFFFFFFFFFFFFFFFFFFFFFFFFFFFFFFFFFFFFFFF AND SWAP1 POP SWAP1 JUMP JUMPDEST PUSH1 0x0 PUSH1 0x1 PUSH1 0x0 SWAP1 SLOAD SWAP1 PUSH2 0x100 EXP SWAP1 DIV PUSH20 0xFFFFFFFFFFFFFFFFFFFFFFFFFFFFFFFFFFFFFFFF AND SWAP1 POP SWAP1 JUMP JUMPDEST PUSH2 0x7A9 PUSH2 0x912 JUMP JUMPDEST DUP1 PUSH1 0x1 PUSH1 0x0 PUSH2 0x100 EXP DUP2 SLOAD DUP2 PUSH20 0xFFFFFFFFFFFFFFFFFFFFFFFFFFFFFFFFFFFFFFFF MUL NOT AND SWAP1 DUP4 PUSH20 0xFFFFFFFFFFFFFFFFFFFFFFFFFFFFFFFFFFFFFFFF AND MUL OR SWAP1 SSTORE POP DUP1 PUSH20 0xFFFFFFFFFFFFFFFFFFFFFFFFFFFFFFFFFFFFFFFF AND PUSH2 0x809 PUSH2 0x74E JUMP JUMPDEST PUSH20 0xFFFFFFFFFFFFFFFFFFFFFFFFFFFFFFFFFFFFFFFF AND PUSH32 0x38D16B8CAC22D99FC7C124B9CD0DE2D3FA1FAEF420BFE791D8C362D765E22700 PUSH1 0x40 MLOAD PUSH1 0x40 MLOAD DUP1 SWAP2 SUB SWAP1 LOG3 POP JUMP JUMPDEST PUSH1 0x0 DUP1 PUSH1 0x0 SWAP1 SLOAD SWAP1 PUSH2 0x100 EXP SWAP1 DIV PUSH20 0xFFFFFFFFFFFFFFFFFFFFFFFFFFFFFFFFFFFFFFFF AND SWAP1 POP DUP2 PUSH1 0x0 DUP1 PUSH2 0x100 EXP DUP2 SLOAD DUP2 PUSH20 0xFFFFFFFFFFFFFFFFFFFFFFFFFFFFFFFFFFFFFFFF MUL NOT AND SWAP1 DUP4 PUSH20 0xFFFFFFFFFFFFFFFFFFFFFFFFFFFFFFFFFFFFFFFF AND MUL OR SWAP1 SSTORE POP DUP2 PUSH20 0xFFFFFFFFFFFFFFFFFFFFFFFFFFFFFFFFFFFFFFFF AND DUP2 PUSH20 0xFFFFFFFFFFFFFFFFFFFFFFFFFFFFFFFFFFFFFFFF AND PUSH32 0x8BE0079C531659141344CD1FD0A4F28419497F9722A3DAAFE3B4186F6B6457E0 PUSH1 0x40 MLOAD PUSH1 0x40 MLOAD DUP1 SWAP2 SUB SWAP1 LOG3 POP POP JUMP JUMPDEST PUSH2 0x91A PUSH2 0xF6D JUMP JUMPDEST PUSH20 0xFFFFFFFFFFFFFFFFFFFFFFFFFFFFFFFFFFFFFFFF AND PUSH2 0x938 PUSH2 0x74E JUMP JUMPDEST PUSH20 0xFFFFFFFFFFFFFFFFFFFFFFFFFFFFFFFFFFFFFFFF AND EQ PUSH2 0x98E JUMPI PUSH1 0x40 MLOAD PUSH32 0x8C379A000000000000000000000000000000000000000000000000000000000 DUP2 MSTORE PUSH1 0x4 ADD PUSH2 0x985 SWAP1 PUSH2 0x135A JUMP JUMPDEST PUSH1 0x40 MLOAD DUP1 SWAP2 SUB SWAP1 REVERT JUMPDEST JUMP JUMPDEST PUSH1 0x0 PUSH1 0x2 PUSH1 0x0 DUP5 PUSH20 0xFFFFFFFFFFFFFFFFFFFFFFFFFFFFFFFFFFFFFFFF AND PUSH20 0xFFFFFFFFFFFFFFFFFFFFFFFFFFFFFFFFFFFFFFFF AND DUP2 MSTORE PUSH1 0x20 ADD SWAP1 DUP2 MSTORE PUSH1 0x20 ADD PUSH1 0x0 KECCAK256 PUSH1 0x40 MLOAD DUP1 PUSH1 0x60 ADD PUSH1 0x40 MSTORE SWAP1 DUP2 PUSH1 0x0 DUP3 ADD PUSH1 0x0 SWAP1 SLOAD SWAP1 PUSH2 0x100 EXP SWAP1 DIV PUSH8 0xFFFFFFFFFFFFFFFF AND PUSH8 0xFFFFFFFFFFFFFFFF AND PUSH8 0xFFFFFFFFFFFFFFFF AND DUP2 MSTORE PUSH1 0x20 ADD PUSH1 0x0 DUP3 ADD PUSH1 0x8 SWAP1 SLOAD SWAP1 PUSH2 0x100 EXP SWAP1 DIV PUSH8 0xFFFFFFFFFFFFFFFF AND PUSH8 0xFFFFFFFFFFFFFFFF AND PUSH8 0xFFFFFFFFFFFFFFFF AND DUP2 MSTORE PUSH1 0x20 ADD PUSH1 0x0 DUP3 ADD PUSH1 0x10 SWAP1 SLOAD SWAP1 PUSH2 0x100 EXP SWAP1 DIV PUSH1 0xFF AND PUSH1 0xFF AND PUSH1 0xFF AND DUP2 MSTORE POP POP SWAP1 POP PUSH1 0x0 DUP2 PUSH1 0x0 ADD MLOAD PUSH8 0xFFFFFFFFFFFFFFFF AND EQ ISZERO DUP1 PUSH2 0xA80 JUMPI POP PUSH1 0x7 DUP3 PUSH1 0xFF AND GT JUMPDEST ISZERO PUSH2 0xAC4 JUMPI DUP3 DUP3 PUSH1 0x40 MLOAD PUSH32 0x4B2001FD00000000000000000000000000000000000000000000000000000000 DUP2 MSTORE PUSH1 0x4 ADD PUSH2 0xABB SWAP3 SWAP2 SWAP1 PUSH2 0x137A JUMP JUMPDEST PUSH1 0x40 MLOAD DUP1 SWAP2 SUB SWAP1 REVERT JUMPDEST PUSH1 0x4 PUSH1 0xFF AND PUSH1 0x4 DUP4 AND PUSH1 0xFF AND EQ DUP1 ISZERO PUSH2 0xB74 JUMPI POP DUP3 PUSH20 0xFFFFFFFFFFFFFFFFFFFFFFFFFFFFFFFFFFFFFFFF AND PUSH4 0x1FFC9A7 PUSH32 0x907E1C5600000000000000000000000000000000000000000000000000000000 PUSH1 0x40 MLOAD DUP3 PUSH4 0xFFFFFFFF AND PUSH1 0xE0 SHL DUP2 MSTORE PUSH1 0x4 ADD PUSH2 0xB31 SWAP2 SWAP1 PUSH2 0x13B2 JUMP JUMPDEST PUSH1 0x20 PUSH1 0x40 MLOAD DUP1 DUP4 SUB DUP2 DUP7 GAS STATICCALL ISZERO DUP1 ISZERO PUSH2 0xB4E JUMPI RETURNDATASIZE PUSH1 0x0 DUP1 RETURNDATACOPY RETURNDATASIZE PUSH1 0x0 REVERT JUMPDEST POP POP POP POP PUSH1 0x40 MLOAD RETURNDATASIZE PUSH1 0x1F NOT PUSH1 0x1F DUP3 ADD AND DUP3 ADD DUP1 PUSH1 0x40 MSTORE POP DUP2 ADD SWAP1 PUSH2 0xB72 SWAP2 SWAP1 PUSH2 0x13F9 JUMP JUMPDEST ISZERO JUMPDEST ISZERO PUSH2 0xBD8 JUMPI DUP3 PUSH32 0x907E1C5600000000000000000000000000000000000000000000000000000000 PUSH1 0x40 MLOAD PUSH32 0xD8BDB00100000000000000000000000000000000000000000000000000000000 DUP2 MSTORE PUSH1 0x4 ADD PUSH2 0xBCF SWAP3 SWAP2 SWAP1 PUSH2 0x1426 JUMP JUMPDEST PUSH1 0x40 MLOAD DUP1 SWAP2 SUB SWAP1 REVERT JUMPDEST PUSH1 0x1 PUSH1 0xFF AND PUSH1 0x1 DUP4 AND PUSH1 0xFF AND EQ DUP1 ISZERO PUSH2 0xC88 JUMPI POP DUP3 PUSH20 0xFFFFFFFFFFFFFFFFFFFFFFFFFFFFFFFFFFFFFFFF AND PUSH4 0x1FFC9A7 PUSH32 0x6930EBCC00000000000000000000000000000000000000000000000000000000 PUSH1 0x40 MLOAD DUP3 PUSH4 0xFFFFFFFF AND PUSH1 0xE0 SHL DUP2 MSTORE PUSH1 0x4 ADD PUSH2 0xC45 SWAP2 SWAP1 PUSH2 0x13B2 JUMP JUMPDEST PUSH1 0x20 PUSH1 0x40 MLOAD DUP1 DUP4 SUB DUP2 DUP7 GAS STATICCALL ISZERO DUP1 ISZERO PUSH2 0xC62 JUMPI RETURNDATASIZE PUSH1 0x0 DUP1 RETURNDATACOPY RETURNDATASIZE PUSH1 0x0 REVERT JUMPDEST POP POP POP POP PUSH1 0x40 MLOAD RETURNDATASIZE PUSH1 0x1F NOT PUSH1 0x1F DUP3 ADD AND DUP3 ADD DUP1 PUSH1 0x40 MSTORE POP DUP2 ADD SWAP1 PUSH2 0xC86 SWAP2 SWAP1 PUSH2 0x13F9 JUMP JUMPDEST ISZERO JUMPDEST ISZERO PUSH2 0xCEC JUMPI DUP3 PUSH32 0x6930EBCC00000000000000000000000000000000000000000000000000000000 PUSH1 0x40 MLOAD PUSH32 0xD8BDB00100000000000000000000000000000000000000000000000000000000 DUP2 MSTORE PUSH1 0x4 ADD PUSH2 0xCE3 SWAP3 SWAP2 SWAP1 PUSH2 0x1426 JUMP JUMPDEST PUSH1 0x40 MLOAD DUP1 SWAP2 SUB SWAP1 REVERT JUMPDEST PUSH1 0x2 PUSH1 0xFF AND PUSH1 0x2 DUP4 AND PUSH1 0xFF AND EQ DUP1 ISZERO PUSH2 0xD9C JUMPI POP DUP3 PUSH20 0xFFFFFFFFFFFFFFFFFFFFFFFFFFFFFFFFFFFFFFFF AND PUSH4 0x1FFC9A7 PUSH32 0xF601AD1500000000000000000000000000000000000000000000000000000000 PUSH1 0x40 MLOAD DUP3 PUSH4 0xFFFFFFFF AND PUSH1 0xE0 SHL DUP2 MSTORE PUSH1 0x4 ADD PUSH2 0xD59 SWAP2 SWAP1 PUSH2 0x13B2 JUMP JUMPDEST PUSH1 0x20 PUSH1 0x40 MLOAD DUP1 DUP4 SUB DUP2 DUP7 GAS STATICCALL ISZERO DUP1 ISZERO PUSH2 0xD76 JUMPI RETURNDATASIZE PUSH1 0x0 DUP1 RETURNDATACOPY RETURNDATASIZE PUSH1 0x0 REVERT JUMPDEST POP POP POP POP PUSH1 0x40 MLOAD RETURNDATASIZE PUSH1 0x1F NOT PUSH1 0x1F DUP3 ADD AND DUP3 ADD DUP1 PUSH1 0x40 MSTORE POP DUP2 ADD SWAP1 PUSH2 0xD9A SWAP2 SWAP1 PUSH2 0x13F9 JUMP JUMPDEST ISZERO JUMPDEST ISZERO PUSH2 0xE00 JUMPI DUP3 PUSH32 0xF601AD1500000000000000000000000000000000000000000000000000000000 PUSH1 0x40 MLOAD PUSH32 0xD8BDB00100000000000000000000000000000000000000000000000000000000 DUP2 MSTORE PUSH1 0x4 ADD PUSH2 0xDF7 SWAP3 SWAP2 SWAP1 PUSH2 0x1426 JUMP JUMPDEST PUSH1 0x40 MLOAD DUP1 SWAP2 SUB SWAP1 REVERT JUMPDEST PUSH1 0x40 MLOAD DUP1 PUSH1 0x60 ADD PUSH1 0x40 MSTORE DUP1 TIMESTAMP PUSH8 0xFFFFFFFFFFFFFFFF AND DUP2 MSTORE PUSH1 0x20 ADD PUSH1 0x0 PUSH8 0xFFFFFFFFFFFFFFFF AND DUP2 MSTORE PUSH1 0x20 ADD DUP4 PUSH1 0xFF AND DUP2 MSTORE POP PUSH1 0x2 PUSH1 0x0 DUP6 PUSH20 0xFFFFFFFFFFFFFFFFFFFFFFFFFFFFFFFFFFFFFFFF AND PUSH20 0xFFFFFFFFFFFFFFFFFFFFFFFFFFFFFFFFFFFFFFFF AND DUP2 MSTORE PUSH1 0x20 ADD SWAP1 DUP2 MSTORE PUSH1 0x20 ADD PUSH1 0x0 KECCAK256 PUSH1 0x0 DUP3 ADD MLOAD DUP2 PUSH1 0x0 ADD PUSH1 0x0 PUSH2 0x100 EXP DUP2 SLOAD DUP2 PUSH8 0xFFFFFFFFFFFFFFFF MUL NOT AND SWAP1 DUP4 PUSH8 0xFFFFFFFFFFFFFFFF AND MUL OR SWAP1 SSTORE POP PUSH1 0x20 DUP3 ADD MLOAD DUP2 PUSH1 0x0 ADD PUSH1 0x8 PUSH2 0x100 EXP DUP2 SLOAD DUP2 PUSH8 0xFFFFFFFFFFFFFFFF MUL NOT AND SWAP1 DUP4 PUSH8 0xFFFFFFFFFFFFFFFF AND MUL OR SWAP1 SSTORE POP PUSH1 0x40 DUP3 ADD MLOAD DUP2 PUSH1 0x0 ADD PUSH1 0x10 PUSH2 0x100 EXP DUP2 SLOAD DUP2 PUSH1 0xFF MUL NOT AND SWAP1 DUP4 PUSH1 0xFF AND MUL OR SWAP1 SSTORE POP SWAP1 POP POP DUP3 PUSH20 0xFFFFFFFFFFFFFFFFFFFFFFFFFFFFFFFFFFFFFFFF AND PUSH32 0xEAD6A006345DA1073A106D5F32372D2D2204F46CB0B4BCA8F5EBAFCBBED12B8A PUSH1 0x40 MLOAD PUSH1 0x40 MLOAD DUP1 SWAP2 SUB SWAP1 LOG2 POP POP POP JUMP JUMPDEST PUSH1 0x1 PUSH1 0x0 PUSH2 0x100 EXP DUP2 SLOAD SWAP1 PUSH20 0xFFFFFFFFFFFFFFFFFFFFFFFFFFFFFFFFFFFFFFFF MUL NOT AND SWAP1 SSTORE PUSH2 0xF6A DUP2 PUSH2 0x84E JUMP JUMPDEST POP JUMP JUMPDEST PUSH1 0x0 CALLER SWAP1 POP SWAP1 JUMP JUMPDEST PUSH1 0x0 DUP1 REVERT JUMPDEST PUSH1 0x0 PUSH32 0xFFFFFFFF00000000000000000000000000000000000000000000000000000000 DUP3 AND SWAP1 POP SWAP2 SWAP1 POP JUMP JUMPDEST PUSH2 0xFAF DUP2 PUSH2 0xF7A JUMP JUMPDEST DUP2 EQ PUSH2 0xFBA JUMPI PUSH1 0x0 DUP1 REVERT JUMPDEST POP JUMP JUMPDEST PUSH1 0x0 DUP2 CALLDATALOAD SWAP1 POP PUSH2 0xFCC DUP2 PUSH2 0xFA6 JUMP JUMPDEST SWAP3 SWAP2 POP POP JUMP JUMPDEST PUSH1 0x0 PUSH1 0x20 DUP3 DUP5 SUB SLT ISZERO PUSH2 0xFE8 JUMPI PUSH2 0xFE7 PUSH2 0xF75 JUMP JUMPDEST JUMPDEST PUSH1 0x0 PUSH2 0xFF6 DUP5 DUP3 DUP6 ADD PUSH2 0xFBD JUMP JUMPDEST SWAP2 POP POP SWAP3 SWAP2 POP POP JUMP JUMPDEST PUSH1 0x0 DUP2 ISZERO ISZERO SWAP1 POP SWAP2 SWAP1 POP JUMP JUMPDEST PUSH2 0x1014 DUP2 PUSH2 0xFFF JUMP JUMPDEST DUP3 MSTORE POP POP JUMP JUMPDEST PUSH1 0x0 PUSH1 0x20 DUP3 ADD SWAP1 POP PUSH2 0x102F PUSH1 0x0 DUP4 ADD DUP5 PUSH2 0x100B JUMP JUMPDEST SWAP3 SWAP2 POP POP JUMP JUMPDEST PUSH1 0x0 PUSH20 0xFFFFFFFFFFFFFFFFFFFFFFFFFFFFFFFFFFFFFFFF DUP3 AND SWAP1 POP SWAP2 SWAP1 POP JUMP JUMPDEST PUSH1 0x0 PUSH2 0x1060 DUP3 PUSH2 0x1035 JUMP JUMPDEST SWAP1 POP SWAP2 SWAP1 POP JUMP JUMPDEST PUSH2 0x1070 DUP2 PUSH2 0x1055 JUMP JUMPDEST DUP2 EQ PUSH2 0x107B JUMPI PUSH1 0x0 DUP1 REVERT JUMPDEST POP JUMP JUMPDEST PUSH1 0x0 DUP2 CALLDATALOAD SWAP1 POP PUSH2 0x108D DUP2 PUSH2 0x1067 JUMP JUMPDEST SWAP3 SWAP2 POP POP JUMP JUMPDEST PUSH1 0x0 PUSH1 0x20 DUP3 DUP5 SUB SLT ISZERO PUSH2 0x10A9 JUMPI PUSH2 0x10A8 PUSH2 0xF75 JUMP JUMPDEST JUMPDEST PUSH1 0x0 PUSH2 0x10B7 DUP5 DUP3 DUP6 ADD PUSH2 0x107E JUMP JUMPDEST SWAP2 POP POP SWAP3 SWAP2 POP POP JUMP JUMPDEST PUSH1 0x0 DUP2 SWAP1 POP SWAP2 SWAP1 POP JUMP JUMPDEST PUSH2 0x10D3 DUP2 PUSH2 0x10C0 JUMP JUMPDEST DUP2 EQ PUSH2 0x10DE JUMPI PUSH1 0x0 DUP1 REVERT JUMPDEST POP JUMP JUMPDEST PUSH1 0x0 DUP2 CALLDATALOAD SWAP1 POP PUSH2 0x10F0 DUP2 PUSH2 0x10CA JUMP JUMPDEST SWAP3 SWAP2 POP POP JUMP JUMPDEST PUSH1 0x0 DUP1 PUSH1 0x40 DUP4 DUP6 SUB SLT ISZERO PUSH2 0x110D JUMPI PUSH2 0x110C PUSH2 0xF75 JUMP JUMPDEST JUMPDEST PUSH1 0x0 PUSH2 0x111B DUP6 DUP3 DUP7 ADD PUSH2 0x107E JUMP JUMPDEST SWAP3 POP POP PUSH1 0x20 PUSH2 0x112C DUP6 DUP3 DUP7 ADD PUSH2 0x10E1 JUMP JUMPDEST SWAP2 POP POP SWAP3 POP SWAP3 SWAP1 POP JUMP JUMPDEST PUSH1 0x0 PUSH8 0xFFFFFFFFFFFFFFFF DUP3 AND SWAP1 POP SWAP2 SWAP1 POP JUMP JUMPDEST PUSH2 0x1153 DUP2 PUSH2 0x1136 JUMP JUMPDEST DUP3 MSTORE POP POP JUMP JUMPDEST PUSH1 0x0 PUSH1 0x40 DUP3 ADD SWAP1 POP PUSH2 0x116E PUSH1 0x0 DUP4 ADD DUP6 PUSH2 0x114A JUMP JUMPDEST PUSH2 0x117B PUSH1 0x20 DUP4 ADD DUP5 PUSH2 0x114A JUMP JUMPDEST SWAP4 SWAP3 POP POP POP JUMP JUMPDEST PUSH1 0x0 PUSH1 0xFF DUP3 AND SWAP1 POP SWAP2 SWAP1 POP JUMP JUMPDEST PUSH2 0x1198 DUP2 PUSH2 0x1182 JUMP JUMPDEST DUP3 MSTORE POP POP JUMP JUMPDEST PUSH1 0x0 PUSH1 0x60 DUP3 ADD SWAP1 POP PUSH2 0x11B3 PUSH1 0x0 DUP4 ADD DUP7 PUSH2 0x114A JUMP JUMPDEST PUSH2 0x11C0 PUSH1 0x20 DUP4 ADD DUP6 PUSH2 0x114A JUMP JUMPDEST PUSH2 0x11CD PUSH1 0x40 DUP4 ADD DUP5 PUSH2 0x118F JUMP JUMPDEST SWAP5 SWAP4 POP POP POP POP JUMP JUMPDEST PUSH2 0x11DE DUP2 PUSH2 0x1182 JUMP JUMPDEST DUP2 EQ PUSH2 0x11E9 JUMPI PUSH1 0x0 DUP1 REVERT JUMPDEST POP JUMP JUMPDEST PUSH1 0x0 DUP2 CALLDATALOAD SWAP1 POP PUSH2 0x11FB DUP2 PUSH2 0x11D5 JUMP JUMPDEST SWAP3 SWAP2 POP POP JUMP JUMPDEST PUSH1 0x0 DUP1 PUSH1 0x40 DUP4 DUP6 SUB SLT ISZERO PUSH2 0x1218 JUMPI PUSH2 0x1217 PUSH2 0xF75 JUMP JUMPDEST JUMPDEST PUSH1 0x0 PUSH2 0x1226 DUP6 DUP3 DUP7 ADD PUSH2 0x107E JUMP JUMPDEST SWAP3 POP POP PUSH1 0x20 PUSH2 0x1237 DUP6 DUP3 DUP7 ADD PUSH2 0x11EC JUMP JUMPDEST SWAP2 POP POP SWAP3 POP SWAP3 SWAP1 POP JUMP JUMPDEST PUSH2 0x124A DUP2 PUSH2 0x1055 JUMP JUMPDEST DUP3 MSTORE POP POP JUMP JUMPDEST PUSH1 0x0 PUSH1 0x20 DUP3 ADD SWAP1 POP PUSH2 0x1265 PUSH1 0x0 DUP4 ADD DUP5 PUSH2 0x1241 JUMP JUMPDEST SWAP3 SWAP2 POP POP JUMP JUMPDEST PUSH1 0x0 DUP3 DUP3 MSTORE PUSH1 0x20 DUP3 ADD SWAP1 POP SWAP3 SWAP2 POP POP JUMP JUMPDEST PUSH32 0x4F776E61626C6532537465703A2063616C6C6572206973206E6F742074686520 PUSH1 0x0 DUP3 ADD MSTORE PUSH32 0x6E6577206F776E65720000000000000000000000000000000000000000000000 PUSH1 0x20 DUP3 ADD MSTORE POP JUMP JUMPDEST PUSH1 0x0 PUSH2 0x12D8 PUSH1 0x29 DUP4 PUSH2 0x126B JUMP JUMPDEST SWAP2 POP PUSH2 0x12E3 DUP3 PUSH2 0x127C JUMP JUMPDEST PUSH1 0x40 DUP3 ADD SWAP1 POP SWAP2 SWAP1 POP JUMP JUMPDEST PUSH1 0x0 PUSH1 0x20 DUP3 ADD SWAP1 POP DUP2 DUP2 SUB PUSH1 0x0 DUP4 ADD MSTORE PUSH2 0x1307 DUP2 PUSH2 0x12CB JUMP JUMPDEST SWAP1 POP SWAP2 SWAP1 POP JUMP JUMPDEST PUSH32 0x4F776E61626C653A2063616C6C6572206973206E6F7420746865206F776E6572 PUSH1 0x0 DUP3 ADD MSTORE POP JUMP JUMPDEST PUSH1 0x0 PUSH2 0x1344 PUSH1 0x20 DUP4 PUSH2 0x126B JUMP JUMPDEST SWAP2 POP PUSH2 0x134F DUP3 PUSH2 0x130E JUMP JUMPDEST PUSH1 0x20 DUP3 ADD SWAP1 POP SWAP2 SWAP1 POP JUMP JUMPDEST PUSH1 0x0 PUSH1 0x20 DUP3 ADD SWAP1 POP DUP2 DUP2 SUB PUSH1 0x0 DUP4 ADD MSTORE PUSH2 0x1373 DUP2 PUSH2 0x1337 JUMP JUMPDEST SWAP1 POP SWAP2 SWAP1 POP JUMP JUMPDEST PUSH1 0x0 PUSH1 0x40 DUP3 ADD SWAP1 POP PUSH2 0x138F PUSH1 0x0 DUP4 ADD DUP6 PUSH2 0x1241 JUMP JUMPDEST PUSH2 0x139C PUSH1 0x20 DUP4 ADD DUP5 PUSH2 0x118F JUMP JUMPDEST SWAP4 SWAP3 POP POP POP JUMP JUMPDEST PUSH2 0x13AC DUP2 PUSH2 0xF7A JUMP JUMPDEST DUP3 MSTORE POP POP JUMP JUMPDEST PUSH1 0x0 PUSH1 0x20 DUP3 ADD SWAP1 POP PUSH2 0x13C7 PUSH1 0x0 DUP4 ADD DUP5 PUSH2 0x13A3 JUMP JUMPDEST SWAP3 SWAP2 POP POP JUMP JUMPDEST PUSH2 0x13D6 DUP2 PUSH2 0xFFF JUMP JUMPDEST DUP2 EQ PUSH2 0x13E1 JUMPI PUSH1 0x0 DUP1 REVERT JUMPDEST POP JUMP JUMPDEST PUSH1 0x0 DUP2 MLOAD SWAP1 POP PUSH2 0x13F3 DUP2 PUSH2 0x13CD JUMP JUMPDEST SWAP3 SWAP2 POP POP JUMP JUMPDEST PUSH1 0x0 PUSH1 0x20 DUP3 DUP5 SUB SLT ISZERO PUSH2 0x140F JUMPI PUSH2 0x140E PUSH2 0xF75 JUMP JUMPDEST JUMPDEST PUSH1 0x0 PUSH2 0x141D DUP5 DUP3 DUP6 ADD PUSH2 0x13E4 JUMP JUMPDEST SWAP2 POP POP SWAP3 SWAP2 POP POP JUMP JUMPDEST PUSH1 0x0 PUSH1 0x40 DUP3 ADD SWAP1 POP PUSH2 0x143B PUSH1 0x0 DUP4 ADD DUP6 PUSH2 0x1241 JUMP JUMPDEST PUSH2 0x1448 PUSH1 0x20 DUP4 ADD DUP5 PUSH2 0x13A3 JUMP JUMPDEST SWAP4 SWAP3 POP POP POP JUMP INVALID LOG2 PUSH5 0x6970667358 0x22 SLT KECCAK256 SUB LOG1 PUSH21 0xA7C99968EB72558B58FF2F4FBC38DF2B7984D97A93 BALANCE 0xE4 0xD9 0xA7 DIV DUP7 0x22 JUMP PUSH5 0x736F6C6343 STOP ADDMOD SLT STOP CALLER "
				},
				"gasEstimates": {
					"creation": {
						"codeDepositCost": "1050600",
						"executionCost": "infinite",
						"totalCost": "infinite"
					},
					"external": {
						"acceptOwnership()": "54680",
						"addModule(address,uint8)": "infinite",
						"check(address,bytes32)": "infinite",
						"flagModule(address)": "infinite",
						"listedModules(address)": "infinite",
						"owner()": "2566",
						"pendingOwner()": "2588",
						"renounceOwnership()": "54669",
						"supportsInterface(bytes4)": "685",
						"transferOwnership(address)": "infinite"
					},
					"internal": {
						"_addModule(address,uint8)": "infinite"
					}
				},
				"methodIdentifiers": {
					"acceptOwnership()": "79ba5097",
					"addModule(address,uint8)": "40f182c5",
					"check(address,bytes32)": "253bd7b7",
					"flagModule(address)": "08252d21",
					"listedModules(address)": "32b3d20e",
					"owner()": "8da5cb5b",
					"pendingOwner()": "e30c3978",
					"renounceOwnership()": "715018a6",
					"supportsInterface(bytes4)": "01ffc9a7",
					"transferOwnership(address)": "f2fde38b"
				}
			},
			"storageLayout": {
				"storage": [
					{
						"astId": 7,
						"contract": "contracts/SafeProtocolRegistry.sol:SafeProtocolRegistry",
						"label": "_owner",
						"offset": 0,
						"slot": "0",
						"type": "t_address"
					},
					{
						"astId": 120,
						"contract": "contracts/SafeProtocolRegistry.sol:SafeProtocolRegistry",
						"label": "_pendingOwner",
						"offset": 0,
						"slot": "1",
						"type": "t_address"
					},
					{
						"astId": 282,
						"contract": "contracts/SafeProtocolRegistry.sol:SafeProtocolRegistry",
						"label": "listedModules",
						"offset": 0,
						"slot": "2",
						"type": "t_mapping(t_address,t_struct(ModuleInfo)289_storage)"
					}
				],
				"types": {
					"t_address": {
						"encoding": "inplace",
						"label": "address",
						"numberOfBytes": "20"
					},
					"t_mapping(t_address,t_struct(ModuleInfo)289_storage)": {
						"encoding": "mapping",
						"key": "t_address",
						"label": "mapping(address => struct SafeProtocolRegistry.ModuleInfo)",
						"numberOfBytes": "32",
						"value": "t_struct(ModuleInfo)289_storage"
					},
					"t_struct(ModuleInfo)289_storage": {
						"encoding": "inplace",
						"label": "struct SafeProtocolRegistry.ModuleInfo",
						"members": [
							{
								"astId": 284,
								"contract": "contracts/SafeProtocolRegistry.sol:SafeProtocolRegistry",
								"label": "listedAt",
								"offset": 0,
								"slot": "0",
								"type": "t_uint64"
							},
							{
								"astId": 286,
								"contract": "contracts/SafeProtocolRegistry.sol:SafeProtocolRegistry",
								"label": "flaggedAt",
								"offset": 8,
								"slot": "0",
								"type": "t_uint64"
							},
							{
								"astId": 288,
								"contract": "contracts/SafeProtocolRegistry.sol:SafeProtocolRegistry",
								"label": "moduleTypes",
								"offset": 16,
								"slot": "0",
								"type": "t_uint8"
							}
						],
						"numberOfBytes": "32"
					},
					"t_uint64": {
						"encoding": "inplace",
						"label": "uint64",
						"numberOfBytes": "8"
					},
					"t_uint8": {
						"encoding": "inplace",
						"label": "uint8",
						"numberOfBytes": "1"
					}
				}
			},
			"userdoc": {
				"kind": "user",
				"methods": {
					"addModule(address,uint8)": {
						"notice": "Allows only owner to add a module. A module can be any address including zero address for now.         This function does not permit adding a module twice. This function validates if module supports expected interfaceId."
					},
					"check(address,bytes32)": {
						"notice": "This function returns information about a module"
					},
					"flagModule(address)": {
						"notice": "Allows only owner to flad a module. Only previously added module can be flagged.         This function does not permit flagging a module twice.         A module can be any address including zero address for now."
					}
				},
				"version": 1
			}
		}
	}
}