{
	"data": {
		"bytecode": {
			"linkReferences": {},
			"object": "60806040523480156200001157600080fd5b50604051620062453803806200624583398181016040528101906200003791906200030b565b818180826200005b6200004f6200019c60201b60201c565b620001a460201b60201c565b6200006c81620001a460201b60201c565b8173ffffffffffffffffffffffffffffffffffffffff166301ffc9a77f253bd7b7000000000000000000000000000000000000000000000000000000006040518263ffffffff1660e01b8152600401620000c791906200038f565b602060405180830381865afa158015620000e5573d6000803e3d6000fd5b505050506040513d601f19601f820116820180604052508101906200010b9190620003e9565b6200014f57816040517f24ea21a70000000000000000000000000000000000000000000000000000000081526004016200014691906200042c565b60405180910390fd5b81600260006101000a81548173ffffffffffffffffffffffffffffffffffffffff021916908373ffffffffffffffffffffffffffffffffffffffff16021790555050505050505062000449565b600033905090565b600160006101000a81549073ffffffffffffffffffffffffffffffffffffffff0219169055620001da81620001dd60201b60201c565b50565b60008060009054906101000a900473ffffffffffffffffffffffffffffffffffffffff169050816000806101000a81548173ffffffffffffffffffffffffffffffffffffffff021916908373ffffffffffffffffffffffffffffffffffffffff1602179055508173ffffffffffffffffffffffffffffffffffffffff168173ffffffffffffffffffffffffffffffffffffffff167f8be0079c531659141344cd1fd0a4f28419497f9722a3daafe3b4186f6b6457e060405160405180910390a35050565b600080fd5b600073ffffffffffffffffffffffffffffffffffffffff82169050919050565b6000620002d382620002a6565b9050919050565b620002e581620002c6565b8114620002f157600080fd5b50565b6000815190506200030581620002da565b92915050565b60008060408385031215620003255762000324620002a1565b5b60006200033585828601620002f4565b92505060206200034885828601620002f4565b9150509250929050565b60007fffffffff0000000000000000000000000000000000000000000000000000000082169050919050565b620003898162000352565b82525050565b6000602082019050620003a660008301846200037e565b92915050565b60008115159050919050565b620003c381620003ac565b8114620003cf57600080fd5b50565b600081519050620003e381620003b8565b92915050565b600060208284031215620004025762000401620002a1565b5b60006200041284828501620003d2565b91505092915050565b6200042681620002c6565b82525050565b60006020820190506200044360008301846200041b565b92915050565b615dec80620004596000396000f3fe608060405234801561001057600080fd5b50600436106101ad5760003560e01c80637b103999116100f9578063cccd783211610097578063e16b4a9b11610071578063e16b4a9b14610722578063e30c39781461072c578063f2fde38b1461074a578063fb63daa114610766576101ae565b8063cccd7832146106a6578063d3ac5669146106d6578063df5236e114610706576101ae565b806393271368116100d3578063932713681461060e578063a0673f5c1461062a578063a91ee0dc1461065a578063c703895c14610676576101ae565b80637b103999146105a257806380479c34146105c05780638da5cb5b146105f0576101ae565b806330f571f911610166578063715018a611610140578063715018a614610542578063728c29721461054c57806375f0bb521461057c57806379ba509714610598576101ae565b806330f571f9146104b05780633550b344146104e0578063384ee8a414610511576101ae565b806301ffc9a7146103b75780630d7e358e146103e75780630f991915146104035780631ea24616146104335780631f026c911461044f5780631f09a43514610480576101ae565b5b6000366060600033905060008036906101c79190613b62565b90506000600560008473ffffffffffffffffffffffffffffffffffffffff1673ffffffffffffffffffffffffffffffffffffffff1681526020019081526020016000206000837bffffffffffffffffffffffffffffffffffffffffffffffffffffffff19167bffffffffffffffffffffffffffffffffffffffffffffffffffffffff1916815260200190815260200160002060009054906101000a900473ffffffffffffffffffffffffffffffffffffffff169050600073ffffffffffffffffffffffffffffffffffffffff168173ffffffffffffffffffffffffffffffffffffffff16036102ef5782826040517f7ad978a30000000000000000000000000000000000000000000000000000000081526004016102e6929190613c11565b60405180910390fd5b6000601436033560601c90508173ffffffffffffffffffffffffffffffffffffffff166325d6803f858360008036600090601460003690506103319190613c73565b9261033e93929190613cbb565b6040518663ffffffff1660e01b815260040161035e959493929190613d99565b6000604051808303816000875af115801561037d573d6000803e3d6000fd5b505050506040513d6000823e3d601f19601f820116820180604052508101906103a69190613f41565b945050505050915050805190602001f35b6103d160048036038101906103cc9190613fb6565b610782565b6040516103de9190613ffe565b60405180910390f35b61040160048036038101906103fc9190614045565b6108b4565b005b61041d600480360381019061041891906140a9565b610b1a565b60405161042a919061421c565b60405180910390f35b61044d60048036038101906104489190614277565b61102f565b005b610469600480360381019061046491906142b7565b61154d565b604051610477929190614306565b60405180910390f35b61049a6004803603810190610495919061432f565b6115ab565b6040516104a7919061436f565b60405180910390f35b6104ca60048036038101906104c591906143a9565b611664565b6040516104d7919061443e565b60405180910390f35b6104fa60048036038101906104f5919061448c565b6119c1565b60405161050892919061459d565b60405180910390f35b61052b600480360381019061052691906145cd565b611d73565b6040516105399291906145fa565b60405180910390f35b61054a611e3f565b005b610566600480360381019061056191906146bf565b611e53565b604051610573919061476f565b60405180910390f35b610596600480360381019061059191906147c8565b6122bb565b005b6105a0612789565b005b6105aa612816565b6040516105b7919061436f565b60405180910390f35b6105da60048036038101906105d591906145cd565b61283c565b6040516105e7919061436f565b60405180910390f35b6105f861286f565b604051610605919061436f565b60405180910390f35b6106286004803603810190610623919061494c565b612898565b005b610644600480360381019061063f91906142b7565b612ad0565b6040516106519190613ffe565b60405180910390f35b610674600480360381019061066f91906145cd565b612be3565b005b610690600480360381019061068b91906145cd565b612d86565b60405161069d919061436f565b60405180910390f35b6106c060048036038101906106bb919061432f565b612def565b6040516106cd919061436f565b60405180910390f35b6106f060048036038101906106eb91906142b7565b612e31565b6040516106fd91906149ca565b60405180910390f35b610720600480360381019061071b91906142b7565b612f3b565b005b61072a613231565b005b610734613233565b604051610741919061436f565b60405180910390f35b610764600480360381019061075f91906145cd565b61325d565b005b610780600480360381019061077b91906145cd565b61330a565b005b600063945b814860e01b827bffffffffffffffffffffffffffffffffffffffffffffffffffffffff191614806107dd575063e6d7a83a60e01b827bffffffffffffffffffffffffffffffffffffffffffffffffffffffff1916145b8061084557507f3f6c68ec000000000000000000000000000000000000000000000000000000007bffffffffffffffffffffffffffffffffffffffffffffffffffffffff1916827bffffffffffffffffffffffffffffffffffffffffffffffffffffffff1916145b806108ad57507f01ffc9a7000000000000000000000000000000000000000000000000000000007bffffffffffffffffffffffffffffffffffffffffffffffffffffffff1916827bffffffffffffffffffffffffffffffffffffffffffffffffffffffff1916145b9050919050565b600073ffffffffffffffffffffffffffffffffffffffff168173ffffffffffffffffffffffffffffffffffffffff16146109cf576108f3816002613500565b8073ffffffffffffffffffffffffffffffffffffffff166301ffc9a77ff601ad15000000000000000000000000000000000000000000000000000000006040518263ffffffff1660e01b815260040161094c91906149e5565b602060405180830381865afa158015610969573d6000803e3d6000fd5b505050506040513d601f19601f8201168201806040525081019061098d9190614a15565b6109ce57806040517f24ea21a70000000000000000000000000000000000000000000000000000000081526004016109c5919061436f565b60405180910390fd5b5b80600560003373ffffffffffffffffffffffffffffffffffffffff1673ffffffffffffffffffffffffffffffffffffffff1681526020019081526020016000206000847bffffffffffffffffffffffffffffffffffffffffffffffffffffffff19167bffffffffffffffffffffffffffffffffffffffffffffffffffffffff1916815260200190815260200160002060006101000a81548173ffffffffffffffffffffffffffffffffffffffff021916908373ffffffffffffffffffffffffffffffffffffffff1602179055508073ffffffffffffffffffffffffffffffffffffffff16827bffffffffffffffffffffffffffffffffffffffffffffffffffffffff19163373ffffffffffffffffffffffffffffffffffffffff167f31bef286390c4a9ba9b02b42210052c74ed84ea939c9ee4508f7ad380051c31860405160405180910390a45050565b606082610b268161361c565b336001610b338282613500565b6000600360008873ffffffffffffffffffffffffffffffffffffffff1673ffffffffffffffffffffffffffffffffffffffff16815260200190815260200160002060009054906101000a900473ffffffffffffffffffffffffffffffffffffffff16905060008073ffffffffffffffffffffffffffffffffffffffff168273ffffffffffffffffffffffffffffffffffffffff161415905060608115610c7d578273ffffffffffffffffffffffffffffffffffffffff1663176ae7b78a8a600133604051602001610c04919061436f565b6040516020818303038152906040526040518563ffffffff1660e01b8152600401610c329493929190614d9d565b6000604051808303816000875af1158015610c51573d6000803e3d6000fd5b505050506040513d6000823e3d601f19601f82011682018060405250810190610c7a9190613f41565b90505b878060000190610c8d9190614dff565b905067ffffffffffffffff811115610ca857610ca7613dfb565b5b604051908082528060200260200182016040528015610cdb57816020015b6060815260200190600190039081610cc65790505b5096506000888060000190610cf09190614dff565b9050905060005b81811015610f5257368a8060000190610d109190614dff565b83818110610d2157610d20614e62565b5b9050602002810190610d339190614e91565b90503073ffffffffffffffffffffffffffffffffffffffff16816000016020810190610d5f9190614eb9565b73ffffffffffffffffffffffffffffffffffffffff1603610dbf578b8b60400135836040517fe37e72ed000000000000000000000000000000000000000000000000000000008152600401610db693929190614ef5565b60405180910390fd5b8b73ffffffffffffffffffffffffffffffffffffffff16816000016020810190610de99190614eb9565b73ffffffffffffffffffffffffffffffffffffffff1603610e1457610e0f8c600261372f565b610e20565b610e1f8c600161372f565b5b6000808d73ffffffffffffffffffffffffffffffffffffffff16635229073f846000016020810190610e529190614eb9565b8560200135868060400190610e679190614f2c565b60006040518663ffffffff1660e01b8152600401610e89959493929190615015565b6000604051808303816000875af1158015610ea8573d6000803e3d6000fd5b505050506040513d6000823e3d601f19601f82011682018060405250810190610ed19190615063565b9150915081610f1f578d8d60400135856040517f65cba8d4000000000000000000000000000000000000000000000000000000008152600401610f1693929190614ef5565b60405180910390fd5b808c8581518110610f3357610f32614e62565b5b602002602001018190525050505080610f4b906150bf565b9050610cf7565b508215610fca578373ffffffffffffffffffffffffffffffffffffffff1663f44d4ca38b6001856040518463ffffffff1660e01b8152600401610f9793929190615107565b600060405180830381600087803b158015610fb157600080fd5b505af1158015610fc5573d6000803e3d6000fd5b505050505b8973ffffffffffffffffffffffffffffffffffffffff167fedcb3ca706897f189363c9f878c558b9b366bd39ce4727d8b9bfcef113be05df8a604001358b6020013560405161101a929190615145565b60405180910390a25050505050505092915050565b816110398161388d565b8260016110468282613500565b8473ffffffffffffffffffffffffffffffffffffffff166301ffc9a77f6930ebcc000000000000000000000000000000000000000000000000000000006040518263ffffffff1660e01b815260040161109f91906149e5565b602060405180830381865afa1580156110bc573d6000803e3d6000fd5b505050506040513d601f19601f820116820180604052508101906110e09190614a15565b61112157846040517f24ea21a7000000000000000000000000000000000000000000000000000000008152600401611118919061436f565b60405180910390fd5b6000600660003373ffffffffffffffffffffffffffffffffffffffff1673ffffffffffffffffffffffffffffffffffffffff1681526020019081526020016000206000600173ffffffffffffffffffffffffffffffffffffffff1673ffffffffffffffffffffffffffffffffffffffff16815260200190815260200160002090506000600660003373ffffffffffffffffffffffffffffffffffffffff1673ffffffffffffffffffffffffffffffffffffffff16815260200190815260200160002060008873ffffffffffffffffffffffffffffffffffffffff1673ffffffffffffffffffffffffffffffffffffffff1681526020019081526020016000209050600073ffffffffffffffffffffffffffffffffffffffff168160000160019054906101000a900473ffffffffffffffffffffffffffffffffffffffff1673ffffffffffffffffffffffffffffffffffffffff16146112b95733876040517f0ed7370f0000000000000000000000000000000000000000000000000000000081526004016112b092919061516e565b60405180910390fd5b60008773ffffffffffffffffffffffffffffffffffffffff1663e8e755b56040518163ffffffff1660e01b8152600401602060405180830381865afa158015611306573d6000803e3d6000fd5b505050506040513d601f19601f8201168201806040525081019061132a91906151ac565b90508060ff168760ff161461137a578781886040517fc752c04b000000000000000000000000000000000000000000000000000000008152600401611371939291906151d9565b60405180910390fd5b600073ffffffffffffffffffffffffffffffffffffffff168360000160019054906101000a900473ffffffffffffffffffffffffffffffffffffffff1673ffffffffffffffffffffffffffffffffffffffff16036114175760018360000160016101000a81548173ffffffffffffffffffffffffffffffffffffffff021916908373ffffffffffffffffffffffffffffffffffffffff1602179055505b8260000160019054906101000a900473ffffffffffffffffffffffffffffffffffffffff168260000160016101000a81548173ffffffffffffffffffffffffffffffffffffffff021916908373ffffffffffffffffffffffffffffffffffffffff160217905550868260000160006101000a81548160ff021916908360ff160217905550878360000160016101000a81548173ffffffffffffffffffffffffffffffffffffffff021916908373ffffffffffffffffffffffffffffffffffffffff1602179055508773ffffffffffffffffffffffffffffffffffffffff163373ffffffffffffffffffffffffffffffffffffffff167f61fb70687f5b7cae1207b6abec96e5beb7971681e5e36de31585fbfa94a8c34c8960405161153b9190615210565b60405180910390a35050505050505050565b6006602052816000526040600020602052806000526040600020600091509150508060000160009054906101000a900460ff16908060000160019054906101000a900473ffffffffffffffffffffffffffffffffffffffff16905082565b6000600560008473ffffffffffffffffffffffffffffffffffffffff1673ffffffffffffffffffffffffffffffffffffffff1681526020019081526020016000206000837bffffffffffffffffffffffffffffffffffffffffffffffffffffffff19167bffffffffffffffffffffffffffffffffffffffffffffffffffffffff1916815260200190815260200160002060009054906101000a900473ffffffffffffffffffffffffffffffffffffffff16905092915050565b6060826116708161361c565b33600161167d8282613500565b3685806000019061168e9190614e91565b90506000600360008973ffffffffffffffffffffffffffffffffffffffff1673ffffffffffffffffffffffffffffffffffffffff16815260200190815260200160002060009054906101000a900473ffffffffffffffffffffffffffffffffffffffff16905060008073ffffffffffffffffffffffffffffffffffffffff168273ffffffffffffffffffffffffffffffffffffffff1614159050606081156117da578273ffffffffffffffffffffffffffffffffffffffff16637359b7428b8b600133604051602001611761919061436f565b6040516020818303038152906040526040518563ffffffff1660e01b815260040161178f9493929190615293565b6000604051808303816000875af11580156117ae573d6000803e3d6000fd5b505050506040513d6000823e3d601f19601f820116820180604052508101906117d79190613f41565b90505b6117e58a600461372f565b60008a73ffffffffffffffffffffffffffffffffffffffff16635229073f8660000160208101906118169190614eb9565b876020013588806040019061182b9190614f2c565b60016040518663ffffffff1660e01b815260040161184d959493929190615317565b6000604051808303816000875af115801561186c573d6000803e3d6000fd5b505050506040513d6000823e3d601f19601f820116820180604052508101906118959190615063565b809a5081925050508215611913578373ffffffffffffffffffffffffffffffffffffffff1663f44d4ca38c83856040518463ffffffff1660e01b81526004016118e093929190615107565b600060405180830381600087803b1580156118fa57600080fd5b505af115801561190e573d6000803e3d6000fd5b505050505b8015611970578a73ffffffffffffffffffffffffffffffffffffffff167f3afb8eada8f22d02ff94fbd523237fb70aa7e6b51ab68cbbe94a055de96479af8b60400135604051611963919061476f565b60405180910390a26119b3565b8a8a604001356040517f82cc9f490000000000000000000000000000000000000000000000000000000081526004016119aa929190615365565b60405180910390fd5b505050505050505092915050565b606060008084036119fe576040517f6731d75200000000000000000000000000000000000000000000000000000000815260040160405180910390fd5b600173ffffffffffffffffffffffffffffffffffffffff168573ffffffffffffffffffffffffffffffffffffffff161480611a3f5750611a3e8386612ad0565b5b611a8057846040517fc467af06000000000000000000000000000000000000000000000000000000008152600401611a77919061436f565b60405180910390fd5b8367ffffffffffffffff811115611a9a57611a99613dfb565b5b604051908082528060200260200182016040528015611ac85781602001602082028036833780820191505090505b5091506000600660008573ffffffffffffffffffffffffffffffffffffffff1673ffffffffffffffffffffffffffffffffffffffff16815260200190815260200160002060008773ffffffffffffffffffffffffffffffffffffffff1673ffffffffffffffffffffffffffffffffffffffff16815260200190815260200160002060000160019054906101000a900473ffffffffffffffffffffffffffffffffffffffff1691505b600073ffffffffffffffffffffffffffffffffffffffff168273ffffffffffffffffffffffffffffffffffffffff1614158015611bda5750600173ffffffffffffffffffffffffffffffffffffffff168273ffffffffffffffffffffffffffffffffffffffff1614155b8015611be557508481105b15611ced5781838281518110611bfe57611bfd614e62565b5b602002602001019073ffffffffffffffffffffffffffffffffffffffff16908173ffffffffffffffffffffffffffffffffffffffff1681525050600660008573ffffffffffffffffffffffffffffffffffffffff1673ffffffffffffffffffffffffffffffffffffffff16815260200190815260200160002060008373ffffffffffffffffffffffffffffffffffffffff1673ffffffffffffffffffffffffffffffffffffffff16815260200190815260200160002060000160019054906101000a900473ffffffffffffffffffffffffffffffffffffffff1691508080611ce5906150bf565b915050611b70565b60008103611cfa57600191505b600173ffffffffffffffffffffffffffffffffffffffff168273ffffffffffffffffffffffffffffffffffffffff1614158015611d38575060008114155b15611d675782600182611d4b9190613c73565b81518110611d5c57611d5b614e62565b5b602002602001015191505b80835250935093915050565b60046020528060005260406000206000915090508060000160009054906101000a900473ffffffffffffffffffffffffffffffffffffffff1690806001018054611dbc906153bd565b80601f0160208091040260200160405190810160405280929190818152602001828054611de8906153bd565b8015611e355780601f10611e0a57610100808354040283529160200191611e35565b820191906000526020600020905b815481529060010190602001808311611e1857829003601f168201915b5050505050905082565b611e47613939565b611e5160006139b7565b565b6000600360003373ffffffffffffffffffffffffffffffffffffffff1673ffffffffffffffffffffffffffffffffffffffff16815260200190815260200160002060009054906101000a900473ffffffffffffffffffffffffffffffffffffffff16600460003373ffffffffffffffffffffffffffffffffffffffff1673ffffffffffffffffffffffffffffffffffffffff16815260200190815260200160002060000160006101000a81548173ffffffffffffffffffffffffffffffffffffffff021916908373ffffffffffffffffffffffffffffffffffffffff1602179055506000600360003373ffffffffffffffffffffffffffffffffffffffff1673ffffffffffffffffffffffffffffffffffffffff16815260200190815260200160002060009054906101000a900473ffffffffffffffffffffffffffffffffffffffff1690508686868686604051602001611fb2959493929190615465565b604051602081830303815290604052805190602001209150600073ffffffffffffffffffffffffffffffffffffffff168173ffffffffffffffffffffffffffffffffffffffff160361200457506122b2565b60006001811115612018576120176153ee565b5b84600181111561202b5761202a6153ee565b5b036121ac576000600167ffffffffffffffff81111561204d5761204c613dfb565b5b60405190808252806020026020018201604052801561208657816020015b612073613ab4565b81526020019060019003908161206b5790505b50905060405180606001604052808973ffffffffffffffffffffffffffffffffffffffff16815260200188815260200187815250816000815181106120ce576120cd614e62565b5b60200260200101819052506000604051806060016040528083815260200160008152602001600080191681525090508273ffffffffffffffffffffffffffffffffffffffff1663176ae7b7338360018960405160200161212e919061436f565b6040516020818303038152906040526040518563ffffffff1660e01b815260040161215c9493929190615610565b6000604051808303816000875af115801561217b573d6000803e3d6000fd5b505050506040513d6000823e3d601f19601f820116820180604052508101906121a49190613f41565b5050506122b0565b600060405180606001604052808973ffffffffffffffffffffffffffffffffffffffff1681526020018881526020018781525090506000604051806060016040528083815260200160008152602001600080191681525090508273ffffffffffffffffffffffffffffffffffffffff16637359b7423383600189604051602001612236919061436f565b6040516020818303038152906040526040518563ffffffff1660e01b815260040161226494939291906156b3565b6000604051808303816000875af1158015612283573d6000803e3d6000fd5b505050506040513d6000823e3d601f19601f820116820180604052508101906122ac9190613f41565b5050505b505b95945050505050565b600360003373ffffffffffffffffffffffffffffffffffffffff1673ffffffffffffffffffffffffffffffffffffffff16815260200190815260200160002060009054906101000a900473ffffffffffffffffffffffffffffffffffffffff16600460003373ffffffffffffffffffffffffffffffffffffffff1673ffffffffffffffffffffffffffffffffffffffff16815260200190815260200160002060000160006101000a81548173ffffffffffffffffffffffffffffffffffffffff021916908373ffffffffffffffffffffffffffffffffffffffff1602179055506000600360003373ffffffffffffffffffffffffffffffffffffffff1673ffffffffffffffffffffffffffffffffffffffff16815260200190815260200160002060009054906101000a900473ffffffffffffffffffffffffffffffffffffffff169050600073ffffffffffffffffffffffffffffffffffffffff168173ffffffffffffffffffffffffffffffffffffffff1603612439575061277c565b60008c8c8c8b8b8b8b8b8b8b60405160200161245e9a99989796959493929190615715565b604051602081830303815290604052905060006001811115612483576124826153ee565b5b8a6001811115612496576124956153ee565b5b03612646576000600167ffffffffffffffff8111156124b8576124b7613dfb565b5b6040519080825280602002602001820160405280156124f157816020015b6124de613ab4565b8152602001906001900390816124d65790505b50905060405180606001604052808f73ffffffffffffffffffffffffffffffffffffffff1681526020018e81526020018d8152508160008151811061253957612538614e62565b5b60200260200101819052506000604051806060016040528083815260200160008152602001600080191681525090508373ffffffffffffffffffffffffffffffffffffffff1663176ae7b733836000876040518563ffffffff1660e01b81526004016125a894939291906157bf565b6000604051808303816000875af11580156125c7573d6000803e3d6000fd5b505050506040513d6000823e3d601f19601f820116820180604052508101906125f09190613f41565b600460003373ffffffffffffffffffffffffffffffffffffffff1673ffffffffffffffffffffffffffffffffffffffff168152602001908152602001600020600101908161263e91906159a7565b505050612779565b600060405180606001604052808f73ffffffffffffffffffffffffffffffffffffffff1681526020018e81526020018d81525090506000604051806060016040528083815260200160008152602001600080191681525090508373ffffffffffffffffffffffffffffffffffffffff16637359b74233836000876040518563ffffffff1660e01b81526004016126df9493929190615a79565b6000604051808303816000875af11580156126fe573d6000803e3d6000fd5b505050506040513d6000823e3d601f19601f820116820180604052508101906127279190613f41565b600460003373ffffffffffffffffffffffffffffffffffffffff1673ffffffffffffffffffffffffffffffffffffffff168152602001908152602001600020600101908161277591906159a7565b5050505b50505b5050505050505050505050565b60006127936139e8565b90508073ffffffffffffffffffffffffffffffffffffffff166127b4613233565b73ffffffffffffffffffffffffffffffffffffffff161461280a576040517f08c379a000000000000000000000000000000000000000000000000000000000815260040161280190615b4f565b60405180910390fd5b612813816139b7565b50565b600260009054906101000a900473ffffffffffffffffffffffffffffffffffffffff1681565b60036020528060005260406000206000915054906101000a900473ffffffffffffffffffffffffffffffffffffffff1681565b60008060009054906101000a900473ffffffffffffffffffffffffffffffffffffffff16905090565b6000600460003373ffffffffffffffffffffffffffffffffffffffff1673ffffffffffffffffffffffffffffffffffffffff16815260200190815260200160002060000160009054906101000a900473ffffffffffffffffffffffffffffffffffffffff169050600073ffffffffffffffffffffffffffffffffffffffff168173ffffffffffffffffffffffffffffffffffffffff16036129395750612acc565b8073ffffffffffffffffffffffffffffffffffffffff1663f44d4ca33384600460003373ffffffffffffffffffffffffffffffffffffffff1673ffffffffffffffffffffffffffffffffffffffff1681526020019081526020016000206001016040518463ffffffff1660e01b81526004016129b793929190615bf3565b600060405180830381600087803b1580156129d157600080fd5b505af11580156129e5573d6000803e3d6000fd5b505050506000600460003373ffffffffffffffffffffffffffffffffffffffff1673ffffffffffffffffffffffffffffffffffffffff16815260200190815260200160002060000160006101000a81548173ffffffffffffffffffffffffffffffffffffffff021916908373ffffffffffffffffffffffffffffffffffffffff16021790555060405180602001604052806000815250600460003373ffffffffffffffffffffffffffffffffffffffff1673ffffffffffffffffffffffffffffffffffffffff1681526020019081526020016000206001019081612ac991906159a7565b50505b5050565b60008173ffffffffffffffffffffffffffffffffffffffff16600173ffffffffffffffffffffffffffffffffffffffff1614158015612bdb5750600073ffffffffffffffffffffffffffffffffffffffff16600660008573ffffffffffffffffffffffffffffffffffffffff1673ffffffffffffffffffffffffffffffffffffffff16815260200190815260200160002060008473ffffffffffffffffffffffffffffffffffffffff1673ffffffffffffffffffffffffffffffffffffffff16815260200190815260200160002060000160019054906101000a900473ffffffffffffffffffffffffffffffffffffffff1673ffffffffffffffffffffffffffffffffffffffff1614155b905092915050565b612beb613939565b8073ffffffffffffffffffffffffffffffffffffffff166301ffc9a77f253bd7b7000000000000000000000000000000000000000000000000000000006040518263ffffffff1660e01b8152600401612c4491906149e5565b602060405180830381865afa158015612c61573d6000803e3d6000fd5b505050506040513d601f19601f82011682018060405250810190612c859190614a15565b612cc657806040517f24ea21a7000000000000000000000000000000000000000000000000000000008152600401612cbd919061436f565b60405180910390fd5b8073ffffffffffffffffffffffffffffffffffffffff16600260009054906101000a900473ffffffffffffffffffffffffffffffffffffffff1673ffffffffffffffffffffffffffffffffffffffff167f4803049971913703d2dd43c06110dc7fad451e4603e9f485cbeebdda11263ab060405160405180910390a380600260006101000a81548173ffffffffffffffffffffffffffffffffffffffff021916908373ffffffffffffffffffffffffffffffffffffffff16021790555050565b6000600360008373ffffffffffffffffffffffffffffffffffffffff1673ffffffffffffffffffffffffffffffffffffffff16815260200190815260200160002060009054906101000a900473ffffffffffffffffffffffffffffffffffffffff169050919050565b60056020528160005260406000206020528060005260406000206000915091509054906101000a900473ffffffffffffffffffffffffffffffffffffffff1681565b612e39613aeb565b600660008473ffffffffffffffffffffffffffffffffffffffff1673ffffffffffffffffffffffffffffffffffffffff16815260200190815260200160002060008373ffffffffffffffffffffffffffffffffffffffff1673ffffffffffffffffffffffffffffffffffffffff1681526020019081526020016000206040518060400160405290816000820160009054906101000a900460ff1660ff1660ff1681526020016000820160019054906101000a900473ffffffffffffffffffffffffffffffffffffffff1673ffffffffffffffffffffffffffffffffffffffff1673ffffffffffffffffffffffffffffffffffffffff1681525050905092915050565b80612f458161388d565b6000600660003373ffffffffffffffffffffffffffffffffffffffff1673ffffffffffffffffffffffffffffffffffffffff16815260200190815260200160002060008573ffffffffffffffffffffffffffffffffffffffff1673ffffffffffffffffffffffffffffffffffffffff16815260200190815260200160002090506000600660003373ffffffffffffffffffffffffffffffffffffffff1673ffffffffffffffffffffffffffffffffffffffff16815260200190815260200160002060008573ffffffffffffffffffffffffffffffffffffffff1673ffffffffffffffffffffffffffffffffffffffff16815260200190815260200160002090508373ffffffffffffffffffffffffffffffffffffffff168260000160019054906101000a900473ffffffffffffffffffffffffffffffffffffffff1673ffffffffffffffffffffffffffffffffffffffff16146130d957846040517f9d9207af0000000000000000000000000000000000000000000000000000000081526004016130d0919061436f565b60405180910390fd5b8060000160019054906101000a900473ffffffffffffffffffffffffffffffffffffffff168260000160016101000a81548173ffffffffffffffffffffffffffffffffffffffff021916908373ffffffffffffffffffffffffffffffffffffffff1602179055508060000160009054906101000a900460ff168260000160006101000a81548160ff021916908360ff16021790555060008160000160016101000a81548173ffffffffffffffffffffffffffffffffffffffff021916908373ffffffffffffffffffffffffffffffffffffffff16021790555060008160000160006101000a81548160ff021916908360ff1602179055508373ffffffffffffffffffffffffffffffffffffffff163373ffffffffffffffffffffffffffffffffffffffff167ffef2a54f476dede8e8f6ff5138b92d021b5e287e276e6e84ecbd7d18aed2262760405160405180910390a35050505050565b565b6000600160009054906101000a900473ffffffffffffffffffffffffffffffffffffffff16905090565b613265613939565b80600160006101000a81548173ffffffffffffffffffffffffffffffffffffffff021916908373ffffffffffffffffffffffffffffffffffffffff1602179055508073ffffffffffffffffffffffffffffffffffffffff166132c561286f565b73ffffffffffffffffffffffffffffffffffffffff167f38d16b8cac22d99fc7c124b9cd0de2d3fa1faef420bfe791d8c362d765e2270060405160405180910390a350565b600073ffffffffffffffffffffffffffffffffffffffff168173ffffffffffffffffffffffffffffffffffffffff161461342557613349816004613500565b8073ffffffffffffffffffffffffffffffffffffffff166301ffc9a77f907e1c56000000000000000000000000000000000000000000000000000000006040518263ffffffff1660e01b81526004016133a291906149e5565b602060405180830381865afa1580156133bf573d6000803e3d6000fd5b505050506040513d601f19601f820116820180604052508101906133e39190614a15565b61342457806040517f24ea21a700000000000000000000000000000000000000000000000000000000815260040161341b919061436f565b60405180910390fd5b5b80600360003373ffffffffffffffffffffffffffffffffffffffff1673ffffffffffffffffffffffffffffffffffffffff16815260200190815260200160002060006101000a81548173ffffffffffffffffffffffffffffffffffffffff021916908373ffffffffffffffffffffffffffffffffffffffff1602179055508073ffffffffffffffffffffffffffffffffffffffff163373ffffffffffffffffffffffffffffffffffffffff167f4bdb0c6d693920823a574df92b20cb20886d27ac1e4e522e48f2e57bb668423b60405160405180910390a350565b600080600260009054906101000a900473ffffffffffffffffffffffffffffffffffffffff1673ffffffffffffffffffffffffffffffffffffffff1663253bd7b7858560ff1660001b6040518363ffffffff1660e01b8152600401613566929190615365565b6040805180830381865afa158015613582573d6000803e3d6000fd5b505050506040513d601f19601f820116820180604052508101906135a69190615c71565b9150915060008267ffffffffffffffff1614806135ce575060008167ffffffffffffffff1614155b1561361657838282856040517fcad17e6900000000000000000000000000000000000000000000000000000000815260040161360d9493929190615cc0565b60405180910390fd5b50505050565b600073ffffffffffffffffffffffffffffffffffffffff16600660008373ffffffffffffffffffffffffffffffffffffffff1673ffffffffffffffffffffffffffffffffffffffff16815260200190815260200160002060003373ffffffffffffffffffffffffffffffffffffffff1673ffffffffffffffffffffffffffffffffffffffff16815260200190815260200160002060000160019054906101000a900473ffffffffffffffffffffffffffffffffffffffff1673ffffffffffffffffffffffffffffffffffffffff160361372c57336040517f3c61b94d000000000000000000000000000000000000000000000000000000008152600401613723919061436f565b60405180910390fd5b50565b6000600660008473ffffffffffffffffffffffffffffffffffffffff1673ffffffffffffffffffffffffffffffffffffffff16815260200190815260200160002060003373ffffffffffffffffffffffffffffffffffffffff1673ffffffffffffffffffffffffffffffffffffffff16815260200190815260200160002060000160009054906101000a900460ff16905060003373ffffffffffffffffffffffffffffffffffffffff1663e8e755b56040518163ffffffff1660e01b8152600401602060405180830381865afa15801561380d573d6000803e3d6000fd5b505050506040513d601f19601f8201168201806040525081019061383191906151ac565b90508260ff16838383161660ff161461388757338184846040517f7295e93600000000000000000000000000000000000000000000000000000000815260040161387e9493929190615d05565b60405180910390fd5b50505050565b600073ffffffffffffffffffffffffffffffffffffffff168173ffffffffffffffffffffffffffffffffffffffff1614806138f45750600173ffffffffffffffffffffffffffffffffffffffff168173ffffffffffffffffffffffffffffffffffffffff16145b1561393657806040517fc467af0600000000000000000000000000000000000000000000000000000000815260040161392d919061436f565b60405180910390fd5b50565b6139416139e8565b73ffffffffffffffffffffffffffffffffffffffff1661395f61286f565b73ffffffffffffffffffffffffffffffffffffffff16146139b5576040517f08c379a00000000000000000000000000000000000000000000000000000000081526004016139ac90615d96565b60405180910390fd5b565b600160006101000a81549073ffffffffffffffffffffffffffffffffffffffff02191690556139e5816139f0565b50565b600033905090565b60008060009054906101000a900473ffffffffffffffffffffffffffffffffffffffff169050816000806101000a81548173ffffffffffffffffffffffffffffffffffffffff021916908373ffffffffffffffffffffffffffffffffffffffff1602179055508173ffffffffffffffffffffffffffffffffffffffff168173ffffffffffffffffffffffffffffffffffffffff167f8be0079c531659141344cd1fd0a4f28419497f9722a3daafe3b4186f6b6457e060405160405180910390a35050565b6040518060600160405280600073ffffffffffffffffffffffffffffffffffffffff16815260200160008152602001606081525090565b6040518060400160405280600060ff168152602001600073ffffffffffffffffffffffffffffffffffffffff1681525090565b600082905092915050565b60007fffffffff0000000000000000000000000000000000000000000000000000000082169050919050565b600082821b905092915050565b6000613b6e8383613b1e565b82613b798135613b29565b92506004821015613bb957613bb47fffffffff0000000000000000000000000000000000000000000000000000000083600403600802613b55565b831692505b505092915050565b600073ffffffffffffffffffffffffffffffffffffffff82169050919050565b6000613bec82613bc1565b9050919050565b613bfc81613be1565b82525050565b613c0b81613b29565b82525050565b6000604082019050613c266000830185613bf3565b613c336020830184613c02565b9392505050565b6000819050919050565b7f4e487b7100000000000000000000000000000000000000000000000000000000600052601160045260246000fd5b6000613c7e82613c3a565b9150613c8983613c3a565b9250828203905081811115613ca157613ca0613c44565b5b92915050565b6000604051905090565b600080fd5b600080fd5b60008085851115613ccf57613cce613cb1565b5b83861115613ce057613cdf613cb6565b5b6001850283019150848603905094509492505050565b6000819050919050565b6000819050919050565b6000613d25613d20613d1b84613cf6565b613d00565b613c3a565b9050919050565b613d3581613d0a565b82525050565b600082825260208201905092915050565b82818337600083830152505050565b6000601f19601f8301169050919050565b6000613d788385613d3b565b9350613d85838584613d4c565b613d8e83613d5b565b840190509392505050565b6000608082019050613dae6000830188613bf3565b613dbb6020830187613bf3565b613dc86040830186613d2c565b8181036060830152613ddb818486613d6c565b90509695505050505050565b600080fd5b600080fd5b600080fd5b600080fd5b7f4e487b7100000000000000000000000000000000000000000000000000000000600052604160045260246000fd5b613e3382613d5b565b810181811067ffffffffffffffff82111715613e5257613e51613dfb565b5b80604052505050565b6000613e65613ca7565b9050613e718282613e2a565b919050565b600067ffffffffffffffff821115613e9157613e90613dfb565b5b613e9a82613d5b565b9050602081019050919050565b60005b83811015613ec5578082015181840152602081019050613eaa565b60008484015250505050565b6000613ee4613edf84613e76565b613e5b565b905082815260208101848484011115613f0057613eff613df6565b5b613f0b848285613ea7565b509392505050565b600082601f830112613f2857613f27613df1565b5b8151613f38848260208601613ed1565b91505092915050565b600060208284031215613f5757613f56613de7565b5b600082015167ffffffffffffffff811115613f7557613f74613dec565b5b613f8184828501613f13565b91505092915050565b613f9381613b29565b8114613f9e57600080fd5b50565b600081359050613fb081613f8a565b92915050565b600060208284031215613fcc57613fcb613de7565b5b6000613fda84828501613fa1565b91505092915050565b60008115159050919050565b613ff881613fe3565b82525050565b60006020820190506140136000830184613fef565b92915050565b61402281613be1565b811461402d57600080fd5b50565b60008135905061403f81614019565b92915050565b6000806040838503121561405c5761405b613de7565b5b600061406a85828601613fa1565b925050602061407b85828601614030565b9150509250929050565b600080fd5b6000606082840312156140a05761409f614085565b5b81905092915050565b600080604083850312156140c0576140bf613de7565b5b60006140ce85828601614030565b925050602083013567ffffffffffffffff8111156140ef576140ee613dec565b5b6140fb8582860161408a565b9150509250929050565b600081519050919050565b600082825260208201905092915050565b6000819050602082019050919050565b600081519050919050565b600082825260208201905092915050565b600061415882614131565b614162818561413c565b9350614172818560208601613ea7565b61417b81613d5b565b840191505092915050565b6000614192838361414d565b905092915050565b6000602082019050919050565b60006141b282614105565b6141bc8185614110565b9350836020820285016141ce85614121565b8060005b8581101561420a57848403895281516141eb8582614186565b94506141f68361419a565b925060208a019950506001810190506141d2565b50829750879550505050505092915050565b6000602082019050818103600083015261423681846141a7565b905092915050565b600060ff82169050919050565b6142548161423e565b811461425f57600080fd5b50565b6000813590506142718161424b565b92915050565b6000806040838503121561428e5761428d613de7565b5b600061429c85828601614030565b92505060206142ad85828601614262565b9150509250929050565b600080604083850312156142ce576142cd613de7565b5b60006142dc85828601614030565b92505060206142ed85828601614030565b9150509250929050565b6143008161423e565b82525050565b600060408201905061431b60008301856142f7565b6143286020830184613bf3565b9392505050565b6000806040838503121561434657614345613de7565b5b600061435485828601614030565b925050602061436585828601613fa1565b9150509250929050565b60006020820190506143846000830184613bf3565b92915050565b6000606082840312156143a05761439f614085565b5b81905092915050565b600080604083850312156143c0576143bf613de7565b5b60006143ce85828601614030565b925050602083013567ffffffffffffffff8111156143ef576143ee613dec565b5b6143fb8582860161438a565b9150509250929050565b600061441082614131565b61441a8185613d3b565b935061442a818560208601613ea7565b61443381613d5b565b840191505092915050565b600060208201905081810360008301526144588184614405565b905092915050565b61446981613c3a565b811461447457600080fd5b50565b60008135905061448681614460565b92915050565b6000806000606084860312156144a5576144a4613de7565b5b60006144b386828701614030565b93505060206144c486828701614477565b92505060406144d586828701614030565b9150509250925092565b600081519050919050565b600082825260208201905092915050565b6000819050602082019050919050565b61451481613be1565b82525050565b6000614526838361450b565b60208301905092915050565b6000602082019050919050565b600061454a826144df565b61455481856144ea565b935061455f836144fb565b8060005b83811015614590578151614577888261451a565b975061458283614532565b925050600181019050614563565b5085935050505092915050565b600060408201905081810360008301526145b7818561453f565b90506145c66020830184613bf3565b9392505050565b6000602082840312156145e3576145e2613de7565b5b60006145f184828501614030565b91505092915050565b600060408201905061460f6000830185613bf3565b81810360208301526146218184614405565b90509392505050565b600061463d61463884613e76565b613e5b565b90508281526020810184848401111561465957614658613df6565b5b614664848285613d4c565b509392505050565b600082601f83011261468157614680613df1565b5b813561469184826020860161462a565b91505092915050565b600281106146a757600080fd5b50565b6000813590506146b98161469a565b92915050565b600080600080600060a086880312156146db576146da613de7565b5b60006146e988828901614030565b95505060206146fa88828901614477565b945050604086013567ffffffffffffffff81111561471b5761471a613dec565b5b6147278882890161466c565b9350506060614738888289016146aa565b925050608061474988828901614030565b9150509295509295909350565b6000819050919050565b61476981614756565b82525050565b60006020820190506147846000830184614760565b92915050565b600061479582613bc1565b9050919050565b6147a58161478a565b81146147b057600080fd5b50565b6000813590506147c28161479c565b92915050565b60008060008060008060008060008060006101608c8e0312156147ee576147ed613de7565b5b60006147fc8e828f01614030565b9b5050602061480d8e828f01614477565b9a505060408c013567ffffffffffffffff81111561482e5761482d613dec565b5b61483a8e828f0161466c565b995050606061484b8e828f016146aa565b985050608061485c8e828f01614477565b97505060a061486d8e828f01614477565b96505060c061487e8e828f01614477565b95505060e061488f8e828f01614030565b9450506101006148a18e828f016147b3565b9350506101208c013567ffffffffffffffff8111156148c3576148c2613dec565b5b6148cf8e828f0161466c565b9250506101406148e18e828f01614030565b9150509295989b509295989b9093969950565b6148fd81614756565b811461490857600080fd5b50565b60008135905061491a816148f4565b92915050565b61492981613fe3565b811461493457600080fd5b50565b60008135905061494681614920565b92915050565b6000806040838503121561496357614962613de7565b5b60006149718582860161490b565b925050602061498285828601614937565b9150509250929050565b6149958161423e565b82525050565b6040820160008201516149b1600085018261498c565b5060208201516149c4602085018261450b565b50505050565b60006040820190506149df600083018461499b565b92915050565b60006020820190506149fa6000830184613c02565b92915050565b600081519050614a0f81614920565b92915050565b600060208284031215614a2b57614a2a613de7565b5b6000614a3984828501614a00565b91505092915050565b600080fd5b600080fd5b600080fd5b60008083356001602003843603038112614a6e57614a6d614a4c565b5b83810192508235915060208301925067ffffffffffffffff821115614a9657614a95614a42565b5b602082023603831315614aac57614aab614a47565b5b509250929050565b600082825260208201905092915050565b6000819050919050565b6000614ade60208401846147b3565b905092915050565b614aef8161478a565b82525050565b6000614b046020840184614477565b905092915050565b614b1581613c3a565b82525050565b60008083356001602003843603038112614b3857614b37614a4c565b5b83810192508235915060208301925067ffffffffffffffff821115614b6057614b5f614a42565b5b600182023603831315614b7657614b75614a47565b5b509250929050565b6000614b8a838561413c565b9350614b97838584613d4c565b614ba083613d5b565b840190509392505050565b600060608301614bbe6000840184614acf565b614bcb6000860182614ae6565b50614bd96020840184614af5565b614be66020860182614b0c565b50614bf46040840184614b1b565b8583036040870152614c07838284614b7e565b925050508091505092915050565b6000614c218383614bab565b905092915050565b600082356001606003833603038112614c4557614c44614a4c565b5b82810191505092915050565b6000602082019050919050565b6000614c6a8385614ab4565b935083602084028501614c7c84614ac5565b8060005b87811015614cc0578484038952614c978284614c29565b614ca18582614c15565b9450614cac83614c51565b925060208a01995050600181019050614c80565b50829750879450505050509392505050565b6000614ce1602084018461490b565b905092915050565b614cf281614756565b82525050565b600060608301614d0b6000840184614a51565b8583036000870152614d1e838284614c5e565b92505050614d2f6020840184614af5565b614d3c6020860182614b0c565b50614d4a6040840184614cd2565b614d576040860182614ce9565b508091505092915050565b6000819050919050565b6000614d87614d82614d7d84614d62565b613d00565b613c3a565b9050919050565b614d9781614d6c565b82525050565b6000608082019050614db26000830187613bf3565b8181036020830152614dc48186614cf8565b9050614dd36040830185614d8e565b8181036060830152614de58184614405565b905095945050505050565b600080fd5b600080fd5b600080fd5b60008083356001602003843603038112614e1c57614e1b614df0565b5b80840192508235915067ffffffffffffffff821115614e3e57614e3d614df5565b5b602083019250602082023603831315614e5a57614e59614dfa565b5b509250929050565b7f4e487b7100000000000000000000000000000000000000000000000000000000600052603260045260246000fd5b600082356001606003833603038112614ead57614eac614df0565b5b80830191505092915050565b600060208284031215614ecf57614ece613de7565b5b6000614edd848285016147b3565b91505092915050565b614eef81613c3a565b82525050565b6000606082019050614f0a6000830186613bf3565b614f176020830185614760565b614f246040830184614ee6565b949350505050565b60008083356001602003843603038112614f4957614f48614df0565b5b80840192508235915067ffffffffffffffff821115614f6b57614f6a614df5565b5b602083019250600182023603831315614f8757614f86614dfa565b5b509250929050565b6000614faa614fa5614fa084613bc1565b613d00565b613bc1565b9050919050565b6000614fbc82614f8f565b9050919050565b6000614fce82614fb1565b9050919050565b614fde81614fc3565b82525050565b6000614fff614ffa614ff584613cf6565b613d00565b61423e565b9050919050565b61500f81614fe4565b82525050565b600060808201905061502a6000830188614fd5565b6150376020830187614ee6565b818103604083015261504a818587613d6c565b90506150596060830184615006565b9695505050505050565b6000806040838503121561507a57615079613de7565b5b600061508885828601614a00565b925050602083015167ffffffffffffffff8111156150a9576150a8613dec565b5b6150b585828601613f13565b9150509250929050565b60006150ca82613c3a565b91507fffffffffffffffffffffffffffffffffffffffffffffffffffffffffffffffff82036150fc576150fb613c44565b5b600182019050919050565b600060608201905061511c6000830186613bf3565b6151296020830185613fef565b818103604083015261513b8184614405565b9050949350505050565b600060408201905061515a6000830185614760565b6151676020830184614ee6565b9392505050565b60006040820190506151836000830185613bf3565b6151906020830184613bf3565b9392505050565b6000815190506151a68161424b565b92915050565b6000602082840312156151c2576151c1613de7565b5b60006151d084828501615197565b91505092915050565b60006060820190506151ee6000830186613bf3565b6151fb60208301856142f7565b61520860408301846142f7565b949350505050565b600060208201905061522560008301846142f7565b92915050565b60006060830161523e6000840184614c29565b84820360008601526152508282614bab565b9150506152606020840184614af5565b61526d6020860182614b0c565b5061527b6040840184614cd2565b6152886040860182614ce9565b508091505092915050565b60006080820190506152a86000830187613bf3565b81810360208301526152ba818661522b565b90506152c96040830185614d8e565b81810360608301526152db8184614405565b905095945050505050565b60006153016152fc6152f784614d62565b613d00565b61423e565b9050919050565b615311816152e6565b82525050565b600060808201905061532c6000830188614fd5565b6153396020830187614ee6565b818103604083015261534c818587613d6c565b905061535b6060830184615308565b9695505050505050565b600060408201905061537a6000830185613bf3565b6153876020830184614760565b9392505050565b7f4e487b7100000000000000000000000000000000000000000000000000000000600052602260045260246000fd5b600060028204905060018216806153d557607f821691505b6020821081036153e8576153e761538e565b5b50919050565b7f4e487b7100000000000000000000000000000000000000000000000000000000600052602160045260246000fd5b6002811061542e5761542d6153ee565b5b50565b600081905061543f8261541d565b919050565b600061544f82615431565b9050919050565b61545f81615444565b82525050565b600060a08201905061547a6000830188613bf3565b6154876020830187614ee6565b81810360408301526154998186614405565b90506154a86060830185615456565b6154b56080830184613bf3565b9695505050505050565b600081519050919050565b6000819050602082019050919050565b60006060830160008301516154f26000860182614ae6565b5060208301516155056020860182614b0c565b506040830151848203604086015261551d828261414d565b9150508091505092915050565b600061553683836154da565b905092915050565b6000602082019050919050565b6000615556826154bf565b6155608185614ab4565b935083602082028501615572856154ca565b8060005b858110156155ae578484038952815161558f858261552a565b945061559a8361553e565b925060208a01995050600181019050615576565b50829750879550505050505092915050565b600060608301600083015184820360008601526155dd828261554b565b91505060208301516155f26020860182614b0c565b5060408301516156056040860182614ce9565b508091505092915050565b60006080820190506156256000830187613bf3565b818103602083015261563781866155c0565b90506156466040830185614d8e565b81810360608301526156588184614405565b905095945050505050565b6000606083016000830151848203600086015261568082826154da565b91505060208301516156956020860182614b0c565b5060408301516156a86040860182614ce9565b508091505092915050565b60006080820190506156c86000830187613bf3565b81810360208301526156da8186615663565b90506156e96040830185614d8e565b81810360608301526156fb8184614405565b905095945050505050565b61570f8161478a565b82525050565b60006101408201905061572b600083018d613bf3565b615738602083018c614ee6565b818103604083015261574a818b614405565b9050615759606083018a614ee6565b6157666080830189614ee6565b61577360a0830188614ee6565b61578060c0830187613bf3565b61578d60e0830186615706565b8181036101008301526157a08185614405565b90506157b0610120830184613bf3565b9b9a5050505050505050505050565b60006080820190506157d46000830187613bf3565b81810360208301526157e681866155c0565b90506157f56040830185613d2c565b81810360608301526158078184614405565b905095945050505050565b60008190508160005260206000209050919050565b60006020601f8301049050919050565b6000600883026158677fffffffffffffffffffffffffffffffffffffffffffffffffffffffffffffffff82613b55565b6158718683613b55565b95508019841693508086168417925050509392505050565b60006158a461589f61589a84613c3a565b613d00565b613c3a565b9050919050565b6000819050919050565b6158be83615889565b6158d26158ca826158ab565b848454615837565b825550505050565b600090565b6158e76158da565b6158f28184846158b5565b505050565b5b818110156159165761590b6000826158df565b6001810190506158f8565b5050565b601f82111561595b5761592c81615812565b61593584615827565b81016020851015615944578190505b61595861595085615827565b8301826158f7565b50505b505050565b600082821c905092915050565b600061597e60001984600802615960565b1980831691505092915050565b6000615997838361596d565b9150826002028217905092915050565b6159b082614131565b67ffffffffffffffff8111156159c9576159c8613dfb565b5b6159d382546153bd565b6159de82828561591a565b600060209050601f831160018114615a1157600084156159ff578287015190505b615a09858261598b565b865550615a71565b601f198416615a1f86615812565b60005b82811015615a4757848901518255600182019150602085019450602081019050615a22565b86831015615a645784890151615a60601f89168261596d565b8355505b6001600288020188555050505b505050505050565b6000608082019050615a8e6000830187613bf3565b8181036020830152615aa08186615663565b9050615aaf6040830185613d2c565b8181036060830152615ac18184614405565b905095945050505050565b600082825260208201905092915050565b7f4f776e61626c6532537465703a2063616c6c6572206973206e6f74207468652060008201527f6e6577206f776e65720000000000000000000000000000000000000000000000602082015250565b6000615b39602983615acc565b9150615b4482615add565b604082019050919050565b60006020820190508181036000830152615b6881615b2c565b9050919050565b60008154615b7c816153bd565b615b868186613d3b565b94506001821660008114615ba15760018114615bb757615bea565b60ff198316865281151560200286019350615bea565b615bc085615812565b60005b83811015615be257815481890152600182019150602081019050615bc3565b808801955050505b50505092915050565b6000606082019050615c086000830186613bf3565b615c156020830185613fef565b8181036040830152615c278184615b6f565b9050949350505050565b600067ffffffffffffffff82169050919050565b615c4e81615c31565b8114615c5957600080fd5b50565b600081519050615c6b81615c45565b92915050565b60008060408385031215615c8857615c87613de7565b5b6000615c9685828601615c5c565b9250506020615ca785828601615c5c565b9150509250929050565b615cba81615c31565b82525050565b6000608082019050615cd56000830187613bf3565b615ce26020830186615cb1565b615cef6040830185615cb1565b615cfc60608301846142f7565b95945050505050565b6000608082019050615d1a6000830187613bf3565b615d2760208301866142f7565b615d3460408301856142f7565b615d4160608301846142f7565b95945050505050565b7f4f776e61626c653a2063616c6c6572206973206e6f7420746865206f776e6572600082015250565b6000615d80602083615acc565b9150615d8b82615d4a565b602082019050919050565b60006020820190508181036000830152615daf81615d73565b905091905056fea26469706673582212208b734c17164b0dc16cca8cf693322786e60b97d0535e8442789f773aad1ffc5964736f6c63430008140033",
			"opcodes": "PUSH1 0x80 PUSH1 0x40 MSTORE CALLVALUE DUP1 ISZERO PUSH3 0x11 JUMPI PUSH1 0x0 DUP1 REVERT JUMPDEST POP PUSH1 0x40 MLOAD PUSH3 0x6245 CODESIZE SUB DUP1 PUSH3 0x6245 DUP4 CODECOPY DUP2 DUP2 ADD PUSH1 0x40 MSTORE DUP2 ADD SWAP1 PUSH3 0x37 SWAP2 SWAP1 PUSH3 0x30B JUMP JUMPDEST DUP2 DUP2 DUP1 DUP3 PUSH3 0x5B PUSH3 0x4F PUSH3 0x19C PUSH1 0x20 SHL PUSH1 0x20 SHR JUMP JUMPDEST PUSH3 0x1A4 PUSH1 0x20 SHL PUSH1 0x20 SHR JUMP JUMPDEST PUSH3 0x6C DUP2 PUSH3 0x1A4 PUSH1 0x20 SHL PUSH1 0x20 SHR JUMP JUMPDEST DUP2 PUSH20 0xFFFFFFFFFFFFFFFFFFFFFFFFFFFFFFFFFFFFFFFF AND PUSH4 0x1FFC9A7 PUSH32 0x253BD7B700000000000000000000000000000000000000000000000000000000 PUSH1 0x40 MLOAD DUP3 PUSH4 0xFFFFFFFF AND PUSH1 0xE0 SHL DUP2 MSTORE PUSH1 0x4 ADD PUSH3 0xC7 SWAP2 SWAP1 PUSH3 0x38F JUMP JUMPDEST PUSH1 0x20 PUSH1 0x40 MLOAD DUP1 DUP4 SUB DUP2 DUP7 GAS STATICCALL ISZERO DUP1 ISZERO PUSH3 0xE5 JUMPI RETURNDATASIZE PUSH1 0x0 DUP1 RETURNDATACOPY RETURNDATASIZE PUSH1 0x0 REVERT JUMPDEST POP POP POP POP PUSH1 0x40 MLOAD RETURNDATASIZE PUSH1 0x1F NOT PUSH1 0x1F DUP3 ADD AND DUP3 ADD DUP1 PUSH1 0x40 MSTORE POP DUP2 ADD SWAP1 PUSH3 0x10B SWAP2 SWAP1 PUSH3 0x3E9 JUMP JUMPDEST PUSH3 0x14F JUMPI DUP2 PUSH1 0x40 MLOAD PUSH32 0x24EA21A700000000000000000000000000000000000000000000000000000000 DUP2 MSTORE PUSH1 0x4 ADD PUSH3 0x146 SWAP2 SWAP1 PUSH3 0x42C JUMP JUMPDEST PUSH1 0x40 MLOAD DUP1 SWAP2 SUB SWAP1 REVERT JUMPDEST DUP2 PUSH1 0x2 PUSH1 0x0 PUSH2 0x100 EXP DUP2 SLOAD DUP2 PUSH20 0xFFFFFFFFFFFFFFFFFFFFFFFFFFFFFFFFFFFFFFFF MUL NOT AND SWAP1 DUP4 PUSH20 0xFFFFFFFFFFFFFFFFFFFFFFFFFFFFFFFFFFFFFFFF AND MUL OR SWAP1 SSTORE POP POP POP POP POP POP POP PUSH3 0x449 JUMP JUMPDEST PUSH1 0x0 CALLER SWAP1 POP SWAP1 JUMP JUMPDEST PUSH1 0x1 PUSH1 0x0 PUSH2 0x100 EXP DUP2 SLOAD SWAP1 PUSH20 0xFFFFFFFFFFFFFFFFFFFFFFFFFFFFFFFFFFFFFFFF MUL NOT AND SWAP1 SSTORE PUSH3 0x1DA DUP2 PUSH3 0x1DD PUSH1 0x20 SHL PUSH1 0x20 SHR JUMP JUMPDEST POP JUMP JUMPDEST PUSH1 0x0 DUP1 PUSH1 0x0 SWAP1 SLOAD SWAP1 PUSH2 0x100 EXP SWAP1 DIV PUSH20 0xFFFFFFFFFFFFFFFFFFFFFFFFFFFFFFFFFFFFFFFF AND SWAP1 POP DUP2 PUSH1 0x0 DUP1 PUSH2 0x100 EXP DUP2 SLOAD DUP2 PUSH20 0xFFFFFFFFFFFFFFFFFFFFFFFFFFFFFFFFFFFFFFFF MUL NOT AND SWAP1 DUP4 PUSH20 0xFFFFFFFFFFFFFFFFFFFFFFFFFFFFFFFFFFFFFFFF AND MUL OR SWAP1 SSTORE POP DUP2 PUSH20 0xFFFFFFFFFFFFFFFFFFFFFFFFFFFFFFFFFFFFFFFF AND DUP2 PUSH20 0xFFFFFFFFFFFFFFFFFFFFFFFFFFFFFFFFFFFFFFFF AND PUSH32 0x8BE0079C531659141344CD1FD0A4F28419497F9722A3DAAFE3B4186F6B6457E0 PUSH1 0x40 MLOAD PUSH1 0x40 MLOAD DUP1 SWAP2 SUB SWAP1 LOG3 POP POP JUMP JUMPDEST PUSH1 0x0 DUP1 REVERT JUMPDEST PUSH1 0x0 PUSH20 0xFFFFFFFFFFFFFFFFFFFFFFFFFFFFFFFFFFFFFFFF DUP3 AND SWAP1 POP SWAP2 SWAP1 POP JUMP JUMPDEST PUSH1 0x0 PUSH3 0x2D3 DUP3 PUSH3 0x2A6 JUMP JUMPDEST SWAP1 POP SWAP2 SWAP1 POP JUMP JUMPDEST PUSH3 0x2E5 DUP2 PUSH3 0x2C6 JUMP JUMPDEST DUP2 EQ PUSH3 0x2F1 JUMPI PUSH1 0x0 DUP1 REVERT JUMPDEST POP JUMP JUMPDEST PUSH1 0x0 DUP2 MLOAD SWAP1 POP PUSH3 0x305 DUP2 PUSH3 0x2DA JUMP JUMPDEST SWAP3 SWAP2 POP POP JUMP JUMPDEST PUSH1 0x0 DUP1 PUSH1 0x40 DUP4 DUP6 SUB SLT ISZERO PUSH3 0x325 JUMPI PUSH3 0x324 PUSH3 0x2A1 JUMP JUMPDEST JUMPDEST PUSH1 0x0 PUSH3 0x335 DUP6 DUP3 DUP7 ADD PUSH3 0x2F4 JUMP JUMPDEST SWAP3 POP POP PUSH1 0x20 PUSH3 0x348 DUP6 DUP3 DUP7 ADD PUSH3 0x2F4 JUMP JUMPDEST SWAP2 POP POP SWAP3 POP SWAP3 SWAP1 POP JUMP JUMPDEST PUSH1 0x0 PUSH32 0xFFFFFFFF00000000000000000000000000000000000000000000000000000000 DUP3 AND SWAP1 POP SWAP2 SWAP1 POP JUMP JUMPDEST PUSH3 0x389 DUP2 PUSH3 0x352 JUMP JUMPDEST DUP3 MSTORE POP POP JUMP JUMPDEST PUSH1 0x0 PUSH1 0x20 DUP3 ADD SWAP1 POP PUSH3 0x3A6 PUSH1 0x0 DUP4 ADD DUP5 PUSH3 0x37E JUMP JUMPDEST SWAP3 SWAP2 POP POP JUMP JUMPDEST PUSH1 0x0 DUP2 ISZERO ISZERO SWAP1 POP SWAP2 SWAP1 POP JUMP JUMPDEST PUSH3 0x3C3 DUP2 PUSH3 0x3AC JUMP JUMPDEST DUP2 EQ PUSH3 0x3CF JUMPI PUSH1 0x0 DUP1 REVERT JUMPDEST POP JUMP JUMPDEST PUSH1 0x0 DUP2 MLOAD SWAP1 POP PUSH3 0x3E3 DUP2 PUSH3 0x3B8 JUMP JUMPDEST SWAP3 SWAP2 POP POP JUMP JUMPDEST PUSH1 0x0 PUSH1 0x20 DUP3 DUP5 SUB SLT ISZERO PUSH3 0x402 JUMPI PUSH3 0x401 PUSH3 0x2A1 JUMP JUMPDEST JUMPDEST PUSH1 0x0 PUSH3 0x412 DUP5 DUP3 DUP6 ADD PUSH3 0x3D2 JUMP JUMPDEST SWAP2 POP POP SWAP3 SWAP2 POP POP JUMP JUMPDEST PUSH3 0x426 DUP2 PUSH3 0x2C6 JUMP JUMPDEST DUP3 MSTORE POP POP JUMP JUMPDEST PUSH1 0x0 PUSH1 0x20 DUP3 ADD SWAP1 POP PUSH3 0x443 PUSH1 0x0 DUP4 ADD DUP5 PUSH3 0x41B JUMP JUMPDEST SWAP3 SWAP2 POP POP JUMP JUMPDEST PUSH2 0x5DEC DUP1 PUSH3 0x459 PUSH1 0x0 CODECOPY PUSH1 0x0 RETURN INVALID PUSH1 0x80 PUSH1 0x40 MSTORE CALLVALUE DUP1 ISZERO PUSH2 0x10 JUMPI PUSH1 0x0 DUP1 REVERT JUMPDEST POP PUSH1 0x4 CALLDATASIZE LT PUSH2 0x1AD JUMPI PUSH1 0x0 CALLDATALOAD PUSH1 0xE0 SHR DUP1 PUSH4 0x7B103999 GT PUSH2 0xF9 JUMPI DUP1 PUSH4 0xCCCD7832 GT PUSH2 0x97 JUMPI DUP1 PUSH4 0xE16B4A9B GT PUSH2 0x71 JUMPI DUP1 PUSH4 0xE16B4A9B EQ PUSH2 0x722 JUMPI DUP1 PUSH4 0xE30C3978 EQ PUSH2 0x72C JUMPI DUP1 PUSH4 0xF2FDE38B EQ PUSH2 0x74A JUMPI DUP1 PUSH4 0xFB63DAA1 EQ PUSH2 0x766 JUMPI PUSH2 0x1AE JUMP JUMPDEST DUP1 PUSH4 0xCCCD7832 EQ PUSH2 0x6A6 JUMPI DUP1 PUSH4 0xD3AC5669 EQ PUSH2 0x6D6 JUMPI DUP1 PUSH4 0xDF5236E1 EQ PUSH2 0x706 JUMPI PUSH2 0x1AE JUMP JUMPDEST DUP1 PUSH4 0x93271368 GT PUSH2 0xD3 JUMPI DUP1 PUSH4 0x93271368 EQ PUSH2 0x60E JUMPI DUP1 PUSH4 0xA0673F5C EQ PUSH2 0x62A JUMPI DUP1 PUSH4 0xA91EE0DC EQ PUSH2 0x65A JUMPI DUP1 PUSH4 0xC703895C EQ PUSH2 0x676 JUMPI PUSH2 0x1AE JUMP JUMPDEST DUP1 PUSH4 0x7B103999 EQ PUSH2 0x5A2 JUMPI DUP1 PUSH4 0x80479C34 EQ PUSH2 0x5C0 JUMPI DUP1 PUSH4 0x8DA5CB5B EQ PUSH2 0x5F0 JUMPI PUSH2 0x1AE JUMP JUMPDEST DUP1 PUSH4 0x30F571F9 GT PUSH2 0x166 JUMPI DUP1 PUSH4 0x715018A6 GT PUSH2 0x140 JUMPI DUP1 PUSH4 0x715018A6 EQ PUSH2 0x542 JUMPI DUP1 PUSH4 0x728C2972 EQ PUSH2 0x54C JUMPI DUP1 PUSH4 0x75F0BB52 EQ PUSH2 0x57C JUMPI DUP1 PUSH4 0x79BA5097 EQ PUSH2 0x598 JUMPI PUSH2 0x1AE JUMP JUMPDEST DUP1 PUSH4 0x30F571F9 EQ PUSH2 0x4B0 JUMPI DUP1 PUSH4 0x3550B344 EQ PUSH2 0x4E0 JUMPI DUP1 PUSH4 0x384EE8A4 EQ PUSH2 0x511 JUMPI PUSH2 0x1AE JUMP JUMPDEST DUP1 PUSH4 0x1FFC9A7 EQ PUSH2 0x3B7 JUMPI DUP1 PUSH4 0xD7E358E EQ PUSH2 0x3E7 JUMPI DUP1 PUSH4 0xF991915 EQ PUSH2 0x403 JUMPI DUP1 PUSH4 0x1EA24616 EQ PUSH2 0x433 JUMPI DUP1 PUSH4 0x1F026C91 EQ PUSH2 0x44F JUMPI DUP1 PUSH4 0x1F09A435 EQ PUSH2 0x480 JUMPI PUSH2 0x1AE JUMP JUMPDEST JUMPDEST PUSH1 0x0 CALLDATASIZE PUSH1 0x60 PUSH1 0x0 CALLER SWAP1 POP PUSH1 0x0 DUP1 CALLDATASIZE SWAP1 PUSH2 0x1C7 SWAP2 SWAP1 PUSH2 0x3B62 JUMP JUMPDEST SWAP1 POP PUSH1 0x0 PUSH1 0x5 PUSH1 0x0 DUP5 PUSH20 0xFFFFFFFFFFFFFFFFFFFFFFFFFFFFFFFFFFFFFFFF AND PUSH20 0xFFFFFFFFFFFFFFFFFFFFFFFFFFFFFFFFFFFFFFFF AND DUP2 MSTORE PUSH1 0x20 ADD SWAP1 DUP2 MSTORE PUSH1 0x20 ADD PUSH1 0x0 KECCAK256 PUSH1 0x0 DUP4 PUSH28 0xFFFFFFFFFFFFFFFFFFFFFFFFFFFFFFFFFFFFFFFFFFFFFFFFFFFFFFFF NOT AND PUSH28 0xFFFFFFFFFFFFFFFFFFFFFFFFFFFFFFFFFFFFFFFFFFFFFFFFFFFFFFFF NOT AND DUP2 MSTORE PUSH1 0x20 ADD SWAP1 DUP2 MSTORE PUSH1 0x20 ADD PUSH1 0x0 KECCAK256 PUSH1 0x0 SWAP1 SLOAD SWAP1 PUSH2 0x100 EXP SWAP1 DIV PUSH20 0xFFFFFFFFFFFFFFFFFFFFFFFFFFFFFFFFFFFFFFFF AND SWAP1 POP PUSH1 0x0 PUSH20 0xFFFFFFFFFFFFFFFFFFFFFFFFFFFFFFFFFFFFFFFF AND DUP2 PUSH20 0xFFFFFFFFFFFFFFFFFFFFFFFFFFFFFFFFFFFFFFFF AND SUB PUSH2 0x2EF JUMPI DUP3 DUP3 PUSH1 0x40 MLOAD PUSH32 0x7AD978A300000000000000000000000000000000000000000000000000000000 DUP2 MSTORE PUSH1 0x4 ADD PUSH2 0x2E6 SWAP3 SWAP2 SWAP1 PUSH2 0x3C11 JUMP JUMPDEST PUSH1 0x40 MLOAD DUP1 SWAP2 SUB SWAP1 REVERT JUMPDEST PUSH1 0x0 PUSH1 0x14 CALLDATASIZE SUB CALLDATALOAD PUSH1 0x60 SHR SWAP1 POP DUP2 PUSH20 0xFFFFFFFFFFFFFFFFFFFFFFFFFFFFFFFFFFFFFFFF AND PUSH4 0x25D6803F DUP6 DUP4 PUSH1 0x0 DUP1 CALLDATASIZE PUSH1 0x0 SWAP1 PUSH1 0x14 PUSH1 0x0 CALLDATASIZE SWAP1 POP PUSH2 0x331 SWAP2 SWAP1 PUSH2 0x3C73 JUMP JUMPDEST SWAP3 PUSH2 0x33E SWAP4 SWAP3 SWAP2 SWAP1 PUSH2 0x3CBB JUMP JUMPDEST PUSH1 0x40 MLOAD DUP7 PUSH4 0xFFFFFFFF AND PUSH1 0xE0 SHL DUP2 MSTORE PUSH1 0x4 ADD PUSH2 0x35E SWAP6 SWAP5 SWAP4 SWAP3 SWAP2 SWAP1 PUSH2 0x3D99 JUMP JUMPDEST PUSH1 0x0 PUSH1 0x40 MLOAD DUP1 DUP4 SUB DUP2 PUSH1 0x0 DUP8 GAS CALL ISZERO DUP1 ISZERO PUSH2 0x37D JUMPI RETURNDATASIZE PUSH1 0x0 DUP1 RETURNDATACOPY RETURNDATASIZE PUSH1 0x0 REVERT JUMPDEST POP POP POP POP PUSH1 0x40 MLOAD RETURNDATASIZE PUSH1 0x0 DUP3 RETURNDATACOPY RETURNDATASIZE PUSH1 0x1F NOT PUSH1 0x1F DUP3 ADD AND DUP3 ADD DUP1 PUSH1 0x40 MSTORE POP DUP2 ADD SWAP1 PUSH2 0x3A6 SWAP2 SWAP1 PUSH2 0x3F41 JUMP JUMPDEST SWAP5 POP POP POP POP POP SWAP2 POP POP DUP1 MLOAD SWAP1 PUSH1 0x20 ADD RETURN JUMPDEST PUSH2 0x3D1 PUSH1 0x4 DUP1 CALLDATASIZE SUB DUP2 ADD SWAP1 PUSH2 0x3CC SWAP2 SWAP1 PUSH2 0x3FB6 JUMP JUMPDEST PUSH2 0x782 JUMP JUMPDEST PUSH1 0x40 MLOAD PUSH2 0x3DE SWAP2 SWAP1 PUSH2 0x3FFE JUMP JUMPDEST PUSH1 0x40 MLOAD DUP1 SWAP2 SUB SWAP1 RETURN JUMPDEST PUSH2 0x401 PUSH1 0x4 DUP1 CALLDATASIZE SUB DUP2 ADD SWAP1 PUSH2 0x3FC SWAP2 SWAP1 PUSH2 0x4045 JUMP JUMPDEST PUSH2 0x8B4 JUMP JUMPDEST STOP JUMPDEST PUSH2 0x41D PUSH1 0x4 DUP1 CALLDATASIZE SUB DUP2 ADD SWAP1 PUSH2 0x418 SWAP2 SWAP1 PUSH2 0x40A9 JUMP JUMPDEST PUSH2 0xB1A JUMP JUMPDEST PUSH1 0x40 MLOAD PUSH2 0x42A SWAP2 SWAP1 PUSH2 0x421C JUMP JUMPDEST PUSH1 0x40 MLOAD DUP1 SWAP2 SUB SWAP1 RETURN JUMPDEST PUSH2 0x44D PUSH1 0x4 DUP1 CALLDATASIZE SUB DUP2 ADD SWAP1 PUSH2 0x448 SWAP2 SWAP1 PUSH2 0x4277 JUMP JUMPDEST PUSH2 0x102F JUMP JUMPDEST STOP JUMPDEST PUSH2 0x469 PUSH1 0x4 DUP1 CALLDATASIZE SUB DUP2 ADD SWAP1 PUSH2 0x464 SWAP2 SWAP1 PUSH2 0x42B7 JUMP JUMPDEST PUSH2 0x154D JUMP JUMPDEST PUSH1 0x40 MLOAD PUSH2 0x477 SWAP3 SWAP2 SWAP1 PUSH2 0x4306 JUMP JUMPDEST PUSH1 0x40 MLOAD DUP1 SWAP2 SUB SWAP1 RETURN JUMPDEST PUSH2 0x49A PUSH1 0x4 DUP1 CALLDATASIZE SUB DUP2 ADD SWAP1 PUSH2 0x495 SWAP2 SWAP1 PUSH2 0x432F JUMP JUMPDEST PUSH2 0x15AB JUMP JUMPDEST PUSH1 0x40 MLOAD PUSH2 0x4A7 SWAP2 SWAP1 PUSH2 0x436F JUMP JUMPDEST PUSH1 0x40 MLOAD DUP1 SWAP2 SUB SWAP1 RETURN JUMPDEST PUSH2 0x4CA PUSH1 0x4 DUP1 CALLDATASIZE SUB DUP2 ADD SWAP1 PUSH2 0x4C5 SWAP2 SWAP1 PUSH2 0x43A9 JUMP JUMPDEST PUSH2 0x1664 JUMP JUMPDEST PUSH1 0x40 MLOAD PUSH2 0x4D7 SWAP2 SWAP1 PUSH2 0x443E JUMP JUMPDEST PUSH1 0x40 MLOAD DUP1 SWAP2 SUB SWAP1 RETURN JUMPDEST PUSH2 0x4FA PUSH1 0x4 DUP1 CALLDATASIZE SUB DUP2 ADD SWAP1 PUSH2 0x4F5 SWAP2 SWAP1 PUSH2 0x448C JUMP JUMPDEST PUSH2 0x19C1 JUMP JUMPDEST PUSH1 0x40 MLOAD PUSH2 0x508 SWAP3 SWAP2 SWAP1 PUSH2 0x459D JUMP JUMPDEST PUSH1 0x40 MLOAD DUP1 SWAP2 SUB SWAP1 RETURN JUMPDEST PUSH2 0x52B PUSH1 0x4 DUP1 CALLDATASIZE SUB DUP2 ADD SWAP1 PUSH2 0x526 SWAP2 SWAP1 PUSH2 0x45CD JUMP JUMPDEST PUSH2 0x1D73 JUMP JUMPDEST PUSH1 0x40 MLOAD PUSH2 0x539 SWAP3 SWAP2 SWAP1 PUSH2 0x45FA JUMP JUMPDEST PUSH1 0x40 MLOAD DUP1 SWAP2 SUB SWAP1 RETURN JUMPDEST PUSH2 0x54A PUSH2 0x1E3F JUMP JUMPDEST STOP JUMPDEST PUSH2 0x566 PUSH1 0x4 DUP1 CALLDATASIZE SUB DUP2 ADD SWAP1 PUSH2 0x561 SWAP2 SWAP1 PUSH2 0x46BF JUMP JUMPDEST PUSH2 0x1E53 JUMP JUMPDEST PUSH1 0x40 MLOAD PUSH2 0x573 SWAP2 SWAP1 PUSH2 0x476F JUMP JUMPDEST PUSH1 0x40 MLOAD DUP1 SWAP2 SUB SWAP1 RETURN JUMPDEST PUSH2 0x596 PUSH1 0x4 DUP1 CALLDATASIZE SUB DUP2 ADD SWAP1 PUSH2 0x591 SWAP2 SWAP1 PUSH2 0x47C8 JUMP JUMPDEST PUSH2 0x22BB JUMP JUMPDEST STOP JUMPDEST PUSH2 0x5A0 PUSH2 0x2789 JUMP JUMPDEST STOP JUMPDEST PUSH2 0x5AA PUSH2 0x2816 JUMP JUMPDEST PUSH1 0x40 MLOAD PUSH2 0x5B7 SWAP2 SWAP1 PUSH2 0x436F JUMP JUMPDEST PUSH1 0x40 MLOAD DUP1 SWAP2 SUB SWAP1 RETURN JUMPDEST PUSH2 0x5DA PUSH1 0x4 DUP1 CALLDATASIZE SUB DUP2 ADD SWAP1 PUSH2 0x5D5 SWAP2 SWAP1 PUSH2 0x45CD JUMP JUMPDEST PUSH2 0x283C JUMP JUMPDEST PUSH1 0x40 MLOAD PUSH2 0x5E7 SWAP2 SWAP1 PUSH2 0x436F JUMP JUMPDEST PUSH1 0x40 MLOAD DUP1 SWAP2 SUB SWAP1 RETURN JUMPDEST PUSH2 0x5F8 PUSH2 0x286F JUMP JUMPDEST PUSH1 0x40 MLOAD PUSH2 0x605 SWAP2 SWAP1 PUSH2 0x436F JUMP JUMPDEST PUSH1 0x40 MLOAD DUP1 SWAP2 SUB SWAP1 RETURN JUMPDEST PUSH2 0x628 PUSH1 0x4 DUP1 CALLDATASIZE SUB DUP2 ADD SWAP1 PUSH2 0x623 SWAP2 SWAP1 PUSH2 0x494C JUMP JUMPDEST PUSH2 0x2898 JUMP JUMPDEST STOP JUMPDEST PUSH2 0x644 PUSH1 0x4 DUP1 CALLDATASIZE SUB DUP2 ADD SWAP1 PUSH2 0x63F SWAP2 SWAP1 PUSH2 0x42B7 JUMP JUMPDEST PUSH2 0x2AD0 JUMP JUMPDEST PUSH1 0x40 MLOAD PUSH2 0x651 SWAP2 SWAP1 PUSH2 0x3FFE JUMP JUMPDEST PUSH1 0x40 MLOAD DUP1 SWAP2 SUB SWAP1 RETURN JUMPDEST PUSH2 0x674 PUSH1 0x4 DUP1 CALLDATASIZE SUB DUP2 ADD SWAP1 PUSH2 0x66F SWAP2 SWAP1 PUSH2 0x45CD JUMP JUMPDEST PUSH2 0x2BE3 JUMP JUMPDEST STOP JUMPDEST PUSH2 0x690 PUSH1 0x4 DUP1 CALLDATASIZE SUB DUP2 ADD SWAP1 PUSH2 0x68B SWAP2 SWAP1 PUSH2 0x45CD JUMP JUMPDEST PUSH2 0x2D86 JUMP JUMPDEST PUSH1 0x40 MLOAD PUSH2 0x69D SWAP2 SWAP1 PUSH2 0x436F JUMP JUMPDEST PUSH1 0x40 MLOAD DUP1 SWAP2 SUB SWAP1 RETURN JUMPDEST PUSH2 0x6C0 PUSH1 0x4 DUP1 CALLDATASIZE SUB DUP2 ADD SWAP1 PUSH2 0x6BB SWAP2 SWAP1 PUSH2 0x432F JUMP JUMPDEST PUSH2 0x2DEF JUMP JUMPDEST PUSH1 0x40 MLOAD PUSH2 0x6CD SWAP2 SWAP1 PUSH2 0x436F JUMP JUMPDEST PUSH1 0x40 MLOAD DUP1 SWAP2 SUB SWAP1 RETURN JUMPDEST PUSH2 0x6F0 PUSH1 0x4 DUP1 CALLDATASIZE SUB DUP2 ADD SWAP1 PUSH2 0x6EB SWAP2 SWAP1 PUSH2 0x42B7 JUMP JUMPDEST PUSH2 0x2E31 JUMP JUMPDEST PUSH1 0x40 MLOAD PUSH2 0x6FD SWAP2 SWAP1 PUSH2 0x49CA JUMP JUMPDEST PUSH1 0x40 MLOAD DUP1 SWAP2 SUB SWAP1 RETURN JUMPDEST PUSH2 0x720 PUSH1 0x4 DUP1 CALLDATASIZE SUB DUP2 ADD SWAP1 PUSH2 0x71B SWAP2 SWAP1 PUSH2 0x42B7 JUMP JUMPDEST PUSH2 0x2F3B JUMP JUMPDEST STOP JUMPDEST PUSH2 0x72A PUSH2 0x3231 JUMP JUMPDEST STOP JUMPDEST PUSH2 0x734 PUSH2 0x3233 JUMP JUMPDEST PUSH1 0x40 MLOAD PUSH2 0x741 SWAP2 SWAP1 PUSH2 0x436F JUMP JUMPDEST PUSH1 0x40 MLOAD DUP1 SWAP2 SUB SWAP1 RETURN JUMPDEST PUSH2 0x764 PUSH1 0x4 DUP1 CALLDATASIZE SUB DUP2 ADD SWAP1 PUSH2 0x75F SWAP2 SWAP1 PUSH2 0x45CD JUMP JUMPDEST PUSH2 0x325D JUMP JUMPDEST STOP JUMPDEST PUSH2 0x780 PUSH1 0x4 DUP1 CALLDATASIZE SUB DUP2 ADD SWAP1 PUSH2 0x77B SWAP2 SWAP1 PUSH2 0x45CD JUMP JUMPDEST PUSH2 0x330A JUMP JUMPDEST STOP JUMPDEST PUSH1 0x0 PUSH4 0x945B8148 PUSH1 0xE0 SHL DUP3 PUSH28 0xFFFFFFFFFFFFFFFFFFFFFFFFFFFFFFFFFFFFFFFFFFFFFFFFFFFFFFFF NOT AND EQ DUP1 PUSH2 0x7DD JUMPI POP PUSH4 0xE6D7A83A PUSH1 0xE0 SHL DUP3 PUSH28 0xFFFFFFFFFFFFFFFFFFFFFFFFFFFFFFFFFFFFFFFFFFFFFFFFFFFFFFFF NOT AND EQ JUMPDEST DUP1 PUSH2 0x845 JUMPI POP PUSH32 0x3F6C68EC00000000000000000000000000000000000000000000000000000000 PUSH28 0xFFFFFFFFFFFFFFFFFFFFFFFFFFFFFFFFFFFFFFFFFFFFFFFFFFFFFFFF NOT AND DUP3 PUSH28 0xFFFFFFFFFFFFFFFFFFFFFFFFFFFFFFFFFFFFFFFFFFFFFFFFFFFFFFFF NOT AND EQ JUMPDEST DUP1 PUSH2 0x8AD JUMPI POP PUSH32 0x1FFC9A700000000000000000000000000000000000000000000000000000000 PUSH28 0xFFFFFFFFFFFFFFFFFFFFFFFFFFFFFFFFFFFFFFFFFFFFFFFFFFFFFFFF NOT AND DUP3 PUSH28 0xFFFFFFFFFFFFFFFFFFFFFFFFFFFFFFFFFFFFFFFFFFFFFFFFFFFFFFFF NOT AND EQ JUMPDEST SWAP1 POP SWAP2 SWAP1 POP JUMP JUMPDEST PUSH1 0x0 PUSH20 0xFFFFFFFFFFFFFFFFFFFFFFFFFFFFFFFFFFFFFFFF AND DUP2 PUSH20 0xFFFFFFFFFFFFFFFFFFFFFFFFFFFFFFFFFFFFFFFF AND EQ PUSH2 0x9CF JUMPI PUSH2 0x8F3 DUP2 PUSH1 0x2 PUSH2 0x3500 JUMP JUMPDEST DUP1 PUSH20 0xFFFFFFFFFFFFFFFFFFFFFFFFFFFFFFFFFFFFFFFF AND PUSH4 0x1FFC9A7 PUSH32 0xF601AD1500000000000000000000000000000000000000000000000000000000 PUSH1 0x40 MLOAD DUP3 PUSH4 0xFFFFFFFF AND PUSH1 0xE0 SHL DUP2 MSTORE PUSH1 0x4 ADD PUSH2 0x94C SWAP2 SWAP1 PUSH2 0x49E5 JUMP JUMPDEST PUSH1 0x20 PUSH1 0x40 MLOAD DUP1 DUP4 SUB DUP2 DUP7 GAS STATICCALL ISZERO DUP1 ISZERO PUSH2 0x969 JUMPI RETURNDATASIZE PUSH1 0x0 DUP1 RETURNDATACOPY RETURNDATASIZE PUSH1 0x0 REVERT JUMPDEST POP POP POP POP PUSH1 0x40 MLOAD RETURNDATASIZE PUSH1 0x1F NOT PUSH1 0x1F DUP3 ADD AND DUP3 ADD DUP1 PUSH1 0x40 MSTORE POP DUP2 ADD SWAP1 PUSH2 0x98D SWAP2 SWAP1 PUSH2 0x4A15 JUMP JUMPDEST PUSH2 0x9CE JUMPI DUP1 PUSH1 0x40 MLOAD PUSH32 0x24EA21A700000000000000000000000000000000000000000000000000000000 DUP2 MSTORE PUSH1 0x4 ADD PUSH2 0x9C5 SWAP2 SWAP1 PUSH2 0x436F JUMP JUMPDEST PUSH1 0x40 MLOAD DUP1 SWAP2 SUB SWAP1 REVERT JUMPDEST JUMPDEST DUP1 PUSH1 0x5 PUSH1 0x0 CALLER PUSH20 0xFFFFFFFFFFFFFFFFFFFFFFFFFFFFFFFFFFFFFFFF AND PUSH20 0xFFFFFFFFFFFFFFFFFFFFFFFFFFFFFFFFFFFFFFFF AND DUP2 MSTORE PUSH1 0x20 ADD SWAP1 DUP2 MSTORE PUSH1 0x20 ADD PUSH1 0x0 KECCAK256 PUSH1 0x0 DUP5 PUSH28 0xFFFFFFFFFFFFFFFFFFFFFFFFFFFFFFFFFFFFFFFFFFFFFFFFFFFFFFFF NOT AND PUSH28 0xFFFFFFFFFFFFFFFFFFFFFFFFFFFFFFFFFFFFFFFFFFFFFFFFFFFFFFFF NOT AND DUP2 MSTORE PUSH1 0x20 ADD SWAP1 DUP2 MSTORE PUSH1 0x20 ADD PUSH1 0x0 KECCAK256 PUSH1 0x0 PUSH2 0x100 EXP DUP2 SLOAD DUP2 PUSH20 0xFFFFFFFFFFFFFFFFFFFFFFFFFFFFFFFFFFFFFFFF MUL NOT AND SWAP1 DUP4 PUSH20 0xFFFFFFFFFFFFFFFFFFFFFFFFFFFFFFFFFFFFFFFF AND MUL OR SWAP1 SSTORE POP DUP1 PUSH20 0xFFFFFFFFFFFFFFFFFFFFFFFFFFFFFFFFFFFFFFFF AND DUP3 PUSH28 0xFFFFFFFFFFFFFFFFFFFFFFFFFFFFFFFFFFFFFFFFFFFFFFFFFFFFFFFF NOT AND CALLER PUSH20 0xFFFFFFFFFFFFFFFFFFFFFFFFFFFFFFFFFFFFFFFF AND PUSH32 0x31BEF286390C4A9BA9B02B42210052C74ED84EA939C9EE4508F7AD380051C318 PUSH1 0x40 MLOAD PUSH1 0x40 MLOAD DUP1 SWAP2 SUB SWAP1 LOG4 POP POP JUMP JUMPDEST PUSH1 0x60 DUP3 PUSH2 0xB26 DUP2 PUSH2 0x361C JUMP JUMPDEST CALLER PUSH1 0x1 PUSH2 0xB33 DUP3 DUP3 PUSH2 0x3500 JUMP JUMPDEST PUSH1 0x0 PUSH1 0x3 PUSH1 0x0 DUP9 PUSH20 0xFFFFFFFFFFFFFFFFFFFFFFFFFFFFFFFFFFFFFFFF AND PUSH20 0xFFFFFFFFFFFFFFFFFFFFFFFFFFFFFFFFFFFFFFFF AND DUP2 MSTORE PUSH1 0x20 ADD SWAP1 DUP2 MSTORE PUSH1 0x20 ADD PUSH1 0x0 KECCAK256 PUSH1 0x0 SWAP1 SLOAD SWAP1 PUSH2 0x100 EXP SWAP1 DIV PUSH20 0xFFFFFFFFFFFFFFFFFFFFFFFFFFFFFFFFFFFFFFFF AND SWAP1 POP PUSH1 0x0 DUP1 PUSH20 0xFFFFFFFFFFFFFFFFFFFFFFFFFFFFFFFFFFFFFFFF AND DUP3 PUSH20 0xFFFFFFFFFFFFFFFFFFFFFFFFFFFFFFFFFFFFFFFF AND EQ ISZERO SWAP1 POP PUSH1 0x60 DUP2 ISZERO PUSH2 0xC7D JUMPI DUP3 PUSH20 0xFFFFFFFFFFFFFFFFFFFFFFFFFFFFFFFFFFFFFFFF AND PUSH4 0x176AE7B7 DUP11 DUP11 PUSH1 0x1 CALLER PUSH1 0x40 MLOAD PUSH1 0x20 ADD PUSH2 0xC04 SWAP2 SWAP1 PUSH2 0x436F JUMP JUMPDEST PUSH1 0x40 MLOAD PUSH1 0x20 DUP2 DUP4 SUB SUB DUP2 MSTORE SWAP1 PUSH1 0x40 MSTORE PUSH1 0x40 MLOAD DUP6 PUSH4 0xFFFFFFFF AND PUSH1 0xE0 SHL DUP2 MSTORE PUSH1 0x4 ADD PUSH2 0xC32 SWAP5 SWAP4 SWAP3 SWAP2 SWAP1 PUSH2 0x4D9D JUMP JUMPDEST PUSH1 0x0 PUSH1 0x40 MLOAD DUP1 DUP4 SUB DUP2 PUSH1 0x0 DUP8 GAS CALL ISZERO DUP1 ISZERO PUSH2 0xC51 JUMPI RETURNDATASIZE PUSH1 0x0 DUP1 RETURNDATACOPY RETURNDATASIZE PUSH1 0x0 REVERT JUMPDEST POP POP POP POP PUSH1 0x40 MLOAD RETURNDATASIZE PUSH1 0x0 DUP3 RETURNDATACOPY RETURNDATASIZE PUSH1 0x1F NOT PUSH1 0x1F DUP3 ADD AND DUP3 ADD DUP1 PUSH1 0x40 MSTORE POP DUP2 ADD SWAP1 PUSH2 0xC7A SWAP2 SWAP1 PUSH2 0x3F41 JUMP JUMPDEST SWAP1 POP JUMPDEST DUP8 DUP1 PUSH1 0x0 ADD SWAP1 PUSH2 0xC8D SWAP2 SWAP1 PUSH2 0x4DFF JUMP JUMPDEST SWAP1 POP PUSH8 0xFFFFFFFFFFFFFFFF DUP2 GT ISZERO PUSH2 0xCA8 JUMPI PUSH2 0xCA7 PUSH2 0x3DFB JUMP JUMPDEST JUMPDEST PUSH1 0x40 MLOAD SWAP1 DUP1 DUP3 MSTORE DUP1 PUSH1 0x20 MUL PUSH1 0x20 ADD DUP3 ADD PUSH1 0x40 MSTORE DUP1 ISZERO PUSH2 0xCDB JUMPI DUP2 PUSH1 0x20 ADD JUMPDEST PUSH1 0x60 DUP2 MSTORE PUSH1 0x20 ADD SWAP1 PUSH1 0x1 SWAP1 SUB SWAP1 DUP2 PUSH2 0xCC6 JUMPI SWAP1 POP JUMPDEST POP SWAP7 POP PUSH1 0x0 DUP9 DUP1 PUSH1 0x0 ADD SWAP1 PUSH2 0xCF0 SWAP2 SWAP1 PUSH2 0x4DFF JUMP JUMPDEST SWAP1 POP SWAP1 POP PUSH1 0x0 JUMPDEST DUP2 DUP2 LT ISZERO PUSH2 0xF52 JUMPI CALLDATASIZE DUP11 DUP1 PUSH1 0x0 ADD SWAP1 PUSH2 0xD10 SWAP2 SWAP1 PUSH2 0x4DFF JUMP JUMPDEST DUP4 DUP2 DUP2 LT PUSH2 0xD21 JUMPI PUSH2 0xD20 PUSH2 0x4E62 JUMP JUMPDEST JUMPDEST SWAP1 POP PUSH1 0x20 MUL DUP2 ADD SWAP1 PUSH2 0xD33 SWAP2 SWAP1 PUSH2 0x4E91 JUMP JUMPDEST SWAP1 POP ADDRESS PUSH20 0xFFFFFFFFFFFFFFFFFFFFFFFFFFFFFFFFFFFFFFFF AND DUP2 PUSH1 0x0 ADD PUSH1 0x20 DUP2 ADD SWAP1 PUSH2 0xD5F SWAP2 SWAP1 PUSH2 0x4EB9 JUMP JUMPDEST PUSH20 0xFFFFFFFFFFFFFFFFFFFFFFFFFFFFFFFFFFFFFFFF AND SUB PUSH2 0xDBF JUMPI DUP12 DUP12 PUSH1 0x40 ADD CALLDATALOAD DUP4 PUSH1 0x40 MLOAD PUSH32 0xE37E72ED00000000000000000000000000000000000000000000000000000000 DUP2 MSTORE PUSH1 0x4 ADD PUSH2 0xDB6 SWAP4 SWAP3 SWAP2 SWAP1 PUSH2 0x4EF5 JUMP JUMPDEST PUSH1 0x40 MLOAD DUP1 SWAP2 SUB SWAP1 REVERT JUMPDEST DUP12 PUSH20 0xFFFFFFFFFFFFFFFFFFFFFFFFFFFFFFFFFFFFFFFF AND DUP2 PUSH1 0x0 ADD PUSH1 0x20 DUP2 ADD SWAP1 PUSH2 0xDE9 SWAP2 SWAP1 PUSH2 0x4EB9 JUMP JUMPDEST PUSH20 0xFFFFFFFFFFFFFFFFFFFFFFFFFFFFFFFFFFFFFFFF AND SUB PUSH2 0xE14 JUMPI PUSH2 0xE0F DUP13 PUSH1 0x2 PUSH2 0x372F JUMP JUMPDEST PUSH2 0xE20 JUMP JUMPDEST PUSH2 0xE1F DUP13 PUSH1 0x1 PUSH2 0x372F JUMP JUMPDEST JUMPDEST PUSH1 0x0 DUP1 DUP14 PUSH20 0xFFFFFFFFFFFFFFFFFFFFFFFFFFFFFFFFFFFFFFFF AND PUSH4 0x5229073F DUP5 PUSH1 0x0 ADD PUSH1 0x20 DUP2 ADD SWAP1 PUSH2 0xE52 SWAP2 SWAP1 PUSH2 0x4EB9 JUMP JUMPDEST DUP6 PUSH1 0x20 ADD CALLDATALOAD DUP7 DUP1 PUSH1 0x40 ADD SWAP1 PUSH2 0xE67 SWAP2 SWAP1 PUSH2 0x4F2C JUMP JUMPDEST PUSH1 0x0 PUSH1 0x40 MLOAD DUP7 PUSH4 0xFFFFFFFF AND PUSH1 0xE0 SHL DUP2 MSTORE PUSH1 0x4 ADD PUSH2 0xE89 SWAP6 SWAP5 SWAP4 SWAP3 SWAP2 SWAP1 PUSH2 0x5015 JUMP JUMPDEST PUSH1 0x0 PUSH1 0x40 MLOAD DUP1 DUP4 SUB DUP2 PUSH1 0x0 DUP8 GAS CALL ISZERO DUP1 ISZERO PUSH2 0xEA8 JUMPI RETURNDATASIZE PUSH1 0x0 DUP1 RETURNDATACOPY RETURNDATASIZE PUSH1 0x0 REVERT JUMPDEST POP POP POP POP PUSH1 0x40 MLOAD RETURNDATASIZE PUSH1 0x0 DUP3 RETURNDATACOPY RETURNDATASIZE PUSH1 0x1F NOT PUSH1 0x1F DUP3 ADD AND DUP3 ADD DUP1 PUSH1 0x40 MSTORE POP DUP2 ADD SWAP1 PUSH2 0xED1 SWAP2 SWAP1 PUSH2 0x5063 JUMP JUMPDEST SWAP2 POP SWAP2 POP DUP2 PUSH2 0xF1F JUMPI DUP14 DUP14 PUSH1 0x40 ADD CALLDATALOAD DUP6 PUSH1 0x40 MLOAD PUSH32 0x65CBA8D400000000000000000000000000000000000000000000000000000000 DUP2 MSTORE PUSH1 0x4 ADD PUSH2 0xF16 SWAP4 SWAP3 SWAP2 SWAP1 PUSH2 0x4EF5 JUMP JUMPDEST PUSH1 0x40 MLOAD DUP1 SWAP2 SUB SWAP1 REVERT JUMPDEST DUP1 DUP13 DUP6 DUP2 MLOAD DUP2 LT PUSH2 0xF33 JUMPI PUSH2 0xF32 PUSH2 0x4E62 JUMP JUMPDEST JUMPDEST PUSH1 0x20 MUL PUSH1 0x20 ADD ADD DUP2 SWAP1 MSTORE POP POP POP POP DUP1 PUSH2 0xF4B SWAP1 PUSH2 0x50BF JUMP JUMPDEST SWAP1 POP PUSH2 0xCF7 JUMP JUMPDEST POP DUP3 ISZERO PUSH2 0xFCA JUMPI DUP4 PUSH20 0xFFFFFFFFFFFFFFFFFFFFFFFFFFFFFFFFFFFFFFFF AND PUSH4 0xF44D4CA3 DUP12 PUSH1 0x1 DUP6 PUSH1 0x40 MLOAD DUP5 PUSH4 0xFFFFFFFF AND PUSH1 0xE0 SHL DUP2 MSTORE PUSH1 0x4 ADD PUSH2 0xF97 SWAP4 SWAP3 SWAP2 SWAP1 PUSH2 0x5107 JUMP JUMPDEST PUSH1 0x0 PUSH1 0x40 MLOAD DUP1 DUP4 SUB DUP2 PUSH1 0x0 DUP8 DUP1 EXTCODESIZE ISZERO DUP1 ISZERO PUSH2 0xFB1 JUMPI PUSH1 0x0 DUP1 REVERT JUMPDEST POP GAS CALL ISZERO DUP1 ISZERO PUSH2 0xFC5 JUMPI RETURNDATASIZE PUSH1 0x0 DUP1 RETURNDATACOPY RETURNDATASIZE PUSH1 0x0 REVERT JUMPDEST POP POP POP POP JUMPDEST DUP10 PUSH20 0xFFFFFFFFFFFFFFFFFFFFFFFFFFFFFFFFFFFFFFFF AND PUSH32 0xEDCB3CA706897F189363C9F878C558B9B366BD39CE4727D8B9BFCEF113BE05DF DUP11 PUSH1 0x40 ADD CALLDATALOAD DUP12 PUSH1 0x20 ADD CALLDATALOAD PUSH1 0x40 MLOAD PUSH2 0x101A SWAP3 SWAP2 SWAP1 PUSH2 0x5145 JUMP JUMPDEST PUSH1 0x40 MLOAD DUP1 SWAP2 SUB SWAP1 LOG2 POP POP POP POP POP POP POP SWAP3 SWAP2 POP POP JUMP JUMPDEST DUP2 PUSH2 0x1039 DUP2 PUSH2 0x388D JUMP JUMPDEST DUP3 PUSH1 0x1 PUSH2 0x1046 DUP3 DUP3 PUSH2 0x3500 JUMP JUMPDEST DUP5 PUSH20 0xFFFFFFFFFFFFFFFFFFFFFFFFFFFFFFFFFFFFFFFF AND PUSH4 0x1FFC9A7 PUSH32 0x6930EBCC00000000000000000000000000000000000000000000000000000000 PUSH1 0x40 MLOAD DUP3 PUSH4 0xFFFFFFFF AND PUSH1 0xE0 SHL DUP2 MSTORE PUSH1 0x4 ADD PUSH2 0x109F SWAP2 SWAP1 PUSH2 0x49E5 JUMP JUMPDEST PUSH1 0x20 PUSH1 0x40 MLOAD DUP1 DUP4 SUB DUP2 DUP7 GAS STATICCALL ISZERO DUP1 ISZERO PUSH2 0x10BC JUMPI RETURNDATASIZE PUSH1 0x0 DUP1 RETURNDATACOPY RETURNDATASIZE PUSH1 0x0 REVERT JUMPDEST POP POP POP POP PUSH1 0x40 MLOAD RETURNDATASIZE PUSH1 0x1F NOT PUSH1 0x1F DUP3 ADD AND DUP3 ADD DUP1 PUSH1 0x40 MSTORE POP DUP2 ADD SWAP1 PUSH2 0x10E0 SWAP2 SWAP1 PUSH2 0x4A15 JUMP JUMPDEST PUSH2 0x1121 JUMPI DUP5 PUSH1 0x40 MLOAD PUSH32 0x24EA21A700000000000000000000000000000000000000000000000000000000 DUP2 MSTORE PUSH1 0x4 ADD PUSH2 0x1118 SWAP2 SWAP1 PUSH2 0x436F JUMP JUMPDEST PUSH1 0x40 MLOAD DUP1 SWAP2 SUB SWAP1 REVERT JUMPDEST PUSH1 0x0 PUSH1 0x6 PUSH1 0x0 CALLER PUSH20 0xFFFFFFFFFFFFFFFFFFFFFFFFFFFFFFFFFFFFFFFF AND PUSH20 0xFFFFFFFFFFFFFFFFFFFFFFFFFFFFFFFFFFFFFFFF AND DUP2 MSTORE PUSH1 0x20 ADD SWAP1 DUP2 MSTORE PUSH1 0x20 ADD PUSH1 0x0 KECCAK256 PUSH1 0x0 PUSH1 0x1 PUSH20 0xFFFFFFFFFFFFFFFFFFFFFFFFFFFFFFFFFFFFFFFF AND PUSH20 0xFFFFFFFFFFFFFFFFFFFFFFFFFFFFFFFFFFFFFFFF AND DUP2 MSTORE PUSH1 0x20 ADD SWAP1 DUP2 MSTORE PUSH1 0x20 ADD PUSH1 0x0 KECCAK256 SWAP1 POP PUSH1 0x0 PUSH1 0x6 PUSH1 0x0 CALLER PUSH20 0xFFFFFFFFFFFFFFFFFFFFFFFFFFFFFFFFFFFFFFFF AND PUSH20 0xFFFFFFFFFFFFFFFFFFFFFFFFFFFFFFFFFFFFFFFF AND DUP2 MSTORE PUSH1 0x20 ADD SWAP1 DUP2 MSTORE PUSH1 0x20 ADD PUSH1 0x0 KECCAK256 PUSH1 0x0 DUP9 PUSH20 0xFFFFFFFFFFFFFFFFFFFFFFFFFFFFFFFFFFFFFFFF AND PUSH20 0xFFFFFFFFFFFFFFFFFFFFFFFFFFFFFFFFFFFFFFFF AND DUP2 MSTORE PUSH1 0x20 ADD SWAP1 DUP2 MSTORE PUSH1 0x20 ADD PUSH1 0x0 KECCAK256 SWAP1 POP PUSH1 0x0 PUSH20 0xFFFFFFFFFFFFFFFFFFFFFFFFFFFFFFFFFFFFFFFF AND DUP2 PUSH1 0x0 ADD PUSH1 0x1 SWAP1 SLOAD SWAP1 PUSH2 0x100 EXP SWAP1 DIV PUSH20 0xFFFFFFFFFFFFFFFFFFFFFFFFFFFFFFFFFFFFFFFF AND PUSH20 0xFFFFFFFFFFFFFFFFFFFFFFFFFFFFFFFFFFFFFFFF AND EQ PUSH2 0x12B9 JUMPI CALLER DUP8 PUSH1 0x40 MLOAD PUSH32 0xED7370F00000000000000000000000000000000000000000000000000000000 DUP2 MSTORE PUSH1 0x4 ADD PUSH2 0x12B0 SWAP3 SWAP2 SWAP1 PUSH2 0x516E JUMP JUMPDEST PUSH1 0x40 MLOAD DUP1 SWAP2 SUB SWAP1 REVERT JUMPDEST PUSH1 0x0 DUP8 PUSH20 0xFFFFFFFFFFFFFFFFFFFFFFFFFFFFFFFFFFFFFFFF AND PUSH4 0xE8E755B5 PUSH1 0x40 MLOAD DUP2 PUSH4 0xFFFFFFFF AND PUSH1 0xE0 SHL DUP2 MSTORE PUSH1 0x4 ADD PUSH1 0x20 PUSH1 0x40 MLOAD DUP1 DUP4 SUB DUP2 DUP7 GAS STATICCALL ISZERO DUP1 ISZERO PUSH2 0x1306 JUMPI RETURNDATASIZE PUSH1 0x0 DUP1 RETURNDATACOPY RETURNDATASIZE PUSH1 0x0 REVERT JUMPDEST POP POP POP POP PUSH1 0x40 MLOAD RETURNDATASIZE PUSH1 0x1F NOT PUSH1 0x1F DUP3 ADD AND DUP3 ADD DUP1 PUSH1 0x40 MSTORE POP DUP2 ADD SWAP1 PUSH2 0x132A SWAP2 SWAP1 PUSH2 0x51AC JUMP JUMPDEST SWAP1 POP DUP1 PUSH1 0xFF AND DUP8 PUSH1 0xFF AND EQ PUSH2 0x137A JUMPI DUP8 DUP2 DUP9 PUSH1 0x40 MLOAD PUSH32 0xC752C04B00000000000000000000000000000000000000000000000000000000 DUP2 MSTORE PUSH1 0x4 ADD PUSH2 0x1371 SWAP4 SWAP3 SWAP2 SWAP1 PUSH2 0x51D9 JUMP JUMPDEST PUSH1 0x40 MLOAD DUP1 SWAP2 SUB SWAP1 REVERT JUMPDEST PUSH1 0x0 PUSH20 0xFFFFFFFFFFFFFFFFFFFFFFFFFFFFFFFFFFFFFFFF AND DUP4 PUSH1 0x0 ADD PUSH1 0x1 SWAP1 SLOAD SWAP1 PUSH2 0x100 EXP SWAP1 DIV PUSH20 0xFFFFFFFFFFFFFFFFFFFFFFFFFFFFFFFFFFFFFFFF AND PUSH20 0xFFFFFFFFFFFFFFFFFFFFFFFFFFFFFFFFFFFFFFFF AND SUB PUSH2 0x1417 JUMPI PUSH1 0x1 DUP4 PUSH1 0x0 ADD PUSH1 0x1 PUSH2 0x100 EXP DUP2 SLOAD DUP2 PUSH20 0xFFFFFFFFFFFFFFFFFFFFFFFFFFFFFFFFFFFFFFFF MUL NOT AND SWAP1 DUP4 PUSH20 0xFFFFFFFFFFFFFFFFFFFFFFFFFFFFFFFFFFFFFFFF AND MUL OR SWAP1 SSTORE POP JUMPDEST DUP3 PUSH1 0x0 ADD PUSH1 0x1 SWAP1 SLOAD SWAP1 PUSH2 0x100 EXP SWAP1 DIV PUSH20 0xFFFFFFFFFFFFFFFFFFFFFFFFFFFFFFFFFFFFFFFF AND DUP3 PUSH1 0x0 ADD PUSH1 0x1 PUSH2 0x100 EXP DUP2 SLOAD DUP2 PUSH20 0xFFFFFFFFFFFFFFFFFFFFFFFFFFFFFFFFFFFFFFFF MUL NOT AND SWAP1 DUP4 PUSH20 0xFFFFFFFFFFFFFFFFFFFFFFFFFFFFFFFFFFFFFFFF AND MUL OR SWAP1 SSTORE POP DUP7 DUP3 PUSH1 0x0 ADD PUSH1 0x0 PUSH2 0x100 EXP DUP2 SLOAD DUP2 PUSH1 0xFF MUL NOT AND SWAP1 DUP4 PUSH1 0xFF AND MUL OR SWAP1 SSTORE POP DUP8 DUP4 PUSH1 0x0 ADD PUSH1 0x1 PUSH2 0x100 EXP DUP2 SLOAD DUP2 PUSH20 0xFFFFFFFFFFFFFFFFFFFFFFFFFFFFFFFFFFFFFFFF MUL NOT AND SWAP1 DUP4 PUSH20 0xFFFFFFFFFFFFFFFFFFFFFFFFFFFFFFFFFFFFFFFF AND MUL OR SWAP1 SSTORE POP DUP8 PUSH20 0xFFFFFFFFFFFFFFFFFFFFFFFFFFFFFFFFFFFFFFFF AND CALLER PUSH20 0xFFFFFFFFFFFFFFFFFFFFFFFFFFFFFFFFFFFFFFFF AND PUSH32 0x61FB70687F5B7CAE1207B6ABEC96E5BEB7971681E5E36DE31585FBFA94A8C34C DUP10 PUSH1 0x40 MLOAD PUSH2 0x153B SWAP2 SWAP1 PUSH2 0x5210 JUMP JUMPDEST PUSH1 0x40 MLOAD DUP1 SWAP2 SUB SWAP1 LOG3 POP POP POP POP POP POP POP POP JUMP JUMPDEST PUSH1 0x6 PUSH1 0x20 MSTORE DUP2 PUSH1 0x0 MSTORE PUSH1 0x40 PUSH1 0x0 KECCAK256 PUSH1 0x20 MSTORE DUP1 PUSH1 0x0 MSTORE PUSH1 0x40 PUSH1 0x0 KECCAK256 PUSH1 0x0 SWAP2 POP SWAP2 POP POP DUP1 PUSH1 0x0 ADD PUSH1 0x0 SWAP1 SLOAD SWAP1 PUSH2 0x100 EXP SWAP1 DIV PUSH1 0xFF AND SWAP1 DUP1 PUSH1 0x0 ADD PUSH1 0x1 SWAP1 SLOAD SWAP1 PUSH2 0x100 EXP SWAP1 DIV PUSH20 0xFFFFFFFFFFFFFFFFFFFFFFFFFFFFFFFFFFFFFFFF AND SWAP1 POP DUP3 JUMP JUMPDEST PUSH1 0x0 PUSH1 0x5 PUSH1 0x0 DUP5 PUSH20 0xFFFFFFFFFFFFFFFFFFFFFFFFFFFFFFFFFFFFFFFF AND PUSH20 0xFFFFFFFFFFFFFFFFFFFFFFFFFFFFFFFFFFFFFFFF AND DUP2 MSTORE PUSH1 0x20 ADD SWAP1 DUP2 MSTORE PUSH1 0x20 ADD PUSH1 0x0 KECCAK256 PUSH1 0x0 DUP4 PUSH28 0xFFFFFFFFFFFFFFFFFFFFFFFFFFFFFFFFFFFFFFFFFFFFFFFFFFFFFFFF NOT AND PUSH28 0xFFFFFFFFFFFFFFFFFFFFFFFFFFFFFFFFFFFFFFFFFFFFFFFFFFFFFFFF NOT AND DUP2 MSTORE PUSH1 0x20 ADD SWAP1 DUP2 MSTORE PUSH1 0x20 ADD PUSH1 0x0 KECCAK256 PUSH1 0x0 SWAP1 SLOAD SWAP1 PUSH2 0x100 EXP SWAP1 DIV PUSH20 0xFFFFFFFFFFFFFFFFFFFFFFFFFFFFFFFFFFFFFFFF AND SWAP1 POP SWAP3 SWAP2 POP POP JUMP JUMPDEST PUSH1 0x60 DUP3 PUSH2 0x1670 DUP2 PUSH2 0x361C JUMP JUMPDEST CALLER PUSH1 0x1 PUSH2 0x167D DUP3 DUP3 PUSH2 0x3500 JUMP JUMPDEST CALLDATASIZE DUP6 DUP1 PUSH1 0x0 ADD SWAP1 PUSH2 0x168E SWAP2 SWAP1 PUSH2 0x4E91 JUMP JUMPDEST SWAP1 POP PUSH1 0x0 PUSH1 0x3 PUSH1 0x0 DUP10 PUSH20 0xFFFFFFFFFFFFFFFFFFFFFFFFFFFFFFFFFFFFFFFF AND PUSH20 0xFFFFFFFFFFFFFFFFFFFFFFFFFFFFFFFFFFFFFFFF AND DUP2 MSTORE PUSH1 0x20 ADD SWAP1 DUP2 MSTORE PUSH1 0x20 ADD PUSH1 0x0 KECCAK256 PUSH1 0x0 SWAP1 SLOAD SWAP1 PUSH2 0x100 EXP SWAP1 DIV PUSH20 0xFFFFFFFFFFFFFFFFFFFFFFFFFFFFFFFFFFFFFFFF AND SWAP1 POP PUSH1 0x0 DUP1 PUSH20 0xFFFFFFFFFFFFFFFFFFFFFFFFFFFFFFFFFFFFFFFF AND DUP3 PUSH20 0xFFFFFFFFFFFFFFFFFFFFFFFFFFFFFFFFFFFFFFFF AND EQ ISZERO SWAP1 POP PUSH1 0x60 DUP2 ISZERO PUSH2 0x17DA JUMPI DUP3 PUSH20 0xFFFFFFFFFFFFFFFFFFFFFFFFFFFFFFFFFFFFFFFF AND PUSH4 0x7359B742 DUP12 DUP12 PUSH1 0x1 CALLER PUSH1 0x40 MLOAD PUSH1 0x20 ADD PUSH2 0x1761 SWAP2 SWAP1 PUSH2 0x436F JUMP JUMPDEST PUSH1 0x40 MLOAD PUSH1 0x20 DUP2 DUP4 SUB SUB DUP2 MSTORE SWAP1 PUSH1 0x40 MSTORE PUSH1 0x40 MLOAD DUP6 PUSH4 0xFFFFFFFF AND PUSH1 0xE0 SHL DUP2 MSTORE PUSH1 0x4 ADD PUSH2 0x178F SWAP5 SWAP4 SWAP3 SWAP2 SWAP1 PUSH2 0x5293 JUMP JUMPDEST PUSH1 0x0 PUSH1 0x40 MLOAD DUP1 DUP4 SUB DUP2 PUSH1 0x0 DUP8 GAS CALL ISZERO DUP1 ISZERO PUSH2 0x17AE JUMPI RETURNDATASIZE PUSH1 0x0 DUP1 RETURNDATACOPY RETURNDATASIZE PUSH1 0x0 REVERT JUMPDEST POP POP POP POP PUSH1 0x40 MLOAD RETURNDATASIZE PUSH1 0x0 DUP3 RETURNDATACOPY RETURNDATASIZE PUSH1 0x1F NOT PUSH1 0x1F DUP3 ADD AND DUP3 ADD DUP1 PUSH1 0x40 MSTORE POP DUP2 ADD SWAP1 PUSH2 0x17D7 SWAP2 SWAP1 PUSH2 0x3F41 JUMP JUMPDEST SWAP1 POP JUMPDEST PUSH2 0x17E5 DUP11 PUSH1 0x4 PUSH2 0x372F JUMP JUMPDEST PUSH1 0x0 DUP11 PUSH20 0xFFFFFFFFFFFFFFFFFFFFFFFFFFFFFFFFFFFFFFFF AND PUSH4 0x5229073F DUP7 PUSH1 0x0 ADD PUSH1 0x20 DUP2 ADD SWAP1 PUSH2 0x1816 SWAP2 SWAP1 PUSH2 0x4EB9 JUMP JUMPDEST DUP8 PUSH1 0x20 ADD CALLDATALOAD DUP9 DUP1 PUSH1 0x40 ADD SWAP1 PUSH2 0x182B SWAP2 SWAP1 PUSH2 0x4F2C JUMP JUMPDEST PUSH1 0x1 PUSH1 0x40 MLOAD DUP7 PUSH4 0xFFFFFFFF AND PUSH1 0xE0 SHL DUP2 MSTORE PUSH1 0x4 ADD PUSH2 0x184D SWAP6 SWAP5 SWAP4 SWAP3 SWAP2 SWAP1 PUSH2 0x5317 JUMP JUMPDEST PUSH1 0x0 PUSH1 0x40 MLOAD DUP1 DUP4 SUB DUP2 PUSH1 0x0 DUP8 GAS CALL ISZERO DUP1 ISZERO PUSH2 0x186C JUMPI RETURNDATASIZE PUSH1 0x0 DUP1 RETURNDATACOPY RETURNDATASIZE PUSH1 0x0 REVERT JUMPDEST POP POP POP POP PUSH1 0x40 MLOAD RETURNDATASIZE PUSH1 0x0 DUP3 RETURNDATACOPY RETURNDATASIZE PUSH1 0x1F NOT PUSH1 0x1F DUP3 ADD AND DUP3 ADD DUP1 PUSH1 0x40 MSTORE POP DUP2 ADD SWAP1 PUSH2 0x1895 SWAP2 SWAP1 PUSH2 0x5063 JUMP JUMPDEST DUP1 SWAP11 POP DUP2 SWAP3 POP POP POP DUP3 ISZERO PUSH2 0x1913 JUMPI DUP4 PUSH20 0xFFFFFFFFFFFFFFFFFFFFFFFFFFFFFFFFFFFFFFFF AND PUSH4 0xF44D4CA3 DUP13 DUP4 DUP6 PUSH1 0x40 MLOAD DUP5 PUSH4 0xFFFFFFFF AND PUSH1 0xE0 SHL DUP2 MSTORE PUSH1 0x4 ADD PUSH2 0x18E0 SWAP4 SWAP3 SWAP2 SWAP1 PUSH2 0x5107 JUMP JUMPDEST PUSH1 0x0 PUSH1 0x40 MLOAD DUP1 DUP4 SUB DUP2 PUSH1 0x0 DUP8 DUP1 EXTCODESIZE ISZERO DUP1 ISZERO PUSH2 0x18FA JUMPI PUSH1 0x0 DUP1 REVERT JUMPDEST POP GAS CALL ISZERO DUP1 ISZERO PUSH2 0x190E JUMPI RETURNDATASIZE PUSH1 0x0 DUP1 RETURNDATACOPY RETURNDATASIZE PUSH1 0x0 REVERT JUMPDEST POP POP POP POP JUMPDEST DUP1 ISZERO PUSH2 0x1970 JUMPI DUP11 PUSH20 0xFFFFFFFFFFFFFFFFFFFFFFFFFFFFFFFFFFFFFFFF AND PUSH32 0x3AFB8EADA8F22D02FF94FBD523237FB70AA7E6B51AB68CBBE94A055DE96479AF DUP12 PUSH1 0x40 ADD CALLDATALOAD PUSH1 0x40 MLOAD PUSH2 0x1963 SWAP2 SWAP1 PUSH2 0x476F JUMP JUMPDEST PUSH1 0x40 MLOAD DUP1 SWAP2 SUB SWAP1 LOG2 PUSH2 0x19B3 JUMP JUMPDEST DUP11 DUP11 PUSH1 0x40 ADD CALLDATALOAD PUSH1 0x40 MLOAD PUSH32 0x82CC9F4900000000000000000000000000000000000000000000000000000000 DUP2 MSTORE PUSH1 0x4 ADD PUSH2 0x19AA SWAP3 SWAP2 SWAP1 PUSH2 0x5365 JUMP JUMPDEST PUSH1 0x40 MLOAD DUP1 SWAP2 SUB SWAP1 REVERT JUMPDEST POP POP POP POP POP POP POP POP SWAP3 SWAP2 POP POP JUMP JUMPDEST PUSH1 0x60 PUSH1 0x0 DUP1 DUP5 SUB PUSH2 0x19FE JUMPI PUSH1 0x40 MLOAD PUSH32 0x6731D75200000000000000000000000000000000000000000000000000000000 DUP2 MSTORE PUSH1 0x4 ADD PUSH1 0x40 MLOAD DUP1 SWAP2 SUB SWAP1 REVERT JUMPDEST PUSH1 0x1 PUSH20 0xFFFFFFFFFFFFFFFFFFFFFFFFFFFFFFFFFFFFFFFF AND DUP6 PUSH20 0xFFFFFFFFFFFFFFFFFFFFFFFFFFFFFFFFFFFFFFFF AND EQ DUP1 PUSH2 0x1A3F JUMPI POP PUSH2 0x1A3E DUP4 DUP7 PUSH2 0x2AD0 JUMP JUMPDEST JUMPDEST PUSH2 0x1A80 JUMPI DUP5 PUSH1 0x40 MLOAD PUSH32 0xC467AF0600000000000000000000000000000000000000000000000000000000 DUP2 MSTORE PUSH1 0x4 ADD PUSH2 0x1A77 SWAP2 SWAP1 PUSH2 0x436F JUMP JUMPDEST PUSH1 0x40 MLOAD DUP1 SWAP2 SUB SWAP1 REVERT JUMPDEST DUP4 PUSH8 0xFFFFFFFFFFFFFFFF DUP2 GT ISZERO PUSH2 0x1A9A JUMPI PUSH2 0x1A99 PUSH2 0x3DFB JUMP JUMPDEST JUMPDEST PUSH1 0x40 MLOAD SWAP1 DUP1 DUP3 MSTORE DUP1 PUSH1 0x20 MUL PUSH1 0x20 ADD DUP3 ADD PUSH1 0x40 MSTORE DUP1 ISZERO PUSH2 0x1AC8 JUMPI DUP2 PUSH1 0x20 ADD PUSH1 0x20 DUP3 MUL DUP1 CALLDATASIZE DUP4 CALLDATACOPY DUP1 DUP3 ADD SWAP2 POP POP SWAP1 POP JUMPDEST POP SWAP2 POP PUSH1 0x0 PUSH1 0x6 PUSH1 0x0 DUP6 PUSH20 0xFFFFFFFFFFFFFFFFFFFFFFFFFFFFFFFFFFFFFFFF AND PUSH20 0xFFFFFFFFFFFFFFFFFFFFFFFFFFFFFFFFFFFFFFFF AND DUP2 MSTORE PUSH1 0x20 ADD SWAP1 DUP2 MSTORE PUSH1 0x20 ADD PUSH1 0x0 KECCAK256 PUSH1 0x0 DUP8 PUSH20 0xFFFFFFFFFFFFFFFFFFFFFFFFFFFFFFFFFFFFFFFF AND PUSH20 0xFFFFFFFFFFFFFFFFFFFFFFFFFFFFFFFFFFFFFFFF AND DUP2 MSTORE PUSH1 0x20 ADD SWAP1 DUP2 MSTORE PUSH1 0x20 ADD PUSH1 0x0 KECCAK256 PUSH1 0x0 ADD PUSH1 0x1 SWAP1 SLOAD SWAP1 PUSH2 0x100 EXP SWAP1 DIV PUSH20 0xFFFFFFFFFFFFFFFFFFFFFFFFFFFFFFFFFFFFFFFF AND SWAP2 POP JUMPDEST PUSH1 0x0 PUSH20 0xFFFFFFFFFFFFFFFFFFFFFFFFFFFFFFFFFFFFFFFF AND DUP3 PUSH20 0xFFFFFFFFFFFFFFFFFFFFFFFFFFFFFFFFFFFFFFFF AND EQ ISZERO DUP1 ISZERO PUSH2 0x1BDA JUMPI POP PUSH1 0x1 PUSH20 0xFFFFFFFFFFFFFFFFFFFFFFFFFFFFFFFFFFFFFFFF AND DUP3 PUSH20 0xFFFFFFFFFFFFFFFFFFFFFFFFFFFFFFFFFFFFFFFF AND EQ ISZERO JUMPDEST DUP1 ISZERO PUSH2 0x1BE5 JUMPI POP DUP5 DUP2 LT JUMPDEST ISZERO PUSH2 0x1CED JUMPI DUP2 DUP4 DUP3 DUP2 MLOAD DUP2 LT PUSH2 0x1BFE JUMPI PUSH2 0x1BFD PUSH2 0x4E62 JUMP JUMPDEST JUMPDEST PUSH1 0x20 MUL PUSH1 0x20 ADD ADD SWAP1 PUSH20 0xFFFFFFFFFFFFFFFFFFFFFFFFFFFFFFFFFFFFFFFF AND SWAP1 DUP2 PUSH20 0xFFFFFFFFFFFFFFFFFFFFFFFFFFFFFFFFFFFFFFFF AND DUP2 MSTORE POP POP PUSH1 0x6 PUSH1 0x0 DUP6 PUSH20 0xFFFFFFFFFFFFFFFFFFFFFFFFFFFFFFFFFFFFFFFF AND PUSH20 0xFFFFFFFFFFFFFFFFFFFFFFFFFFFFFFFFFFFFFFFF AND DUP2 MSTORE PUSH1 0x20 ADD SWAP1 DUP2 MSTORE PUSH1 0x20 ADD PUSH1 0x0 KECCAK256 PUSH1 0x0 DUP4 PUSH20 0xFFFFFFFFFFFFFFFFFFFFFFFFFFFFFFFFFFFFFFFF AND PUSH20 0xFFFFFFFFFFFFFFFFFFFFFFFFFFFFFFFFFFFFFFFF AND DUP2 MSTORE PUSH1 0x20 ADD SWAP1 DUP2 MSTORE PUSH1 0x20 ADD PUSH1 0x0 KECCAK256 PUSH1 0x0 ADD PUSH1 0x1 SWAP1 SLOAD SWAP1 PUSH2 0x100 EXP SWAP1 DIV PUSH20 0xFFFFFFFFFFFFFFFFFFFFFFFFFFFFFFFFFFFFFFFF AND SWAP2 POP DUP1 DUP1 PUSH2 0x1CE5 SWAP1 PUSH2 0x50BF JUMP JUMPDEST SWAP2 POP POP PUSH2 0x1B70 JUMP JUMPDEST PUSH1 0x0 DUP2 SUB PUSH2 0x1CFA JUMPI PUSH1 0x1 SWAP2 POP JUMPDEST PUSH1 0x1 PUSH20 0xFFFFFFFFFFFFFFFFFFFFFFFFFFFFFFFFFFFFFFFF AND DUP3 PUSH20 0xFFFFFFFFFFFFFFFFFFFFFFFFFFFFFFFFFFFFFFFF AND EQ ISZERO DUP1 ISZERO PUSH2 0x1D38 JUMPI POP PUSH1 0x0 DUP2 EQ ISZERO JUMPDEST ISZERO PUSH2 0x1D67 JUMPI DUP3 PUSH1 0x1 DUP3 PUSH2 0x1D4B SWAP2 SWAP1 PUSH2 0x3C73 JUMP JUMPDEST DUP2 MLOAD DUP2 LT PUSH2 0x1D5C JUMPI PUSH2 0x1D5B PUSH2 0x4E62 JUMP JUMPDEST JUMPDEST PUSH1 0x20 MUL PUSH1 0x20 ADD ADD MLOAD SWAP2 POP JUMPDEST DUP1 DUP4 MSTORE POP SWAP4 POP SWAP4 SWAP2 POP POP JUMP JUMPDEST PUSH1 0x4 PUSH1 0x20 MSTORE DUP1 PUSH1 0x0 MSTORE PUSH1 0x40 PUSH1 0x0 KECCAK256 PUSH1 0x0 SWAP2 POP SWAP1 POP DUP1 PUSH1 0x0 ADD PUSH1 0x0 SWAP1 SLOAD SWAP1 PUSH2 0x100 EXP SWAP1 DIV PUSH20 0xFFFFFFFFFFFFFFFFFFFFFFFFFFFFFFFFFFFFFFFF AND SWAP1 DUP1 PUSH1 0x1 ADD DUP1 SLOAD PUSH2 0x1DBC SWAP1 PUSH2 0x53BD JUMP JUMPDEST DUP1 PUSH1 0x1F ADD PUSH1 0x20 DUP1 SWAP2 DIV MUL PUSH1 0x20 ADD PUSH1 0x40 MLOAD SWAP1 DUP2 ADD PUSH1 0x40 MSTORE DUP1 SWAP3 SWAP2 SWAP1 DUP2 DUP2 MSTORE PUSH1 0x20 ADD DUP3 DUP1 SLOAD PUSH2 0x1DE8 SWAP1 PUSH2 0x53BD JUMP JUMPDEST DUP1 ISZERO PUSH2 0x1E35 JUMPI DUP1 PUSH1 0x1F LT PUSH2 0x1E0A JUMPI PUSH2 0x100 DUP1 DUP4 SLOAD DIV MUL DUP4 MSTORE SWAP2 PUSH1 0x20 ADD SWAP2 PUSH2 0x1E35 JUMP JUMPDEST DUP3 ADD SWAP2 SWAP1 PUSH1 0x0 MSTORE PUSH1 0x20 PUSH1 0x0 KECCAK256 SWAP1 JUMPDEST DUP2 SLOAD DUP2 MSTORE SWAP1 PUSH1 0x1 ADD SWAP1 PUSH1 0x20 ADD DUP1 DUP4 GT PUSH2 0x1E18 JUMPI DUP3 SWAP1 SUB PUSH1 0x1F AND DUP3 ADD SWAP2 JUMPDEST POP POP POP POP POP SWAP1 POP DUP3 JUMP JUMPDEST PUSH2 0x1E47 PUSH2 0x3939 JUMP JUMPDEST PUSH2 0x1E51 PUSH1 0x0 PUSH2 0x39B7 JUMP JUMPDEST JUMP JUMPDEST PUSH1 0x0 PUSH1 0x3 PUSH1 0x0 CALLER PUSH20 0xFFFFFFFFFFFFFFFFFFFFFFFFFFFFFFFFFFFFFFFF AND PUSH20 0xFFFFFFFFFFFFFFFFFFFFFFFFFFFFFFFFFFFFFFFF AND DUP2 MSTORE PUSH1 0x20 ADD SWAP1 DUP2 MSTORE PUSH1 0x20 ADD PUSH1 0x0 KECCAK256 PUSH1 0x0 SWAP1 SLOAD SWAP1 PUSH2 0x100 EXP SWAP1 DIV PUSH20 0xFFFFFFFFFFFFFFFFFFFFFFFFFFFFFFFFFFFFFFFF AND PUSH1 0x4 PUSH1 0x0 CALLER PUSH20 0xFFFFFFFFFFFFFFFFFFFFFFFFFFFFFFFFFFFFFFFF AND PUSH20 0xFFFFFFFFFFFFFFFFFFFFFFFFFFFFFFFFFFFFFFFF AND DUP2 MSTORE PUSH1 0x20 ADD SWAP1 DUP2 MSTORE PUSH1 0x20 ADD PUSH1 0x0 KECCAK256 PUSH1 0x0 ADD PUSH1 0x0 PUSH2 0x100 EXP DUP2 SLOAD DUP2 PUSH20 0xFFFFFFFFFFFFFFFFFFFFFFFFFFFFFFFFFFFFFFFF MUL NOT AND SWAP1 DUP4 PUSH20 0xFFFFFFFFFFFFFFFFFFFFFFFFFFFFFFFFFFFFFFFF AND MUL OR SWAP1 SSTORE POP PUSH1 0x0 PUSH1 0x3 PUSH1 0x0 CALLER PUSH20 0xFFFFFFFFFFFFFFFFFFFFFFFFFFFFFFFFFFFFFFFF AND PUSH20 0xFFFFFFFFFFFFFFFFFFFFFFFFFFFFFFFFFFFFFFFF AND DUP2 MSTORE PUSH1 0x20 ADD SWAP1 DUP2 MSTORE PUSH1 0x20 ADD PUSH1 0x0 KECCAK256 PUSH1 0x0 SWAP1 SLOAD SWAP1 PUSH2 0x100 EXP SWAP1 DIV PUSH20 0xFFFFFFFFFFFFFFFFFFFFFFFFFFFFFFFFFFFFFFFF AND SWAP1 POP DUP7 DUP7 DUP7 DUP7 DUP7 PUSH1 0x40 MLOAD PUSH1 0x20 ADD PUSH2 0x1FB2 SWAP6 SWAP5 SWAP4 SWAP3 SWAP2 SWAP1 PUSH2 0x5465 JUMP JUMPDEST PUSH1 0x40 MLOAD PUSH1 0x20 DUP2 DUP4 SUB SUB DUP2 MSTORE SWAP1 PUSH1 0x40 MSTORE DUP1 MLOAD SWAP1 PUSH1 0x20 ADD KECCAK256 SWAP2 POP PUSH1 0x0 PUSH20 0xFFFFFFFFFFFFFFFFFFFFFFFFFFFFFFFFFFFFFFFF AND DUP2 PUSH20 0xFFFFFFFFFFFFFFFFFFFFFFFFFFFFFFFFFFFFFFFF AND SUB PUSH2 0x2004 JUMPI POP PUSH2 0x22B2 JUMP JUMPDEST PUSH1 0x0 PUSH1 0x1 DUP2 GT ISZERO PUSH2 0x2018 JUMPI PUSH2 0x2017 PUSH2 0x53EE JUMP JUMPDEST JUMPDEST DUP5 PUSH1 0x1 DUP2 GT ISZERO PUSH2 0x202B JUMPI PUSH2 0x202A PUSH2 0x53EE JUMP JUMPDEST JUMPDEST SUB PUSH2 0x21AC JUMPI PUSH1 0x0 PUSH1 0x1 PUSH8 0xFFFFFFFFFFFFFFFF DUP2 GT ISZERO PUSH2 0x204D JUMPI PUSH2 0x204C PUSH2 0x3DFB JUMP JUMPDEST JUMPDEST PUSH1 0x40 MLOAD SWAP1 DUP1 DUP3 MSTORE DUP1 PUSH1 0x20 MUL PUSH1 0x20 ADD DUP3 ADD PUSH1 0x40 MSTORE DUP1 ISZERO PUSH2 0x2086 JUMPI DUP2 PUSH1 0x20 ADD JUMPDEST PUSH2 0x2073 PUSH2 0x3AB4 JUMP JUMPDEST DUP2 MSTORE PUSH1 0x20 ADD SWAP1 PUSH1 0x1 SWAP1 SUB SWAP1 DUP2 PUSH2 0x206B JUMPI SWAP1 POP JUMPDEST POP SWAP1 POP PUSH1 0x40 MLOAD DUP1 PUSH1 0x60 ADD PUSH1 0x40 MSTORE DUP1 DUP10 PUSH20 0xFFFFFFFFFFFFFFFFFFFFFFFFFFFFFFFFFFFFFFFF AND DUP2 MSTORE PUSH1 0x20 ADD DUP9 DUP2 MSTORE PUSH1 0x20 ADD DUP8 DUP2 MSTORE POP DUP2 PUSH1 0x0 DUP2 MLOAD DUP2 LT PUSH2 0x20CE JUMPI PUSH2 0x20CD PUSH2 0x4E62 JUMP JUMPDEST JUMPDEST PUSH1 0x20 MUL PUSH1 0x20 ADD ADD DUP2 SWAP1 MSTORE POP PUSH1 0x0 PUSH1 0x40 MLOAD DUP1 PUSH1 0x60 ADD PUSH1 0x40 MSTORE DUP1 DUP4 DUP2 MSTORE PUSH1 0x20 ADD PUSH1 0x0 DUP2 MSTORE PUSH1 0x20 ADD PUSH1 0x0 DUP1 NOT AND DUP2 MSTORE POP SWAP1 POP DUP3 PUSH20 0xFFFFFFFFFFFFFFFFFFFFFFFFFFFFFFFFFFFFFFFF AND PUSH4 0x176AE7B7 CALLER DUP4 PUSH1 0x1 DUP10 PUSH1 0x40 MLOAD PUSH1 0x20 ADD PUSH2 0x212E SWAP2 SWAP1 PUSH2 0x436F JUMP JUMPDEST PUSH1 0x40 MLOAD PUSH1 0x20 DUP2 DUP4 SUB SUB DUP2 MSTORE SWAP1 PUSH1 0x40 MSTORE PUSH1 0x40 MLOAD DUP6 PUSH4 0xFFFFFFFF AND PUSH1 0xE0 SHL DUP2 MSTORE PUSH1 0x4 ADD PUSH2 0x215C SWAP5 SWAP4 SWAP3 SWAP2 SWAP1 PUSH2 0x5610 JUMP JUMPDEST PUSH1 0x0 PUSH1 0x40 MLOAD DUP1 DUP4 SUB DUP2 PUSH1 0x0 DUP8 GAS CALL ISZERO DUP1 ISZERO PUSH2 0x217B JUMPI RETURNDATASIZE PUSH1 0x0 DUP1 RETURNDATACOPY RETURNDATASIZE PUSH1 0x0 REVERT JUMPDEST POP POP POP POP PUSH1 0x40 MLOAD RETURNDATASIZE PUSH1 0x0 DUP3 RETURNDATACOPY RETURNDATASIZE PUSH1 0x1F NOT PUSH1 0x1F DUP3 ADD AND DUP3 ADD DUP1 PUSH1 0x40 MSTORE POP DUP2 ADD SWAP1 PUSH2 0x21A4 SWAP2 SWAP1 PUSH2 0x3F41 JUMP JUMPDEST POP POP POP PUSH2 0x22B0 JUMP JUMPDEST PUSH1 0x0 PUSH1 0x40 MLOAD DUP1 PUSH1 0x60 ADD PUSH1 0x40 MSTORE DUP1 DUP10 PUSH20 0xFFFFFFFFFFFFFFFFFFFFFFFFFFFFFFFFFFFFFFFF AND DUP2 MSTORE PUSH1 0x20 ADD DUP9 DUP2 MSTORE PUSH1 0x20 ADD DUP8 DUP2 MSTORE POP SWAP1 POP PUSH1 0x0 PUSH1 0x40 MLOAD DUP1 PUSH1 0x60 ADD PUSH1 0x40 MSTORE DUP1 DUP4 DUP2 MSTORE PUSH1 0x20 ADD PUSH1 0x0 DUP2 MSTORE PUSH1 0x20 ADD PUSH1 0x0 DUP1 NOT AND DUP2 MSTORE POP SWAP1 POP DUP3 PUSH20 0xFFFFFFFFFFFFFFFFFFFFFFFFFFFFFFFFFFFFFFFF AND PUSH4 0x7359B742 CALLER DUP4 PUSH1 0x1 DUP10 PUSH1 0x40 MLOAD PUSH1 0x20 ADD PUSH2 0x2236 SWAP2 SWAP1 PUSH2 0x436F JUMP JUMPDEST PUSH1 0x40 MLOAD PUSH1 0x20 DUP2 DUP4 SUB SUB DUP2 MSTORE SWAP1 PUSH1 0x40 MSTORE PUSH1 0x40 MLOAD DUP6 PUSH4 0xFFFFFFFF AND PUSH1 0xE0 SHL DUP2 MSTORE PUSH1 0x4 ADD PUSH2 0x2264 SWAP5 SWAP4 SWAP3 SWAP2 SWAP1 PUSH2 0x56B3 JUMP JUMPDEST PUSH1 0x0 PUSH1 0x40 MLOAD DUP1 DUP4 SUB DUP2 PUSH1 0x0 DUP8 GAS CALL ISZERO DUP1 ISZERO PUSH2 0x2283 JUMPI RETURNDATASIZE PUSH1 0x0 DUP1 RETURNDATACOPY RETURNDATASIZE PUSH1 0x0 REVERT JUMPDEST POP POP POP POP PUSH1 0x40 MLOAD RETURNDATASIZE PUSH1 0x0 DUP3 RETURNDATACOPY RETURNDATASIZE PUSH1 0x1F NOT PUSH1 0x1F DUP3 ADD AND DUP3 ADD DUP1 PUSH1 0x40 MSTORE POP DUP2 ADD SWAP1 PUSH2 0x22AC SWAP2 SWAP1 PUSH2 0x3F41 JUMP JUMPDEST POP POP POP JUMPDEST POP JUMPDEST SWAP6 SWAP5 POP POP POP POP POP JUMP JUMPDEST PUSH1 0x3 PUSH1 0x0 CALLER PUSH20 0xFFFFFFFFFFFFFFFFFFFFFFFFFFFFFFFFFFFFFFFF AND PUSH20 0xFFFFFFFFFFFFFFFFFFFFFFFFFFFFFFFFFFFFFFFF AND DUP2 MSTORE PUSH1 0x20 ADD SWAP1 DUP2 MSTORE PUSH1 0x20 ADD PUSH1 0x0 KECCAK256 PUSH1 0x0 SWAP1 SLOAD SWAP1 PUSH2 0x100 EXP SWAP1 DIV PUSH20 0xFFFFFFFFFFFFFFFFFFFFFFFFFFFFFFFFFFFFFFFF AND PUSH1 0x4 PUSH1 0x0 CALLER PUSH20 0xFFFFFFFFFFFFFFFFFFFFFFFFFFFFFFFFFFFFFFFF AND PUSH20 0xFFFFFFFFFFFFFFFFFFFFFFFFFFFFFFFFFFFFFFFF AND DUP2 MSTORE PUSH1 0x20 ADD SWAP1 DUP2 MSTORE PUSH1 0x20 ADD PUSH1 0x0 KECCAK256 PUSH1 0x0 ADD PUSH1 0x0 PUSH2 0x100 EXP DUP2 SLOAD DUP2 PUSH20 0xFFFFFFFFFFFFFFFFFFFFFFFFFFFFFFFFFFFFFFFF MUL NOT AND SWAP1 DUP4 PUSH20 0xFFFFFFFFFFFFFFFFFFFFFFFFFFFFFFFFFFFFFFFF AND MUL OR SWAP1 SSTORE POP PUSH1 0x0 PUSH1 0x3 PUSH1 0x0 CALLER PUSH20 0xFFFFFFFFFFFFFFFFFFFFFFFFFFFFFFFFFFFFFFFF AND PUSH20 0xFFFFFFFFFFFFFFFFFFFFFFFFFFFFFFFFFFFFFFFF AND DUP2 MSTORE PUSH1 0x20 ADD SWAP1 DUP2 MSTORE PUSH1 0x20 ADD PUSH1 0x0 KECCAK256 PUSH1 0x0 SWAP1 SLOAD SWAP1 PUSH2 0x100 EXP SWAP1 DIV PUSH20 0xFFFFFFFFFFFFFFFFFFFFFFFFFFFFFFFFFFFFFFFF AND SWAP1 POP PUSH1 0x0 PUSH20 0xFFFFFFFFFFFFFFFFFFFFFFFFFFFFFFFFFFFFFFFF AND DUP2 PUSH20 0xFFFFFFFFFFFFFFFFFFFFFFFFFFFFFFFFFFFFFFFF AND SUB PUSH2 0x2439 JUMPI POP PUSH2 0x277C JUMP JUMPDEST PUSH1 0x0 DUP13 DUP13 DUP13 DUP12 DUP12 DUP12 DUP12 DUP12 DUP12 DUP12 PUSH1 0x40 MLOAD PUSH1 0x20 ADD PUSH2 0x245E SWAP11 SWAP10 SWAP9 SWAP8 SWAP7 SWAP6 SWAP5 SWAP4 SWAP3 SWAP2 SWAP1 PUSH2 0x5715 JUMP JUMPDEST PUSH1 0x40 MLOAD PUSH1 0x20 DUP2 DUP4 SUB SUB DUP2 MSTORE SWAP1 PUSH1 0x40 MSTORE SWAP1 POP PUSH1 0x0 PUSH1 0x1 DUP2 GT ISZERO PUSH2 0x2483 JUMPI PUSH2 0x2482 PUSH2 0x53EE JUMP JUMPDEST JUMPDEST DUP11 PUSH1 0x1 DUP2 GT ISZERO PUSH2 0x2496 JUMPI PUSH2 0x2495 PUSH2 0x53EE JUMP JUMPDEST JUMPDEST SUB PUSH2 0x2646 JUMPI PUSH1 0x0 PUSH1 0x1 PUSH8 0xFFFFFFFFFFFFFFFF DUP2 GT ISZERO PUSH2 0x24B8 JUMPI PUSH2 0x24B7 PUSH2 0x3DFB JUMP JUMPDEST JUMPDEST PUSH1 0x40 MLOAD SWAP1 DUP1 DUP3 MSTORE DUP1 PUSH1 0x20 MUL PUSH1 0x20 ADD DUP3 ADD PUSH1 0x40 MSTORE DUP1 ISZERO PUSH2 0x24F1 JUMPI DUP2 PUSH1 0x20 ADD JUMPDEST PUSH2 0x24DE PUSH2 0x3AB4 JUMP JUMPDEST DUP2 MSTORE PUSH1 0x20 ADD SWAP1 PUSH1 0x1 SWAP1 SUB SWAP1 DUP2 PUSH2 0x24D6 JUMPI SWAP1 POP JUMPDEST POP SWAP1 POP PUSH1 0x40 MLOAD DUP1 PUSH1 0x60 ADD PUSH1 0x40 MSTORE DUP1 DUP16 PUSH20 0xFFFFFFFFFFFFFFFFFFFFFFFFFFFFFFFFFFFFFFFF AND DUP2 MSTORE PUSH1 0x20 ADD DUP15 DUP2 MSTORE PUSH1 0x20 ADD DUP14 DUP2 MSTORE POP DUP2 PUSH1 0x0 DUP2 MLOAD DUP2 LT PUSH2 0x2539 JUMPI PUSH2 0x2538 PUSH2 0x4E62 JUMP JUMPDEST JUMPDEST PUSH1 0x20 MUL PUSH1 0x20 ADD ADD DUP2 SWAP1 MSTORE POP PUSH1 0x0 PUSH1 0x40 MLOAD DUP1 PUSH1 0x60 ADD PUSH1 0x40 MSTORE DUP1 DUP4 DUP2 MSTORE PUSH1 0x20 ADD PUSH1 0x0 DUP2 MSTORE PUSH1 0x20 ADD PUSH1 0x0 DUP1 NOT AND DUP2 MSTORE POP SWAP1 POP DUP4 PUSH20 0xFFFFFFFFFFFFFFFFFFFFFFFFFFFFFFFFFFFFFFFF AND PUSH4 0x176AE7B7 CALLER DUP4 PUSH1 0x0 DUP8 PUSH1 0x40 MLOAD DUP6 PUSH4 0xFFFFFFFF AND PUSH1 0xE0 SHL DUP2 MSTORE PUSH1 0x4 ADD PUSH2 0x25A8 SWAP5 SWAP4 SWAP3 SWAP2 SWAP1 PUSH2 0x57BF JUMP JUMPDEST PUSH1 0x0 PUSH1 0x40 MLOAD DUP1 DUP4 SUB DUP2 PUSH1 0x0 DUP8 GAS CALL ISZERO DUP1 ISZERO PUSH2 0x25C7 JUMPI RETURNDATASIZE PUSH1 0x0 DUP1 RETURNDATACOPY RETURNDATASIZE PUSH1 0x0 REVERT JUMPDEST POP POP POP POP PUSH1 0x40 MLOAD RETURNDATASIZE PUSH1 0x0 DUP3 RETURNDATACOPY RETURNDATASIZE PUSH1 0x1F NOT PUSH1 0x1F DUP3 ADD AND DUP3 ADD DUP1 PUSH1 0x40 MSTORE POP DUP2 ADD SWAP1 PUSH2 0x25F0 SWAP2 SWAP1 PUSH2 0x3F41 JUMP JUMPDEST PUSH1 0x4 PUSH1 0x0 CALLER PUSH20 0xFFFFFFFFFFFFFFFFFFFFFFFFFFFFFFFFFFFFFFFF AND PUSH20 0xFFFFFFFFFFFFFFFFFFFFFFFFFFFFFFFFFFFFFFFF AND DUP2 MSTORE PUSH1 0x20 ADD SWAP1 DUP2 MSTORE PUSH1 0x20 ADD PUSH1 0x0 KECCAK256 PUSH1 0x1 ADD SWAP1 DUP2 PUSH2 0x263E SWAP2 SWAP1 PUSH2 0x59A7 JUMP JUMPDEST POP POP POP PUSH2 0x2779 JUMP JUMPDEST PUSH1 0x0 PUSH1 0x40 MLOAD DUP1 PUSH1 0x60 ADD PUSH1 0x40 MSTORE DUP1 DUP16 PUSH20 0xFFFFFFFFFFFFFFFFFFFFFFFFFFFFFFFFFFFFFFFF AND DUP2 MSTORE PUSH1 0x20 ADD DUP15 DUP2 MSTORE PUSH1 0x20 ADD DUP14 DUP2 MSTORE POP SWAP1 POP PUSH1 0x0 PUSH1 0x40 MLOAD DUP1 PUSH1 0x60 ADD PUSH1 0x40 MSTORE DUP1 DUP4 DUP2 MSTORE PUSH1 0x20 ADD PUSH1 0x0 DUP2 MSTORE PUSH1 0x20 ADD PUSH1 0x0 DUP1 NOT AND DUP2 MSTORE POP SWAP1 POP DUP4 PUSH20 0xFFFFFFFFFFFFFFFFFFFFFFFFFFFFFFFFFFFFFFFF AND PUSH4 0x7359B742 CALLER DUP4 PUSH1 0x0 DUP8 PUSH1 0x40 MLOAD DUP6 PUSH4 0xFFFFFFFF AND PUSH1 0xE0 SHL DUP2 MSTORE PUSH1 0x4 ADD PUSH2 0x26DF SWAP5 SWAP4 SWAP3 SWAP2 SWAP1 PUSH2 0x5A79 JUMP JUMPDEST PUSH1 0x0 PUSH1 0x40 MLOAD DUP1 DUP4 SUB DUP2 PUSH1 0x0 DUP8 GAS CALL ISZERO DUP1 ISZERO PUSH2 0x26FE JUMPI RETURNDATASIZE PUSH1 0x0 DUP1 RETURNDATACOPY RETURNDATASIZE PUSH1 0x0 REVERT JUMPDEST POP POP POP POP PUSH1 0x40 MLOAD RETURNDATASIZE PUSH1 0x0 DUP3 RETURNDATACOPY RETURNDATASIZE PUSH1 0x1F NOT PUSH1 0x1F DUP3 ADD AND DUP3 ADD DUP1 PUSH1 0x40 MSTORE POP DUP2 ADD SWAP1 PUSH2 0x2727 SWAP2 SWAP1 PUSH2 0x3F41 JUMP JUMPDEST PUSH1 0x4 PUSH1 0x0 CALLER PUSH20 0xFFFFFFFFFFFFFFFFFFFFFFFFFFFFFFFFFFFFFFFF AND PUSH20 0xFFFFFFFFFFFFFFFFFFFFFFFFFFFFFFFFFFFFFFFF AND DUP2 MSTORE PUSH1 0x20 ADD SWAP1 DUP2 MSTORE PUSH1 0x20 ADD PUSH1 0x0 KECCAK256 PUSH1 0x1 ADD SWAP1 DUP2 PUSH2 0x2775 SWAP2 SWAP1 PUSH2 0x59A7 JUMP JUMPDEST POP POP POP JUMPDEST POP POP JUMPDEST POP POP POP POP POP POP POP POP POP POP POP JUMP JUMPDEST PUSH1 0x0 PUSH2 0x2793 PUSH2 0x39E8 JUMP JUMPDEST SWAP1 POP DUP1 PUSH20 0xFFFFFFFFFFFFFFFFFFFFFFFFFFFFFFFFFFFFFFFF AND PUSH2 0x27B4 PUSH2 0x3233 JUMP JUMPDEST PUSH20 0xFFFFFFFFFFFFFFFFFFFFFFFFFFFFFFFFFFFFFFFF AND EQ PUSH2 0x280A JUMPI PUSH1 0x40 MLOAD PUSH32 0x8C379A000000000000000000000000000000000000000000000000000000000 DUP2 MSTORE PUSH1 0x4 ADD PUSH2 0x2801 SWAP1 PUSH2 0x5B4F JUMP JUMPDEST PUSH1 0x40 MLOAD DUP1 SWAP2 SUB SWAP1 REVERT JUMPDEST PUSH2 0x2813 DUP2 PUSH2 0x39B7 JUMP JUMPDEST POP JUMP JUMPDEST PUSH1 0x2 PUSH1 0x0 SWAP1 SLOAD SWAP1 PUSH2 0x100 EXP SWAP1 DIV PUSH20 0xFFFFFFFFFFFFFFFFFFFFFFFFFFFFFFFFFFFFFFFF AND DUP2 JUMP JUMPDEST PUSH1 0x3 PUSH1 0x20 MSTORE DUP1 PUSH1 0x0 MSTORE PUSH1 0x40 PUSH1 0x0 KECCAK256 PUSH1 0x0 SWAP2 POP SLOAD SWAP1 PUSH2 0x100 EXP SWAP1 DIV PUSH20 0xFFFFFFFFFFFFFFFFFFFFFFFFFFFFFFFFFFFFFFFF AND DUP2 JUMP JUMPDEST PUSH1 0x0 DUP1 PUSH1 0x0 SWAP1 SLOAD SWAP1 PUSH2 0x100 EXP SWAP1 DIV PUSH20 0xFFFFFFFFFFFFFFFFFFFFFFFFFFFFFFFFFFFFFFFF AND SWAP1 POP SWAP1 JUMP JUMPDEST PUSH1 0x0 PUSH1 0x4 PUSH1 0x0 CALLER PUSH20 0xFFFFFFFFFFFFFFFFFFFFFFFFFFFFFFFFFFFFFFFF AND PUSH20 0xFFFFFFFFFFFFFFFFFFFFFFFFFFFFFFFFFFFFFFFF AND DUP2 MSTORE PUSH1 0x20 ADD SWAP1 DUP2 MSTORE PUSH1 0x20 ADD PUSH1 0x0 KECCAK256 PUSH1 0x0 ADD PUSH1 0x0 SWAP1 SLOAD SWAP1 PUSH2 0x100 EXP SWAP1 DIV PUSH20 0xFFFFFFFFFFFFFFFFFFFFFFFFFFFFFFFFFFFFFFFF AND SWAP1 POP PUSH1 0x0 PUSH20 0xFFFFFFFFFFFFFFFFFFFFFFFFFFFFFFFFFFFFFFFF AND DUP2 PUSH20 0xFFFFFFFFFFFFFFFFFFFFFFFFFFFFFFFFFFFFFFFF AND SUB PUSH2 0x2939 JUMPI POP PUSH2 0x2ACC JUMP JUMPDEST DUP1 PUSH20 0xFFFFFFFFFFFFFFFFFFFFFFFFFFFFFFFFFFFFFFFF AND PUSH4 0xF44D4CA3 CALLER DUP5 PUSH1 0x4 PUSH1 0x0 CALLER PUSH20 0xFFFFFFFFFFFFFFFFFFFFFFFFFFFFFFFFFFFFFFFF AND PUSH20 0xFFFFFFFFFFFFFFFFFFFFFFFFFFFFFFFFFFFFFFFF AND DUP2 MSTORE PUSH1 0x20 ADD SWAP1 DUP2 MSTORE PUSH1 0x20 ADD PUSH1 0x0 KECCAK256 PUSH1 0x1 ADD PUSH1 0x40 MLOAD DUP5 PUSH4 0xFFFFFFFF AND PUSH1 0xE0 SHL DUP2 MSTORE PUSH1 0x4 ADD PUSH2 0x29B7 SWAP4 SWAP3 SWAP2 SWAP1 PUSH2 0x5BF3 JUMP JUMPDEST PUSH1 0x0 PUSH1 0x40 MLOAD DUP1 DUP4 SUB DUP2 PUSH1 0x0 DUP8 DUP1 EXTCODESIZE ISZERO DUP1 ISZERO PUSH2 0x29D1 JUMPI PUSH1 0x0 DUP1 REVERT JUMPDEST POP GAS CALL ISZERO DUP1 ISZERO PUSH2 0x29E5 JUMPI RETURNDATASIZE PUSH1 0x0 DUP1 RETURNDATACOPY RETURNDATASIZE PUSH1 0x0 REVERT JUMPDEST POP POP POP POP PUSH1 0x0 PUSH1 0x4 PUSH1 0x0 CALLER PUSH20 0xFFFFFFFFFFFFFFFFFFFFFFFFFFFFFFFFFFFFFFFF AND PUSH20 0xFFFFFFFFFFFFFFFFFFFFFFFFFFFFFFFFFFFFFFFF AND DUP2 MSTORE PUSH1 0x20 ADD SWAP1 DUP2 MSTORE PUSH1 0x20 ADD PUSH1 0x0 KECCAK256 PUSH1 0x0 ADD PUSH1 0x0 PUSH2 0x100 EXP DUP2 SLOAD DUP2 PUSH20 0xFFFFFFFFFFFFFFFFFFFFFFFFFFFFFFFFFFFFFFFF MUL NOT AND SWAP1 DUP4 PUSH20 0xFFFFFFFFFFFFFFFFFFFFFFFFFFFFFFFFFFFFFFFF AND MUL OR SWAP1 SSTORE POP PUSH1 0x40 MLOAD DUP1 PUSH1 0x20 ADD PUSH1 0x40 MSTORE DUP1 PUSH1 0x0 DUP2 MSTORE POP PUSH1 0x4 PUSH1 0x0 CALLER PUSH20 0xFFFFFFFFFFFFFFFFFFFFFFFFFFFFFFFFFFFFFFFF AND PUSH20 0xFFFFFFFFFFFFFFFFFFFFFFFFFFFFFFFFFFFFFFFF AND DUP2 MSTORE PUSH1 0x20 ADD SWAP1 DUP2 MSTORE PUSH1 0x20 ADD PUSH1 0x0 KECCAK256 PUSH1 0x1 ADD SWAP1 DUP2 PUSH2 0x2AC9 SWAP2 SWAP1 PUSH2 0x59A7 JUMP JUMPDEST POP POP JUMPDEST POP POP JUMP JUMPDEST PUSH1 0x0 DUP2 PUSH20 0xFFFFFFFFFFFFFFFFFFFFFFFFFFFFFFFFFFFFFFFF AND PUSH1 0x1 PUSH20 0xFFFFFFFFFFFFFFFFFFFFFFFFFFFFFFFFFFFFFFFF AND EQ ISZERO DUP1 ISZERO PUSH2 0x2BDB JUMPI POP PUSH1 0x0 PUSH20 0xFFFFFFFFFFFFFFFFFFFFFFFFFFFFFFFFFFFFFFFF AND PUSH1 0x6 PUSH1 0x0 DUP6 PUSH20 0xFFFFFFFFFFFFFFFFFFFFFFFFFFFFFFFFFFFFFFFF AND PUSH20 0xFFFFFFFFFFFFFFFFFFFFFFFFFFFFFFFFFFFFFFFF AND DUP2 MSTORE PUSH1 0x20 ADD SWAP1 DUP2 MSTORE PUSH1 0x20 ADD PUSH1 0x0 KECCAK256 PUSH1 0x0 DUP5 PUSH20 0xFFFFFFFFFFFFFFFFFFFFFFFFFFFFFFFFFFFFFFFF AND PUSH20 0xFFFFFFFFFFFFFFFFFFFFFFFFFFFFFFFFFFFFFFFF AND DUP2 MSTORE PUSH1 0x20 ADD SWAP1 DUP2 MSTORE PUSH1 0x20 ADD PUSH1 0x0 KECCAK256 PUSH1 0x0 ADD PUSH1 0x1 SWAP1 SLOAD SWAP1 PUSH2 0x100 EXP SWAP1 DIV PUSH20 0xFFFFFFFFFFFFFFFFFFFFFFFFFFFFFFFFFFFFFFFF AND PUSH20 0xFFFFFFFFFFFFFFFFFFFFFFFFFFFFFFFFFFFFFFFF AND EQ ISZERO JUMPDEST SWAP1 POP SWAP3 SWAP2 POP POP JUMP JUMPDEST PUSH2 0x2BEB PUSH2 0x3939 JUMP JUMPDEST DUP1 PUSH20 0xFFFFFFFFFFFFFFFFFFFFFFFFFFFFFFFFFFFFFFFF AND PUSH4 0x1FFC9A7 PUSH32 0x253BD7B700000000000000000000000000000000000000000000000000000000 PUSH1 0x40 MLOAD DUP3 PUSH4 0xFFFFFFFF AND PUSH1 0xE0 SHL DUP2 MSTORE PUSH1 0x4 ADD PUSH2 0x2C44 SWAP2 SWAP1 PUSH2 0x49E5 JUMP JUMPDEST PUSH1 0x20 PUSH1 0x40 MLOAD DUP1 DUP4 SUB DUP2 DUP7 GAS STATICCALL ISZERO DUP1 ISZERO PUSH2 0x2C61 JUMPI RETURNDATASIZE PUSH1 0x0 DUP1 RETURNDATACOPY RETURNDATASIZE PUSH1 0x0 REVERT JUMPDEST POP POP POP POP PUSH1 0x40 MLOAD RETURNDATASIZE PUSH1 0x1F NOT PUSH1 0x1F DUP3 ADD AND DUP3 ADD DUP1 PUSH1 0x40 MSTORE POP DUP2 ADD SWAP1 PUSH2 0x2C85 SWAP2 SWAP1 PUSH2 0x4A15 JUMP JUMPDEST PUSH2 0x2CC6 JUMPI DUP1 PUSH1 0x40 MLOAD PUSH32 0x24EA21A700000000000000000000000000000000000000000000000000000000 DUP2 MSTORE PUSH1 0x4 ADD PUSH2 0x2CBD SWAP2 SWAP1 PUSH2 0x436F JUMP JUMPDEST PUSH1 0x40 MLOAD DUP1 SWAP2 SUB SWAP1 REVERT JUMPDEST DUP1 PUSH20 0xFFFFFFFFFFFFFFFFFFFFFFFFFFFFFFFFFFFFFFFF AND PUSH1 0x2 PUSH1 0x0 SWAP1 SLOAD SWAP1 PUSH2 0x100 EXP SWAP1 DIV PUSH20 0xFFFFFFFFFFFFFFFFFFFFFFFFFFFFFFFFFFFFFFFF AND PUSH20 0xFFFFFFFFFFFFFFFFFFFFFFFFFFFFFFFFFFFFFFFF AND PUSH32 0x4803049971913703D2DD43C06110DC7FAD451E4603E9F485CBEEBDDA11263AB0 PUSH1 0x40 MLOAD PUSH1 0x40 MLOAD DUP1 SWAP2 SUB SWAP1 LOG3 DUP1 PUSH1 0x2 PUSH1 0x0 PUSH2 0x100 EXP DUP2 SLOAD DUP2 PUSH20 0xFFFFFFFFFFFFFFFFFFFFFFFFFFFFFFFFFFFFFFFF MUL NOT AND SWAP1 DUP4 PUSH20 0xFFFFFFFFFFFFFFFFFFFFFFFFFFFFFFFFFFFFFFFF AND MUL OR SWAP1 SSTORE POP POP JUMP JUMPDEST PUSH1 0x0 PUSH1 0x3 PUSH1 0x0 DUP4 PUSH20 0xFFFFFFFFFFFFFFFFFFFFFFFFFFFFFFFFFFFFFFFF AND PUSH20 0xFFFFFFFFFFFFFFFFFFFFFFFFFFFFFFFFFFFFFFFF AND DUP2 MSTORE PUSH1 0x20 ADD SWAP1 DUP2 MSTORE PUSH1 0x20 ADD PUSH1 0x0 KECCAK256 PUSH1 0x0 SWAP1 SLOAD SWAP1 PUSH2 0x100 EXP SWAP1 DIV PUSH20 0xFFFFFFFFFFFFFFFFFFFFFFFFFFFFFFFFFFFFFFFF AND SWAP1 POP SWAP2 SWAP1 POP JUMP JUMPDEST PUSH1 0x5 PUSH1 0x20 MSTORE DUP2 PUSH1 0x0 MSTORE PUSH1 0x40 PUSH1 0x0 KECCAK256 PUSH1 0x20 MSTORE DUP1 PUSH1 0x0 MSTORE PUSH1 0x40 PUSH1 0x0 KECCAK256 PUSH1 0x0 SWAP2 POP SWAP2 POP SWAP1 SLOAD SWAP1 PUSH2 0x100 EXP SWAP1 DIV PUSH20 0xFFFFFFFFFFFFFFFFFFFFFFFFFFFFFFFFFFFFFFFF AND DUP2 JUMP JUMPDEST PUSH2 0x2E39 PUSH2 0x3AEB JUMP JUMPDEST PUSH1 0x6 PUSH1 0x0 DUP5 PUSH20 0xFFFFFFFFFFFFFFFFFFFFFFFFFFFFFFFFFFFFFFFF AND PUSH20 0xFFFFFFFFFFFFFFFFFFFFFFFFFFFFFFFFFFFFFFFF AND DUP2 MSTORE PUSH1 0x20 ADD SWAP1 DUP2 MSTORE PUSH1 0x20 ADD PUSH1 0x0 KECCAK256 PUSH1 0x0 DUP4 PUSH20 0xFFFFFFFFFFFFFFFFFFFFFFFFFFFFFFFFFFFFFFFF AND PUSH20 0xFFFFFFFFFFFFFFFFFFFFFFFFFFFFFFFFFFFFFFFF AND DUP2 MSTORE PUSH1 0x20 ADD SWAP1 DUP2 MSTORE PUSH1 0x20 ADD PUSH1 0x0 KECCAK256 PUSH1 0x40 MLOAD DUP1 PUSH1 0x40 ADD PUSH1 0x40 MSTORE SWAP1 DUP2 PUSH1 0x0 DUP3 ADD PUSH1 0x0 SWAP1 SLOAD SWAP1 PUSH2 0x100 EXP SWAP1 DIV PUSH1 0xFF AND PUSH1 0xFF AND PUSH1 0xFF AND DUP2 MSTORE PUSH1 0x20 ADD PUSH1 0x0 DUP3 ADD PUSH1 0x1 SWAP1 SLOAD SWAP1 PUSH2 0x100 EXP SWAP1 DIV PUSH20 0xFFFFFFFFFFFFFFFFFFFFFFFFFFFFFFFFFFFFFFFF AND PUSH20 0xFFFFFFFFFFFFFFFFFFFFFFFFFFFFFFFFFFFFFFFF AND PUSH20 0xFFFFFFFFFFFFFFFFFFFFFFFFFFFFFFFFFFFFFFFF AND DUP2 MSTORE POP POP SWAP1 POP SWAP3 SWAP2 POP POP JUMP JUMPDEST DUP1 PUSH2 0x2F45 DUP2 PUSH2 0x388D JUMP JUMPDEST PUSH1 0x0 PUSH1 0x6 PUSH1 0x0 CALLER PUSH20 0xFFFFFFFFFFFFFFFFFFFFFFFFFFFFFFFFFFFFFFFF AND PUSH20 0xFFFFFFFFFFFFFFFFFFFFFFFFFFFFFFFFFFFFFFFF AND DUP2 MSTORE PUSH1 0x20 ADD SWAP1 DUP2 MSTORE PUSH1 0x20 ADD PUSH1 0x0 KECCAK256 PUSH1 0x0 DUP6 PUSH20 0xFFFFFFFFFFFFFFFFFFFFFFFFFFFFFFFFFFFFFFFF AND PUSH20 0xFFFFFFFFFFFFFFFFFFFFFFFFFFFFFFFFFFFFFFFF AND DUP2 MSTORE PUSH1 0x20 ADD SWAP1 DUP2 MSTORE PUSH1 0x20 ADD PUSH1 0x0 KECCAK256 SWAP1 POP PUSH1 0x0 PUSH1 0x6 PUSH1 0x0 CALLER PUSH20 0xFFFFFFFFFFFFFFFFFFFFFFFFFFFFFFFFFFFFFFFF AND PUSH20 0xFFFFFFFFFFFFFFFFFFFFFFFFFFFFFFFFFFFFFFFF AND DUP2 MSTORE PUSH1 0x20 ADD SWAP1 DUP2 MSTORE PUSH1 0x20 ADD PUSH1 0x0 KECCAK256 PUSH1 0x0 DUP6 PUSH20 0xFFFFFFFFFFFFFFFFFFFFFFFFFFFFFFFFFFFFFFFF AND PUSH20 0xFFFFFFFFFFFFFFFFFFFFFFFFFFFFFFFFFFFFFFFF AND DUP2 MSTORE PUSH1 0x20 ADD SWAP1 DUP2 MSTORE PUSH1 0x20 ADD PUSH1 0x0 KECCAK256 SWAP1 POP DUP4 PUSH20 0xFFFFFFFFFFFFFFFFFFFFFFFFFFFFFFFFFFFFFFFF AND DUP3 PUSH1 0x0 ADD PUSH1 0x1 SWAP1 SLOAD SWAP1 PUSH2 0x100 EXP SWAP1 DIV PUSH20 0xFFFFFFFFFFFFFFFFFFFFFFFFFFFFFFFFFFFFFFFF AND PUSH20 0xFFFFFFFFFFFFFFFFFFFFFFFFFFFFFFFFFFFFFFFF AND EQ PUSH2 0x30D9 JUMPI DUP5 PUSH1 0x40 MLOAD PUSH32 0x9D9207AF00000000000000000000000000000000000000000000000000000000 DUP2 MSTORE PUSH1 0x4 ADD PUSH2 0x30D0 SWAP2 SWAP1 PUSH2 0x436F JUMP JUMPDEST PUSH1 0x40 MLOAD DUP1 SWAP2 SUB SWAP1 REVERT JUMPDEST DUP1 PUSH1 0x0 ADD PUSH1 0x1 SWAP1 SLOAD SWAP1 PUSH2 0x100 EXP SWAP1 DIV PUSH20 0xFFFFFFFFFFFFFFFFFFFFFFFFFFFFFFFFFFFFFFFF AND DUP3 PUSH1 0x0 ADD PUSH1 0x1 PUSH2 0x100 EXP DUP2 SLOAD DUP2 PUSH20 0xFFFFFFFFFFFFFFFFFFFFFFFFFFFFFFFFFFFFFFFF MUL NOT AND SWAP1 DUP4 PUSH20 0xFFFFFFFFFFFFFFFFFFFFFFFFFFFFFFFFFFFFFFFF AND MUL OR SWAP1 SSTORE POP DUP1 PUSH1 0x0 ADD PUSH1 0x0 SWAP1 SLOAD SWAP1 PUSH2 0x100 EXP SWAP1 DIV PUSH1 0xFF AND DUP3 PUSH1 0x0 ADD PUSH1 0x0 PUSH2 0x100 EXP DUP2 SLOAD DUP2 PUSH1 0xFF MUL NOT AND SWAP1 DUP4 PUSH1 0xFF AND MUL OR SWAP1 SSTORE POP PUSH1 0x0 DUP2 PUSH1 0x0 ADD PUSH1 0x1 PUSH2 0x100 EXP DUP2 SLOAD DUP2 PUSH20 0xFFFFFFFFFFFFFFFFFFFFFFFFFFFFFFFFFFFFFFFF MUL NOT AND SWAP1 DUP4 PUSH20 0xFFFFFFFFFFFFFFFFFFFFFFFFFFFFFFFFFFFFFFFF AND MUL OR SWAP1 SSTORE POP PUSH1 0x0 DUP2 PUSH1 0x0 ADD PUSH1 0x0 PUSH2 0x100 EXP DUP2 SLOAD DUP2 PUSH1 0xFF MUL NOT AND SWAP1 DUP4 PUSH1 0xFF AND MUL OR SWAP1 SSTORE POP DUP4 PUSH20 0xFFFFFFFFFFFFFFFFFFFFFFFFFFFFFFFFFFFFFFFF AND CALLER PUSH20 0xFFFFFFFFFFFFFFFFFFFFFFFFFFFFFFFFFFFFFFFF AND PUSH32 0xFEF2A54F476DEDE8E8F6FF5138B92D021B5E287E276E6E84ECBD7D18AED22627 PUSH1 0x40 MLOAD PUSH1 0x40 MLOAD DUP1 SWAP2 SUB SWAP1 LOG3 POP POP POP POP POP JUMP JUMPDEST JUMP JUMPDEST PUSH1 0x0 PUSH1 0x1 PUSH1 0x0 SWAP1 SLOAD SWAP1 PUSH2 0x100 EXP SWAP1 DIV PUSH20 0xFFFFFFFFFFFFFFFFFFFFFFFFFFFFFFFFFFFFFFFF AND SWAP1 POP SWAP1 JUMP JUMPDEST PUSH2 0x3265 PUSH2 0x3939 JUMP JUMPDEST DUP1 PUSH1 0x1 PUSH1 0x0 PUSH2 0x100 EXP DUP2 SLOAD DUP2 PUSH20 0xFFFFFFFFFFFFFFFFFFFFFFFFFFFFFFFFFFFFFFFF MUL NOT AND SWAP1 DUP4 PUSH20 0xFFFFFFFFFFFFFFFFFFFFFFFFFFFFFFFFFFFFFFFF AND MUL OR SWAP1 SSTORE POP DUP1 PUSH20 0xFFFFFFFFFFFFFFFFFFFFFFFFFFFFFFFFFFFFFFFF AND PUSH2 0x32C5 PUSH2 0x286F JUMP JUMPDEST PUSH20 0xFFFFFFFFFFFFFFFFFFFFFFFFFFFFFFFFFFFFFFFF AND PUSH32 0x38D16B8CAC22D99FC7C124B9CD0DE2D3FA1FAEF420BFE791D8C362D765E22700 PUSH1 0x40 MLOAD PUSH1 0x40 MLOAD DUP1 SWAP2 SUB SWAP1 LOG3 POP JUMP JUMPDEST PUSH1 0x0 PUSH20 0xFFFFFFFFFFFFFFFFFFFFFFFFFFFFFFFFFFFFFFFF AND DUP2 PUSH20 0xFFFFFFFFFFFFFFFFFFFFFFFFFFFFFFFFFFFFFFFF AND EQ PUSH2 0x3425 JUMPI PUSH2 0x3349 DUP2 PUSH1 0x4 PUSH2 0x3500 JUMP JUMPDEST DUP1 PUSH20 0xFFFFFFFFFFFFFFFFFFFFFFFFFFFFFFFFFFFFFFFF AND PUSH4 0x1FFC9A7 PUSH32 0x907E1C5600000000000000000000000000000000000000000000000000000000 PUSH1 0x40 MLOAD DUP3 PUSH4 0xFFFFFFFF AND PUSH1 0xE0 SHL DUP2 MSTORE PUSH1 0x4 ADD PUSH2 0x33A2 SWAP2 SWAP1 PUSH2 0x49E5 JUMP JUMPDEST PUSH1 0x20 PUSH1 0x40 MLOAD DUP1 DUP4 SUB DUP2 DUP7 GAS STATICCALL ISZERO DUP1 ISZERO PUSH2 0x33BF JUMPI RETURNDATASIZE PUSH1 0x0 DUP1 RETURNDATACOPY RETURNDATASIZE PUSH1 0x0 REVERT JUMPDEST POP POP POP POP PUSH1 0x40 MLOAD RETURNDATASIZE PUSH1 0x1F NOT PUSH1 0x1F DUP3 ADD AND DUP3 ADD DUP1 PUSH1 0x40 MSTORE POP DUP2 ADD SWAP1 PUSH2 0x33E3 SWAP2 SWAP1 PUSH2 0x4A15 JUMP JUMPDEST PUSH2 0x3424 JUMPI DUP1 PUSH1 0x40 MLOAD PUSH32 0x24EA21A700000000000000000000000000000000000000000000000000000000 DUP2 MSTORE PUSH1 0x4 ADD PUSH2 0x341B SWAP2 SWAP1 PUSH2 0x436F JUMP JUMPDEST PUSH1 0x40 MLOAD DUP1 SWAP2 SUB SWAP1 REVERT JUMPDEST JUMPDEST DUP1 PUSH1 0x3 PUSH1 0x0 CALLER PUSH20 0xFFFFFFFFFFFFFFFFFFFFFFFFFFFFFFFFFFFFFFFF AND PUSH20 0xFFFFFFFFFFFFFFFFFFFFFFFFFFFFFFFFFFFFFFFF AND DUP2 MSTORE PUSH1 0x20 ADD SWAP1 DUP2 MSTORE PUSH1 0x20 ADD PUSH1 0x0 KECCAK256 PUSH1 0x0 PUSH2 0x100 EXP DUP2 SLOAD DUP2 PUSH20 0xFFFFFFFFFFFFFFFFFFFFFFFFFFFFFFFFFFFFFFFF MUL NOT AND SWAP1 DUP4 PUSH20 0xFFFFFFFFFFFFFFFFFFFFFFFFFFFFFFFFFFFFFFFF AND MUL OR SWAP1 SSTORE POP DUP1 PUSH20 0xFFFFFFFFFFFFFFFFFFFFFFFFFFFFFFFFFFFFFFFF AND CALLER PUSH20 0xFFFFFFFFFFFFFFFFFFFFFFFFFFFFFFFFFFFFFFFF AND PUSH32 0x4BDB0C6D693920823A574DF92B20CB20886D27AC1E4E522E48F2E57BB668423B PUSH1 0x40 MLOAD PUSH1 0x40 MLOAD DUP1 SWAP2 SUB SWAP1 LOG3 POP JUMP JUMPDEST PUSH1 0x0 DUP1 PUSH1 0x2 PUSH1 0x0 SWAP1 SLOAD SWAP1 PUSH2 0x100 EXP SWAP1 DIV PUSH20 0xFFFFFFFFFFFFFFFFFFFFFFFFFFFFFFFFFFFFFFFF AND PUSH20 0xFFFFFFFFFFFFFFFFFFFFFFFFFFFFFFFFFFFFFFFF AND PUSH4 0x253BD7B7 DUP6 DUP6 PUSH1 0xFF AND PUSH1 0x0 SHL PUSH1 0x40 MLOAD DUP4 PUSH4 0xFFFFFFFF AND PUSH1 0xE0 SHL DUP2 MSTORE PUSH1 0x4 ADD PUSH2 0x3566 SWAP3 SWAP2 SWAP1 PUSH2 0x5365 JUMP JUMPDEST PUSH1 0x40 DUP1 MLOAD DUP1 DUP4 SUB DUP2 DUP7 GAS STATICCALL ISZERO DUP1 ISZERO PUSH2 0x3582 JUMPI RETURNDATASIZE PUSH1 0x0 DUP1 RETURNDATACOPY RETURNDATASIZE PUSH1 0x0 REVERT JUMPDEST POP POP POP POP PUSH1 0x40 MLOAD RETURNDATASIZE PUSH1 0x1F NOT PUSH1 0x1F DUP3 ADD AND DUP3 ADD DUP1 PUSH1 0x40 MSTORE POP DUP2 ADD SWAP1 PUSH2 0x35A6 SWAP2 SWAP1 PUSH2 0x5C71 JUMP JUMPDEST SWAP2 POP SWAP2 POP PUSH1 0x0 DUP3 PUSH8 0xFFFFFFFFFFFFFFFF AND EQ DUP1 PUSH2 0x35CE JUMPI POP PUSH1 0x0 DUP2 PUSH8 0xFFFFFFFFFFFFFFFF AND EQ ISZERO JUMPDEST ISZERO PUSH2 0x3616 JUMPI DUP4 DUP3 DUP3 DUP6 PUSH1 0x40 MLOAD PUSH32 0xCAD17E6900000000000000000000000000000000000000000000000000000000 DUP2 MSTORE PUSH1 0x4 ADD PUSH2 0x360D SWAP5 SWAP4 SWAP3 SWAP2 SWAP1 PUSH2 0x5CC0 JUMP JUMPDEST PUSH1 0x40 MLOAD DUP1 SWAP2 SUB SWAP1 REVERT JUMPDEST POP POP POP POP JUMP JUMPDEST PUSH1 0x0 PUSH20 0xFFFFFFFFFFFFFFFFFFFFFFFFFFFFFFFFFFFFFFFF AND PUSH1 0x6 PUSH1 0x0 DUP4 PUSH20 0xFFFFFFFFFFFFFFFFFFFFFFFFFFFFFFFFFFFFFFFF AND PUSH20 0xFFFFFFFFFFFFFFFFFFFFFFFFFFFFFFFFFFFFFFFF AND DUP2 MSTORE PUSH1 0x20 ADD SWAP1 DUP2 MSTORE PUSH1 0x20 ADD PUSH1 0x0 KECCAK256 PUSH1 0x0 CALLER PUSH20 0xFFFFFFFFFFFFFFFFFFFFFFFFFFFFFFFFFFFFFFFF AND PUSH20 0xFFFFFFFFFFFFFFFFFFFFFFFFFFFFFFFFFFFFFFFF AND DUP2 MSTORE PUSH1 0x20 ADD SWAP1 DUP2 MSTORE PUSH1 0x20 ADD PUSH1 0x0 KECCAK256 PUSH1 0x0 ADD PUSH1 0x1 SWAP1 SLOAD SWAP1 PUSH2 0x100 EXP SWAP1 DIV PUSH20 0xFFFFFFFFFFFFFFFFFFFFFFFFFFFFFFFFFFFFFFFF AND PUSH20 0xFFFFFFFFFFFFFFFFFFFFFFFFFFFFFFFFFFFFFFFF AND SUB PUSH2 0x372C JUMPI CALLER PUSH1 0x40 MLOAD PUSH32 0x3C61B94D00000000000000000000000000000000000000000000000000000000 DUP2 MSTORE PUSH1 0x4 ADD PUSH2 0x3723 SWAP2 SWAP1 PUSH2 0x436F JUMP JUMPDEST PUSH1 0x40 MLOAD DUP1 SWAP2 SUB SWAP1 REVERT JUMPDEST POP JUMP JUMPDEST PUSH1 0x0 PUSH1 0x6 PUSH1 0x0 DUP5 PUSH20 0xFFFFFFFFFFFFFFFFFFFFFFFFFFFFFFFFFFFFFFFF AND PUSH20 0xFFFFFFFFFFFFFFFFFFFFFFFFFFFFFFFFFFFFFFFF AND DUP2 MSTORE PUSH1 0x20 ADD SWAP1 DUP2 MSTORE PUSH1 0x20 ADD PUSH1 0x0 KECCAK256 PUSH1 0x0 CALLER PUSH20 0xFFFFFFFFFFFFFFFFFFFFFFFFFFFFFFFFFFFFFFFF AND PUSH20 0xFFFFFFFFFFFFFFFFFFFFFFFFFFFFFFFFFFFFFFFF AND DUP2 MSTORE PUSH1 0x20 ADD SWAP1 DUP2 MSTORE PUSH1 0x20 ADD PUSH1 0x0 KECCAK256 PUSH1 0x0 ADD PUSH1 0x0 SWAP1 SLOAD SWAP1 PUSH2 0x100 EXP SWAP1 DIV PUSH1 0xFF AND SWAP1 POP PUSH1 0x0 CALLER PUSH20 0xFFFFFFFFFFFFFFFFFFFFFFFFFFFFFFFFFFFFFFFF AND PUSH4 0xE8E755B5 PUSH1 0x40 MLOAD DUP2 PUSH4 0xFFFFFFFF AND PUSH1 0xE0 SHL DUP2 MSTORE PUSH1 0x4 ADD PUSH1 0x20 PUSH1 0x40 MLOAD DUP1 DUP4 SUB DUP2 DUP7 GAS STATICCALL ISZERO DUP1 ISZERO PUSH2 0x380D JUMPI RETURNDATASIZE PUSH1 0x0 DUP1 RETURNDATACOPY RETURNDATASIZE PUSH1 0x0 REVERT JUMPDEST POP POP POP POP PUSH1 0x40 MLOAD RETURNDATASIZE PUSH1 0x1F NOT PUSH1 0x1F DUP3 ADD AND DUP3 ADD DUP1 PUSH1 0x40 MSTORE POP DUP2 ADD SWAP1 PUSH2 0x3831 SWAP2 SWAP1 PUSH2 0x51AC JUMP JUMPDEST SWAP1 POP DUP3 PUSH1 0xFF AND DUP4 DUP4 DUP4 AND AND PUSH1 0xFF AND EQ PUSH2 0x3887 JUMPI CALLER DUP2 DUP5 DUP5 PUSH1 0x40 MLOAD PUSH32 0x7295E93600000000000000000000000000000000000000000000000000000000 DUP2 MSTORE PUSH1 0x4 ADD PUSH2 0x387E SWAP5 SWAP4 SWAP3 SWAP2 SWAP1 PUSH2 0x5D05 JUMP JUMPDEST PUSH1 0x40 MLOAD DUP1 SWAP2 SUB SWAP1 REVERT JUMPDEST POP POP POP POP JUMP JUMPDEST PUSH1 0x0 PUSH20 0xFFFFFFFFFFFFFFFFFFFFFFFFFFFFFFFFFFFFFFFF AND DUP2 PUSH20 0xFFFFFFFFFFFFFFFFFFFFFFFFFFFFFFFFFFFFFFFF AND EQ DUP1 PUSH2 0x38F4 JUMPI POP PUSH1 0x1 PUSH20 0xFFFFFFFFFFFFFFFFFFFFFFFFFFFFFFFFFFFFFFFF AND DUP2 PUSH20 0xFFFFFFFFFFFFFFFFFFFFFFFFFFFFFFFFFFFFFFFF AND EQ JUMPDEST ISZERO PUSH2 0x3936 JUMPI DUP1 PUSH1 0x40 MLOAD PUSH32 0xC467AF0600000000000000000000000000000000000000000000000000000000 DUP2 MSTORE PUSH1 0x4 ADD PUSH2 0x392D SWAP2 SWAP1 PUSH2 0x436F JUMP JUMPDEST PUSH1 0x40 MLOAD DUP1 SWAP2 SUB SWAP1 REVERT JUMPDEST POP JUMP JUMPDEST PUSH2 0x3941 PUSH2 0x39E8 JUMP JUMPDEST PUSH20 0xFFFFFFFFFFFFFFFFFFFFFFFFFFFFFFFFFFFFFFFF AND PUSH2 0x395F PUSH2 0x286F JUMP JUMPDEST PUSH20 0xFFFFFFFFFFFFFFFFFFFFFFFFFFFFFFFFFFFFFFFF AND EQ PUSH2 0x39B5 JUMPI PUSH1 0x40 MLOAD PUSH32 0x8C379A000000000000000000000000000000000000000000000000000000000 DUP2 MSTORE PUSH1 0x4 ADD PUSH2 0x39AC SWAP1 PUSH2 0x5D96 JUMP JUMPDEST PUSH1 0x40 MLOAD DUP1 SWAP2 SUB SWAP1 REVERT JUMPDEST JUMP JUMPDEST PUSH1 0x1 PUSH1 0x0 PUSH2 0x100 EXP DUP2 SLOAD SWAP1 PUSH20 0xFFFFFFFFFFFFFFFFFFFFFFFFFFFFFFFFFFFFFFFF MUL NOT AND SWAP1 SSTORE PUSH2 0x39E5 DUP2 PUSH2 0x39F0 JUMP JUMPDEST POP JUMP JUMPDEST PUSH1 0x0 CALLER SWAP1 POP SWAP1 JUMP JUMPDEST PUSH1 0x0 DUP1 PUSH1 0x0 SWAP1 SLOAD SWAP1 PUSH2 0x100 EXP SWAP1 DIV PUSH20 0xFFFFFFFFFFFFFFFFFFFFFFFFFFFFFFFFFFFFFFFF AND SWAP1 POP DUP2 PUSH1 0x0 DUP1 PUSH2 0x100 EXP DUP2 SLOAD DUP2 PUSH20 0xFFFFFFFFFFFFFFFFFFFFFFFFFFFFFFFFFFFFFFFF MUL NOT AND SWAP1 DUP4 PUSH20 0xFFFFFFFFFFFFFFFFFFFFFFFFFFFFFFFFFFFFFFFF AND MUL OR SWAP1 SSTORE POP DUP2 PUSH20 0xFFFFFFFFFFFFFFFFFFFFFFFFFFFFFFFFFFFFFFFF AND DUP2 PUSH20 0xFFFFFFFFFFFFFFFFFFFFFFFFFFFFFFFFFFFFFFFF AND PUSH32 0x8BE0079C531659141344CD1FD0A4F28419497F9722A3DAAFE3B4186F6B6457E0 PUSH1 0x40 MLOAD PUSH1 0x40 MLOAD DUP1 SWAP2 SUB SWAP1 LOG3 POP POP JUMP JUMPDEST PUSH1 0x40 MLOAD DUP1 PUSH1 0x60 ADD PUSH1 0x40 MSTORE DUP1 PUSH1 0x0 PUSH20 0xFFFFFFFFFFFFFFFFFFFFFFFFFFFFFFFFFFFFFFFF AND DUP2 MSTORE PUSH1 0x20 ADD PUSH1 0x0 DUP2 MSTORE PUSH1 0x20 ADD PUSH1 0x60 DUP2 MSTORE POP SWAP1 JUMP JUMPDEST PUSH1 0x40 MLOAD DUP1 PUSH1 0x40 ADD PUSH1 0x40 MSTORE DUP1 PUSH1 0x0 PUSH1 0xFF AND DUP2 MSTORE PUSH1 0x20 ADD PUSH1 0x0 PUSH20 0xFFFFFFFFFFFFFFFFFFFFFFFFFFFFFFFFFFFFFFFF AND DUP2 MSTORE POP SWAP1 JUMP JUMPDEST PUSH1 0x0 DUP3 SWAP1 POP SWAP3 SWAP2 POP POP JUMP JUMPDEST PUSH1 0x0 PUSH32 0xFFFFFFFF00000000000000000000000000000000000000000000000000000000 DUP3 AND SWAP1 POP SWAP2 SWAP1 POP JUMP JUMPDEST PUSH1 0x0 DUP3 DUP3 SHL SWAP1 POP SWAP3 SWAP2 POP POP JUMP JUMPDEST PUSH1 0x0 PUSH2 0x3B6E DUP4 DUP4 PUSH2 0x3B1E JUMP JUMPDEST DUP3 PUSH2 0x3B79 DUP2 CALLDATALOAD PUSH2 0x3B29 JUMP JUMPDEST SWAP3 POP PUSH1 0x4 DUP3 LT ISZERO PUSH2 0x3BB9 JUMPI PUSH2 0x3BB4 PUSH32 0xFFFFFFFF00000000000000000000000000000000000000000000000000000000 DUP4 PUSH1 0x4 SUB PUSH1 0x8 MUL PUSH2 0x3B55 JUMP JUMPDEST DUP4 AND SWAP3 POP JUMPDEST POP POP SWAP3 SWAP2 POP POP JUMP JUMPDEST PUSH1 0x0 PUSH20 0xFFFFFFFFFFFFFFFFFFFFFFFFFFFFFFFFFFFFFFFF DUP3 AND SWAP1 POP SWAP2 SWAP1 POP JUMP JUMPDEST PUSH1 0x0 PUSH2 0x3BEC DUP3 PUSH2 0x3BC1 JUMP JUMPDEST SWAP1 POP SWAP2 SWAP1 POP JUMP JUMPDEST PUSH2 0x3BFC DUP2 PUSH2 0x3BE1 JUMP JUMPDEST DUP3 MSTORE POP POP JUMP JUMPDEST PUSH2 0x3C0B DUP2 PUSH2 0x3B29 JUMP JUMPDEST DUP3 MSTORE POP POP JUMP JUMPDEST PUSH1 0x0 PUSH1 0x40 DUP3 ADD SWAP1 POP PUSH2 0x3C26 PUSH1 0x0 DUP4 ADD DUP6 PUSH2 0x3BF3 JUMP JUMPDEST PUSH2 0x3C33 PUSH1 0x20 DUP4 ADD DUP5 PUSH2 0x3C02 JUMP JUMPDEST SWAP4 SWAP3 POP POP POP JUMP JUMPDEST PUSH1 0x0 DUP2 SWAP1 POP SWAP2 SWAP1 POP JUMP JUMPDEST PUSH32 0x4E487B7100000000000000000000000000000000000000000000000000000000 PUSH1 0x0 MSTORE PUSH1 0x11 PUSH1 0x4 MSTORE PUSH1 0x24 PUSH1 0x0 REVERT JUMPDEST PUSH1 0x0 PUSH2 0x3C7E DUP3 PUSH2 0x3C3A JUMP JUMPDEST SWAP2 POP PUSH2 0x3C89 DUP4 PUSH2 0x3C3A JUMP JUMPDEST SWAP3 POP DUP3 DUP3 SUB SWAP1 POP DUP2 DUP2 GT ISZERO PUSH2 0x3CA1 JUMPI PUSH2 0x3CA0 PUSH2 0x3C44 JUMP JUMPDEST JUMPDEST SWAP3 SWAP2 POP POP JUMP JUMPDEST PUSH1 0x0 PUSH1 0x40 MLOAD SWAP1 POP SWAP1 JUMP JUMPDEST PUSH1 0x0 DUP1 REVERT JUMPDEST PUSH1 0x0 DUP1 REVERT JUMPDEST PUSH1 0x0 DUP1 DUP6 DUP6 GT ISZERO PUSH2 0x3CCF JUMPI PUSH2 0x3CCE PUSH2 0x3CB1 JUMP JUMPDEST JUMPDEST DUP4 DUP7 GT ISZERO PUSH2 0x3CE0 JUMPI PUSH2 0x3CDF PUSH2 0x3CB6 JUMP JUMPDEST JUMPDEST PUSH1 0x1 DUP6 MUL DUP4 ADD SWAP2 POP DUP5 DUP7 SUB SWAP1 POP SWAP5 POP SWAP5 SWAP3 POP POP POP JUMP JUMPDEST PUSH1 0x0 DUP2 SWAP1 POP SWAP2 SWAP1 POP JUMP JUMPDEST PUSH1 0x0 DUP2 SWAP1 POP SWAP2 SWAP1 POP JUMP JUMPDEST PUSH1 0x0 PUSH2 0x3D25 PUSH2 0x3D20 PUSH2 0x3D1B DUP5 PUSH2 0x3CF6 JUMP JUMPDEST PUSH2 0x3D00 JUMP JUMPDEST PUSH2 0x3C3A JUMP JUMPDEST SWAP1 POP SWAP2 SWAP1 POP JUMP JUMPDEST PUSH2 0x3D35 DUP2 PUSH2 0x3D0A JUMP JUMPDEST DUP3 MSTORE POP POP JUMP JUMPDEST PUSH1 0x0 DUP3 DUP3 MSTORE PUSH1 0x20 DUP3 ADD SWAP1 POP SWAP3 SWAP2 POP POP JUMP JUMPDEST DUP3 DUP2 DUP4 CALLDATACOPY PUSH1 0x0 DUP4 DUP4 ADD MSTORE POP POP POP JUMP JUMPDEST PUSH1 0x0 PUSH1 0x1F NOT PUSH1 0x1F DUP4 ADD AND SWAP1 POP SWAP2 SWAP1 POP JUMP JUMPDEST PUSH1 0x0 PUSH2 0x3D78 DUP4 DUP6 PUSH2 0x3D3B JUMP JUMPDEST SWAP4 POP PUSH2 0x3D85 DUP4 DUP6 DUP5 PUSH2 0x3D4C JUMP JUMPDEST PUSH2 0x3D8E DUP4 PUSH2 0x3D5B JUMP JUMPDEST DUP5 ADD SWAP1 POP SWAP4 SWAP3 POP POP POP JUMP JUMPDEST PUSH1 0x0 PUSH1 0x80 DUP3 ADD SWAP1 POP PUSH2 0x3DAE PUSH1 0x0 DUP4 ADD DUP9 PUSH2 0x3BF3 JUMP JUMPDEST PUSH2 0x3DBB PUSH1 0x20 DUP4 ADD DUP8 PUSH2 0x3BF3 JUMP JUMPDEST PUSH2 0x3DC8 PUSH1 0x40 DUP4 ADD DUP7 PUSH2 0x3D2C JUMP JUMPDEST DUP2 DUP2 SUB PUSH1 0x60 DUP4 ADD MSTORE PUSH2 0x3DDB DUP2 DUP5 DUP7 PUSH2 0x3D6C JUMP JUMPDEST SWAP1 POP SWAP7 SWAP6 POP POP POP POP POP POP JUMP JUMPDEST PUSH1 0x0 DUP1 REVERT JUMPDEST PUSH1 0x0 DUP1 REVERT JUMPDEST PUSH1 0x0 DUP1 REVERT JUMPDEST PUSH1 0x0 DUP1 REVERT JUMPDEST PUSH32 0x4E487B7100000000000000000000000000000000000000000000000000000000 PUSH1 0x0 MSTORE PUSH1 0x41 PUSH1 0x4 MSTORE PUSH1 0x24 PUSH1 0x0 REVERT JUMPDEST PUSH2 0x3E33 DUP3 PUSH2 0x3D5B JUMP JUMPDEST DUP2 ADD DUP2 DUP2 LT PUSH8 0xFFFFFFFFFFFFFFFF DUP3 GT OR ISZERO PUSH2 0x3E52 JUMPI PUSH2 0x3E51 PUSH2 0x3DFB JUMP JUMPDEST JUMPDEST DUP1 PUSH1 0x40 MSTORE POP POP POP JUMP JUMPDEST PUSH1 0x0 PUSH2 0x3E65 PUSH2 0x3CA7 JUMP JUMPDEST SWAP1 POP PUSH2 0x3E71 DUP3 DUP3 PUSH2 0x3E2A JUMP JUMPDEST SWAP2 SWAP1 POP JUMP JUMPDEST PUSH1 0x0 PUSH8 0xFFFFFFFFFFFFFFFF DUP3 GT ISZERO PUSH2 0x3E91 JUMPI PUSH2 0x3E90 PUSH2 0x3DFB JUMP JUMPDEST JUMPDEST PUSH2 0x3E9A DUP3 PUSH2 0x3D5B JUMP JUMPDEST SWAP1 POP PUSH1 0x20 DUP2 ADD SWAP1 POP SWAP2 SWAP1 POP JUMP JUMPDEST PUSH1 0x0 JUMPDEST DUP4 DUP2 LT ISZERO PUSH2 0x3EC5 JUMPI DUP1 DUP3 ADD MLOAD DUP2 DUP5 ADD MSTORE PUSH1 0x20 DUP2 ADD SWAP1 POP PUSH2 0x3EAA JUMP JUMPDEST PUSH1 0x0 DUP5 DUP5 ADD MSTORE POP POP POP POP JUMP JUMPDEST PUSH1 0x0 PUSH2 0x3EE4 PUSH2 0x3EDF DUP5 PUSH2 0x3E76 JUMP JUMPDEST PUSH2 0x3E5B JUMP JUMPDEST SWAP1 POP DUP3 DUP2 MSTORE PUSH1 0x20 DUP2 ADD DUP5 DUP5 DUP5 ADD GT ISZERO PUSH2 0x3F00 JUMPI PUSH2 0x3EFF PUSH2 0x3DF6 JUMP JUMPDEST JUMPDEST PUSH2 0x3F0B DUP5 DUP3 DUP6 PUSH2 0x3EA7 JUMP JUMPDEST POP SWAP4 SWAP3 POP POP POP JUMP JUMPDEST PUSH1 0x0 DUP3 PUSH1 0x1F DUP4 ADD SLT PUSH2 0x3F28 JUMPI PUSH2 0x3F27 PUSH2 0x3DF1 JUMP JUMPDEST JUMPDEST DUP2 MLOAD PUSH2 0x3F38 DUP5 DUP3 PUSH1 0x20 DUP7 ADD PUSH2 0x3ED1 JUMP JUMPDEST SWAP2 POP POP SWAP3 SWAP2 POP POP JUMP JUMPDEST PUSH1 0x0 PUSH1 0x20 DUP3 DUP5 SUB SLT ISZERO PUSH2 0x3F57 JUMPI PUSH2 0x3F56 PUSH2 0x3DE7 JUMP JUMPDEST JUMPDEST PUSH1 0x0 DUP3 ADD MLOAD PUSH8 0xFFFFFFFFFFFFFFFF DUP2 GT ISZERO PUSH2 0x3F75 JUMPI PUSH2 0x3F74 PUSH2 0x3DEC JUMP JUMPDEST JUMPDEST PUSH2 0x3F81 DUP5 DUP3 DUP6 ADD PUSH2 0x3F13 JUMP JUMPDEST SWAP2 POP POP SWAP3 SWAP2 POP POP JUMP JUMPDEST PUSH2 0x3F93 DUP2 PUSH2 0x3B29 JUMP JUMPDEST DUP2 EQ PUSH2 0x3F9E JUMPI PUSH1 0x0 DUP1 REVERT JUMPDEST POP JUMP JUMPDEST PUSH1 0x0 DUP2 CALLDATALOAD SWAP1 POP PUSH2 0x3FB0 DUP2 PUSH2 0x3F8A JUMP JUMPDEST SWAP3 SWAP2 POP POP JUMP JUMPDEST PUSH1 0x0 PUSH1 0x20 DUP3 DUP5 SUB SLT ISZERO PUSH2 0x3FCC JUMPI PUSH2 0x3FCB PUSH2 0x3DE7 JUMP JUMPDEST JUMPDEST PUSH1 0x0 PUSH2 0x3FDA DUP5 DUP3 DUP6 ADD PUSH2 0x3FA1 JUMP JUMPDEST SWAP2 POP POP SWAP3 SWAP2 POP POP JUMP JUMPDEST PUSH1 0x0 DUP2 ISZERO ISZERO SWAP1 POP SWAP2 SWAP1 POP JUMP JUMPDEST PUSH2 0x3FF8 DUP2 PUSH2 0x3FE3 JUMP JUMPDEST DUP3 MSTORE POP POP JUMP JUMPDEST PUSH1 0x0 PUSH1 0x20 DUP3 ADD SWAP1 POP PUSH2 0x4013 PUSH1 0x0 DUP4 ADD DUP5 PUSH2 0x3FEF JUMP JUMPDEST SWAP3 SWAP2 POP POP JUMP JUMPDEST PUSH2 0x4022 DUP2 PUSH2 0x3BE1 JUMP JUMPDEST DUP2 EQ PUSH2 0x402D JUMPI PUSH1 0x0 DUP1 REVERT JUMPDEST POP JUMP JUMPDEST PUSH1 0x0 DUP2 CALLDATALOAD SWAP1 POP PUSH2 0x403F DUP2 PUSH2 0x4019 JUMP JUMPDEST SWAP3 SWAP2 POP POP JUMP JUMPDEST PUSH1 0x0 DUP1 PUSH1 0x40 DUP4 DUP6 SUB SLT ISZERO PUSH2 0x405C JUMPI PUSH2 0x405B PUSH2 0x3DE7 JUMP JUMPDEST JUMPDEST PUSH1 0x0 PUSH2 0x406A DUP6 DUP3 DUP7 ADD PUSH2 0x3FA1 JUMP JUMPDEST SWAP3 POP POP PUSH1 0x20 PUSH2 0x407B DUP6 DUP3 DUP7 ADD PUSH2 0x4030 JUMP JUMPDEST SWAP2 POP POP SWAP3 POP SWAP3 SWAP1 POP JUMP JUMPDEST PUSH1 0x0 DUP1 REVERT JUMPDEST PUSH1 0x0 PUSH1 0x60 DUP3 DUP5 SUB SLT ISZERO PUSH2 0x40A0 JUMPI PUSH2 0x409F PUSH2 0x4085 JUMP JUMPDEST JUMPDEST DUP2 SWAP1 POP SWAP3 SWAP2 POP POP JUMP JUMPDEST PUSH1 0x0 DUP1 PUSH1 0x40 DUP4 DUP6 SUB SLT ISZERO PUSH2 0x40C0 JUMPI PUSH2 0x40BF PUSH2 0x3DE7 JUMP JUMPDEST JUMPDEST PUSH1 0x0 PUSH2 0x40CE DUP6 DUP3 DUP7 ADD PUSH2 0x4030 JUMP JUMPDEST SWAP3 POP POP PUSH1 0x20 DUP4 ADD CALLDATALOAD PUSH8 0xFFFFFFFFFFFFFFFF DUP2 GT ISZERO PUSH2 0x40EF JUMPI PUSH2 0x40EE PUSH2 0x3DEC JUMP JUMPDEST JUMPDEST PUSH2 0x40FB DUP6 DUP3 DUP7 ADD PUSH2 0x408A JUMP JUMPDEST SWAP2 POP POP SWAP3 POP SWAP3 SWAP1 POP JUMP JUMPDEST PUSH1 0x0 DUP2 MLOAD SWAP1 POP SWAP2 SWAP1 POP JUMP JUMPDEST PUSH1 0x0 DUP3 DUP3 MSTORE PUSH1 0x20 DUP3 ADD SWAP1 POP SWAP3 SWAP2 POP POP JUMP JUMPDEST PUSH1 0x0 DUP2 SWAP1 POP PUSH1 0x20 DUP3 ADD SWAP1 POP SWAP2 SWAP1 POP JUMP JUMPDEST PUSH1 0x0 DUP2 MLOAD SWAP1 POP SWAP2 SWAP1 POP JUMP JUMPDEST PUSH1 0x0 DUP3 DUP3 MSTORE PUSH1 0x20 DUP3 ADD SWAP1 POP SWAP3 SWAP2 POP POP JUMP JUMPDEST PUSH1 0x0 PUSH2 0x4158 DUP3 PUSH2 0x4131 JUMP JUMPDEST PUSH2 0x4162 DUP2 DUP6 PUSH2 0x413C JUMP JUMPDEST SWAP4 POP PUSH2 0x4172 DUP2 DUP6 PUSH1 0x20 DUP7 ADD PUSH2 0x3EA7 JUMP JUMPDEST PUSH2 0x417B DUP2 PUSH2 0x3D5B JUMP JUMPDEST DUP5 ADD SWAP2 POP POP SWAP3 SWAP2 POP POP JUMP JUMPDEST PUSH1 0x0 PUSH2 0x4192 DUP4 DUP4 PUSH2 0x414D JUMP JUMPDEST SWAP1 POP SWAP3 SWAP2 POP POP JUMP JUMPDEST PUSH1 0x0 PUSH1 0x20 DUP3 ADD SWAP1 POP SWAP2 SWAP1 POP JUMP JUMPDEST PUSH1 0x0 PUSH2 0x41B2 DUP3 PUSH2 0x4105 JUMP JUMPDEST PUSH2 0x41BC DUP2 DUP6 PUSH2 0x4110 JUMP JUMPDEST SWAP4 POP DUP4 PUSH1 0x20 DUP3 MUL DUP6 ADD PUSH2 0x41CE DUP6 PUSH2 0x4121 JUMP JUMPDEST DUP1 PUSH1 0x0 JUMPDEST DUP6 DUP2 LT ISZERO PUSH2 0x420A JUMPI DUP5 DUP5 SUB DUP10 MSTORE DUP2 MLOAD PUSH2 0x41EB DUP6 DUP3 PUSH2 0x4186 JUMP JUMPDEST SWAP5 POP PUSH2 0x41F6 DUP4 PUSH2 0x419A JUMP JUMPDEST SWAP3 POP PUSH1 0x20 DUP11 ADD SWAP10 POP POP PUSH1 0x1 DUP2 ADD SWAP1 POP PUSH2 0x41D2 JUMP JUMPDEST POP DUP3 SWAP8 POP DUP8 SWAP6 POP POP POP POP POP POP SWAP3 SWAP2 POP POP JUMP JUMPDEST PUSH1 0x0 PUSH1 0x20 DUP3 ADD SWAP1 POP DUP2 DUP2 SUB PUSH1 0x0 DUP4 ADD MSTORE PUSH2 0x4236 DUP2 DUP5 PUSH2 0x41A7 JUMP JUMPDEST SWAP1 POP SWAP3 SWAP2 POP POP JUMP JUMPDEST PUSH1 0x0 PUSH1 0xFF DUP3 AND SWAP1 POP SWAP2 SWAP1 POP JUMP JUMPDEST PUSH2 0x4254 DUP2 PUSH2 0x423E JUMP JUMPDEST DUP2 EQ PUSH2 0x425F JUMPI PUSH1 0x0 DUP1 REVERT JUMPDEST POP JUMP JUMPDEST PUSH1 0x0 DUP2 CALLDATALOAD SWAP1 POP PUSH2 0x4271 DUP2 PUSH2 0x424B JUMP JUMPDEST SWAP3 SWAP2 POP POP JUMP JUMPDEST PUSH1 0x0 DUP1 PUSH1 0x40 DUP4 DUP6 SUB SLT ISZERO PUSH2 0x428E JUMPI PUSH2 0x428D PUSH2 0x3DE7 JUMP JUMPDEST JUMPDEST PUSH1 0x0 PUSH2 0x429C DUP6 DUP3 DUP7 ADD PUSH2 0x4030 JUMP JUMPDEST SWAP3 POP POP PUSH1 0x20 PUSH2 0x42AD DUP6 DUP3 DUP7 ADD PUSH2 0x4262 JUMP JUMPDEST SWAP2 POP POP SWAP3 POP SWAP3 SWAP1 POP JUMP JUMPDEST PUSH1 0x0 DUP1 PUSH1 0x40 DUP4 DUP6 SUB SLT ISZERO PUSH2 0x42CE JUMPI PUSH2 0x42CD PUSH2 0x3DE7 JUMP JUMPDEST JUMPDEST PUSH1 0x0 PUSH2 0x42DC DUP6 DUP3 DUP7 ADD PUSH2 0x4030 JUMP JUMPDEST SWAP3 POP POP PUSH1 0x20 PUSH2 0x42ED DUP6 DUP3 DUP7 ADD PUSH2 0x4030 JUMP JUMPDEST SWAP2 POP POP SWAP3 POP SWAP3 SWAP1 POP JUMP JUMPDEST PUSH2 0x4300 DUP2 PUSH2 0x423E JUMP JUMPDEST DUP3 MSTORE POP POP JUMP JUMPDEST PUSH1 0x0 PUSH1 0x40 DUP3 ADD SWAP1 POP PUSH2 0x431B PUSH1 0x0 DUP4 ADD DUP6 PUSH2 0x42F7 JUMP JUMPDEST PUSH2 0x4328 PUSH1 0x20 DUP4 ADD DUP5 PUSH2 0x3BF3 JUMP JUMPDEST SWAP4 SWAP3 POP POP POP JUMP JUMPDEST PUSH1 0x0 DUP1 PUSH1 0x40 DUP4 DUP6 SUB SLT ISZERO PUSH2 0x4346 JUMPI PUSH2 0x4345 PUSH2 0x3DE7 JUMP JUMPDEST JUMPDEST PUSH1 0x0 PUSH2 0x4354 DUP6 DUP3 DUP7 ADD PUSH2 0x4030 JUMP JUMPDEST SWAP3 POP POP PUSH1 0x20 PUSH2 0x4365 DUP6 DUP3 DUP7 ADD PUSH2 0x3FA1 JUMP JUMPDEST SWAP2 POP POP SWAP3 POP SWAP3 SWAP1 POP JUMP JUMPDEST PUSH1 0x0 PUSH1 0x20 DUP3 ADD SWAP1 POP PUSH2 0x4384 PUSH1 0x0 DUP4 ADD DUP5 PUSH2 0x3BF3 JUMP JUMPDEST SWAP3 SWAP2 POP POP JUMP JUMPDEST PUSH1 0x0 PUSH1 0x60 DUP3 DUP5 SUB SLT ISZERO PUSH2 0x43A0 JUMPI PUSH2 0x439F PUSH2 0x4085 JUMP JUMPDEST JUMPDEST DUP2 SWAP1 POP SWAP3 SWAP2 POP POP JUMP JUMPDEST PUSH1 0x0 DUP1 PUSH1 0x40 DUP4 DUP6 SUB SLT ISZERO PUSH2 0x43C0 JUMPI PUSH2 0x43BF PUSH2 0x3DE7 JUMP JUMPDEST JUMPDEST PUSH1 0x0 PUSH2 0x43CE DUP6 DUP3 DUP7 ADD PUSH2 0x4030 JUMP JUMPDEST SWAP3 POP POP PUSH1 0x20 DUP4 ADD CALLDATALOAD PUSH8 0xFFFFFFFFFFFFFFFF DUP2 GT ISZERO PUSH2 0x43EF JUMPI PUSH2 0x43EE PUSH2 0x3DEC JUMP JUMPDEST JUMPDEST PUSH2 0x43FB DUP6 DUP3 DUP7 ADD PUSH2 0x438A JUMP JUMPDEST SWAP2 POP POP SWAP3 POP SWAP3 SWAP1 POP JUMP JUMPDEST PUSH1 0x0 PUSH2 0x4410 DUP3 PUSH2 0x4131 JUMP JUMPDEST PUSH2 0x441A DUP2 DUP6 PUSH2 0x3D3B JUMP JUMPDEST SWAP4 POP PUSH2 0x442A DUP2 DUP6 PUSH1 0x20 DUP7 ADD PUSH2 0x3EA7 JUMP JUMPDEST PUSH2 0x4433 DUP2 PUSH2 0x3D5B JUMP JUMPDEST DUP5 ADD SWAP2 POP POP SWAP3 SWAP2 POP POP JUMP JUMPDEST PUSH1 0x0 PUSH1 0x20 DUP3 ADD SWAP1 POP DUP2 DUP2 SUB PUSH1 0x0 DUP4 ADD MSTORE PUSH2 0x4458 DUP2 DUP5 PUSH2 0x4405 JUMP JUMPDEST SWAP1 POP SWAP3 SWAP2 POP POP JUMP JUMPDEST PUSH2 0x4469 DUP2 PUSH2 0x3C3A JUMP JUMPDEST DUP2 EQ PUSH2 0x4474 JUMPI PUSH1 0x0 DUP1 REVERT JUMPDEST POP JUMP JUMPDEST PUSH1 0x0 DUP2 CALLDATALOAD SWAP1 POP PUSH2 0x4486 DUP2 PUSH2 0x4460 JUMP JUMPDEST SWAP3 SWAP2 POP POP JUMP JUMPDEST PUSH1 0x0 DUP1 PUSH1 0x0 PUSH1 0x60 DUP5 DUP7 SUB SLT ISZERO PUSH2 0x44A5 JUMPI PUSH2 0x44A4 PUSH2 0x3DE7 JUMP JUMPDEST JUMPDEST PUSH1 0x0 PUSH2 0x44B3 DUP7 DUP3 DUP8 ADD PUSH2 0x4030 JUMP JUMPDEST SWAP4 POP POP PUSH1 0x20 PUSH2 0x44C4 DUP7 DUP3 DUP8 ADD PUSH2 0x4477 JUMP JUMPDEST SWAP3 POP POP PUSH1 0x40 PUSH2 0x44D5 DUP7 DUP3 DUP8 ADD PUSH2 0x4030 JUMP JUMPDEST SWAP2 POP POP SWAP3 POP SWAP3 POP SWAP3 JUMP JUMPDEST PUSH1 0x0 DUP2 MLOAD SWAP1 POP SWAP2 SWAP1 POP JUMP JUMPDEST PUSH1 0x0 DUP3 DUP3 MSTORE PUSH1 0x20 DUP3 ADD SWAP1 POP SWAP3 SWAP2 POP POP JUMP JUMPDEST PUSH1 0x0 DUP2 SWAP1 POP PUSH1 0x20 DUP3 ADD SWAP1 POP SWAP2 SWAP1 POP JUMP JUMPDEST PUSH2 0x4514 DUP2 PUSH2 0x3BE1 JUMP JUMPDEST DUP3 MSTORE POP POP JUMP JUMPDEST PUSH1 0x0 PUSH2 0x4526 DUP4 DUP4 PUSH2 0x450B JUMP JUMPDEST PUSH1 0x20 DUP4 ADD SWAP1 POP SWAP3 SWAP2 POP POP JUMP JUMPDEST PUSH1 0x0 PUSH1 0x20 DUP3 ADD SWAP1 POP SWAP2 SWAP1 POP JUMP JUMPDEST PUSH1 0x0 PUSH2 0x454A DUP3 PUSH2 0x44DF JUMP JUMPDEST PUSH2 0x4554 DUP2 DUP6 PUSH2 0x44EA JUMP JUMPDEST SWAP4 POP PUSH2 0x455F DUP4 PUSH2 0x44FB JUMP JUMPDEST DUP1 PUSH1 0x0 JUMPDEST DUP4 DUP2 LT ISZERO PUSH2 0x4590 JUMPI DUP2 MLOAD PUSH2 0x4577 DUP9 DUP3 PUSH2 0x451A JUMP JUMPDEST SWAP8 POP PUSH2 0x4582 DUP4 PUSH2 0x4532 JUMP JUMPDEST SWAP3 POP POP PUSH1 0x1 DUP2 ADD SWAP1 POP PUSH2 0x4563 JUMP JUMPDEST POP DUP6 SWAP4 POP POP POP POP SWAP3 SWAP2 POP POP JUMP JUMPDEST PUSH1 0x0 PUSH1 0x40 DUP3 ADD SWAP1 POP DUP2 DUP2 SUB PUSH1 0x0 DUP4 ADD MSTORE PUSH2 0x45B7 DUP2 DUP6 PUSH2 0x453F JUMP JUMPDEST SWAP1 POP PUSH2 0x45C6 PUSH1 0x20 DUP4 ADD DUP5 PUSH2 0x3BF3 JUMP JUMPDEST SWAP4 SWAP3 POP POP POP JUMP JUMPDEST PUSH1 0x0 PUSH1 0x20 DUP3 DUP5 SUB SLT ISZERO PUSH2 0x45E3 JUMPI PUSH2 0x45E2 PUSH2 0x3DE7 JUMP JUMPDEST JUMPDEST PUSH1 0x0 PUSH2 0x45F1 DUP5 DUP3 DUP6 ADD PUSH2 0x4030 JUMP JUMPDEST SWAP2 POP POP SWAP3 SWAP2 POP POP JUMP JUMPDEST PUSH1 0x0 PUSH1 0x40 DUP3 ADD SWAP1 POP PUSH2 0x460F PUSH1 0x0 DUP4 ADD DUP6 PUSH2 0x3BF3 JUMP JUMPDEST DUP2 DUP2 SUB PUSH1 0x20 DUP4 ADD MSTORE PUSH2 0x4621 DUP2 DUP5 PUSH2 0x4405 JUMP JUMPDEST SWAP1 POP SWAP4 SWAP3 POP POP POP JUMP JUMPDEST PUSH1 0x0 PUSH2 0x463D PUSH2 0x4638 DUP5 PUSH2 0x3E76 JUMP JUMPDEST PUSH2 0x3E5B JUMP JUMPDEST SWAP1 POP DUP3 DUP2 MSTORE PUSH1 0x20 DUP2 ADD DUP5 DUP5 DUP5 ADD GT ISZERO PUSH2 0x4659 JUMPI PUSH2 0x4658 PUSH2 0x3DF6 JUMP JUMPDEST JUMPDEST PUSH2 0x4664 DUP5 DUP3 DUP6 PUSH2 0x3D4C JUMP JUMPDEST POP SWAP4 SWAP3 POP POP POP JUMP JUMPDEST PUSH1 0x0 DUP3 PUSH1 0x1F DUP4 ADD SLT PUSH2 0x4681 JUMPI PUSH2 0x4680 PUSH2 0x3DF1 JUMP JUMPDEST JUMPDEST DUP2 CALLDATALOAD PUSH2 0x4691 DUP5 DUP3 PUSH1 0x20 DUP7 ADD PUSH2 0x462A JUMP JUMPDEST SWAP2 POP POP SWAP3 SWAP2 POP POP JUMP JUMPDEST PUSH1 0x2 DUP2 LT PUSH2 0x46A7 JUMPI PUSH1 0x0 DUP1 REVERT JUMPDEST POP JUMP JUMPDEST PUSH1 0x0 DUP2 CALLDATALOAD SWAP1 POP PUSH2 0x46B9 DUP2 PUSH2 0x469A JUMP JUMPDEST SWAP3 SWAP2 POP POP JUMP JUMPDEST PUSH1 0x0 DUP1 PUSH1 0x0 DUP1 PUSH1 0x0 PUSH1 0xA0 DUP7 DUP9 SUB SLT ISZERO PUSH2 0x46DB JUMPI PUSH2 0x46DA PUSH2 0x3DE7 JUMP JUMPDEST JUMPDEST PUSH1 0x0 PUSH2 0x46E9 DUP9 DUP3 DUP10 ADD PUSH2 0x4030 JUMP JUMPDEST SWAP6 POP POP PUSH1 0x20 PUSH2 0x46FA DUP9 DUP3 DUP10 ADD PUSH2 0x4477 JUMP JUMPDEST SWAP5 POP POP PUSH1 0x40 DUP7 ADD CALLDATALOAD PUSH8 0xFFFFFFFFFFFFFFFF DUP2 GT ISZERO PUSH2 0x471B JUMPI PUSH2 0x471A PUSH2 0x3DEC JUMP JUMPDEST JUMPDEST PUSH2 0x4727 DUP9 DUP3 DUP10 ADD PUSH2 0x466C JUMP JUMPDEST SWAP4 POP POP PUSH1 0x60 PUSH2 0x4738 DUP9 DUP3 DUP10 ADD PUSH2 0x46AA JUMP JUMPDEST SWAP3 POP POP PUSH1 0x80 PUSH2 0x4749 DUP9 DUP3 DUP10 ADD PUSH2 0x4030 JUMP JUMPDEST SWAP2 POP POP SWAP3 SWAP6 POP SWAP3 SWAP6 SWAP1 SWAP4 POP JUMP JUMPDEST PUSH1 0x0 DUP2 SWAP1 POP SWAP2 SWAP1 POP JUMP JUMPDEST PUSH2 0x4769 DUP2 PUSH2 0x4756 JUMP JUMPDEST DUP3 MSTORE POP POP JUMP JUMPDEST PUSH1 0x0 PUSH1 0x20 DUP3 ADD SWAP1 POP PUSH2 0x4784 PUSH1 0x0 DUP4 ADD DUP5 PUSH2 0x4760 JUMP JUMPDEST SWAP3 SWAP2 POP POP JUMP JUMPDEST PUSH1 0x0 PUSH2 0x4795 DUP3 PUSH2 0x3BC1 JUMP JUMPDEST SWAP1 POP SWAP2 SWAP1 POP JUMP JUMPDEST PUSH2 0x47A5 DUP2 PUSH2 0x478A JUMP JUMPDEST DUP2 EQ PUSH2 0x47B0 JUMPI PUSH1 0x0 DUP1 REVERT JUMPDEST POP JUMP JUMPDEST PUSH1 0x0 DUP2 CALLDATALOAD SWAP1 POP PUSH2 0x47C2 DUP2 PUSH2 0x479C JUMP JUMPDEST SWAP3 SWAP2 POP POP JUMP JUMPDEST PUSH1 0x0 DUP1 PUSH1 0x0 DUP1 PUSH1 0x0 DUP1 PUSH1 0x0 DUP1 PUSH1 0x0 DUP1 PUSH1 0x0 PUSH2 0x160 DUP13 DUP15 SUB SLT ISZERO PUSH2 0x47EE JUMPI PUSH2 0x47ED PUSH2 0x3DE7 JUMP JUMPDEST JUMPDEST PUSH1 0x0 PUSH2 0x47FC DUP15 DUP3 DUP16 ADD PUSH2 0x4030 JUMP JUMPDEST SWAP12 POP POP PUSH1 0x20 PUSH2 0x480D DUP15 DUP3 DUP16 ADD PUSH2 0x4477 JUMP JUMPDEST SWAP11 POP POP PUSH1 0x40 DUP13 ADD CALLDATALOAD PUSH8 0xFFFFFFFFFFFFFFFF DUP2 GT ISZERO PUSH2 0x482E JUMPI PUSH2 0x482D PUSH2 0x3DEC JUMP JUMPDEST JUMPDEST PUSH2 0x483A DUP15 DUP3 DUP16 ADD PUSH2 0x466C JUMP JUMPDEST SWAP10 POP POP PUSH1 0x60 PUSH2 0x484B DUP15 DUP3 DUP16 ADD PUSH2 0x46AA JUMP JUMPDEST SWAP9 POP POP PUSH1 0x80 PUSH2 0x485C DUP15 DUP3 DUP16 ADD PUSH2 0x4477 JUMP JUMPDEST SWAP8 POP POP PUSH1 0xA0 PUSH2 0x486D DUP15 DUP3 DUP16 ADD PUSH2 0x4477 JUMP JUMPDEST SWAP7 POP POP PUSH1 0xC0 PUSH2 0x487E DUP15 DUP3 DUP16 ADD PUSH2 0x4477 JUMP JUMPDEST SWAP6 POP POP PUSH1 0xE0 PUSH2 0x488F DUP15 DUP3 DUP16 ADD PUSH2 0x4030 JUMP JUMPDEST SWAP5 POP POP PUSH2 0x100 PUSH2 0x48A1 DUP15 DUP3 DUP16 ADD PUSH2 0x47B3 JUMP JUMPDEST SWAP4 POP POP PUSH2 0x120 DUP13 ADD CALLDATALOAD PUSH8 0xFFFFFFFFFFFFFFFF DUP2 GT ISZERO PUSH2 0x48C3 JUMPI PUSH2 0x48C2 PUSH2 0x3DEC JUMP JUMPDEST JUMPDEST PUSH2 0x48CF DUP15 DUP3 DUP16 ADD PUSH2 0x466C JUMP JUMPDEST SWAP3 POP POP PUSH2 0x140 PUSH2 0x48E1 DUP15 DUP3 DUP16 ADD PUSH2 0x4030 JUMP JUMPDEST SWAP2 POP POP SWAP3 SWAP6 SWAP9 SWAP12 POP SWAP3 SWAP6 SWAP9 SWAP12 SWAP1 SWAP4 SWAP7 SWAP10 POP JUMP JUMPDEST PUSH2 0x48FD DUP2 PUSH2 0x4756 JUMP JUMPDEST DUP2 EQ PUSH2 0x4908 JUMPI PUSH1 0x0 DUP1 REVERT JUMPDEST POP JUMP JUMPDEST PUSH1 0x0 DUP2 CALLDATALOAD SWAP1 POP PUSH2 0x491A DUP2 PUSH2 0x48F4 JUMP JUMPDEST SWAP3 SWAP2 POP POP JUMP JUMPDEST PUSH2 0x4929 DUP2 PUSH2 0x3FE3 JUMP JUMPDEST DUP2 EQ PUSH2 0x4934 JUMPI PUSH1 0x0 DUP1 REVERT JUMPDEST POP JUMP JUMPDEST PUSH1 0x0 DUP2 CALLDATALOAD SWAP1 POP PUSH2 0x4946 DUP2 PUSH2 0x4920 JUMP JUMPDEST SWAP3 SWAP2 POP POP JUMP JUMPDEST PUSH1 0x0 DUP1 PUSH1 0x40 DUP4 DUP6 SUB SLT ISZERO PUSH2 0x4963 JUMPI PUSH2 0x4962 PUSH2 0x3DE7 JUMP JUMPDEST JUMPDEST PUSH1 0x0 PUSH2 0x4971 DUP6 DUP3 DUP7 ADD PUSH2 0x490B JUMP JUMPDEST SWAP3 POP POP PUSH1 0x20 PUSH2 0x4982 DUP6 DUP3 DUP7 ADD PUSH2 0x4937 JUMP JUMPDEST SWAP2 POP POP SWAP3 POP SWAP3 SWAP1 POP JUMP JUMPDEST PUSH2 0x4995 DUP2 PUSH2 0x423E JUMP JUMPDEST DUP3 MSTORE POP POP JUMP JUMPDEST PUSH1 0x40 DUP3 ADD PUSH1 0x0 DUP3 ADD MLOAD PUSH2 0x49B1 PUSH1 0x0 DUP6 ADD DUP3 PUSH2 0x498C JUMP JUMPDEST POP PUSH1 0x20 DUP3 ADD MLOAD PUSH2 0x49C4 PUSH1 0x20 DUP6 ADD DUP3 PUSH2 0x450B JUMP JUMPDEST POP POP POP POP JUMP JUMPDEST PUSH1 0x0 PUSH1 0x40 DUP3 ADD SWAP1 POP PUSH2 0x49DF PUSH1 0x0 DUP4 ADD DUP5 PUSH2 0x499B JUMP JUMPDEST SWAP3 SWAP2 POP POP JUMP JUMPDEST PUSH1 0x0 PUSH1 0x20 DUP3 ADD SWAP1 POP PUSH2 0x49FA PUSH1 0x0 DUP4 ADD DUP5 PUSH2 0x3C02 JUMP JUMPDEST SWAP3 SWAP2 POP POP JUMP JUMPDEST PUSH1 0x0 DUP2 MLOAD SWAP1 POP PUSH2 0x4A0F DUP2 PUSH2 0x4920 JUMP JUMPDEST SWAP3 SWAP2 POP POP JUMP JUMPDEST PUSH1 0x0 PUSH1 0x20 DUP3 DUP5 SUB SLT ISZERO PUSH2 0x4A2B JUMPI PUSH2 0x4A2A PUSH2 0x3DE7 JUMP JUMPDEST JUMPDEST PUSH1 0x0 PUSH2 0x4A39 DUP5 DUP3 DUP6 ADD PUSH2 0x4A00 JUMP JUMPDEST SWAP2 POP POP SWAP3 SWAP2 POP POP JUMP JUMPDEST PUSH1 0x0 DUP1 REVERT JUMPDEST PUSH1 0x0 DUP1 REVERT JUMPDEST PUSH1 0x0 DUP1 REVERT JUMPDEST PUSH1 0x0 DUP1 DUP4 CALLDATALOAD PUSH1 0x1 PUSH1 0x20 SUB DUP5 CALLDATASIZE SUB SUB DUP2 SLT PUSH2 0x4A6E JUMPI PUSH2 0x4A6D PUSH2 0x4A4C JUMP JUMPDEST JUMPDEST DUP4 DUP2 ADD SWAP3 POP DUP3 CALLDATALOAD SWAP2 POP PUSH1 0x20 DUP4 ADD SWAP3 POP PUSH8 0xFFFFFFFFFFFFFFFF DUP3 GT ISZERO PUSH2 0x4A96 JUMPI PUSH2 0x4A95 PUSH2 0x4A42 JUMP JUMPDEST JUMPDEST PUSH1 0x20 DUP3 MUL CALLDATASIZE SUB DUP4 SGT ISZERO PUSH2 0x4AAC JUMPI PUSH2 0x4AAB PUSH2 0x4A47 JUMP JUMPDEST JUMPDEST POP SWAP3 POP SWAP3 SWAP1 POP JUMP JUMPDEST PUSH1 0x0 DUP3 DUP3 MSTORE PUSH1 0x20 DUP3 ADD SWAP1 POP SWAP3 SWAP2 POP POP JUMP JUMPDEST PUSH1 0x0 DUP2 SWAP1 POP SWAP2 SWAP1 POP JUMP JUMPDEST PUSH1 0x0 PUSH2 0x4ADE PUSH1 0x20 DUP5 ADD DUP5 PUSH2 0x47B3 JUMP JUMPDEST SWAP1 POP SWAP3 SWAP2 POP POP JUMP JUMPDEST PUSH2 0x4AEF DUP2 PUSH2 0x478A JUMP JUMPDEST DUP3 MSTORE POP POP JUMP JUMPDEST PUSH1 0x0 PUSH2 0x4B04 PUSH1 0x20 DUP5 ADD DUP5 PUSH2 0x4477 JUMP JUMPDEST SWAP1 POP SWAP3 SWAP2 POP POP JUMP JUMPDEST PUSH2 0x4B15 DUP2 PUSH2 0x3C3A JUMP JUMPDEST DUP3 MSTORE POP POP JUMP JUMPDEST PUSH1 0x0 DUP1 DUP4 CALLDATALOAD PUSH1 0x1 PUSH1 0x20 SUB DUP5 CALLDATASIZE SUB SUB DUP2 SLT PUSH2 0x4B38 JUMPI PUSH2 0x4B37 PUSH2 0x4A4C JUMP JUMPDEST JUMPDEST DUP4 DUP2 ADD SWAP3 POP DUP3 CALLDATALOAD SWAP2 POP PUSH1 0x20 DUP4 ADD SWAP3 POP PUSH8 0xFFFFFFFFFFFFFFFF DUP3 GT ISZERO PUSH2 0x4B60 JUMPI PUSH2 0x4B5F PUSH2 0x4A42 JUMP JUMPDEST JUMPDEST PUSH1 0x1 DUP3 MUL CALLDATASIZE SUB DUP4 SGT ISZERO PUSH2 0x4B76 JUMPI PUSH2 0x4B75 PUSH2 0x4A47 JUMP JUMPDEST JUMPDEST POP SWAP3 POP SWAP3 SWAP1 POP JUMP JUMPDEST PUSH1 0x0 PUSH2 0x4B8A DUP4 DUP6 PUSH2 0x413C JUMP JUMPDEST SWAP4 POP PUSH2 0x4B97 DUP4 DUP6 DUP5 PUSH2 0x3D4C JUMP JUMPDEST PUSH2 0x4BA0 DUP4 PUSH2 0x3D5B JUMP JUMPDEST DUP5 ADD SWAP1 POP SWAP4 SWAP3 POP POP POP JUMP JUMPDEST PUSH1 0x0 PUSH1 0x60 DUP4 ADD PUSH2 0x4BBE PUSH1 0x0 DUP5 ADD DUP5 PUSH2 0x4ACF JUMP JUMPDEST PUSH2 0x4BCB PUSH1 0x0 DUP7 ADD DUP3 PUSH2 0x4AE6 JUMP JUMPDEST POP PUSH2 0x4BD9 PUSH1 0x20 DUP5 ADD DUP5 PUSH2 0x4AF5 JUMP JUMPDEST PUSH2 0x4BE6 PUSH1 0x20 DUP7 ADD DUP3 PUSH2 0x4B0C JUMP JUMPDEST POP PUSH2 0x4BF4 PUSH1 0x40 DUP5 ADD DUP5 PUSH2 0x4B1B JUMP JUMPDEST DUP6 DUP4 SUB PUSH1 0x40 DUP8 ADD MSTORE PUSH2 0x4C07 DUP4 DUP3 DUP5 PUSH2 0x4B7E JUMP JUMPDEST SWAP3 POP POP POP DUP1 SWAP2 POP POP SWAP3 SWAP2 POP POP JUMP JUMPDEST PUSH1 0x0 PUSH2 0x4C21 DUP4 DUP4 PUSH2 0x4BAB JUMP JUMPDEST SWAP1 POP SWAP3 SWAP2 POP POP JUMP JUMPDEST PUSH1 0x0 DUP3 CALLDATALOAD PUSH1 0x1 PUSH1 0x60 SUB DUP4 CALLDATASIZE SUB SUB DUP2 SLT PUSH2 0x4C45 JUMPI PUSH2 0x4C44 PUSH2 0x4A4C JUMP JUMPDEST JUMPDEST DUP3 DUP2 ADD SWAP2 POP POP SWAP3 SWAP2 POP POP JUMP JUMPDEST PUSH1 0x0 PUSH1 0x20 DUP3 ADD SWAP1 POP SWAP2 SWAP1 POP JUMP JUMPDEST PUSH1 0x0 PUSH2 0x4C6A DUP4 DUP6 PUSH2 0x4AB4 JUMP JUMPDEST SWAP4 POP DUP4 PUSH1 0x20 DUP5 MUL DUP6 ADD PUSH2 0x4C7C DUP5 PUSH2 0x4AC5 JUMP JUMPDEST DUP1 PUSH1 0x0 JUMPDEST DUP8 DUP2 LT ISZERO PUSH2 0x4CC0 JUMPI DUP5 DUP5 SUB DUP10 MSTORE PUSH2 0x4C97 DUP3 DUP5 PUSH2 0x4C29 JUMP JUMPDEST PUSH2 0x4CA1 DUP6 DUP3 PUSH2 0x4C15 JUMP JUMPDEST SWAP5 POP PUSH2 0x4CAC DUP4 PUSH2 0x4C51 JUMP JUMPDEST SWAP3 POP PUSH1 0x20 DUP11 ADD SWAP10 POP POP PUSH1 0x1 DUP2 ADD SWAP1 POP PUSH2 0x4C80 JUMP JUMPDEST POP DUP3 SWAP8 POP DUP8 SWAP5 POP POP POP POP POP SWAP4 SWAP3 POP POP POP JUMP JUMPDEST PUSH1 0x0 PUSH2 0x4CE1 PUSH1 0x20 DUP5 ADD DUP5 PUSH2 0x490B JUMP JUMPDEST SWAP1 POP SWAP3 SWAP2 POP POP JUMP JUMPDEST PUSH2 0x4CF2 DUP2 PUSH2 0x4756 JUMP JUMPDEST DUP3 MSTORE POP POP JUMP JUMPDEST PUSH1 0x0 PUSH1 0x60 DUP4 ADD PUSH2 0x4D0B PUSH1 0x0 DUP5 ADD DUP5 PUSH2 0x4A51 JUMP JUMPDEST DUP6 DUP4 SUB PUSH1 0x0 DUP8 ADD MSTORE PUSH2 0x4D1E DUP4 DUP3 DUP5 PUSH2 0x4C5E JUMP JUMPDEST SWAP3 POP POP POP PUSH2 0x4D2F PUSH1 0x20 DUP5 ADD DUP5 PUSH2 0x4AF5 JUMP JUMPDEST PUSH2 0x4D3C PUSH1 0x20 DUP7 ADD DUP3 PUSH2 0x4B0C JUMP JUMPDEST POP PUSH2 0x4D4A PUSH1 0x40 DUP5 ADD DUP5 PUSH2 0x4CD2 JUMP JUMPDEST PUSH2 0x4D57 PUSH1 0x40 DUP7 ADD DUP3 PUSH2 0x4CE9 JUMP JUMPDEST POP DUP1 SWAP2 POP POP SWAP3 SWAP2 POP POP JUMP JUMPDEST PUSH1 0x0 DUP2 SWAP1 POP SWAP2 SWAP1 POP JUMP JUMPDEST PUSH1 0x0 PUSH2 0x4D87 PUSH2 0x4D82 PUSH2 0x4D7D DUP5 PUSH2 0x4D62 JUMP JUMPDEST PUSH2 0x3D00 JUMP JUMPDEST PUSH2 0x3C3A JUMP JUMPDEST SWAP1 POP SWAP2 SWAP1 POP JUMP JUMPDEST PUSH2 0x4D97 DUP2 PUSH2 0x4D6C JUMP JUMPDEST DUP3 MSTORE POP POP JUMP JUMPDEST PUSH1 0x0 PUSH1 0x80 DUP3 ADD SWAP1 POP PUSH2 0x4DB2 PUSH1 0x0 DUP4 ADD DUP8 PUSH2 0x3BF3 JUMP JUMPDEST DUP2 DUP2 SUB PUSH1 0x20 DUP4 ADD MSTORE PUSH2 0x4DC4 DUP2 DUP7 PUSH2 0x4CF8 JUMP JUMPDEST SWAP1 POP PUSH2 0x4DD3 PUSH1 0x40 DUP4 ADD DUP6 PUSH2 0x4D8E JUMP JUMPDEST DUP2 DUP2 SUB PUSH1 0x60 DUP4 ADD MSTORE PUSH2 0x4DE5 DUP2 DUP5 PUSH2 0x4405 JUMP JUMPDEST SWAP1 POP SWAP6 SWAP5 POP POP POP POP POP JUMP JUMPDEST PUSH1 0x0 DUP1 REVERT JUMPDEST PUSH1 0x0 DUP1 REVERT JUMPDEST PUSH1 0x0 DUP1 REVERT JUMPDEST PUSH1 0x0 DUP1 DUP4 CALLDATALOAD PUSH1 0x1 PUSH1 0x20 SUB DUP5 CALLDATASIZE SUB SUB DUP2 SLT PUSH2 0x4E1C JUMPI PUSH2 0x4E1B PUSH2 0x4DF0 JUMP JUMPDEST JUMPDEST DUP1 DUP5 ADD SWAP3 POP DUP3 CALLDATALOAD SWAP2 POP PUSH8 0xFFFFFFFFFFFFFFFF DUP3 GT ISZERO PUSH2 0x4E3E JUMPI PUSH2 0x4E3D PUSH2 0x4DF5 JUMP JUMPDEST JUMPDEST PUSH1 0x20 DUP4 ADD SWAP3 POP PUSH1 0x20 DUP3 MUL CALLDATASIZE SUB DUP4 SGT ISZERO PUSH2 0x4E5A JUMPI PUSH2 0x4E59 PUSH2 0x4DFA JUMP JUMPDEST JUMPDEST POP SWAP3 POP SWAP3 SWAP1 POP JUMP JUMPDEST PUSH32 0x4E487B7100000000000000000000000000000000000000000000000000000000 PUSH1 0x0 MSTORE PUSH1 0x32 PUSH1 0x4 MSTORE PUSH1 0x24 PUSH1 0x0 REVERT JUMPDEST PUSH1 0x0 DUP3 CALLDATALOAD PUSH1 0x1 PUSH1 0x60 SUB DUP4 CALLDATASIZE SUB SUB DUP2 SLT PUSH2 0x4EAD JUMPI PUSH2 0x4EAC PUSH2 0x4DF0 JUMP JUMPDEST JUMPDEST DUP1 DUP4 ADD SWAP2 POP POP SWAP3 SWAP2 POP POP JUMP JUMPDEST PUSH1 0x0 PUSH1 0x20 DUP3 DUP5 SUB SLT ISZERO PUSH2 0x4ECF JUMPI PUSH2 0x4ECE PUSH2 0x3DE7 JUMP JUMPDEST JUMPDEST PUSH1 0x0 PUSH2 0x4EDD DUP5 DUP3 DUP6 ADD PUSH2 0x47B3 JUMP JUMPDEST SWAP2 POP POP SWAP3 SWAP2 POP POP JUMP JUMPDEST PUSH2 0x4EEF DUP2 PUSH2 0x3C3A JUMP JUMPDEST DUP3 MSTORE POP POP JUMP JUMPDEST PUSH1 0x0 PUSH1 0x60 DUP3 ADD SWAP1 POP PUSH2 0x4F0A PUSH1 0x0 DUP4 ADD DUP7 PUSH2 0x3BF3 JUMP JUMPDEST PUSH2 0x4F17 PUSH1 0x20 DUP4 ADD DUP6 PUSH2 0x4760 JUMP JUMPDEST PUSH2 0x4F24 PUSH1 0x40 DUP4 ADD DUP5 PUSH2 0x4EE6 JUMP JUMPDEST SWAP5 SWAP4 POP POP POP POP JUMP JUMPDEST PUSH1 0x0 DUP1 DUP4 CALLDATALOAD PUSH1 0x1 PUSH1 0x20 SUB DUP5 CALLDATASIZE SUB SUB DUP2 SLT PUSH2 0x4F49 JUMPI PUSH2 0x4F48 PUSH2 0x4DF0 JUMP JUMPDEST JUMPDEST DUP1 DUP5 ADD SWAP3 POP DUP3 CALLDATALOAD SWAP2 POP PUSH8 0xFFFFFFFFFFFFFFFF DUP3 GT ISZERO PUSH2 0x4F6B JUMPI PUSH2 0x4F6A PUSH2 0x4DF5 JUMP JUMPDEST JUMPDEST PUSH1 0x20 DUP4 ADD SWAP3 POP PUSH1 0x1 DUP3 MUL CALLDATASIZE SUB DUP4 SGT ISZERO PUSH2 0x4F87 JUMPI PUSH2 0x4F86 PUSH2 0x4DFA JUMP JUMPDEST JUMPDEST POP SWAP3 POP SWAP3 SWAP1 POP JUMP JUMPDEST PUSH1 0x0 PUSH2 0x4FAA PUSH2 0x4FA5 PUSH2 0x4FA0 DUP5 PUSH2 0x3BC1 JUMP JUMPDEST PUSH2 0x3D00 JUMP JUMPDEST PUSH2 0x3BC1 JUMP JUMPDEST SWAP1 POP SWAP2 SWAP1 POP JUMP JUMPDEST PUSH1 0x0 PUSH2 0x4FBC DUP3 PUSH2 0x4F8F JUMP JUMPDEST SWAP1 POP SWAP2 SWAP1 POP JUMP JUMPDEST PUSH1 0x0 PUSH2 0x4FCE DUP3 PUSH2 0x4FB1 JUMP JUMPDEST SWAP1 POP SWAP2 SWAP1 POP JUMP JUMPDEST PUSH2 0x4FDE DUP2 PUSH2 0x4FC3 JUMP JUMPDEST DUP3 MSTORE POP POP JUMP JUMPDEST PUSH1 0x0 PUSH2 0x4FFF PUSH2 0x4FFA PUSH2 0x4FF5 DUP5 PUSH2 0x3CF6 JUMP JUMPDEST PUSH2 0x3D00 JUMP JUMPDEST PUSH2 0x423E JUMP JUMPDEST SWAP1 POP SWAP2 SWAP1 POP JUMP JUMPDEST PUSH2 0x500F DUP2 PUSH2 0x4FE4 JUMP JUMPDEST DUP3 MSTORE POP POP JUMP JUMPDEST PUSH1 0x0 PUSH1 0x80 DUP3 ADD SWAP1 POP PUSH2 0x502A PUSH1 0x0 DUP4 ADD DUP9 PUSH2 0x4FD5 JUMP JUMPDEST PUSH2 0x5037 PUSH1 0x20 DUP4 ADD DUP8 PUSH2 0x4EE6 JUMP JUMPDEST DUP2 DUP2 SUB PUSH1 0x40 DUP4 ADD MSTORE PUSH2 0x504A DUP2 DUP6 DUP8 PUSH2 0x3D6C JUMP JUMPDEST SWAP1 POP PUSH2 0x5059 PUSH1 0x60 DUP4 ADD DUP5 PUSH2 0x5006 JUMP JUMPDEST SWAP7 SWAP6 POP POP POP POP POP POP JUMP JUMPDEST PUSH1 0x0 DUP1 PUSH1 0x40 DUP4 DUP6 SUB SLT ISZERO PUSH2 0x507A JUMPI PUSH2 0x5079 PUSH2 0x3DE7 JUMP JUMPDEST JUMPDEST PUSH1 0x0 PUSH2 0x5088 DUP6 DUP3 DUP7 ADD PUSH2 0x4A00 JUMP JUMPDEST SWAP3 POP POP PUSH1 0x20 DUP4 ADD MLOAD PUSH8 0xFFFFFFFFFFFFFFFF DUP2 GT ISZERO PUSH2 0x50A9 JUMPI PUSH2 0x50A8 PUSH2 0x3DEC JUMP JUMPDEST JUMPDEST PUSH2 0x50B5 DUP6 DUP3 DUP7 ADD PUSH2 0x3F13 JUMP JUMPDEST SWAP2 POP POP SWAP3 POP SWAP3 SWAP1 POP JUMP JUMPDEST PUSH1 0x0 PUSH2 0x50CA DUP3 PUSH2 0x3C3A JUMP JUMPDEST SWAP2 POP PUSH32 0xFFFFFFFFFFFFFFFFFFFFFFFFFFFFFFFFFFFFFFFFFFFFFFFFFFFFFFFFFFFFFFFF DUP3 SUB PUSH2 0x50FC JUMPI PUSH2 0x50FB PUSH2 0x3C44 JUMP JUMPDEST JUMPDEST PUSH1 0x1 DUP3 ADD SWAP1 POP SWAP2 SWAP1 POP JUMP JUMPDEST PUSH1 0x0 PUSH1 0x60 DUP3 ADD SWAP1 POP PUSH2 0x511C PUSH1 0x0 DUP4 ADD DUP7 PUSH2 0x3BF3 JUMP JUMPDEST PUSH2 0x5129 PUSH1 0x20 DUP4 ADD DUP6 PUSH2 0x3FEF JUMP JUMPDEST DUP2 DUP2 SUB PUSH1 0x40 DUP4 ADD MSTORE PUSH2 0x513B DUP2 DUP5 PUSH2 0x4405 JUMP JUMPDEST SWAP1 POP SWAP5 SWAP4 POP POP POP POP JUMP JUMPDEST PUSH1 0x0 PUSH1 0x40 DUP3 ADD SWAP1 POP PUSH2 0x515A PUSH1 0x0 DUP4 ADD DUP6 PUSH2 0x4760 JUMP JUMPDEST PUSH2 0x5167 PUSH1 0x20 DUP4 ADD DUP5 PUSH2 0x4EE6 JUMP JUMPDEST SWAP4 SWAP3 POP POP POP JUMP JUMPDEST PUSH1 0x0 PUSH1 0x40 DUP3 ADD SWAP1 POP PUSH2 0x5183 PUSH1 0x0 DUP4 ADD DUP6 PUSH2 0x3BF3 JUMP JUMPDEST PUSH2 0x5190 PUSH1 0x20 DUP4 ADD DUP5 PUSH2 0x3BF3 JUMP JUMPDEST SWAP4 SWAP3 POP POP POP JUMP JUMPDEST PUSH1 0x0 DUP2 MLOAD SWAP1 POP PUSH2 0x51A6 DUP2 PUSH2 0x424B JUMP JUMPDEST SWAP3 SWAP2 POP POP JUMP JUMPDEST PUSH1 0x0 PUSH1 0x20 DUP3 DUP5 SUB SLT ISZERO PUSH2 0x51C2 JUMPI PUSH2 0x51C1 PUSH2 0x3DE7 JUMP JUMPDEST JUMPDEST PUSH1 0x0 PUSH2 0x51D0 DUP5 DUP3 DUP6 ADD PUSH2 0x5197 JUMP JUMPDEST SWAP2 POP POP SWAP3 SWAP2 POP POP JUMP JUMPDEST PUSH1 0x0 PUSH1 0x60 DUP3 ADD SWAP1 POP PUSH2 0x51EE PUSH1 0x0 DUP4 ADD DUP7 PUSH2 0x3BF3 JUMP JUMPDEST PUSH2 0x51FB PUSH1 0x20 DUP4 ADD DUP6 PUSH2 0x42F7 JUMP JUMPDEST PUSH2 0x5208 PUSH1 0x40 DUP4 ADD DUP5 PUSH2 0x42F7 JUMP JUMPDEST SWAP5 SWAP4 POP POP POP POP JUMP JUMPDEST PUSH1 0x0 PUSH1 0x20 DUP3 ADD SWAP1 POP PUSH2 0x5225 PUSH1 0x0 DUP4 ADD DUP5 PUSH2 0x42F7 JUMP JUMPDEST SWAP3 SWAP2 POP POP JUMP JUMPDEST PUSH1 0x0 PUSH1 0x60 DUP4 ADD PUSH2 0x523E PUSH1 0x0 DUP5 ADD DUP5 PUSH2 0x4C29 JUMP JUMPDEST DUP5 DUP3 SUB PUSH1 0x0 DUP7 ADD MSTORE PUSH2 0x5250 DUP3 DUP3 PUSH2 0x4BAB JUMP JUMPDEST SWAP2 POP POP PUSH2 0x5260 PUSH1 0x20 DUP5 ADD DUP5 PUSH2 0x4AF5 JUMP JUMPDEST PUSH2 0x526D PUSH1 0x20 DUP7 ADD DUP3 PUSH2 0x4B0C JUMP JUMPDEST POP PUSH2 0x527B PUSH1 0x40 DUP5 ADD DUP5 PUSH2 0x4CD2 JUMP JUMPDEST PUSH2 0x5288 PUSH1 0x40 DUP7 ADD DUP3 PUSH2 0x4CE9 JUMP JUMPDEST POP DUP1 SWAP2 POP POP SWAP3 SWAP2 POP POP JUMP JUMPDEST PUSH1 0x0 PUSH1 0x80 DUP3 ADD SWAP1 POP PUSH2 0x52A8 PUSH1 0x0 DUP4 ADD DUP8 PUSH2 0x3BF3 JUMP JUMPDEST DUP2 DUP2 SUB PUSH1 0x20 DUP4 ADD MSTORE PUSH2 0x52BA DUP2 DUP7 PUSH2 0x522B JUMP JUMPDEST SWAP1 POP PUSH2 0x52C9 PUSH1 0x40 DUP4 ADD DUP6 PUSH2 0x4D8E JUMP JUMPDEST DUP2 DUP2 SUB PUSH1 0x60 DUP4 ADD MSTORE PUSH2 0x52DB DUP2 DUP5 PUSH2 0x4405 JUMP JUMPDEST SWAP1 POP SWAP6 SWAP5 POP POP POP POP POP JUMP JUMPDEST PUSH1 0x0 PUSH2 0x5301 PUSH2 0x52FC PUSH2 0x52F7 DUP5 PUSH2 0x4D62 JUMP JUMPDEST PUSH2 0x3D00 JUMP JUMPDEST PUSH2 0x423E JUMP JUMPDEST SWAP1 POP SWAP2 SWAP1 POP JUMP JUMPDEST PUSH2 0x5311 DUP2 PUSH2 0x52E6 JUMP JUMPDEST DUP3 MSTORE POP POP JUMP JUMPDEST PUSH1 0x0 PUSH1 0x80 DUP3 ADD SWAP1 POP PUSH2 0x532C PUSH1 0x0 DUP4 ADD DUP9 PUSH2 0x4FD5 JUMP JUMPDEST PUSH2 0x5339 PUSH1 0x20 DUP4 ADD DUP8 PUSH2 0x4EE6 JUMP JUMPDEST DUP2 DUP2 SUB PUSH1 0x40 DUP4 ADD MSTORE PUSH2 0x534C DUP2 DUP6 DUP8 PUSH2 0x3D6C JUMP JUMPDEST SWAP1 POP PUSH2 0x535B PUSH1 0x60 DUP4 ADD DUP5 PUSH2 0x5308 JUMP JUMPDEST SWAP7 SWAP6 POP POP POP POP POP POP JUMP JUMPDEST PUSH1 0x0 PUSH1 0x40 DUP3 ADD SWAP1 POP PUSH2 0x537A PUSH1 0x0 DUP4 ADD DUP6 PUSH2 0x3BF3 JUMP JUMPDEST PUSH2 0x5387 PUSH1 0x20 DUP4 ADD DUP5 PUSH2 0x4760 JUMP JUMPDEST SWAP4 SWAP3 POP POP POP JUMP JUMPDEST PUSH32 0x4E487B7100000000000000000000000000000000000000000000000000000000 PUSH1 0x0 MSTORE PUSH1 0x22 PUSH1 0x4 MSTORE PUSH1 0x24 PUSH1 0x0 REVERT JUMPDEST PUSH1 0x0 PUSH1 0x2 DUP3 DIV SWAP1 POP PUSH1 0x1 DUP3 AND DUP1 PUSH2 0x53D5 JUMPI PUSH1 0x7F DUP3 AND SWAP2 POP JUMPDEST PUSH1 0x20 DUP3 LT DUP2 SUB PUSH2 0x53E8 JUMPI PUSH2 0x53E7 PUSH2 0x538E JUMP JUMPDEST JUMPDEST POP SWAP2 SWAP1 POP JUMP JUMPDEST PUSH32 0x4E487B7100000000000000000000000000000000000000000000000000000000 PUSH1 0x0 MSTORE PUSH1 0x21 PUSH1 0x4 MSTORE PUSH1 0x24 PUSH1 0x0 REVERT JUMPDEST PUSH1 0x2 DUP2 LT PUSH2 0x542E JUMPI PUSH2 0x542D PUSH2 0x53EE JUMP JUMPDEST JUMPDEST POP JUMP JUMPDEST PUSH1 0x0 DUP2 SWAP1 POP PUSH2 0x543F DUP3 PUSH2 0x541D JUMP JUMPDEST SWAP2 SWAP1 POP JUMP JUMPDEST PUSH1 0x0 PUSH2 0x544F DUP3 PUSH2 0x5431 JUMP JUMPDEST SWAP1 POP SWAP2 SWAP1 POP JUMP JUMPDEST PUSH2 0x545F DUP2 PUSH2 0x5444 JUMP JUMPDEST DUP3 MSTORE POP POP JUMP JUMPDEST PUSH1 0x0 PUSH1 0xA0 DUP3 ADD SWAP1 POP PUSH2 0x547A PUSH1 0x0 DUP4 ADD DUP9 PUSH2 0x3BF3 JUMP JUMPDEST PUSH2 0x5487 PUSH1 0x20 DUP4 ADD DUP8 PUSH2 0x4EE6 JUMP JUMPDEST DUP2 DUP2 SUB PUSH1 0x40 DUP4 ADD MSTORE PUSH2 0x5499 DUP2 DUP7 PUSH2 0x4405 JUMP JUMPDEST SWAP1 POP PUSH2 0x54A8 PUSH1 0x60 DUP4 ADD DUP6 PUSH2 0x5456 JUMP JUMPDEST PUSH2 0x54B5 PUSH1 0x80 DUP4 ADD DUP5 PUSH2 0x3BF3 JUMP JUMPDEST SWAP7 SWAP6 POP POP POP POP POP POP JUMP JUMPDEST PUSH1 0x0 DUP2 MLOAD SWAP1 POP SWAP2 SWAP1 POP JUMP JUMPDEST PUSH1 0x0 DUP2 SWAP1 POP PUSH1 0x20 DUP3 ADD SWAP1 POP SWAP2 SWAP1 POP JUMP JUMPDEST PUSH1 0x0 PUSH1 0x60 DUP4 ADD PUSH1 0x0 DUP4 ADD MLOAD PUSH2 0x54F2 PUSH1 0x0 DUP7 ADD DUP3 PUSH2 0x4AE6 JUMP JUMPDEST POP PUSH1 0x20 DUP4 ADD MLOAD PUSH2 0x5505 PUSH1 0x20 DUP7 ADD DUP3 PUSH2 0x4B0C JUMP JUMPDEST POP PUSH1 0x40 DUP4 ADD MLOAD DUP5 DUP3 SUB PUSH1 0x40 DUP7 ADD MSTORE PUSH2 0x551D DUP3 DUP3 PUSH2 0x414D JUMP JUMPDEST SWAP2 POP POP DUP1 SWAP2 POP POP SWAP3 SWAP2 POP POP JUMP JUMPDEST PUSH1 0x0 PUSH2 0x5536 DUP4 DUP4 PUSH2 0x54DA JUMP JUMPDEST SWAP1 POP SWAP3 SWAP2 POP POP JUMP JUMPDEST PUSH1 0x0 PUSH1 0x20 DUP3 ADD SWAP1 POP SWAP2 SWAP1 POP JUMP JUMPDEST PUSH1 0x0 PUSH2 0x5556 DUP3 PUSH2 0x54BF JUMP JUMPDEST PUSH2 0x5560 DUP2 DUP6 PUSH2 0x4AB4 JUMP JUMPDEST SWAP4 POP DUP4 PUSH1 0x20 DUP3 MUL DUP6 ADD PUSH2 0x5572 DUP6 PUSH2 0x54CA JUMP JUMPDEST DUP1 PUSH1 0x0 JUMPDEST DUP6 DUP2 LT ISZERO PUSH2 0x55AE JUMPI DUP5 DUP5 SUB DUP10 MSTORE DUP2 MLOAD PUSH2 0x558F DUP6 DUP3 PUSH2 0x552A JUMP JUMPDEST SWAP5 POP PUSH2 0x559A DUP4 PUSH2 0x553E JUMP JUMPDEST SWAP3 POP PUSH1 0x20 DUP11 ADD SWAP10 POP POP PUSH1 0x1 DUP2 ADD SWAP1 POP PUSH2 0x5576 JUMP JUMPDEST POP DUP3 SWAP8 POP DUP8 SWAP6 POP POP POP POP POP POP SWAP3 SWAP2 POP POP JUMP JUMPDEST PUSH1 0x0 PUSH1 0x60 DUP4 ADD PUSH1 0x0 DUP4 ADD MLOAD DUP5 DUP3 SUB PUSH1 0x0 DUP7 ADD MSTORE PUSH2 0x55DD DUP3 DUP3 PUSH2 0x554B JUMP JUMPDEST SWAP2 POP POP PUSH1 0x20 DUP4 ADD MLOAD PUSH2 0x55F2 PUSH1 0x20 DUP7 ADD DUP3 PUSH2 0x4B0C JUMP JUMPDEST POP PUSH1 0x40 DUP4 ADD MLOAD PUSH2 0x5605 PUSH1 0x40 DUP7 ADD DUP3 PUSH2 0x4CE9 JUMP JUMPDEST POP DUP1 SWAP2 POP POP SWAP3 SWAP2 POP POP JUMP JUMPDEST PUSH1 0x0 PUSH1 0x80 DUP3 ADD SWAP1 POP PUSH2 0x5625 PUSH1 0x0 DUP4 ADD DUP8 PUSH2 0x3BF3 JUMP JUMPDEST DUP2 DUP2 SUB PUSH1 0x20 DUP4 ADD MSTORE PUSH2 0x5637 DUP2 DUP7 PUSH2 0x55C0 JUMP JUMPDEST SWAP1 POP PUSH2 0x5646 PUSH1 0x40 DUP4 ADD DUP6 PUSH2 0x4D8E JUMP JUMPDEST DUP2 DUP2 SUB PUSH1 0x60 DUP4 ADD MSTORE PUSH2 0x5658 DUP2 DUP5 PUSH2 0x4405 JUMP JUMPDEST SWAP1 POP SWAP6 SWAP5 POP POP POP POP POP JUMP JUMPDEST PUSH1 0x0 PUSH1 0x60 DUP4 ADD PUSH1 0x0 DUP4 ADD MLOAD DUP5 DUP3 SUB PUSH1 0x0 DUP7 ADD MSTORE PUSH2 0x5680 DUP3 DUP3 PUSH2 0x54DA JUMP JUMPDEST SWAP2 POP POP PUSH1 0x20 DUP4 ADD MLOAD PUSH2 0x5695 PUSH1 0x20 DUP7 ADD DUP3 PUSH2 0x4B0C JUMP JUMPDEST POP PUSH1 0x40 DUP4 ADD MLOAD PUSH2 0x56A8 PUSH1 0x40 DUP7 ADD DUP3 PUSH2 0x4CE9 JUMP JUMPDEST POP DUP1 SWAP2 POP POP SWAP3 SWAP2 POP POP JUMP JUMPDEST PUSH1 0x0 PUSH1 0x80 DUP3 ADD SWAP1 POP PUSH2 0x56C8 PUSH1 0x0 DUP4 ADD DUP8 PUSH2 0x3BF3 JUMP JUMPDEST DUP2 DUP2 SUB PUSH1 0x20 DUP4 ADD MSTORE PUSH2 0x56DA DUP2 DUP7 PUSH2 0x5663 JUMP JUMPDEST SWAP1 POP PUSH2 0x56E9 PUSH1 0x40 DUP4 ADD DUP6 PUSH2 0x4D8E JUMP JUMPDEST DUP2 DUP2 SUB PUSH1 0x60 DUP4 ADD MSTORE PUSH2 0x56FB DUP2 DUP5 PUSH2 0x4405 JUMP JUMPDEST SWAP1 POP SWAP6 SWAP5 POP POP POP POP POP JUMP JUMPDEST PUSH2 0x570F DUP2 PUSH2 0x478A JUMP JUMPDEST DUP3 MSTORE POP POP JUMP JUMPDEST PUSH1 0x0 PUSH2 0x140 DUP3 ADD SWAP1 POP PUSH2 0x572B PUSH1 0x0 DUP4 ADD DUP14 PUSH2 0x3BF3 JUMP JUMPDEST PUSH2 0x5738 PUSH1 0x20 DUP4 ADD DUP13 PUSH2 0x4EE6 JUMP JUMPDEST DUP2 DUP2 SUB PUSH1 0x40 DUP4 ADD MSTORE PUSH2 0x574A DUP2 DUP12 PUSH2 0x4405 JUMP JUMPDEST SWAP1 POP PUSH2 0x5759 PUSH1 0x60 DUP4 ADD DUP11 PUSH2 0x4EE6 JUMP JUMPDEST PUSH2 0x5766 PUSH1 0x80 DUP4 ADD DUP10 PUSH2 0x4EE6 JUMP JUMPDEST PUSH2 0x5773 PUSH1 0xA0 DUP4 ADD DUP9 PUSH2 0x4EE6 JUMP JUMPDEST PUSH2 0x5780 PUSH1 0xC0 DUP4 ADD DUP8 PUSH2 0x3BF3 JUMP JUMPDEST PUSH2 0x578D PUSH1 0xE0 DUP4 ADD DUP7 PUSH2 0x5706 JUMP JUMPDEST DUP2 DUP2 SUB PUSH2 0x100 DUP4 ADD MSTORE PUSH2 0x57A0 DUP2 DUP6 PUSH2 0x4405 JUMP JUMPDEST SWAP1 POP PUSH2 0x57B0 PUSH2 0x120 DUP4 ADD DUP5 PUSH2 0x3BF3 JUMP JUMPDEST SWAP12 SWAP11 POP POP POP POP POP POP POP POP POP POP POP JUMP JUMPDEST PUSH1 0x0 PUSH1 0x80 DUP3 ADD SWAP1 POP PUSH2 0x57D4 PUSH1 0x0 DUP4 ADD DUP8 PUSH2 0x3BF3 JUMP JUMPDEST DUP2 DUP2 SUB PUSH1 0x20 DUP4 ADD MSTORE PUSH2 0x57E6 DUP2 DUP7 PUSH2 0x55C0 JUMP JUMPDEST SWAP1 POP PUSH2 0x57F5 PUSH1 0x40 DUP4 ADD DUP6 PUSH2 0x3D2C JUMP JUMPDEST DUP2 DUP2 SUB PUSH1 0x60 DUP4 ADD MSTORE PUSH2 0x5807 DUP2 DUP5 PUSH2 0x4405 JUMP JUMPDEST SWAP1 POP SWAP6 SWAP5 POP POP POP POP POP JUMP JUMPDEST PUSH1 0x0 DUP2 SWAP1 POP DUP2 PUSH1 0x0 MSTORE PUSH1 0x20 PUSH1 0x0 KECCAK256 SWAP1 POP SWAP2 SWAP1 POP JUMP JUMPDEST PUSH1 0x0 PUSH1 0x20 PUSH1 0x1F DUP4 ADD DIV SWAP1 POP SWAP2 SWAP1 POP JUMP JUMPDEST PUSH1 0x0 PUSH1 0x8 DUP4 MUL PUSH2 0x5867 PUSH32 0xFFFFFFFFFFFFFFFFFFFFFFFFFFFFFFFFFFFFFFFFFFFFFFFFFFFFFFFFFFFFFFFF DUP3 PUSH2 0x3B55 JUMP JUMPDEST PUSH2 0x5871 DUP7 DUP4 PUSH2 0x3B55 JUMP JUMPDEST SWAP6 POP DUP1 NOT DUP5 AND SWAP4 POP DUP1 DUP7 AND DUP5 OR SWAP3 POP POP POP SWAP4 SWAP3 POP POP POP JUMP JUMPDEST PUSH1 0x0 PUSH2 0x58A4 PUSH2 0x589F PUSH2 0x589A DUP5 PUSH2 0x3C3A JUMP JUMPDEST PUSH2 0x3D00 JUMP JUMPDEST PUSH2 0x3C3A JUMP JUMPDEST SWAP1 POP SWAP2 SWAP1 POP JUMP JUMPDEST PUSH1 0x0 DUP2 SWAP1 POP SWAP2 SWAP1 POP JUMP JUMPDEST PUSH2 0x58BE DUP4 PUSH2 0x5889 JUMP JUMPDEST PUSH2 0x58D2 PUSH2 0x58CA DUP3 PUSH2 0x58AB JUMP JUMPDEST DUP5 DUP5 SLOAD PUSH2 0x5837 JUMP JUMPDEST DUP3 SSTORE POP POP POP POP JUMP JUMPDEST PUSH1 0x0 SWAP1 JUMP JUMPDEST PUSH2 0x58E7 PUSH2 0x58DA JUMP JUMPDEST PUSH2 0x58F2 DUP2 DUP5 DUP5 PUSH2 0x58B5 JUMP JUMPDEST POP POP POP JUMP JUMPDEST JUMPDEST DUP2 DUP2 LT ISZERO PUSH2 0x5916 JUMPI PUSH2 0x590B PUSH1 0x0 DUP3 PUSH2 0x58DF JUMP JUMPDEST PUSH1 0x1 DUP2 ADD SWAP1 POP PUSH2 0x58F8 JUMP JUMPDEST POP POP JUMP JUMPDEST PUSH1 0x1F DUP3 GT ISZERO PUSH2 0x595B JUMPI PUSH2 0x592C DUP2 PUSH2 0x5812 JUMP JUMPDEST PUSH2 0x5935 DUP5 PUSH2 0x5827 JUMP JUMPDEST DUP2 ADD PUSH1 0x20 DUP6 LT ISZERO PUSH2 0x5944 JUMPI DUP2 SWAP1 POP JUMPDEST PUSH2 0x5958 PUSH2 0x5950 DUP6 PUSH2 0x5827 JUMP JUMPDEST DUP4 ADD DUP3 PUSH2 0x58F7 JUMP JUMPDEST POP POP JUMPDEST POP POP POP JUMP JUMPDEST PUSH1 0x0 DUP3 DUP3 SHR SWAP1 POP SWAP3 SWAP2 POP POP JUMP JUMPDEST PUSH1 0x0 PUSH2 0x597E PUSH1 0x0 NOT DUP5 PUSH1 0x8 MUL PUSH2 0x5960 JUMP JUMPDEST NOT DUP1 DUP4 AND SWAP2 POP POP SWAP3 SWAP2 POP POP JUMP JUMPDEST PUSH1 0x0 PUSH2 0x5997 DUP4 DUP4 PUSH2 0x596D JUMP JUMPDEST SWAP2 POP DUP3 PUSH1 0x2 MUL DUP3 OR SWAP1 POP SWAP3 SWAP2 POP POP JUMP JUMPDEST PUSH2 0x59B0 DUP3 PUSH2 0x4131 JUMP JUMPDEST PUSH8 0xFFFFFFFFFFFFFFFF DUP2 GT ISZERO PUSH2 0x59C9 JUMPI PUSH2 0x59C8 PUSH2 0x3DFB JUMP JUMPDEST JUMPDEST PUSH2 0x59D3 DUP3 SLOAD PUSH2 0x53BD JUMP JUMPDEST PUSH2 0x59DE DUP3 DUP3 DUP6 PUSH2 0x591A JUMP JUMPDEST PUSH1 0x0 PUSH1 0x20 SWAP1 POP PUSH1 0x1F DUP4 GT PUSH1 0x1 DUP2 EQ PUSH2 0x5A11 JUMPI PUSH1 0x0 DUP5 ISZERO PUSH2 0x59FF JUMPI DUP3 DUP8 ADD MLOAD SWAP1 POP JUMPDEST PUSH2 0x5A09 DUP6 DUP3 PUSH2 0x598B JUMP JUMPDEST DUP7 SSTORE POP PUSH2 0x5A71 JUMP JUMPDEST PUSH1 0x1F NOT DUP5 AND PUSH2 0x5A1F DUP7 PUSH2 0x5812 JUMP JUMPDEST PUSH1 0x0 JUMPDEST DUP3 DUP2 LT ISZERO PUSH2 0x5A47 JUMPI DUP5 DUP10 ADD MLOAD DUP3 SSTORE PUSH1 0x1 DUP3 ADD SWAP2 POP PUSH1 0x20 DUP6 ADD SWAP5 POP PUSH1 0x20 DUP2 ADD SWAP1 POP PUSH2 0x5A22 JUMP JUMPDEST DUP7 DUP4 LT ISZERO PUSH2 0x5A64 JUMPI DUP5 DUP10 ADD MLOAD PUSH2 0x5A60 PUSH1 0x1F DUP10 AND DUP3 PUSH2 0x596D JUMP JUMPDEST DUP4 SSTORE POP JUMPDEST PUSH1 0x1 PUSH1 0x2 DUP9 MUL ADD DUP9 SSTORE POP POP POP JUMPDEST POP POP POP POP POP POP JUMP JUMPDEST PUSH1 0x0 PUSH1 0x80 DUP3 ADD SWAP1 POP PUSH2 0x5A8E PUSH1 0x0 DUP4 ADD DUP8 PUSH2 0x3BF3 JUMP JUMPDEST DUP2 DUP2 SUB PUSH1 0x20 DUP4 ADD MSTORE PUSH2 0x5AA0 DUP2 DUP7 PUSH2 0x5663 JUMP JUMPDEST SWAP1 POP PUSH2 0x5AAF PUSH1 0x40 DUP4 ADD DUP6 PUSH2 0x3D2C JUMP JUMPDEST DUP2 DUP2 SUB PUSH1 0x60 DUP4 ADD MSTORE PUSH2 0x5AC1 DUP2 DUP5 PUSH2 0x4405 JUMP JUMPDEST SWAP1 POP SWAP6 SWAP5 POP POP POP POP POP JUMP JUMPDEST PUSH1 0x0 DUP3 DUP3 MSTORE PUSH1 0x20 DUP3 ADD SWAP1 POP SWAP3 SWAP2 POP POP JUMP JUMPDEST PUSH32 0x4F776E61626C6532537465703A2063616C6C6572206973206E6F742074686520 PUSH1 0x0 DUP3 ADD MSTORE PUSH32 0x6E6577206F776E65720000000000000000000000000000000000000000000000 PUSH1 0x20 DUP3 ADD MSTORE POP JUMP JUMPDEST PUSH1 0x0 PUSH2 0x5B39 PUSH1 0x29 DUP4 PUSH2 0x5ACC JUMP JUMPDEST SWAP2 POP PUSH2 0x5B44 DUP3 PUSH2 0x5ADD JUMP JUMPDEST PUSH1 0x40 DUP3 ADD SWAP1 POP SWAP2 SWAP1 POP JUMP JUMPDEST PUSH1 0x0 PUSH1 0x20 DUP3 ADD SWAP1 POP DUP2 DUP2 SUB PUSH1 0x0 DUP4 ADD MSTORE PUSH2 0x5B68 DUP2 PUSH2 0x5B2C JUMP JUMPDEST SWAP1 POP SWAP2 SWAP1 POP JUMP JUMPDEST PUSH1 0x0 DUP2 SLOAD PUSH2 0x5B7C DUP2 PUSH2 0x53BD JUMP JUMPDEST PUSH2 0x5B86 DUP2 DUP7 PUSH2 0x3D3B JUMP JUMPDEST SWAP5 POP PUSH1 0x1 DUP3 AND PUSH1 0x0 DUP2 EQ PUSH2 0x5BA1 JUMPI PUSH1 0x1 DUP2 EQ PUSH2 0x5BB7 JUMPI PUSH2 0x5BEA JUMP JUMPDEST PUSH1 0xFF NOT DUP4 AND DUP7 MSTORE DUP2 ISZERO ISZERO PUSH1 0x20 MUL DUP7 ADD SWAP4 POP PUSH2 0x5BEA JUMP JUMPDEST PUSH2 0x5BC0 DUP6 PUSH2 0x5812 JUMP JUMPDEST PUSH1 0x0 JUMPDEST DUP4 DUP2 LT ISZERO PUSH2 0x5BE2 JUMPI DUP2 SLOAD DUP2 DUP10 ADD MSTORE PUSH1 0x1 DUP3 ADD SWAP2 POP PUSH1 0x20 DUP2 ADD SWAP1 POP PUSH2 0x5BC3 JUMP JUMPDEST DUP1 DUP9 ADD SWAP6 POP POP POP JUMPDEST POP POP POP SWAP3 SWAP2 POP POP JUMP JUMPDEST PUSH1 0x0 PUSH1 0x60 DUP3 ADD SWAP1 POP PUSH2 0x5C08 PUSH1 0x0 DUP4 ADD DUP7 PUSH2 0x3BF3 JUMP JUMPDEST PUSH2 0x5C15 PUSH1 0x20 DUP4 ADD DUP6 PUSH2 0x3FEF JUMP JUMPDEST DUP2 DUP2 SUB PUSH1 0x40 DUP4 ADD MSTORE PUSH2 0x5C27 DUP2 DUP5 PUSH2 0x5B6F JUMP JUMPDEST SWAP1 POP SWAP5 SWAP4 POP POP POP POP JUMP JUMPDEST PUSH1 0x0 PUSH8 0xFFFFFFFFFFFFFFFF DUP3 AND SWAP1 POP SWAP2 SWAP1 POP JUMP JUMPDEST PUSH2 0x5C4E DUP2 PUSH2 0x5C31 JUMP JUMPDEST DUP2 EQ PUSH2 0x5C59 JUMPI PUSH1 0x0 DUP1 REVERT JUMPDEST POP JUMP JUMPDEST PUSH1 0x0 DUP2 MLOAD SWAP1 POP PUSH2 0x5C6B DUP2 PUSH2 0x5C45 JUMP JUMPDEST SWAP3 SWAP2 POP POP JUMP JUMPDEST PUSH1 0x0 DUP1 PUSH1 0x40 DUP4 DUP6 SUB SLT ISZERO PUSH2 0x5C88 JUMPI PUSH2 0x5C87 PUSH2 0x3DE7 JUMP JUMPDEST JUMPDEST PUSH1 0x0 PUSH2 0x5C96 DUP6 DUP3 DUP7 ADD PUSH2 0x5C5C JUMP JUMPDEST SWAP3 POP POP PUSH1 0x20 PUSH2 0x5CA7 DUP6 DUP3 DUP7 ADD PUSH2 0x5C5C JUMP JUMPDEST SWAP2 POP POP SWAP3 POP SWAP3 SWAP1 POP JUMP JUMPDEST PUSH2 0x5CBA DUP2 PUSH2 0x5C31 JUMP JUMPDEST DUP3 MSTORE POP POP JUMP JUMPDEST PUSH1 0x0 PUSH1 0x80 DUP3 ADD SWAP1 POP PUSH2 0x5CD5 PUSH1 0x0 DUP4 ADD DUP8 PUSH2 0x3BF3 JUMP JUMPDEST PUSH2 0x5CE2 PUSH1 0x20 DUP4 ADD DUP7 PUSH2 0x5CB1 JUMP JUMPDEST PUSH2 0x5CEF PUSH1 0x40 DUP4 ADD DUP6 PUSH2 0x5CB1 JUMP JUMPDEST PUSH2 0x5CFC PUSH1 0x60 DUP4 ADD DUP5 PUSH2 0x42F7 JUMP JUMPDEST SWAP6 SWAP5 POP POP POP POP POP JUMP JUMPDEST PUSH1 0x0 PUSH1 0x80 DUP3 ADD SWAP1 POP PUSH2 0x5D1A PUSH1 0x0 DUP4 ADD DUP8 PUSH2 0x3BF3 JUMP JUMPDEST PUSH2 0x5D27 PUSH1 0x20 DUP4 ADD DUP7 PUSH2 0x42F7 JUMP JUMPDEST PUSH2 0x5D34 PUSH1 0x40 DUP4 ADD DUP6 PUSH2 0x42F7 JUMP JUMPDEST PUSH2 0x5D41 PUSH1 0x60 DUP4 ADD DUP5 PUSH2 0x42F7 JUMP JUMPDEST SWAP6 SWAP5 POP POP POP POP POP JUMP JUMPDEST PUSH32 0x4F776E61626C653A2063616C6C6572206973206E6F7420746865206F776E6572 PUSH1 0x0 DUP3 ADD MSTORE POP JUMP JUMPDEST PUSH1 0x0 PUSH2 0x5D80 PUSH1 0x20 DUP4 PUSH2 0x5ACC JUMP JUMPDEST SWAP2 POP PUSH2 0x5D8B DUP3 PUSH2 0x5D4A JUMP JUMPDEST PUSH1 0x20 DUP3 ADD SWAP1 POP SWAP2 SWAP1 POP JUMP JUMPDEST PUSH1 0x0 PUSH1 0x20 DUP3 ADD SWAP1 POP DUP2 DUP2 SUB PUSH1 0x0 DUP4 ADD MSTORE PUSH2 0x5DAF DUP2 PUSH2 0x5D73 JUMP JUMPDEST SWAP1 POP SWAP2 SWAP1 POP JUMP INVALID LOG2 PUSH5 0x6970667358 0x22 SLT KECCAK256 DUP12 PUSH20 0x4C17164B0DC16CCA8CF693322786E60B97D0535E DUP5 TIMESTAMP PUSH25 0x9F773AAD1FFC5964736F6C6343000814003300000000000000 "
		},
		"gasEstimates": {
			"creation": {
				"codeDepositCost": "4808800",
				"executionCost": "infinite",
				"totalCost": "infinite"
			},
			"external": {
				"": "infinite",
				"acceptOwnership()": "54769",
				"checkAfterExecution(bytes32,bool)": "infinite",
				"checkModuleTransaction(address,uint256,bytes,uint8,address)": "infinite",
				"checkTransaction(address,uint256,bytes,uint8,uint256,uint256,uint256,address,address,bytes,address)": "infinite",
				"disablePlugin(address,address)": "infinite",
				"enablePlugin(address,uint8)": "infinite",
				"enabledHooks(address)": "infinite",
				"enabledPlugins(address,address)": "infinite",
				"executeRootAccess(address,((address,uint256,bytes),uint256,bytes32))": "infinite",
				"executeTransaction(address,((address,uint256,bytes)[],uint256,bytes32))": "infinite",
				"functionHandlers(address,bytes4)": "infinite",
				"getEnabledHooks(address)": "infinite",
				"getFunctionHandler(address,bytes4)": "infinite",
				"getPluginInfo(address,address)": "infinite",
				"getPluginsPaginated(address,uint256,address)": "infinite",
				"isPluginEnabled(address,address)": "infinite",
				"owner()": "2612",
				"pendingOwner()": "2588",
				"registry()": "2560",
				"renounceOwnership()": "54714",
				"setFunctionHandler(bytes4,address)": "infinite",
				"setHooks(address)": "infinite",
				"setRegistry(address)": "infinite",
				"supportsInterface(bytes4)": "794",
				"tempHooksData(address)": "infinite",
				"testFunction()": "188",
				"transferOwnership(address)": "infinite"
			}
		},
		"methodIdentifiers": {
			"acceptOwnership()": "79ba5097",
			"checkAfterExecution(bytes32,bool)": "93271368",
			"checkModuleTransaction(address,uint256,bytes,uint8,address)": "728c2972",
			"checkTransaction(address,uint256,bytes,uint8,uint256,uint256,uint256,address,address,bytes,address)": "75f0bb52",
			"disablePlugin(address,address)": "df5236e1",
			"enablePlugin(address,uint8)": "1ea24616",
			"enabledHooks(address)": "80479c34",
			"enabledPlugins(address,address)": "1f026c91",
			"executeRootAccess(address,((address,uint256,bytes),uint256,bytes32))": "30f571f9",
			"executeTransaction(address,((address,uint256,bytes)[],uint256,bytes32))": "0f991915",
			"functionHandlers(address,bytes4)": "cccd7832",
			"getEnabledHooks(address)": "c703895c",
			"getFunctionHandler(address,bytes4)": "1f09a435",
			"getPluginInfo(address,address)": "d3ac5669",
			"getPluginsPaginated(address,uint256,address)": "3550b344",
			"isPluginEnabled(address,address)": "a0673f5c",
			"owner()": "8da5cb5b",
			"pendingOwner()": "e30c3978",
			"registry()": "7b103999",
			"renounceOwnership()": "715018a6",
			"setFunctionHandler(bytes4,address)": "0d7e358e",
			"setHooks(address)": "fb63daa1",
			"setRegistry(address)": "a91ee0dc",
			"supportsInterface(bytes4)": "01ffc9a7",
			"tempHooksData(address)": "384ee8a4",
			"testFunction()": "e16b4a9b",
			"transferOwnership(address)": "f2fde38b"
		}
	},
	"abi": [
		{
			"inputs": [
				{
					"internalType": "address",
					"name": "initialOwner",
					"type": "address"
				},
				{
					"internalType": "address",
					"name": "registry",
					"type": "address"
				}
			],
			"stateMutability": "nonpayable",
			"type": "constructor"
		},
		{
			"inputs": [
				{
					"internalType": "address",
					"name": "account",
					"type": "address"
				},
				{
					"internalType": "bytes32",
					"name": "metadataHash",
					"type": "bytes32"
				},
				{
					"internalType": "uint256",
					"name": "index",
					"type": "uint256"
				}
			],
			"name": "ActionExecutionFailed",
			"type": "error"
		},
		{
			"inputs": [
				{
					"internalType": "address",
					"name": "account",
					"type": "address"
				}
			],
			"name": "ContractDoesNotImplementValidInterfaceId",
			"type": "error"
		},
		{
			"inputs": [
				{
					"internalType": "address",
					"name": "account",
					"type": "address"
				},
				{
					"internalType": "bytes4",
					"name": "functionSelector",
					"type": "bytes4"
				}
			],
			"name": "FunctionHandlerNotSet",
			"type": "error"
		},
		{
			"inputs": [
				{
					"internalType": "address",
					"name": "plugin",
					"type": "address"
				}
			],
			"name": "InvalidPluginAddress",
			"type": "error"
		},
		{
			"inputs": [
				{
					"internalType": "address",
					"name": "plugin",
					"type": "address"
				}
			],
			"name": "InvalidPrevPluginAddress",
			"type": "error"
		},
		{
			"inputs": [
				{
					"internalType": "address",
					"name": "account",
					"type": "address"
				},
				{
					"internalType": "bytes32",
					"name": "metadataHash",
					"type": "bytes32"
				},
				{
					"internalType": "uint256",
					"name": "index",
					"type": "uint256"
				}
			],
			"name": "InvalidToFieldInSafeProtocolAction",
			"type": "error"
		},
		{
			"inputs": [
				{
					"internalType": "address",
					"name": "plugin",
					"type": "address"
				},
				{
					"internalType": "uint8",
					"name": "pluginRequires",
					"type": "uint8"
				},
				{
					"internalType": "uint8",
					"name": "requiredPermission",
					"type": "uint8"
				},
				{
					"internalType": "uint8",
					"name": "givenPermission",
					"type": "uint8"
				}
			],
			"name": "MissingPluginPermission",
			"type": "error"
		},
		{
			"inputs": [
				{
					"internalType": "address",
					"name": "plugin",
					"type": "address"
				},
				{
					"internalType": "uint64",
					"name": "listedAt",
					"type": "uint64"
				},
				{
					"internalType": "uint64",
					"name": "flaggedAt",
					"type": "uint64"
				},
				{
					"internalType": "uint8",
					"name": "moduleType",
					"type": "uint8"
				}
			],
			"name": "ModuleNotPermitted",
			"type": "error"
		},
		{
			"inputs": [
				{
					"internalType": "address",
					"name": "account",
					"type": "address"
				},
				{
					"internalType": "address",
					"name": "plugin",
					"type": "address"
				}
			],
			"name": "PluginAlreadyEnabled",
			"type": "error"
		},
		{
			"inputs": [
				{
					"internalType": "address",
					"name": "plugin",
					"type": "address"
				}
			],
			"name": "PluginNotEnabled",
			"type": "error"
		},
		{
			"inputs": [
				{
					"internalType": "address",
					"name": "plugin",
					"type": "address"
				},
				{
					"internalType": "uint8",
					"name": "requiredPermissions",
					"type": "uint8"
				},
				{
					"internalType": "uint8",
					"name": "givenPermissions",
					"type": "uint8"
				}
			],
			"name": "PluginPermissionsMismatch",
			"type": "error"
		},
		{
			"inputs": [
				{
					"internalType": "address",
					"name": "account",
					"type": "address"
				},
				{
					"internalType": "bytes32",
					"name": "metadataHash",
					"type": "bytes32"
				}
			],
			"name": "RootAccessActionExecutionFailed",
			"type": "error"
		},
		{
			"inputs": [],
			"name": "ZeroPageSizeNotAllowed",
			"type": "error"
		},
		{
			"anonymous": false,
			"inputs": [
				{
					"indexed": true,
					"internalType": "address",
					"name": "account",
					"type": "address"
				},
				{
					"indexed": false,
					"internalType": "bytes32",
					"name": "metadataHash",
					"type": "bytes32"
				},
				{
					"indexed": false,
					"internalType": "uint256",
					"name": "nonce",
					"type": "uint256"
				}
			],
			"name": "ActionsExecuted",
			"type": "event"
		},
		{
			"anonymous": false,
			"inputs": [
				{
					"indexed": true,
					"internalType": "address",
					"name": "account",
					"type": "address"
				},
				{
					"indexed": true,
					"internalType": "bytes4",
					"name": "selector",
					"type": "bytes4"
				},
				{
					"indexed": true,
					"internalType": "address",
					"name": "functionHandler",
					"type": "address"
				}
			],
			"name": "FunctionHandlerChanged",
			"type": "event"
		},
		{
			"anonymous": false,
			"inputs": [
				{
					"indexed": true,
					"internalType": "address",
					"name": "account",
					"type": "address"
				},
				{
					"indexed": true,
					"internalType": "address",
					"name": "hooksAddress",
					"type": "address"
				}
			],
			"name": "HooksChanged",
			"type": "event"
		},
		{
			"anonymous": false,
			"inputs": [
				{
					"indexed": true,
					"internalType": "address",
					"name": "previousOwner",
					"type": "address"
				},
				{
					"indexed": true,
					"internalType": "address",
					"name": "newOwner",
					"type": "address"
				}
			],
			"name": "OwnershipTransferStarted",
			"type": "event"
		},
		{
			"anonymous": false,
			"inputs": [
				{
					"indexed": true,
					"internalType": "address",
					"name": "previousOwner",
					"type": "address"
				},
				{
					"indexed": true,
					"internalType": "address",
					"name": "newOwner",
					"type": "address"
				}
			],
			"name": "OwnershipTransferred",
			"type": "event"
		},
		{
			"anonymous": false,
			"inputs": [
				{
					"indexed": true,
					"internalType": "address",
					"name": "account",
					"type": "address"
				},
				{
					"indexed": true,
					"internalType": "address",
					"name": "plugin",
					"type": "address"
				}
			],
			"name": "PluginDisabled",
			"type": "event"
		},
		{
			"anonymous": false,
			"inputs": [
				{
					"indexed": true,
					"internalType": "address",
					"name": "account",
					"type": "address"
				},
				{
					"indexed": true,
					"internalType": "address",
					"name": "plugin",
					"type": "address"
				},
				{
					"indexed": false,
					"internalType": "uint8",
					"name": "permissions",
					"type": "uint8"
				}
			],
			"name": "PluginEnabled",
			"type": "event"
		},
		{
			"anonymous": false,
			"inputs": [
				{
					"indexed": true,
					"internalType": "address",
					"name": "oldRegistry",
					"type": "address"
				},
				{
					"indexed": true,
					"internalType": "address",
					"name": "newRegistry",
					"type": "address"
				}
			],
			"name": "RegistryChanged",
			"type": "event"
		},
		{
			"anonymous": false,
			"inputs": [
				{
					"indexed": true,
					"internalType": "address",
					"name": "account",
					"type": "address"
				},
				{
					"indexed": false,
					"internalType": "bytes32",
					"name": "metadataHash",
					"type": "bytes32"
				}
			],
			"name": "RootAccessActionExecuted",
			"type": "event"
		},
		{
			"stateMutability": "nonpayable",
			"type": "fallback"
		},
		{
			"inputs": [],
			"name": "acceptOwnership",
			"outputs": [],
			"stateMutability": "nonpayable",
			"type": "function"
		},
		{
			"inputs": [
				{
					"internalType": "bytes32",
					"name": "",
					"type": "bytes32"
				},
				{
					"internalType": "bool",
					"name": "success",
					"type": "bool"
				}
			],
			"name": "checkAfterExecution",
			"outputs": [],
			"stateMutability": "nonpayable",
			"type": "function"
		},
		{
			"inputs": [
				{
					"internalType": "address",
					"name": "to",
					"type": "address"
				},
				{
					"internalType": "uint256",
					"name": "value",
					"type": "uint256"
				},
				{
					"internalType": "bytes",
					"name": "data",
					"type": "bytes"
				},
				{
					"internalType": "enum Enum.Operation",
					"name": "operation",
					"type": "uint8"
				},
				{
					"internalType": "address",
					"name": "module",
					"type": "address"
				}
			],
			"name": "checkModuleTransaction",
			"outputs": [
				{
					"internalType": "bytes32",
					"name": "moduleTxHash",
					"type": "bytes32"
				}
			],
			"stateMutability": "nonpayable",
			"type": "function"
		},
		{
			"inputs": [
				{
					"internalType": "address",
					"name": "to",
					"type": "address"
				},
				{
					"internalType": "uint256",
					"name": "value",
					"type": "uint256"
				},
				{
					"internalType": "bytes",
					"name": "data",
					"type": "bytes"
				},
				{
					"internalType": "enum Enum.Operation",
					"name": "operation",
					"type": "uint8"
				},
				{
					"internalType": "uint256",
					"name": "safeTxGas",
					"type": "uint256"
				},
				{
					"internalType": "uint256",
					"name": "baseGas",
					"type": "uint256"
				},
				{
					"internalType": "uint256",
					"name": "gasPrice",
					"type": "uint256"
				},
				{
					"internalType": "address",
					"name": "gasToken",
					"type": "address"
				},
				{
					"internalType": "address payable",
					"name": "refundReceiver",
					"type": "address"
				},
				{
					"internalType": "bytes",
					"name": "signatures",
					"type": "bytes"
				},
				{
					"internalType": "address",
					"name": "msgSender",
					"type": "address"
				}
			],
			"name": "checkTransaction",
			"outputs": [],
			"stateMutability": "nonpayable",
			"type": "function"
		},
		{
			"inputs": [
				{
					"internalType": "address",
					"name": "prevPlugin",
					"type": "address"
				},
				{
					"internalType": "address",
					"name": "plugin",
					"type": "address"
				}
			],
			"name": "disablePlugin",
			"outputs": [],
			"stateMutability": "nonpayable",
			"type": "function"
		},
		{
			"inputs": [
				{
					"internalType": "address",
					"name": "plugin",
					"type": "address"
				},
				{
					"internalType": "uint8",
					"name": "permissions",
					"type": "uint8"
				}
			],
			"name": "enablePlugin",
			"outputs": [],
			"stateMutability": "nonpayable",
			"type": "function"
		},
		{
			"inputs": [
				{
					"internalType": "address",
					"name": "",
					"type": "address"
				}
			],
			"name": "enabledHooks",
			"outputs": [
				{
					"internalType": "address",
					"name": "",
					"type": "address"
				}
			],
			"stateMutability": "view",
			"type": "function"
		},
		{
			"inputs": [
				{
					"internalType": "address",
					"name": "",
					"type": "address"
				},
				{
					"internalType": "address",
					"name": "",
					"type": "address"
				}
			],
			"name": "enabledPlugins",
			"outputs": [
				{
					"internalType": "uint8",
					"name": "permissions",
					"type": "uint8"
				},
				{
					"internalType": "address",
					"name": "nextPluginPointer",
					"type": "address"
				}
			],
			"stateMutability": "view",
			"type": "function"
		},
		{
			"inputs": [
				{
					"internalType": "address",
					"name": "account",
					"type": "address"
				},
				{
					"components": [
						{
							"components": [
								{
									"internalType": "address payable",
									"name": "to",
									"type": "address"
								},
								{
									"internalType": "uint256",
									"name": "value",
									"type": "uint256"
								},
								{
									"internalType": "bytes",
									"name": "data",
									"type": "bytes"
								}
							],
							"internalType": "struct SafeProtocolAction",
							"name": "action",
							"type": "tuple"
						},
						{
							"internalType": "uint256",
							"name": "nonce",
							"type": "uint256"
						},
						{
							"internalType": "bytes32",
							"name": "metadataHash",
							"type": "bytes32"
						}
					],
					"internalType": "struct SafeRootAccess",
					"name": "rootAccess",
					"type": "tuple"
				}
			],
			"name": "executeRootAccess",
			"outputs": [
				{
					"internalType": "bytes",
					"name": "data",
					"type": "bytes"
				}
			],
			"stateMutability": "nonpayable",
			"type": "function"
		},
		{
			"inputs": [
				{
					"internalType": "address",
					"name": "account",
					"type": "address"
				},
				{
					"components": [
						{
							"components": [
								{
									"internalType": "address payable",
									"name": "to",
									"type": "address"
								},
								{
									"internalType": "uint256",
									"name": "value",
									"type": "uint256"
								},
								{
									"internalType": "bytes",
									"name": "data",
									"type": "bytes"
								}
							],
							"internalType": "struct SafeProtocolAction[]",
							"name": "actions",
							"type": "tuple[]"
						},
						{
							"internalType": "uint256",
							"name": "nonce",
							"type": "uint256"
						},
						{
							"internalType": "bytes32",
							"name": "metadataHash",
							"type": "bytes32"
						}
					],
					"internalType": "struct SafeTransaction",
					"name": "transaction",
					"type": "tuple"
				}
			],
			"name": "executeTransaction",
			"outputs": [
				{
					"internalType": "bytes[]",
					"name": "data",
					"type": "bytes[]"
				}
			],
			"stateMutability": "nonpayable",
			"type": "function"
		},
		{
			"inputs": [
				{
					"internalType": "address",
					"name": "",
					"type": "address"
				},
				{
					"internalType": "bytes4",
					"name": "",
					"type": "bytes4"
				}
			],
			"name": "functionHandlers",
			"outputs": [
				{
					"internalType": "address",
					"name": "",
					"type": "address"
				}
			],
			"stateMutability": "view",
			"type": "function"
		},
		{
			"inputs": [
				{
					"internalType": "address",
					"name": "account",
					"type": "address"
				}
			],
			"name": "getEnabledHooks",
			"outputs": [
				{
					"internalType": "address",
					"name": "hooksAddress",
					"type": "address"
				}
			],
			"stateMutability": "view",
			"type": "function"
		},
		{
			"inputs": [
				{
					"internalType": "address",
					"name": "account",
					"type": "address"
				},
				{
					"internalType": "bytes4",
					"name": "selector",
					"type": "bytes4"
				}
			],
			"name": "getFunctionHandler",
			"outputs": [
				{
					"internalType": "address",
					"name": "functionHandler",
					"type": "address"
				}
			],
			"stateMutability": "view",
			"type": "function"
		},
		{
			"inputs": [
				{
					"internalType": "address",
					"name": "account",
					"type": "address"
				},
				{
					"internalType": "address",
					"name": "plugin",
					"type": "address"
				}
			],
			"name": "getPluginInfo",
			"outputs": [
				{
					"components": [
						{
							"internalType": "uint8",
							"name": "permissions",
							"type": "uint8"
						},
						{
							"internalType": "address",
							"name": "nextPluginPointer",
							"type": "address"
						}
					],
					"internalType": "struct SafeProtocolManager.PluginAccessInfo",
					"name": "enabled",
					"type": "tuple"
				}
			],
			"stateMutability": "view",
			"type": "function"
		},
		{
			"inputs": [
				{
					"internalType": "address",
					"name": "start",
					"type": "address"
				},
				{
					"internalType": "uint256",
					"name": "pageSize",
					"type": "uint256"
				},
				{
					"internalType": "address",
					"name": "account",
					"type": "address"
				}
			],
			"name": "getPluginsPaginated",
			"outputs": [
				{
					"internalType": "address[]",
					"name": "array",
					"type": "address[]"
				},
				{
					"internalType": "address",
					"name": "next",
					"type": "address"
				}
			],
			"stateMutability": "view",
			"type": "function"
		},
		{
			"inputs": [
				{
					"internalType": "address",
					"name": "account",
					"type": "address"
				},
				{
					"internalType": "address",
					"name": "plugin",
					"type": "address"
				}
			],
			"name": "isPluginEnabled",
			"outputs": [
				{
					"internalType": "bool",
					"name": "",
					"type": "bool"
				}
			],
			"stateMutability": "view",
			"type": "function"
		},
		{
			"inputs": [],
			"name": "owner",
			"outputs": [
				{
					"internalType": "address",
					"name": "",
					"type": "address"
				}
			],
			"stateMutability": "view",
			"type": "function"
		},
		{
			"inputs": [],
			"name": "pendingOwner",
			"outputs": [
				{
					"internalType": "address",
					"name": "",
					"type": "address"
				}
			],
			"stateMutability": "view",
			"type": "function"
		},
		{
			"inputs": [],
			"name": "registry",
			"outputs": [
				{
					"internalType": "address",
					"name": "",
					"type": "address"
				}
			],
			"stateMutability": "view",
			"type": "function"
		},
		{
			"inputs": [],
			"name": "renounceOwnership",
			"outputs": [],
			"stateMutability": "nonpayable",
			"type": "function"
		},
		{
			"inputs": [
				{
					"internalType": "bytes4",
					"name": "selector",
					"type": "bytes4"
				},
				{
					"internalType": "address",
					"name": "functionHandler",
					"type": "address"
				}
			],
			"name": "setFunctionHandler",
			"outputs": [],
			"stateMutability": "nonpayable",
			"type": "function"
		},
		{
			"inputs": [
				{
					"internalType": "address",
					"name": "hooks",
					"type": "address"
				}
			],
			"name": "setHooks",
			"outputs": [],
			"stateMutability": "nonpayable",
			"type": "function"
		},
		{
			"inputs": [
				{
					"internalType": "address",
					"name": "newRegistry",
					"type": "address"
				}
			],
			"name": "setRegistry",
			"outputs": [],
			"stateMutability": "nonpayable",
			"type": "function"
		},
		{
			"inputs": [
				{
					"internalType": "bytes4",
					"name": "interfaceId",
					"type": "bytes4"
				}
			],
			"name": "supportsInterface",
			"outputs": [
				{
					"internalType": "bool",
					"name": "",
					"type": "bool"
				}
			],
			"stateMutability": "view",
			"type": "function"
		},
		{
			"inputs": [
				{
					"internalType": "address",
					"name": "",
					"type": "address"
				}
			],
			"name": "tempHooksData",
			"outputs": [
				{
					"internalType": "address",
					"name": "hooksAddress",
					"type": "address"
				},
				{
					"internalType": "bytes",
					"name": "preCheckData",
					"type": "bytes"
				}
			],
			"stateMutability": "view",
			"type": "function"
		},
		{
			"inputs": [],
			"name": "testFunction",
			"outputs": [],
			"stateMutability": "nonpayable",
			"type": "function"
		},
		{
			"inputs": [
				{
					"internalType": "address",
					"name": "newOwner",
					"type": "address"
				}
			],
			"name": "transferOwnership",
			"outputs": [],
			"stateMutability": "nonpayable",
			"type": "function"
		}
	]
}