{
	"SafeProtocolRegistry.sol": {
		"SafeProtocolRegistry": {
			"abi": [
				{
					"inputs": [
						{
							"internalType": "address",
							"name": "initialOwner",
							"type": "address"
						}
					],
					"stateMutability": "nonpayable",
					"type": "constructor"
				},
				{
					"inputs": [
						{
							"internalType": "address",
							"name": "integration",
							"type": "address"
						}
					],
					"name": "CannotAddIntegration",
					"type": "error"
				},
				{
					"inputs": [
						{
							"internalType": "address",
							"name": "integration",
							"type": "address"
						}
					],
					"name": "CannotFlagIntegration",
					"type": "error"
				},
				{
					"inputs": [
						{
							"internalType": "address",
							"name": "integration",
							"type": "address"
						},
						{
							"internalType": "bytes4",
							"name": "expectedInterfaceId",
							"type": "bytes4"
						}
					],
					"name": "IntegrationDoesNotSupportExpectedInterfaceId",
					"type": "error"
				},
				{
					"anonymous": false,
					"inputs": [
						{
							"indexed": true,
							"internalType": "address",
							"name": "integration",
							"type": "address"
						}
					],
					"name": "IntegrationAdded",
					"type": "event"
				},
				{
					"anonymous": false,
					"inputs": [
						{
							"indexed": true,
							"internalType": "address",
							"name": "integration",
							"type": "address"
						}
					],
					"name": "IntegrationFlagged",
					"type": "event"
				},
				{
					"anonymous": false,
					"inputs": [
						{
							"indexed": true,
							"internalType": "address",
							"name": "previousOwner",
							"type": "address"
						},
						{
							"indexed": true,
							"internalType": "address",
							"name": "newOwner",
							"type": "address"
						}
					],
					"name": "OwnershipTransferStarted",
					"type": "event"
				},
				{
					"anonymous": false,
					"inputs": [
						{
							"indexed": true,
							"internalType": "address",
							"name": "previousOwner",
							"type": "address"
						},
						{
							"indexed": true,
							"internalType": "address",
							"name": "newOwner",
							"type": "address"
						}
					],
					"name": "OwnershipTransferred",
					"type": "event"
				},
				{
					"inputs": [],
					"name": "acceptOwnership",
					"outputs": [],
					"stateMutability": "nonpayable",
					"type": "function"
				},
				{
					"inputs": [
						{
							"internalType": "address",
							"name": "integration",
							"type": "address"
						},
						{
							"internalType": "enum Enum.IntegrationType",
							"name": "integrationType",
							"type": "uint8"
						}
					],
					"name": "addIntegration",
					"outputs": [],
					"stateMutability": "nonpayable",
					"type": "function"
				},
				{
					"inputs": [
						{
							"internalType": "address",
							"name": "integration",
							"type": "address"
						}
					],
					"name": "check",
					"outputs": [
						{
							"internalType": "uint64",
							"name": "listedAt",
							"type": "uint64"
						},
						{
							"internalType": "uint64",
							"name": "flaggedAt",
							"type": "uint64"
						}
					],
					"stateMutability": "view",
					"type": "function"
				},
				{
					"inputs": [
						{
							"internalType": "address",
							"name": "integration",
							"type": "address"
						}
					],
					"name": "flagIntegration",
					"outputs": [],
					"stateMutability": "nonpayable",
					"type": "function"
				},
				{
					"inputs": [
						{
							"internalType": "address",
							"name": "",
							"type": "address"
						}
					],
					"name": "listedIntegrations",
					"outputs": [
						{
							"internalType": "uint64",
							"name": "listedAt",
							"type": "uint64"
						},
						{
							"internalType": "uint64",
							"name": "flaggedAt",
							"type": "uint64"
						},
						{
							"internalType": "enum Enum.IntegrationType",
							"name": "integrationType",
							"type": "uint8"
						}
					],
					"stateMutability": "view",
					"type": "function"
				},
				{
					"inputs": [],
					"name": "owner",
					"outputs": [
						{
							"internalType": "address",
							"name": "",
							"type": "address"
						}
					],
					"stateMutability": "view",
					"type": "function"
				},
				{
					"inputs": [],
					"name": "pendingOwner",
					"outputs": [
						{
							"internalType": "address",
							"name": "",
							"type": "address"
						}
					],
					"stateMutability": "view",
					"type": "function"
				},
				{
					"inputs": [],
					"name": "renounceOwnership",
					"outputs": [],
					"stateMutability": "nonpayable",
					"type": "function"
				},
				{
					"inputs": [
						{
							"internalType": "bytes4",
							"name": "interfaceId",
							"type": "bytes4"
						}
					],
					"name": "supportsInterface",
					"outputs": [
						{
							"internalType": "bool",
							"name": "",
							"type": "bool"
						}
					],
					"stateMutability": "view",
					"type": "function"
				},
				{
					"inputs": [
						{
							"internalType": "address",
							"name": "newOwner",
							"type": "address"
						}
					],
					"name": "transferOwnership",
					"outputs": [],
					"stateMutability": "nonpayable",
					"type": "function"
				}
			],
			"devdoc": {
				"kind": "dev",
				"methods": {
					"acceptOwnership()": {
						"details": "The new owner accepts the ownership transfer."
					},
					"addIntegration(address,uint8)": {
						"params": {
							"integration": "Address of the integration",
							"integrationType": "Enum.IntegrationType indicating the type of integration"
						}
					},
					"check(address)": {
						"params": {
							"integration": "Address of the integration to be checked"
						},
						"returns": {
							"flaggedAt": "Timestamp of falgging the integration. This value will be 0 if not flagged.",
							"listedAt": "Timestamp of listing the integration. This value will be 0 if not listed."
						}
					},
					"flagIntegration(address)": {
						"params": {
							"integration": "Address of the integration"
						}
					},
					"owner()": {
						"details": "Returns the address of the current owner."
					},
					"pendingOwner()": {
						"details": "Returns the address of the pending owner."
					},
					"renounceOwnership()": {
						"details": "Leaves the contract without owner. It will not be possible to call `onlyOwner` functions. Can only be called by the current owner. NOTE: Renouncing ownership will leave the contract without an owner, thereby disabling any functionality that is only available to the owner."
					},
					"supportsInterface(bytes4)": {
						"details": "Returns true if this contract implements the interface defined by `interfaceId`. See the corresponding https://eips.ethereum.org/EIPS/eip-165#how-interfaces-are-identified[EIP section] to learn more about how these ids are created. This function call must use less than 30 000 gas."
					},
					"transferOwnership(address)": {
						"details": "Starts the ownership transfer of the contract to a new account. Replaces the pending transfer if there is one. Can only be called by the current owner."
					}
				},
				"version": 1
			},
			"evm": {
				"assembly": "    /* \"SafeProtocolRegistry.sol\":436:4784  contract SafeProtocolRegistry is ISafeProtocolRegistry, Ownable2Step {... */\n  mstore(0x40, 0x80)\n    /* \"SafeProtocolRegistry.sol\":1058:1143  constructor(address initialOwner) {... */\n  callvalue\n  dup1\n  iszero\n  tag_1\n  jumpi\n  0x00\n  dup1\n  revert\ntag_1:\n  pop\n  mload(0x40)\n  sub(codesize, bytecodeSize)\n  dup1\n  bytecodeSize\n  dup4\n  codecopy\n  dup2\n  dup2\n  add\n  0x40\n  mstore\n  dup2\n  add\n  swap1\n  tag_2\n  swap2\n  swap1\n  tag_3\n  jump\t// in\ntag_2:\n    /* \"ownable/Ownable.sol\":957:989  _transferOwnership(_msgSender()) */\n  tag_7\n    /* \"ownable/Ownable.sol\":976:988  _msgSender() */\n  tag_8\n    /* \"ownable/Ownable.sol\":976:986  _msgSender */\n  shl(0x20, tag_9)\n    /* \"ownable/Ownable.sol\":976:988  _msgSender() */\n  0x20\n  shr\n  jump\t// in\ntag_8:\n    /* \"ownable/Ownable.sol\":957:975  _transferOwnership */\n  shl(0x20, tag_10)\n    /* \"ownable/Ownable.sol\":957:989  _transferOwnership(_msgSender()) */\n  0x20\n  shr\n  jump\t// in\ntag_7:\n    /* \"SafeProtocolRegistry.sol\":1103:1135  _transferOwnership(initialOwner) */\n  tag_12\n    /* \"SafeProtocolRegistry.sol\":1122:1134  initialOwner */\n  dup2\n    /* \"SafeProtocolRegistry.sol\":1103:1121  _transferOwnership */\n  shl(0x20, tag_10)\n    /* \"SafeProtocolRegistry.sol\":1103:1135  _transferOwnership(initialOwner) */\n  0x20\n  shr\n  jump\t// in\ntag_12:\n    /* \"SafeProtocolRegistry.sol\":1058:1143  constructor(address initialOwner) {... */\n  pop\n    /* \"SafeProtocolRegistry.sol\":436:4784  contract SafeProtocolRegistry is ISafeProtocolRegistry, Ownable2Step {... */\n  jump(tag_13)\n    /* \"ownable/Context.sol\":656:754  function _msgSender() internal view virtual returns (address) {... */\ntag_9:\n    /* \"ownable/Context.sol\":709:716  address */\n  0x00\n    /* \"ownable/Context.sol\":736:746  msg.sender */\n  caller\n    /* \"ownable/Context.sol\":729:746  return msg.sender */\n  swap1\n  pop\n    /* \"ownable/Context.sol\":656:754  function _msgSender() internal view virtual returns (address) {... */\n  swap1\n  jump\t// out\n    /* \"ownable/Ownable2Step.sol\":1544:1700  function _transferOwnership(address newOwner) internal virtual override {... */\ntag_10:\n    /* \"ownable/Ownable2Step.sol\":1634:1647  _pendingOwner */\n  0x01\n  0x00\n    /* \"ownable/Ownable2Step.sol\":1627:1647  delete _pendingOwner */\n  0x0100\n  exp\n  dup2\n  sload\n  swap1\n  0xffffffffffffffffffffffffffffffffffffffff\n  mul\n  not\n  and\n  swap1\n  sstore\n    /* \"ownable/Ownable2Step.sol\":1658:1692  super._transferOwnership(newOwner) */\n  tag_16\n    /* \"ownable/Ownable2Step.sol\":1683:1691  newOwner */\n  dup2\n    /* \"ownable/Ownable2Step.sol\":1658:1682  super._transferOwnership */\n  shl(0x20, tag_17)\n    /* \"ownable/Ownable2Step.sol\":1658:1692  super._transferOwnership(newOwner) */\n  0x20\n  shr\n  jump\t// in\ntag_16:\n    /* \"ownable/Ownable2Step.sol\":1544:1700  function _transferOwnership(address newOwner) internal virtual override {... */\n  pop\n  jump\t// out\n    /* \"ownable/Ownable.sol\":2496:2687  function _transferOwnership(address newOwner) internal virtual {... */\ntag_17:\n    /* \"ownable/Ownable.sol\":2570:2586  address oldOwner */\n  0x00\n    /* \"ownable/Ownable.sol\":2589:2595  _owner */\n  dup1\n  0x00\n  swap1\n  sload\n  swap1\n  0x0100\n  exp\n  swap1\n  div\n  0xffffffffffffffffffffffffffffffffffffffff\n  and\n    /* \"ownable/Ownable.sol\":2570:2595  address oldOwner = _owner */\n  swap1\n  pop\n    /* \"ownable/Ownable.sol\":2615:2623  newOwner */\n  dup2\n    /* \"ownable/Ownable.sol\":2606:2612  _owner */\n  0x00\n  dup1\n    /* \"ownable/Ownable.sol\":2606:2623  _owner = newOwner */\n  0x0100\n  exp\n  dup2\n  sload\n  dup2\n  0xffffffffffffffffffffffffffffffffffffffff\n  mul\n  not\n  and\n  swap1\n  dup4\n  0xffffffffffffffffffffffffffffffffffffffff\n  and\n  mul\n  or\n  swap1\n  sstore\n  pop\n    /* \"ownable/Ownable.sol\":2670:2678  newOwner */\n  dup2\n    /* \"ownable/Ownable.sol\":2639:2679  OwnershipTransferred(oldOwner, newOwner) */\n  0xffffffffffffffffffffffffffffffffffffffff\n  and\n    /* \"ownable/Ownable.sol\":2660:2668  oldOwner */\n  dup2\n    /* \"ownable/Ownable.sol\":2639:2679  OwnershipTransferred(oldOwner, newOwner) */\n  0xffffffffffffffffffffffffffffffffffffffff\n  and\n  0x8be0079c531659141344cd1fd0a4f28419497f9722a3daafe3b4186f6b6457e0\n  mload(0x40)\n  mload(0x40)\n  dup1\n  swap2\n  sub\n  swap1\n  log3\n    /* \"ownable/Ownable.sol\":2559:2687  {... */\n  pop\n    /* \"ownable/Ownable.sol\":2496:2687  function _transferOwnership(address newOwner) internal virtual {... */\n  pop\n  jump\t// out\n    /* \"#utility.yul\":88:205   */\ntag_20:\n    /* \"#utility.yul\":197:198   */\n  0x00\n    /* \"#utility.yul\":194:195   */\n  dup1\n    /* \"#utility.yul\":187:199   */\n  revert\n    /* \"#utility.yul\":334:460   */\ntag_22:\n    /* \"#utility.yul\":371:378   */\n  0x00\n    /* \"#utility.yul\":411:453   */\n  0xffffffffffffffffffffffffffffffffffffffff\n    /* \"#utility.yul\":404:409   */\n  dup3\n    /* \"#utility.yul\":400:454   */\n  and\n    /* \"#utility.yul\":389:454   */\n  swap1\n  pop\n    /* \"#utility.yul\":334:460   */\n  swap2\n  swap1\n  pop\n  jump\t// out\n    /* \"#utility.yul\":466:562   */\ntag_23:\n    /* \"#utility.yul\":503:510   */\n  0x00\n    /* \"#utility.yul\":532:556   */\n  tag_32\n    /* \"#utility.yul\":550:555   */\n  dup3\n    /* \"#utility.yul\":532:556   */\n  tag_22\n  jump\t// in\ntag_32:\n    /* \"#utility.yul\":521:556   */\n  swap1\n  pop\n    /* \"#utility.yul\":466:562   */\n  swap2\n  swap1\n  pop\n  jump\t// out\n    /* \"#utility.yul\":568:690   */\ntag_24:\n    /* \"#utility.yul\":641:665   */\n  tag_34\n    /* \"#utility.yul\":659:664   */\n  dup2\n    /* \"#utility.yul\":641:665   */\n  tag_23\n  jump\t// in\ntag_34:\n    /* \"#utility.yul\":634:639   */\n  dup2\n    /* \"#utility.yul\":631:666   */\n  eq\n    /* \"#utility.yul\":621:684   */\n  tag_35\n  jumpi\n    /* \"#utility.yul\":680:681   */\n  0x00\n    /* \"#utility.yul\":677:678   */\n  dup1\n    /* \"#utility.yul\":670:682   */\n  revert\n    /* \"#utility.yul\":621:684   */\ntag_35:\n    /* \"#utility.yul\":568:690   */\n  pop\n  jump\t// out\n    /* \"#utility.yul\":696:839   */\ntag_25:\n    /* \"#utility.yul\":753:758   */\n  0x00\n    /* \"#utility.yul\":784:790   */\n  dup2\n    /* \"#utility.yul\":778:791   */\n  mload\n    /* \"#utility.yul\":769:791   */\n  swap1\n  pop\n    /* \"#utility.yul\":800:833   */\n  tag_37\n    /* \"#utility.yul\":827:832   */\n  dup2\n    /* \"#utility.yul\":800:833   */\n  tag_24\n  jump\t// in\ntag_37:\n    /* \"#utility.yul\":696:839   */\n  swap3\n  swap2\n  pop\n  pop\n  jump\t// out\n    /* \"#utility.yul\":845:1196   */\ntag_3:\n    /* \"#utility.yul\":915:921   */\n  0x00\n    /* \"#utility.yul\":964:966   */\n  0x20\n    /* \"#utility.yul\":952:961   */\n  dup3\n    /* \"#utility.yul\":943:950   */\n  dup5\n    /* \"#utility.yul\":939:962   */\n  sub\n    /* \"#utility.yul\":935:967   */\n  slt\n    /* \"#utility.yul\":932:1051   */\n  iszero\n  tag_39\n  jumpi\n    /* \"#utility.yul\":970:1049   */\n  tag_40\n  tag_20\n  jump\t// in\ntag_40:\n    /* \"#utility.yul\":932:1051   */\ntag_39:\n    /* \"#utility.yul\":1090:1091   */\n  0x00\n    /* \"#utility.yul\":1115:1179   */\n  tag_41\n    /* \"#utility.yul\":1171:1178   */\n  dup5\n    /* \"#utility.yul\":1162:1168   */\n  dup3\n    /* \"#utility.yul\":1151:1160   */\n  dup6\n    /* \"#utility.yul\":1147:1169   */\n  add\n    /* \"#utility.yul\":1115:1179   */\n  tag_25\n  jump\t// in\ntag_41:\n    /* \"#utility.yul\":1105:1179   */\n  swap2\n  pop\n    /* \"#utility.yul\":1061:1189   */\n  pop\n    /* \"#utility.yul\":845:1196   */\n  swap3\n  swap2\n  pop\n  pop\n  jump\t// out\n    /* \"SafeProtocolRegistry.sol\":436:4784  contract SafeProtocolRegistry is ISafeProtocolRegistry, Ownable2Step {... */\ntag_13:\n  dataSize(sub_0)\n  dup1\n  dataOffset(sub_0)\n  0x00\n  codecopy\n  0x00\n  return\nstop\n\nsub_0: assembly {\n        /* \"SafeProtocolRegistry.sol\":436:4784  contract SafeProtocolRegistry is ISafeProtocolRegistry, Ownable2Step {... */\n      mstore(0x40, 0x80)\n      callvalue\n      dup1\n      iszero\n      tag_1\n      jumpi\n      0x00\n      dup1\n      revert\n    tag_1:\n      pop\n      jumpi(tag_2, lt(calldatasize, 0x04))\n      shr(0xe0, calldataload(0x00))\n      dup1\n      0xc23697a8\n      gt\n      tag_13\n      jumpi\n      dup1\n      0xc23697a8\n      eq\n      tag_8\n      jumpi\n      dup1\n      0xe30c3978\n      eq\n      tag_9\n      jumpi\n      dup1\n      0xe71d097b\n      eq\n      tag_10\n      jumpi\n      dup1\n      0xe8828ea3\n      eq\n      tag_11\n      jumpi\n      dup1\n      0xf2fde38b\n      eq\n      tag_12\n      jumpi\n      jump(tag_2)\n    tag_13:\n      dup1\n      0x01ffc9a7\n      eq\n      tag_3\n      jumpi\n      dup1\n      0x715018a6\n      eq\n      tag_4\n      jumpi\n      dup1\n      0x77e41fe9\n      eq\n      tag_5\n      jumpi\n      dup1\n      0x79ba5097\n      eq\n      tag_6\n      jumpi\n      dup1\n      0x8da5cb5b\n      eq\n      tag_7\n      jumpi\n    tag_2:\n      0x00\n      dup1\n      revert\n        /* \"SafeProtocolRegistry.sol\":4572:4781  function supportsInterface(bytes4 interfaceId) external view override returns (bool) {... */\n    tag_3:\n      tag_14\n      0x04\n      dup1\n      calldatasize\n      sub\n      dup2\n      add\n      swap1\n      tag_15\n      swap2\n      swap1\n      tag_16\n      jump\t// in\n    tag_15:\n      tag_17\n      jump\t// in\n    tag_14:\n      mload(0x40)\n      tag_18\n      swap2\n      swap1\n      tag_19\n      jump\t// in\n    tag_18:\n      mload(0x40)\n      dup1\n      swap2\n      sub\n      swap1\n      return\n        /* \"ownable/Ownable.sol\":1877:1980  function renounceOwnership() public virtual onlyOwner {... */\n    tag_4:\n      tag_20\n      tag_21\n      jump\t// in\n    tag_20:\n      stop\n        /* \"SafeProtocolRegistry.sol\":4016:4564  function flagIntegration(address integration) external onlyOwner {... */\n    tag_5:\n      tag_22\n      0x04\n      dup1\n      calldatasize\n      sub\n      dup2\n      add\n      swap1\n      tag_23\n      swap2\n      swap1\n      tag_24\n      jump\t// in\n    tag_23:\n      tag_25\n      jump\t// in\n    tag_22:\n      stop\n        /* \"ownable/Ownable2Step.sol\":1785:2001  function acceptOwnership() public virtual {... */\n    tag_6:\n      tag_26\n      tag_27\n      jump\t// in\n    tag_26:\n      stop\n        /* \"ownable/Ownable.sol\":1236:1323  function owner() public view virtual returns (address) {... */\n    tag_7:\n      tag_28\n      tag_29\n      jump\t// in\n    tag_28:\n      mload(0x40)\n      tag_30\n      swap2\n      swap1\n      tag_31\n      jump\t// in\n    tag_30:\n      mload(0x40)\n      dup1\n      swap2\n      sub\n      swap1\n      return\n        /* \"SafeProtocolRegistry.sol\":1508:1787  function check(address integration) external view returns (uint64 listedAt, uint64 flaggedAt) {... */\n    tag_8:\n      tag_32\n      0x04\n      dup1\n      calldatasize\n      sub\n      dup2\n      add\n      swap1\n      tag_33\n      swap2\n      swap1\n      tag_24\n      jump\t// in\n    tag_33:\n      tag_34\n      jump\t// in\n    tag_32:\n      mload(0x40)\n      tag_35\n      swap3\n      swap2\n      swap1\n      tag_36\n      jump\t// in\n    tag_35:\n      mload(0x40)\n      dup1\n      swap2\n      sub\n      swap1\n      return\n        /* \"ownable/Ownable2Step.sol\":873:974  function pendingOwner() public view virtual returns (address) {... */\n    tag_9:\n      tag_37\n      tag_38\n      jump\t// in\n    tag_37:\n      mload(0x40)\n      tag_39\n      swap2\n      swap1\n      tag_31\n      jump\t// in\n    tag_39:\n      mload(0x40)\n      dup1\n      swap2\n      sub\n      swap1\n      return\n        /* \"SafeProtocolRegistry.sol\":2219:3672  function addIntegration(address integration, Enum.IntegrationType integrationType) external virtual onlyOwner {... */\n    tag_10:\n      tag_40\n      0x04\n      dup1\n      calldatasize\n      sub\n      dup2\n      add\n      swap1\n      tag_41\n      swap2\n      swap1\n      tag_42\n      jump\t// in\n    tag_41:\n      tag_43\n      jump\t// in\n    tag_40:\n      stop\n        /* \"SafeProtocolRegistry.sol\":512:573  mapping(address => IntegrationInfo) public listedIntegrations */\n    tag_11:\n      tag_44\n      0x04\n      dup1\n      calldatasize\n      sub\n      dup2\n      add\n      swap1\n      tag_45\n      swap2\n      swap1\n      tag_24\n      jump\t// in\n    tag_45:\n      tag_46\n      jump\t// in\n    tag_44:\n      mload(0x40)\n      tag_47\n      swap4\n      swap3\n      swap2\n      swap1\n      tag_48\n      jump\t// in\n    tag_47:\n      mload(0x40)\n      dup1\n      swap2\n      sub\n      swap1\n      return\n        /* \"ownable/Ownable2Step.sol\":1173:1354  function transferOwnership(address newOwner) public virtual override onlyOwner {... */\n    tag_12:\n      tag_49\n      0x04\n      dup1\n      calldatasize\n      sub\n      dup2\n      add\n      swap1\n      tag_50\n      swap2\n      swap1\n      tag_24\n      jump\t// in\n    tag_50:\n      tag_51\n      jump\t// in\n    tag_49:\n      stop\n        /* \"SafeProtocolRegistry.sol\":4572:4781  function supportsInterface(bytes4 interfaceId) external view override returns (bool) {... */\n    tag_17:\n        /* \"SafeProtocolRegistry.sol\":4651:4655  bool */\n      0x00\n        /* \"SafeProtocolRegistry.sol\":4690:4729  type(ISafeProtocolRegistry).interfaceId */\n      0xc23697a800000000000000000000000000000000000000000000000000000000\n        /* \"SafeProtocolRegistry.sol\":4675:4729  interfaceId == type(ISafeProtocolRegistry).interfaceId */\n      not(0xffffffffffffffffffffffffffffffffffffffffffffffffffffffff)\n      and\n        /* \"SafeProtocolRegistry.sol\":4675:4686  interfaceId */\n      dup3\n        /* \"SafeProtocolRegistry.sol\":4675:4729  interfaceId == type(ISafeProtocolRegistry).interfaceId */\n      not(0xffffffffffffffffffffffffffffffffffffffffffffffffffffffff)\n      and\n      eq\n        /* \"SafeProtocolRegistry.sol\":4675:4773  interfaceId == type(ISafeProtocolRegistry).interfaceId || interfaceId == type(IERC165).interfaceId */\n      dup1\n      tag_53\n      jumpi\n      pop\n        /* \"SafeProtocolRegistry.sol\":4748:4773  type(IERC165).interfaceId */\n      0x01ffc9a700000000000000000000000000000000000000000000000000000000\n        /* \"SafeProtocolRegistry.sol\":4733:4773  interfaceId == type(IERC165).interfaceId */\n      not(0xffffffffffffffffffffffffffffffffffffffffffffffffffffffff)\n      and\n        /* \"SafeProtocolRegistry.sol\":4733:4744  interfaceId */\n      dup3\n        /* \"SafeProtocolRegistry.sol\":4733:4773  interfaceId == type(IERC165).interfaceId */\n      not(0xffffffffffffffffffffffffffffffffffffffffffffffffffffffff)\n      and\n      eq\n        /* \"SafeProtocolRegistry.sol\":4675:4773  interfaceId == type(ISafeProtocolRegistry).interfaceId || interfaceId == type(IERC165).interfaceId */\n    tag_53:\n        /* \"SafeProtocolRegistry.sol\":4668:4773  return interfaceId == type(ISafeProtocolRegistry).interfaceId || interfaceId == type(IERC165).interfaceId */\n      swap1\n      pop\n        /* \"SafeProtocolRegistry.sol\":4572:4781  function supportsInterface(bytes4 interfaceId) external view override returns (bool) {... */\n      swap2\n      swap1\n      pop\n      jump\t// out\n        /* \"ownable/Ownable.sol\":1877:1980  function renounceOwnership() public virtual onlyOwner {... */\n    tag_21:\n        /* \"ownable/Ownable.sol\":1122:1135  _checkOwner() */\n      tag_55\n        /* \"ownable/Ownable.sol\":1122:1133  _checkOwner */\n      tag_56\n        /* \"ownable/Ownable.sol\":1122:1135  _checkOwner() */\n      jump\t// in\n    tag_55:\n        /* \"ownable/Ownable.sol\":1942:1972  _transferOwnership(address(0)) */\n      tag_58\n        /* \"ownable/Ownable.sol\":1969:1970  0 */\n      0x00\n        /* \"ownable/Ownable.sol\":1942:1960  _transferOwnership */\n      tag_59\n        /* \"ownable/Ownable.sol\":1942:1972  _transferOwnership(address(0)) */\n      jump\t// in\n    tag_58:\n        /* \"ownable/Ownable.sol\":1877:1980  function renounceOwnership() public virtual onlyOwner {... */\n      jump\t// out\n        /* \"SafeProtocolRegistry.sol\":4016:4564  function flagIntegration(address integration) external onlyOwner {... */\n    tag_25:\n        /* \"ownable/Ownable.sol\":1122:1135  _checkOwner() */\n      tag_61\n        /* \"ownable/Ownable.sol\":1122:1133  _checkOwner */\n      tag_56\n        /* \"ownable/Ownable.sol\":1122:1135  _checkOwner() */\n      jump\t// in\n    tag_61:\n        /* \"SafeProtocolRegistry.sol\":4092:4130  IntegrationInfo memory integrationInfo */\n      0x00\n        /* \"SafeProtocolRegistry.sol\":4133:4151  listedIntegrations */\n      0x02\n        /* \"SafeProtocolRegistry.sol\":4133:4164  listedIntegrations[integration] */\n      0x00\n        /* \"SafeProtocolRegistry.sol\":4152:4163  integration */\n      dup4\n        /* \"SafeProtocolRegistry.sol\":4133:4164  listedIntegrations[integration] */\n      0xffffffffffffffffffffffffffffffffffffffff\n      and\n      0xffffffffffffffffffffffffffffffffffffffff\n      and\n      dup2\n      mstore\n      0x20\n      add\n      swap1\n      dup2\n      mstore\n      0x20\n      add\n      0x00\n      keccak256\n        /* \"SafeProtocolRegistry.sol\":4092:4164  IntegrationInfo memory integrationInfo = listedIntegrations[integration] */\n      mload(0x40)\n      dup1\n      0x60\n      add\n      0x40\n      mstore\n      swap1\n      dup2\n      0x00\n      dup3\n      add\n      0x00\n      swap1\n      sload\n      swap1\n      0x0100\n      exp\n      swap1\n      div\n      0xffffffffffffffff\n      and\n      0xffffffffffffffff\n      and\n      0xffffffffffffffff\n      and\n      dup2\n      mstore\n      0x20\n      add\n      0x00\n      dup3\n      add\n      0x08\n      swap1\n      sload\n      swap1\n      0x0100\n      exp\n      swap1\n      div\n      0xffffffffffffffff\n      and\n      0xffffffffffffffff\n      and\n      0xffffffffffffffff\n      and\n      dup2\n      mstore\n      0x20\n      add\n      0x00\n      dup3\n      add\n      0x10\n      swap1\n      sload\n      swap1\n      0x0100\n      exp\n      swap1\n      div\n      0xff\n      and\n      0x02\n      dup2\n      gt\n      iszero\n      tag_63\n      jumpi\n      tag_64\n      tag_65\n      jump\t// in\n    tag_64:\n    tag_63:\n      0x02\n      dup2\n      gt\n      iszero\n      tag_66\n      jumpi\n      tag_67\n      tag_65\n      jump\t// in\n    tag_67:\n    tag_66:\n      dup2\n      mstore\n      pop\n      pop\n      swap1\n      pop\n        /* \"SafeProtocolRegistry.sol\":4209:4210  0 */\n      0x00\n        /* \"SafeProtocolRegistry.sol\":4181:4196  integrationInfo */\n      dup2\n        /* \"SafeProtocolRegistry.sol\":4181:4205  integrationInfo.listedAt */\n      0x00\n      add\n      mload\n        /* \"SafeProtocolRegistry.sol\":4181:4210  integrationInfo.listedAt == 0 */\n      0xffffffffffffffff\n      and\n      eq\n        /* \"SafeProtocolRegistry.sol\":4181:4244  integrationInfo.listedAt == 0 || integrationInfo.flaggedAt != 0 */\n      dup1\n      tag_68\n      jumpi\n      pop\n        /* \"SafeProtocolRegistry.sol\":4243:4244  0 */\n      0x00\n        /* \"SafeProtocolRegistry.sol\":4214:4229  integrationInfo */\n      dup2\n        /* \"SafeProtocolRegistry.sol\":4214:4239  integrationInfo.flaggedAt */\n      0x20\n      add\n      mload\n        /* \"SafeProtocolRegistry.sol\":4214:4244  integrationInfo.flaggedAt != 0 */\n      0xffffffffffffffff\n      and\n      eq\n      iszero\n        /* \"SafeProtocolRegistry.sol\":4181:4244  integrationInfo.listedAt == 0 || integrationInfo.flaggedAt != 0 */\n    tag_68:\n        /* \"SafeProtocolRegistry.sol\":4177:4314  if (integrationInfo.listedAt == 0 || integrationInfo.flaggedAt != 0) {... */\n      iszero\n      tag_69\n      jumpi\n        /* \"SafeProtocolRegistry.sol\":4290:4301  integration */\n      dup2\n        /* \"SafeProtocolRegistry.sol\":4268:4302  CannotFlagIntegration(integration) */\n      mload(0x40)\n      0x3bee038a00000000000000000000000000000000000000000000000000000000\n      dup2\n      mstore\n      0x04\n      add\n      tag_70\n      swap2\n      swap1\n      tag_31\n      jump\t// in\n    tag_70:\n      mload(0x40)\n      dup1\n      swap2\n      sub\n      swap1\n      revert\n        /* \"SafeProtocolRegistry.sol\":4177:4314  if (integrationInfo.listedAt == 0 || integrationInfo.flaggedAt != 0) {... */\n    tag_69:\n        /* \"SafeProtocolRegistry.sol\":4360:4509  IntegrationInfo(... */\n      mload(0x40)\n      dup1\n      0x60\n      add\n      0x40\n      mstore\n      dup1\n        /* \"SafeProtocolRegistry.sol\":4390:4405  integrationInfo */\n      dup3\n        /* \"SafeProtocolRegistry.sol\":4390:4414  integrationInfo.listedAt */\n      0x00\n      add\n      mload\n        /* \"SafeProtocolRegistry.sol\":4360:4509  IntegrationInfo(... */\n      0xffffffffffffffff\n      and\n      dup2\n      mstore\n      0x20\n      add\n        /* \"SafeProtocolRegistry.sol\":4436:4451  block.timestamp */\n      timestamp\n        /* \"SafeProtocolRegistry.sol\":4360:4509  IntegrationInfo(... */\n      0xffffffffffffffff\n      and\n      dup2\n      mstore\n      0x20\n      add\n        /* \"SafeProtocolRegistry.sol\":4467:4482  integrationInfo */\n      dup3\n        /* \"SafeProtocolRegistry.sol\":4467:4498  integrationInfo.integrationType */\n      0x40\n      add\n      mload\n        /* \"SafeProtocolRegistry.sol\":4360:4509  IntegrationInfo(... */\n      0x02\n      dup2\n      gt\n      iszero\n      tag_71\n      jumpi\n      tag_72\n      tag_65\n      jump\t// in\n    tag_72:\n    tag_71:\n      dup2\n      mstore\n      pop\n        /* \"SafeProtocolRegistry.sol\":4326:4344  listedIntegrations */\n      0x02\n        /* \"SafeProtocolRegistry.sol\":4326:4357  listedIntegrations[integration] */\n      0x00\n        /* \"SafeProtocolRegistry.sol\":4345:4356  integration */\n      dup5\n        /* \"SafeProtocolRegistry.sol\":4326:4357  listedIntegrations[integration] */\n      0xffffffffffffffffffffffffffffffffffffffff\n      and\n      0xffffffffffffffffffffffffffffffffffffffff\n      and\n      dup2\n      mstore\n      0x20\n      add\n      swap1\n      dup2\n      mstore\n      0x20\n      add\n      0x00\n      keccak256\n        /* \"SafeProtocolRegistry.sol\":4326:4509  listedIntegrations[integration] = IntegrationInfo(... */\n      0x00\n      dup3\n      add\n      mload\n      dup2\n      0x00\n      add\n      exp(0x0100, 0x00)\n      dup2\n      sload\n      dup2\n      0xffffffffffffffff\n      mul\n      not\n      and\n      swap1\n      dup4\n      0xffffffffffffffff\n      and\n      mul\n      or\n      swap1\n      sstore\n      pop\n      0x20\n      dup3\n      add\n      mload\n      dup2\n      0x00\n      add\n      exp(0x0100, 0x08)\n      dup2\n      sload\n      dup2\n      0xffffffffffffffff\n      mul\n      not\n      and\n      swap1\n      dup4\n      0xffffffffffffffff\n      and\n      mul\n      or\n      swap1\n      sstore\n      pop\n      0x40\n      dup3\n      add\n      mload\n      dup2\n      0x00\n      add\n      exp(0x0100, 0x10)\n      dup2\n      sload\n      dup2\n      0xff\n      mul\n      not\n      and\n      swap1\n      dup4\n      0x02\n      dup2\n      gt\n      iszero\n      tag_73\n      jumpi\n      tag_74\n      tag_65\n      jump\t// in\n    tag_74:\n    tag_73:\n      mul\n      or\n      swap1\n      sstore\n      pop\n      swap1\n      pop\n      pop\n        /* \"SafeProtocolRegistry.sol\":4544:4555  integration */\n      dup2\n        /* \"SafeProtocolRegistry.sol\":4525:4556  IntegrationFlagged(integration) */\n      0xffffffffffffffffffffffffffffffffffffffff\n      and\n      0x7e4b225e43d112f7188b3064745a2e7988701d3816dee2b4613507ffaff6b302\n      mload(0x40)\n      mload(0x40)\n      dup1\n      swap2\n      sub\n      swap1\n      log2\n        /* \"SafeProtocolRegistry.sol\":4081:4564  {... */\n      pop\n        /* \"SafeProtocolRegistry.sol\":4016:4564  function flagIntegration(address integration) external onlyOwner {... */\n      pop\n      jump\t// out\n        /* \"ownable/Ownable2Step.sol\":1785:2001  function acceptOwnership() public virtual {... */\n    tag_27:\n        /* \"ownable/Ownable2Step.sol\":1838:1852  address sender */\n      0x00\n        /* \"ownable/Ownable2Step.sol\":1855:1867  _msgSender() */\n      tag_76\n        /* \"ownable/Ownable2Step.sol\":1855:1865  _msgSender */\n      tag_77\n        /* \"ownable/Ownable2Step.sol\":1855:1867  _msgSender() */\n      jump\t// in\n    tag_76:\n        /* \"ownable/Ownable2Step.sol\":1838:1867  address sender = _msgSender() */\n      swap1\n      pop\n        /* \"ownable/Ownable2Step.sol\":1904:1910  sender */\n      dup1\n        /* \"ownable/Ownable2Step.sol\":1886:1910  pendingOwner() == sender */\n      0xffffffffffffffffffffffffffffffffffffffff\n      and\n        /* \"ownable/Ownable2Step.sol\":1886:1900  pendingOwner() */\n      tag_78\n        /* \"ownable/Ownable2Step.sol\":1886:1898  pendingOwner */\n      tag_38\n        /* \"ownable/Ownable2Step.sol\":1886:1900  pendingOwner() */\n      jump\t// in\n    tag_78:\n        /* \"ownable/Ownable2Step.sol\":1886:1910  pendingOwner() == sender */\n      0xffffffffffffffffffffffffffffffffffffffff\n      and\n      eq\n        /* \"ownable/Ownable2Step.sol\":1878:1956  require(pendingOwner() == sender, \"Ownable2Step: caller is not the new owner\") */\n      tag_79\n      jumpi\n      mload(0x40)\n      0x08c379a000000000000000000000000000000000000000000000000000000000\n      dup2\n      mstore\n      0x04\n      add\n      tag_80\n      swap1\n      tag_81\n      jump\t// in\n    tag_80:\n      mload(0x40)\n      dup1\n      swap2\n      sub\n      swap1\n      revert\n    tag_79:\n        /* \"ownable/Ownable2Step.sol\":1967:1993  _transferOwnership(sender) */\n      tag_82\n        /* \"ownable/Ownable2Step.sol\":1986:1992  sender */\n      dup2\n        /* \"ownable/Ownable2Step.sol\":1967:1985  _transferOwnership */\n      tag_59\n        /* \"ownable/Ownable2Step.sol\":1967:1993  _transferOwnership(sender) */\n      jump\t// in\n    tag_82:\n        /* \"ownable/Ownable2Step.sol\":1827:2001  {... */\n      pop\n        /* \"ownable/Ownable2Step.sol\":1785:2001  function acceptOwnership() public virtual {... */\n      jump\t// out\n        /* \"ownable/Ownable.sol\":1236:1323  function owner() public view virtual returns (address) {... */\n    tag_29:\n        /* \"ownable/Ownable.sol\":1282:1289  address */\n      0x00\n        /* \"ownable/Ownable.sol\":1309:1315  _owner */\n      dup1\n      0x00\n      swap1\n      sload\n      swap1\n      0x0100\n      exp\n      swap1\n      div\n      0xffffffffffffffffffffffffffffffffffffffff\n      and\n        /* \"ownable/Ownable.sol\":1302:1315  return _owner */\n      swap1\n      pop\n        /* \"ownable/Ownable.sol\":1236:1323  function owner() public view virtual returns (address) {... */\n      swap1\n      jump\t// out\n        /* \"SafeProtocolRegistry.sol\":1508:1787  function check(address integration) external view returns (uint64 listedAt, uint64 flaggedAt) {... */\n    tag_34:\n        /* \"SafeProtocolRegistry.sol\":1567:1582  uint64 listedAt */\n      0x00\n        /* \"SafeProtocolRegistry.sol\":1584:1600  uint64 flaggedAt */\n      dup1\n        /* \"SafeProtocolRegistry.sol\":1613:1651  IntegrationInfo memory integrationInfo */\n      0x00\n        /* \"SafeProtocolRegistry.sol\":1654:1672  listedIntegrations */\n      0x02\n        /* \"SafeProtocolRegistry.sol\":1654:1685  listedIntegrations[integration] */\n      0x00\n        /* \"SafeProtocolRegistry.sol\":1673:1684  integration */\n      dup6\n        /* \"SafeProtocolRegistry.sol\":1654:1685  listedIntegrations[integration] */\n      0xffffffffffffffffffffffffffffffffffffffff\n      and\n      0xffffffffffffffffffffffffffffffffffffffff\n      and\n      dup2\n      mstore\n      0x20\n      add\n      swap1\n      dup2\n      mstore\n      0x20\n      add\n      0x00\n      keccak256\n        /* \"SafeProtocolRegistry.sol\":1613:1685  IntegrationInfo memory integrationInfo = listedIntegrations[integration] */\n      mload(0x40)\n      dup1\n      0x60\n      add\n      0x40\n      mstore\n      swap1\n      dup2\n      0x00\n      dup3\n      add\n      0x00\n      swap1\n      sload\n      swap1\n      0x0100\n      exp\n      swap1\n      div\n      0xffffffffffffffff\n      and\n      0xffffffffffffffff\n      and\n      0xffffffffffffffff\n      and\n      dup2\n      mstore\n      0x20\n      add\n      0x00\n      dup3\n      add\n      0x08\n      swap1\n      sload\n      swap1\n      0x0100\n      exp\n      swap1\n      div\n      0xffffffffffffffff\n      and\n      0xffffffffffffffff\n      and\n      0xffffffffffffffff\n      and\n      dup2\n      mstore\n      0x20\n      add\n      0x00\n      dup3\n      add\n      0x10\n      swap1\n      sload\n      swap1\n      0x0100\n      exp\n      swap1\n      div\n      0xff\n      and\n      0x02\n      dup2\n      gt\n      iszero\n      tag_85\n      jumpi\n      tag_86\n      tag_65\n      jump\t// in\n    tag_86:\n    tag_85:\n      0x02\n      dup2\n      gt\n      iszero\n      tag_87\n      jumpi\n      tag_88\n      tag_65\n      jump\t// in\n    tag_88:\n    tag_87:\n      dup2\n      mstore\n      pop\n      pop\n      swap1\n      pop\n        /* \"SafeProtocolRegistry.sol\":1707:1722  integrationInfo */\n      dup1\n        /* \"SafeProtocolRegistry.sol\":1707:1731  integrationInfo.listedAt */\n      0x00\n      add\n      mload\n        /* \"SafeProtocolRegistry.sol\":1696:1731  listedAt = integrationInfo.listedAt */\n      swap3\n      pop\n        /* \"SafeProtocolRegistry.sol\":1754:1769  integrationInfo */\n      dup1\n        /* \"SafeProtocolRegistry.sol\":1754:1779  integrationInfo.flaggedAt */\n      0x20\n      add\n      mload\n        /* \"SafeProtocolRegistry.sol\":1742:1779  flaggedAt = integrationInfo.flaggedAt */\n      swap2\n      pop\n        /* \"SafeProtocolRegistry.sol\":1602:1787  {... */\n      pop\n        /* \"SafeProtocolRegistry.sol\":1508:1787  function check(address integration) external view returns (uint64 listedAt, uint64 flaggedAt) {... */\n      swap2\n      pop\n      swap2\n      jump\t// out\n        /* \"ownable/Ownable2Step.sol\":873:974  function pendingOwner() public view virtual returns (address) {... */\n    tag_38:\n        /* \"ownable/Ownable2Step.sol\":926:933  address */\n      0x00\n        /* \"ownable/Ownable2Step.sol\":953:966  _pendingOwner */\n      0x01\n      0x00\n      swap1\n      sload\n      swap1\n      0x0100\n      exp\n      swap1\n      div\n      0xffffffffffffffffffffffffffffffffffffffff\n      and\n        /* \"ownable/Ownable2Step.sol\":946:966  return _pendingOwner */\n      swap1\n      pop\n        /* \"ownable/Ownable2Step.sol\":873:974  function pendingOwner() public view virtual returns (address) {... */\n      swap1\n      jump\t// out\n        /* \"SafeProtocolRegistry.sol\":2219:3672  function addIntegration(address integration, Enum.IntegrationType integrationType) external virtual onlyOwner {... */\n    tag_43:\n        /* \"ownable/Ownable.sol\":1122:1135  _checkOwner() */\n      tag_91\n        /* \"ownable/Ownable.sol\":1122:1133  _checkOwner */\n      tag_56\n        /* \"ownable/Ownable.sol\":1122:1135  _checkOwner() */\n      jump\t// in\n    tag_91:\n        /* \"SafeProtocolRegistry.sol\":2340:2378  IntegrationInfo memory integrationInfo */\n      0x00\n        /* \"SafeProtocolRegistry.sol\":2381:2399  listedIntegrations */\n      0x02\n        /* \"SafeProtocolRegistry.sol\":2381:2412  listedIntegrations[integration] */\n      0x00\n        /* \"SafeProtocolRegistry.sol\":2400:2411  integration */\n      dup5\n        /* \"SafeProtocolRegistry.sol\":2381:2412  listedIntegrations[integration] */\n      0xffffffffffffffffffffffffffffffffffffffff\n      and\n      0xffffffffffffffffffffffffffffffffffffffff\n      and\n      dup2\n      mstore\n      0x20\n      add\n      swap1\n      dup2\n      mstore\n      0x20\n      add\n      0x00\n      keccak256\n        /* \"SafeProtocolRegistry.sol\":2340:2412  IntegrationInfo memory integrationInfo = listedIntegrations[integration] */\n      mload(0x40)\n      dup1\n      0x60\n      add\n      0x40\n      mstore\n      swap1\n      dup2\n      0x00\n      dup3\n      add\n      0x00\n      swap1\n      sload\n      swap1\n      0x0100\n      exp\n      swap1\n      div\n      0xffffffffffffffff\n      and\n      0xffffffffffffffff\n      and\n      0xffffffffffffffff\n      and\n      dup2\n      mstore\n      0x20\n      add\n      0x00\n      dup3\n      add\n      0x08\n      swap1\n      sload\n      swap1\n      0x0100\n      exp\n      swap1\n      div\n      0xffffffffffffffff\n      and\n      0xffffffffffffffff\n      and\n      0xffffffffffffffff\n      and\n      dup2\n      mstore\n      0x20\n      add\n      0x00\n      dup3\n      add\n      0x10\n      swap1\n      sload\n      swap1\n      0x0100\n      exp\n      swap1\n      div\n      0xff\n      and\n      0x02\n      dup2\n      gt\n      iszero\n      tag_93\n      jumpi\n      tag_94\n      tag_65\n      jump\t// in\n    tag_94:\n    tag_93:\n      0x02\n      dup2\n      gt\n      iszero\n      tag_95\n      jumpi\n      tag_96\n      tag_65\n      jump\t// in\n    tag_96:\n    tag_95:\n      dup2\n      mstore\n      pop\n      pop\n      swap1\n      pop\n        /* \"SafeProtocolRegistry.sol\":2457:2458  0 */\n      0x00\n        /* \"SafeProtocolRegistry.sol\":2429:2444  integrationInfo */\n      dup2\n        /* \"SafeProtocolRegistry.sol\":2429:2453  integrationInfo.listedAt */\n      0x00\n      add\n      mload\n        /* \"SafeProtocolRegistry.sol\":2429:2458  integrationInfo.listedAt != 0 */\n      0xffffffffffffffff\n      and\n      eq\n        /* \"SafeProtocolRegistry.sol\":2425:2527  if (integrationInfo.listedAt != 0) {... */\n      tag_97\n      jumpi\n        /* \"SafeProtocolRegistry.sol\":2503:2514  integration */\n      dup3\n        /* \"SafeProtocolRegistry.sol\":2482:2515  CannotAddIntegration(integration) */\n      mload(0x40)\n      0x1bc90bc600000000000000000000000000000000000000000000000000000000\n      dup2\n      mstore\n      0x04\n      add\n      tag_98\n      swap2\n      swap1\n      tag_31\n      jump\t// in\n    tag_98:\n      mload(0x40)\n      dup1\n      swap2\n      sub\n      swap1\n      revert\n        /* \"SafeProtocolRegistry.sol\":2425:2527  if (integrationInfo.listedAt != 0) {... */\n    tag_97:\n        /* \"SafeProtocolRegistry.sol\":2637:2663  Enum.IntegrationType.Hooks */\n      0x01\n        /* \"SafeProtocolRegistry.sol\":2618:2663  integrationType == Enum.IntegrationType.Hooks */\n      0x02\n      dup2\n      gt\n      iszero\n      tag_99\n      jumpi\n      tag_100\n      tag_65\n      jump\t// in\n    tag_100:\n    tag_99:\n        /* \"SafeProtocolRegistry.sol\":2618:2633  integrationType */\n      dup3\n        /* \"SafeProtocolRegistry.sol\":2618:2663  integrationType == Enum.IntegrationType.Hooks */\n      0x02\n      dup2\n      gt\n      iszero\n      tag_101\n      jumpi\n      tag_102\n      tag_65\n      jump\t// in\n    tag_102:\n    tag_101:\n      eq\n        /* \"SafeProtocolRegistry.sol\":2618:2744  integrationType == Enum.IntegrationType.Hooks && !IERC165(integration).supportsInterface(type(ISafeProtocolHooks).interfaceId) */\n      dup1\n      iszero\n      tag_103\n      jumpi\n      pop\n        /* \"SafeProtocolRegistry.sol\":2676:2687  integration */\n      dup3\n        /* \"SafeProtocolRegistry.sol\":2668:2706  IERC165(integration).supportsInterface */\n      0xffffffffffffffffffffffffffffffffffffffff\n      and\n      0x01ffc9a7\n        /* \"SafeProtocolRegistry.sol\":2707:2743  type(ISafeProtocolHooks).interfaceId */\n      0x907e1c5600000000000000000000000000000000000000000000000000000000\n        /* \"SafeProtocolRegistry.sol\":2668:2744  IERC165(integration).supportsInterface(type(ISafeProtocolHooks).interfaceId) */\n      mload(0x40)\n      dup3\n      0xffffffff\n      and\n      0xe0\n      shl\n      dup2\n      mstore\n      0x04\n      add\n      tag_104\n      swap2\n      swap1\n      tag_105\n      jump\t// in\n    tag_104:\n      0x20\n      mload(0x40)\n      dup1\n      dup4\n      sub\n      dup2\n      dup7\n      gas\n      staticcall\n      iszero\n      dup1\n      iszero\n      tag_107\n      jumpi\n      returndatasize\n      0x00\n      dup1\n      returndatacopy\n      revert(0x00, returndatasize)\n    tag_107:\n      pop\n      pop\n      pop\n      pop\n      mload(0x40)\n      returndatasize\n      not(0x1f)\n      0x1f\n      dup3\n      add\n      and\n      dup3\n      add\n      dup1\n      0x40\n      mstore\n      pop\n      dup2\n      add\n      swap1\n      tag_108\n      swap2\n      swap1\n      tag_109\n      jump\t// in\n    tag_108:\n        /* \"SafeProtocolRegistry.sol\":2667:2744  !IERC165(integration).supportsInterface(type(ISafeProtocolHooks).interfaceId) */\n      iszero\n        /* \"SafeProtocolRegistry.sol\":2618:2744  integrationType == Enum.IntegrationType.Hooks && !IERC165(integration).supportsInterface(type(ISafeProtocolHooks).interfaceId) */\n    tag_103:\n        /* \"SafeProtocolRegistry.sol\":2600:3513  if (... */\n      iszero\n      tag_110\n      jumpi\n        /* \"SafeProtocolRegistry.sol\":2823:2834  integration */\n      dup3\n        /* \"SafeProtocolRegistry.sol\":2836:2872  type(ISafeProtocolHooks).interfaceId */\n      0x907e1c5600000000000000000000000000000000000000000000000000000000\n        /* \"SafeProtocolRegistry.sol\":2778:2873  IntegrationDoesNotSupportExpectedInterfaceId(integration, type(ISafeProtocolHooks).interfaceId) */\n      mload(0x40)\n      0xbe98cdba00000000000000000000000000000000000000000000000000000000\n      dup2\n      mstore\n      0x04\n      add\n      tag_111\n      swap3\n      swap2\n      swap1\n      tag_112\n      jump\t// in\n    tag_111:\n      mload(0x40)\n      dup1\n      swap2\n      sub\n      swap1\n      revert\n        /* \"SafeProtocolRegistry.sol\":2600:3513  if (... */\n    tag_110:\n        /* \"SafeProtocolRegistry.sol\":2928:2955  Enum.IntegrationType.Plugin */\n      0x00\n        /* \"SafeProtocolRegistry.sol\":2909:2955  integrationType == Enum.IntegrationType.Plugin */\n      0x02\n      dup2\n      gt\n      iszero\n      tag_114\n      jumpi\n      tag_115\n      tag_65\n      jump\t// in\n    tag_115:\n    tag_114:\n        /* \"SafeProtocolRegistry.sol\":2909:2924  integrationType */\n      dup3\n        /* \"SafeProtocolRegistry.sol\":2909:2955  integrationType == Enum.IntegrationType.Plugin */\n      0x02\n      dup2\n      gt\n      iszero\n      tag_116\n      jumpi\n      tag_117\n      tag_65\n      jump\t// in\n    tag_117:\n    tag_116:\n      eq\n        /* \"SafeProtocolRegistry.sol\":2909:3037  integrationType == Enum.IntegrationType.Plugin && !IERC165(integration).supportsInterface(type(ISafeProtocolPlugin).interfaceId) */\n      dup1\n      iszero\n      tag_118\n      jumpi\n      pop\n        /* \"SafeProtocolRegistry.sol\":2968:2979  integration */\n      dup3\n        /* \"SafeProtocolRegistry.sol\":2960:2998  IERC165(integration).supportsInterface */\n      0xffffffffffffffffffffffffffffffffffffffff\n      and\n      0x01ffc9a7\n        /* \"SafeProtocolRegistry.sol\":2999:3036  type(ISafeProtocolPlugin).interfaceId */\n      0x3fce835e00000000000000000000000000000000000000000000000000000000\n        /* \"SafeProtocolRegistry.sol\":2960:3037  IERC165(integration).supportsInterface(type(ISafeProtocolPlugin).interfaceId) */\n      mload(0x40)\n      dup3\n      0xffffffff\n      and\n      0xe0\n      shl\n      dup2\n      mstore\n      0x04\n      add\n      tag_119\n      swap2\n      swap1\n      tag_105\n      jump\t// in\n    tag_119:\n      0x20\n      mload(0x40)\n      dup1\n      dup4\n      sub\n      dup2\n      dup7\n      gas\n      staticcall\n      iszero\n      dup1\n      iszero\n      tag_121\n      jumpi\n      returndatasize\n      0x00\n      dup1\n      returndatacopy\n      revert(0x00, returndatasize)\n    tag_121:\n      pop\n      pop\n      pop\n      pop\n      mload(0x40)\n      returndatasize\n      not(0x1f)\n      0x1f\n      dup3\n      add\n      and\n      dup3\n      add\n      dup1\n      0x40\n      mstore\n      pop\n      dup2\n      add\n      swap1\n      tag_122\n      swap2\n      swap1\n      tag_109\n      jump\t// in\n    tag_122:\n        /* \"SafeProtocolRegistry.sol\":2959:3037  !IERC165(integration).supportsInterface(type(ISafeProtocolPlugin).interfaceId) */\n      iszero\n        /* \"SafeProtocolRegistry.sol\":2909:3037  integrationType == Enum.IntegrationType.Plugin && !IERC165(integration).supportsInterface(type(ISafeProtocolPlugin).interfaceId) */\n    tag_118:\n        /* \"SafeProtocolRegistry.sol\":2891:3513  if (... */\n      iszero\n      tag_123\n      jumpi\n        /* \"SafeProtocolRegistry.sol\":3116:3127  integration */\n      dup3\n        /* \"SafeProtocolRegistry.sol\":3129:3166  type(ISafeProtocolPlugin).interfaceId */\n      0x3fce835e00000000000000000000000000000000000000000000000000000000\n        /* \"SafeProtocolRegistry.sol\":3071:3167  IntegrationDoesNotSupportExpectedInterfaceId(integration, type(ISafeProtocolPlugin).interfaceId) */\n      mload(0x40)\n      0xbe98cdba00000000000000000000000000000000000000000000000000000000\n      dup2\n      mstore\n      0x04\n      add\n      tag_124\n      swap3\n      swap2\n      swap1\n      tag_112\n      jump\t// in\n    tag_124:\n      mload(0x40)\n      dup1\n      swap2\n      sub\n      swap1\n      revert\n        /* \"SafeProtocolRegistry.sol\":2891:3513  if (... */\n    tag_123:\n        /* \"SafeProtocolRegistry.sol\":3222:3258  Enum.IntegrationType.FunctionHandler */\n      0x02\n        /* \"SafeProtocolRegistry.sol\":3203:3258  integrationType == Enum.IntegrationType.FunctionHandler */\n      dup1\n      dup2\n      gt\n      iszero\n      tag_126\n      jumpi\n      tag_127\n      tag_65\n      jump\t// in\n    tag_127:\n    tag_126:\n        /* \"SafeProtocolRegistry.sol\":3203:3218  integrationType */\n      dup3\n        /* \"SafeProtocolRegistry.sol\":3203:3258  integrationType == Enum.IntegrationType.FunctionHandler */\n      0x02\n      dup2\n      gt\n      iszero\n      tag_128\n      jumpi\n      tag_129\n      tag_65\n      jump\t// in\n    tag_129:\n    tag_128:\n      eq\n        /* \"SafeProtocolRegistry.sol\":3203:3362  integrationType == Enum.IntegrationType.FunctionHandler &&... */\n      dup1\n      iszero\n      tag_130\n      jumpi\n      pop\n        /* \"SafeProtocolRegistry.sol\":3284:3295  integration */\n      dup3\n        /* \"SafeProtocolRegistry.sol\":3276:3314  IERC165(integration).supportsInterface */\n      0xffffffffffffffffffffffffffffffffffffffff\n      and\n      0x01ffc9a7\n        /* \"SafeProtocolRegistry.sol\":3315:3361  type(ISafeProtocolFunctionHandler).interfaceId */\n      0xf601ad1500000000000000000000000000000000000000000000000000000000\n        /* \"SafeProtocolRegistry.sol\":3276:3362  IERC165(integration).supportsInterface(type(ISafeProtocolFunctionHandler).interfaceId) */\n      mload(0x40)\n      dup3\n      0xffffffff\n      and\n      0xe0\n      shl\n      dup2\n      mstore\n      0x04\n      add\n      tag_131\n      swap2\n      swap1\n      tag_105\n      jump\t// in\n    tag_131:\n      0x20\n      mload(0x40)\n      dup1\n      dup4\n      sub\n      dup2\n      dup7\n      gas\n      staticcall\n      iszero\n      dup1\n      iszero\n      tag_133\n      jumpi\n      returndatasize\n      0x00\n      dup1\n      returndatacopy\n      revert(0x00, returndatasize)\n    tag_133:\n      pop\n      pop\n      pop\n      pop\n      mload(0x40)\n      returndatasize\n      not(0x1f)\n      0x1f\n      dup3\n      add\n      and\n      dup3\n      add\n      dup1\n      0x40\n      mstore\n      pop\n      dup2\n      add\n      swap1\n      tag_134\n      swap2\n      swap1\n      tag_109\n      jump\t// in\n    tag_134:\n        /* \"SafeProtocolRegistry.sol\":3275:3362  !IERC165(integration).supportsInterface(type(ISafeProtocolFunctionHandler).interfaceId) */\n      iszero\n        /* \"SafeProtocolRegistry.sol\":3203:3362  integrationType == Enum.IntegrationType.FunctionHandler &&... */\n    tag_130:\n        /* \"SafeProtocolRegistry.sol\":3185:3513  if (... */\n      iszero\n      tag_135\n      jumpi\n        /* \"SafeProtocolRegistry.sol\":3441:3452  integration */\n      dup3\n        /* \"SafeProtocolRegistry.sol\":3454:3500  type(ISafeProtocolFunctionHandler).interfaceId */\n      0xf601ad1500000000000000000000000000000000000000000000000000000000\n        /* \"SafeProtocolRegistry.sol\":3396:3501  IntegrationDoesNotSupportExpectedInterfaceId(integration, type(ISafeProtocolFunctionHandler).interfaceId) */\n      mload(0x40)\n      0xbe98cdba00000000000000000000000000000000000000000000000000000000\n      dup2\n      mstore\n      0x04\n      add\n      tag_136\n      swap3\n      swap2\n      swap1\n      tag_112\n      jump\t// in\n    tag_136:\n      mload(0x40)\n      dup1\n      swap2\n      sub\n      swap1\n      revert\n        /* \"SafeProtocolRegistry.sol\":3185:3513  if (... */\n    tag_135:\n        /* \"SafeProtocolRegistry.sol\":3559:3619  IntegrationInfo(uint64(block.timestamp), 0, integrationType) */\n      mload(0x40)\n      dup1\n      0x60\n      add\n      0x40\n      mstore\n      dup1\n        /* \"SafeProtocolRegistry.sol\":3582:3597  block.timestamp */\n      timestamp\n        /* \"SafeProtocolRegistry.sol\":3559:3619  IntegrationInfo(uint64(block.timestamp), 0, integrationType) */\n      0xffffffffffffffff\n      and\n      dup2\n      mstore\n      0x20\n      add\n        /* \"SafeProtocolRegistry.sol\":3600:3601  0 */\n      0x00\n        /* \"SafeProtocolRegistry.sol\":3559:3619  IntegrationInfo(uint64(block.timestamp), 0, integrationType) */\n      0xffffffffffffffff\n      and\n      dup2\n      mstore\n      0x20\n      add\n        /* \"SafeProtocolRegistry.sol\":3603:3618  integrationType */\n      dup4\n        /* \"SafeProtocolRegistry.sol\":3559:3619  IntegrationInfo(uint64(block.timestamp), 0, integrationType) */\n      0x02\n      dup2\n      gt\n      iszero\n      tag_137\n      jumpi\n      tag_138\n      tag_65\n      jump\t// in\n    tag_138:\n    tag_137:\n      dup2\n      mstore\n      pop\n        /* \"SafeProtocolRegistry.sol\":3525:3543  listedIntegrations */\n      0x02\n        /* \"SafeProtocolRegistry.sol\":3525:3556  listedIntegrations[integration] */\n      0x00\n        /* \"SafeProtocolRegistry.sol\":3544:3555  integration */\n      dup6\n        /* \"SafeProtocolRegistry.sol\":3525:3556  listedIntegrations[integration] */\n      0xffffffffffffffffffffffffffffffffffffffff\n      and\n      0xffffffffffffffffffffffffffffffffffffffff\n      and\n      dup2\n      mstore\n      0x20\n      add\n      swap1\n      dup2\n      mstore\n      0x20\n      add\n      0x00\n      keccak256\n        /* \"SafeProtocolRegistry.sol\":3525:3619  listedIntegrations[integration] = IntegrationInfo(uint64(block.timestamp), 0, integrationType) */\n      0x00\n      dup3\n      add\n      mload\n      dup2\n      0x00\n      add\n      exp(0x0100, 0x00)\n      dup2\n      sload\n      dup2\n      0xffffffffffffffff\n      mul\n      not\n      and\n      swap1\n      dup4\n      0xffffffffffffffff\n      and\n      mul\n      or\n      swap1\n      sstore\n      pop\n      0x20\n      dup3\n      add\n      mload\n      dup2\n      0x00\n      add\n      exp(0x0100, 0x08)\n      dup2\n      sload\n      dup2\n      0xffffffffffffffff\n      mul\n      not\n      and\n      swap1\n      dup4\n      0xffffffffffffffff\n      and\n      mul\n      or\n      swap1\n      sstore\n      pop\n      0x40\n      dup3\n      add\n      mload\n      dup2\n      0x00\n      add\n      exp(0x0100, 0x10)\n      dup2\n      sload\n      dup2\n      0xff\n      mul\n      not\n      and\n      swap1\n      dup4\n      0x02\n      dup2\n      gt\n      iszero\n      tag_139\n      jumpi\n      tag_140\n      tag_65\n      jump\t// in\n    tag_140:\n    tag_139:\n      mul\n      or\n      swap1\n      sstore\n      pop\n      swap1\n      pop\n      pop\n        /* \"SafeProtocolRegistry.sol\":3652:3663  integration */\n      dup3\n        /* \"SafeProtocolRegistry.sol\":3635:3664  IntegrationAdded(integration) */\n      0xffffffffffffffffffffffffffffffffffffffff\n      and\n      0x94c109d6a0f9d39b37ec79aa4e627154250f2c29adaf10079a79e29e95fefd62\n      mload(0x40)\n      mload(0x40)\n      dup1\n      swap2\n      sub\n      swap1\n      log2\n        /* \"SafeProtocolRegistry.sol\":2329:3672  {... */\n      pop\n        /* \"SafeProtocolRegistry.sol\":2219:3672  function addIntegration(address integration, Enum.IntegrationType integrationType) external virtual onlyOwner {... */\n      pop\n      pop\n      jump\t// out\n        /* \"SafeProtocolRegistry.sol\":512:573  mapping(address => IntegrationInfo) public listedIntegrations */\n    tag_46:\n      mstore(0x20, 0x02)\n      dup1\n      0x00\n      mstore\n      keccak256(0x00, 0x40)\n      0x00\n      swap2\n      pop\n      swap1\n      pop\n      dup1\n      0x00\n      add\n      0x00\n      swap1\n      sload\n      swap1\n      0x0100\n      exp\n      swap1\n      div\n      0xffffffffffffffff\n      and\n      swap1\n      dup1\n      0x00\n      add\n      0x08\n      swap1\n      sload\n      swap1\n      0x0100\n      exp\n      swap1\n      div\n      0xffffffffffffffff\n      and\n      swap1\n      dup1\n      0x00\n      add\n      0x10\n      swap1\n      sload\n      swap1\n      0x0100\n      exp\n      swap1\n      div\n      0xff\n      and\n      swap1\n      pop\n      dup4\n      jump\t// out\n        /* \"ownable/Ownable2Step.sol\":1173:1354  function transferOwnership(address newOwner) public virtual override onlyOwner {... */\n    tag_51:\n        /* \"ownable/Ownable.sol\":1122:1135  _checkOwner() */\n      tag_142\n        /* \"ownable/Ownable.sol\":1122:1133  _checkOwner */\n      tag_56\n        /* \"ownable/Ownable.sol\":1122:1135  _checkOwner() */\n      jump\t// in\n    tag_142:\n        /* \"ownable/Ownable2Step.sol\":1279:1287  newOwner */\n      dup1\n        /* \"ownable/Ownable2Step.sol\":1263:1276  _pendingOwner */\n      0x01\n      0x00\n        /* \"ownable/Ownable2Step.sol\":1263:1287  _pendingOwner = newOwner */\n      0x0100\n      exp\n      dup2\n      sload\n      dup2\n      0xffffffffffffffffffffffffffffffffffffffff\n      mul\n      not\n      and\n      swap1\n      dup4\n      0xffffffffffffffffffffffffffffffffffffffff\n      and\n      mul\n      or\n      swap1\n      sstore\n      pop\n        /* \"ownable/Ownable2Step.sol\":1337:1345  newOwner */\n      dup1\n        /* \"ownable/Ownable2Step.sol\":1303:1346  OwnershipTransferStarted(owner(), newOwner) */\n      0xffffffffffffffffffffffffffffffffffffffff\n      and\n        /* \"ownable/Ownable2Step.sol\":1328:1335  owner() */\n      tag_144\n        /* \"ownable/Ownable2Step.sol\":1328:1333  owner */\n      tag_29\n        /* \"ownable/Ownable2Step.sol\":1328:1335  owner() */\n      jump\t// in\n    tag_144:\n        /* \"ownable/Ownable2Step.sol\":1303:1346  OwnershipTransferStarted(owner(), newOwner) */\n      0xffffffffffffffffffffffffffffffffffffffff\n      and\n      0x38d16b8cac22d99fc7c124b9cd0de2d3fa1faef420bfe791d8c362d765e22700\n      mload(0x40)\n      mload(0x40)\n      dup1\n      swap2\n      sub\n      swap1\n      log3\n        /* \"ownable/Ownable2Step.sol\":1173:1354  function transferOwnership(address newOwner) public virtual override onlyOwner {... */\n      pop\n      jump\t// out\n        /* \"ownable/Ownable.sol\":1401:1533  function _checkOwner() internal view virtual {... */\n    tag_56:\n        /* \"ownable/Ownable.sol\":1476:1488  _msgSender() */\n      tag_146\n        /* \"ownable/Ownable.sol\":1476:1486  _msgSender */\n      tag_77\n        /* \"ownable/Ownable.sol\":1476:1488  _msgSender() */\n      jump\t// in\n    tag_146:\n        /* \"ownable/Ownable.sol\":1465:1488  owner() == _msgSender() */\n      0xffffffffffffffffffffffffffffffffffffffff\n      and\n        /* \"ownable/Ownable.sol\":1465:1472  owner() */\n      tag_147\n        /* \"ownable/Ownable.sol\":1465:1470  owner */\n      tag_29\n        /* \"ownable/Ownable.sol\":1465:1472  owner() */\n      jump\t// in\n    tag_147:\n        /* \"ownable/Ownable.sol\":1465:1488  owner() == _msgSender() */\n      0xffffffffffffffffffffffffffffffffffffffff\n      and\n      eq\n        /* \"ownable/Ownable.sol\":1457:1525  require(owner() == _msgSender(), \"Ownable: caller is not the owner\") */\n      tag_148\n      jumpi\n      mload(0x40)\n      0x08c379a000000000000000000000000000000000000000000000000000000000\n      dup2\n      mstore\n      0x04\n      add\n      tag_149\n      swap1\n      tag_150\n      jump\t// in\n    tag_149:\n      mload(0x40)\n      dup1\n      swap2\n      sub\n      swap1\n      revert\n    tag_148:\n        /* \"ownable/Ownable.sol\":1401:1533  function _checkOwner() internal view virtual {... */\n      jump\t// out\n        /* \"ownable/Ownable2Step.sol\":1544:1700  function _transferOwnership(address newOwner) internal virtual override {... */\n    tag_59:\n        /* \"ownable/Ownable2Step.sol\":1634:1647  _pendingOwner */\n      0x01\n      0x00\n        /* \"ownable/Ownable2Step.sol\":1627:1647  delete _pendingOwner */\n      0x0100\n      exp\n      dup2\n      sload\n      swap1\n      0xffffffffffffffffffffffffffffffffffffffff\n      mul\n      not\n      and\n      swap1\n      sstore\n        /* \"ownable/Ownable2Step.sol\":1658:1692  super._transferOwnership(newOwner) */\n      tag_152\n        /* \"ownable/Ownable2Step.sol\":1683:1691  newOwner */\n      dup2\n        /* \"ownable/Ownable2Step.sol\":1658:1682  super._transferOwnership */\n      tag_153\n        /* \"ownable/Ownable2Step.sol\":1658:1692  super._transferOwnership(newOwner) */\n      jump\t// in\n    tag_152:\n        /* \"ownable/Ownable2Step.sol\":1544:1700  function _transferOwnership(address newOwner) internal virtual override {... */\n      pop\n      jump\t// out\n        /* \"ownable/Context.sol\":656:754  function _msgSender() internal view virtual returns (address) {... */\n    tag_77:\n        /* \"ownable/Context.sol\":709:716  address */\n      0x00\n        /* \"ownable/Context.sol\":736:746  msg.sender */\n      caller\n        /* \"ownable/Context.sol\":729:746  return msg.sender */\n      swap1\n      pop\n        /* \"ownable/Context.sol\":656:754  function _msgSender() internal view virtual returns (address) {... */\n      swap1\n      jump\t// out\n        /* \"ownable/Ownable.sol\":2496:2687  function _transferOwnership(address newOwner) internal virtual {... */\n    tag_153:\n        /* \"ownable/Ownable.sol\":2570:2586  address oldOwner */\n      0x00\n        /* \"ownable/Ownable.sol\":2589:2595  _owner */\n      dup1\n      0x00\n      swap1\n      sload\n      swap1\n      0x0100\n      exp\n      swap1\n      div\n      0xffffffffffffffffffffffffffffffffffffffff\n      and\n        /* \"ownable/Ownable.sol\":2570:2595  address oldOwner = _owner */\n      swap1\n      pop\n        /* \"ownable/Ownable.sol\":2615:2623  newOwner */\n      dup2\n        /* \"ownable/Ownable.sol\":2606:2612  _owner */\n      0x00\n      dup1\n        /* \"ownable/Ownable.sol\":2606:2623  _owner = newOwner */\n      0x0100\n      exp\n      dup2\n      sload\n      dup2\n      0xffffffffffffffffffffffffffffffffffffffff\n      mul\n      not\n      and\n      swap1\n      dup4\n      0xffffffffffffffffffffffffffffffffffffffff\n      and\n      mul\n      or\n      swap1\n      sstore\n      pop\n        /* \"ownable/Ownable.sol\":2670:2678  newOwner */\n      dup2\n        /* \"ownable/Ownable.sol\":2639:2679  OwnershipTransferred(oldOwner, newOwner) */\n      0xffffffffffffffffffffffffffffffffffffffff\n      and\n        /* \"ownable/Ownable.sol\":2660:2668  oldOwner */\n      dup2\n        /* \"ownable/Ownable.sol\":2639:2679  OwnershipTransferred(oldOwner, newOwner) */\n      0xffffffffffffffffffffffffffffffffffffffff\n      and\n      0x8be0079c531659141344cd1fd0a4f28419497f9722a3daafe3b4186f6b6457e0\n      mload(0x40)\n      mload(0x40)\n      dup1\n      swap2\n      sub\n      swap1\n      log3\n        /* \"ownable/Ownable.sol\":2559:2687  {... */\n      pop\n        /* \"ownable/Ownable.sol\":2496:2687  function _transferOwnership(address newOwner) internal virtual {... */\n      pop\n      jump\t// out\n        /* \"#utility.yul\":88:205   */\n    tag_157:\n        /* \"#utility.yul\":197:198   */\n      0x00\n        /* \"#utility.yul\":194:195   */\n      dup1\n        /* \"#utility.yul\":187:199   */\n      revert\n        /* \"#utility.yul\":334:483   */\n    tag_159:\n        /* \"#utility.yul\":370:377   */\n      0x00\n        /* \"#utility.yul\":410:476   */\n      0xffffffff00000000000000000000000000000000000000000000000000000000\n        /* \"#utility.yul\":403:408   */\n      dup3\n        /* \"#utility.yul\":399:477   */\n      and\n        /* \"#utility.yul\":388:477   */\n      swap1\n      pop\n        /* \"#utility.yul\":334:483   */\n      swap2\n      swap1\n      pop\n      jump\t// out\n        /* \"#utility.yul\":489:609   */\n    tag_160:\n        /* \"#utility.yul\":561:584   */\n      tag_191\n        /* \"#utility.yul\":578:583   */\n      dup2\n        /* \"#utility.yul\":561:584   */\n      tag_159\n      jump\t// in\n    tag_191:\n        /* \"#utility.yul\":554:559   */\n      dup2\n        /* \"#utility.yul\":551:585   */\n      eq\n        /* \"#utility.yul\":541:603   */\n      tag_192\n      jumpi\n        /* \"#utility.yul\":599:600   */\n      0x00\n        /* \"#utility.yul\":596:597   */\n      dup1\n        /* \"#utility.yul\":589:601   */\n      revert\n        /* \"#utility.yul\":541:603   */\n    tag_192:\n        /* \"#utility.yul\":489:609   */\n      pop\n      jump\t// out\n        /* \"#utility.yul\":615:752   */\n    tag_161:\n        /* \"#utility.yul\":660:665   */\n      0x00\n        /* \"#utility.yul\":698:704   */\n      dup2\n        /* \"#utility.yul\":685:705   */\n      calldataload\n        /* \"#utility.yul\":676:705   */\n      swap1\n      pop\n        /* \"#utility.yul\":714:746   */\n      tag_194\n        /* \"#utility.yul\":740:745   */\n      dup2\n        /* \"#utility.yul\":714:746   */\n      tag_160\n      jump\t// in\n    tag_194:\n        /* \"#utility.yul\":615:752   */\n      swap3\n      swap2\n      pop\n      pop\n      jump\t// out\n        /* \"#utility.yul\":758:1085   */\n    tag_16:\n        /* \"#utility.yul\":816:822   */\n      0x00\n        /* \"#utility.yul\":865:867   */\n      0x20\n        /* \"#utility.yul\":853:862   */\n      dup3\n        /* \"#utility.yul\":844:851   */\n      dup5\n        /* \"#utility.yul\":840:863   */\n      sub\n        /* \"#utility.yul\":836:868   */\n      slt\n        /* \"#utility.yul\":833:952   */\n      iszero\n      tag_196\n      jumpi\n        /* \"#utility.yul\":871:950   */\n      tag_197\n      tag_157\n      jump\t// in\n    tag_197:\n        /* \"#utility.yul\":833:952   */\n    tag_196:\n        /* \"#utility.yul\":991:992   */\n      0x00\n        /* \"#utility.yul\":1016:1068   */\n      tag_198\n        /* \"#utility.yul\":1060:1067   */\n      dup5\n        /* \"#utility.yul\":1051:1057   */\n      dup3\n        /* \"#utility.yul\":1040:1049   */\n      dup6\n        /* \"#utility.yul\":1036:1058   */\n      add\n        /* \"#utility.yul\":1016:1068   */\n      tag_161\n      jump\t// in\n    tag_198:\n        /* \"#utility.yul\":1006:1068   */\n      swap2\n      pop\n        /* \"#utility.yul\":962:1078   */\n      pop\n        /* \"#utility.yul\":758:1085   */\n      swap3\n      swap2\n      pop\n      pop\n      jump\t// out\n        /* \"#utility.yul\":1091:1181   */\n    tag_162:\n        /* \"#utility.yul\":1125:1132   */\n      0x00\n        /* \"#utility.yul\":1168:1173   */\n      dup2\n        /* \"#utility.yul\":1161:1174   */\n      iszero\n        /* \"#utility.yul\":1154:1175   */\n      iszero\n        /* \"#utility.yul\":1143:1175   */\n      swap1\n      pop\n        /* \"#utility.yul\":1091:1181   */\n      swap2\n      swap1\n      pop\n      jump\t// out\n        /* \"#utility.yul\":1187:1296   */\n    tag_163:\n        /* \"#utility.yul\":1268:1289   */\n      tag_201\n        /* \"#utility.yul\":1283:1288   */\n      dup2\n        /* \"#utility.yul\":1268:1289   */\n      tag_162\n      jump\t// in\n    tag_201:\n        /* \"#utility.yul\":1263:1266   */\n      dup3\n        /* \"#utility.yul\":1256:1290   */\n      mstore\n        /* \"#utility.yul\":1187:1296   */\n      pop\n      pop\n      jump\t// out\n        /* \"#utility.yul\":1302:1512   */\n    tag_19:\n        /* \"#utility.yul\":1389:1393   */\n      0x00\n        /* \"#utility.yul\":1427:1429   */\n      0x20\n        /* \"#utility.yul\":1416:1425   */\n      dup3\n        /* \"#utility.yul\":1412:1430   */\n      add\n        /* \"#utility.yul\":1404:1430   */\n      swap1\n      pop\n        /* \"#utility.yul\":1440:1505   */\n      tag_203\n        /* \"#utility.yul\":1502:1503   */\n      0x00\n        /* \"#utility.yul\":1491:1500   */\n      dup4\n        /* \"#utility.yul\":1487:1504   */\n      add\n        /* \"#utility.yul\":1478:1484   */\n      dup5\n        /* \"#utility.yul\":1440:1505   */\n      tag_163\n      jump\t// in\n    tag_203:\n        /* \"#utility.yul\":1302:1512   */\n      swap3\n      swap2\n      pop\n      pop\n      jump\t// out\n        /* \"#utility.yul\":1518:1644   */\n    tag_164:\n        /* \"#utility.yul\":1555:1562   */\n      0x00\n        /* \"#utility.yul\":1595:1637   */\n      0xffffffffffffffffffffffffffffffffffffffff\n        /* \"#utility.yul\":1588:1593   */\n      dup3\n        /* \"#utility.yul\":1584:1638   */\n      and\n        /* \"#utility.yul\":1573:1638   */\n      swap1\n      pop\n        /* \"#utility.yul\":1518:1644   */\n      swap2\n      swap1\n      pop\n      jump\t// out\n        /* \"#utility.yul\":1650:1746   */\n    tag_165:\n        /* \"#utility.yul\":1687:1694   */\n      0x00\n        /* \"#utility.yul\":1716:1740   */\n      tag_206\n        /* \"#utility.yul\":1734:1739   */\n      dup3\n        /* \"#utility.yul\":1716:1740   */\n      tag_164\n      jump\t// in\n    tag_206:\n        /* \"#utility.yul\":1705:1740   */\n      swap1\n      pop\n        /* \"#utility.yul\":1650:1746   */\n      swap2\n      swap1\n      pop\n      jump\t// out\n        /* \"#utility.yul\":1752:1874   */\n    tag_166:\n        /* \"#utility.yul\":1825:1849   */\n      tag_208\n        /* \"#utility.yul\":1843:1848   */\n      dup2\n        /* \"#utility.yul\":1825:1849   */\n      tag_165\n      jump\t// in\n    tag_208:\n        /* \"#utility.yul\":1818:1823   */\n      dup2\n        /* \"#utility.yul\":1815:1850   */\n      eq\n        /* \"#utility.yul\":1805:1868   */\n      tag_209\n      jumpi\n        /* \"#utility.yul\":1864:1865   */\n      0x00\n        /* \"#utility.yul\":1861:1862   */\n      dup1\n        /* \"#utility.yul\":1854:1866   */\n      revert\n        /* \"#utility.yul\":1805:1868   */\n    tag_209:\n        /* \"#utility.yul\":1752:1874   */\n      pop\n      jump\t// out\n        /* \"#utility.yul\":1880:2019   */\n    tag_167:\n        /* \"#utility.yul\":1926:1931   */\n      0x00\n        /* \"#utility.yul\":1964:1970   */\n      dup2\n        /* \"#utility.yul\":1951:1971   */\n      calldataload\n        /* \"#utility.yul\":1942:1971   */\n      swap1\n      pop\n        /* \"#utility.yul\":1980:2013   */\n      tag_211\n        /* \"#utility.yul\":2007:2012   */\n      dup2\n        /* \"#utility.yul\":1980:2013   */\n      tag_166\n      jump\t// in\n    tag_211:\n        /* \"#utility.yul\":1880:2019   */\n      swap3\n      swap2\n      pop\n      pop\n      jump\t// out\n        /* \"#utility.yul\":2025:2354   */\n    tag_24:\n        /* \"#utility.yul\":2084:2090   */\n      0x00\n        /* \"#utility.yul\":2133:2135   */\n      0x20\n        /* \"#utility.yul\":2121:2130   */\n      dup3\n        /* \"#utility.yul\":2112:2119   */\n      dup5\n        /* \"#utility.yul\":2108:2131   */\n      sub\n        /* \"#utility.yul\":2104:2136   */\n      slt\n        /* \"#utility.yul\":2101:2220   */\n      iszero\n      tag_213\n      jumpi\n        /* \"#utility.yul\":2139:2218   */\n      tag_214\n      tag_157\n      jump\t// in\n    tag_214:\n        /* \"#utility.yul\":2101:2220   */\n    tag_213:\n        /* \"#utility.yul\":2259:2260   */\n      0x00\n        /* \"#utility.yul\":2284:2337   */\n      tag_215\n        /* \"#utility.yul\":2329:2336   */\n      dup5\n        /* \"#utility.yul\":2320:2326   */\n      dup3\n        /* \"#utility.yul\":2309:2318   */\n      dup6\n        /* \"#utility.yul\":2305:2327   */\n      add\n        /* \"#utility.yul\":2284:2337   */\n      tag_167\n      jump\t// in\n    tag_215:\n        /* \"#utility.yul\":2274:2337   */\n      swap2\n      pop\n        /* \"#utility.yul\":2230:2347   */\n      pop\n        /* \"#utility.yul\":2025:2354   */\n      swap3\n      swap2\n      pop\n      pop\n      jump\t// out\n        /* \"#utility.yul\":2360:2478   */\n    tag_168:\n        /* \"#utility.yul\":2447:2471   */\n      tag_217\n        /* \"#utility.yul\":2465:2470   */\n      dup2\n        /* \"#utility.yul\":2447:2471   */\n      tag_165\n      jump\t// in\n    tag_217:\n        /* \"#utility.yul\":2442:2445   */\n      dup3\n        /* \"#utility.yul\":2435:2472   */\n      mstore\n        /* \"#utility.yul\":2360:2478   */\n      pop\n      pop\n      jump\t// out\n        /* \"#utility.yul\":2484:2706   */\n    tag_31:\n        /* \"#utility.yul\":2577:2581   */\n      0x00\n        /* \"#utility.yul\":2615:2617   */\n      0x20\n        /* \"#utility.yul\":2604:2613   */\n      dup3\n        /* \"#utility.yul\":2600:2618   */\n      add\n        /* \"#utility.yul\":2592:2618   */\n      swap1\n      pop\n        /* \"#utility.yul\":2628:2699   */\n      tag_219\n        /* \"#utility.yul\":2696:2697   */\n      0x00\n        /* \"#utility.yul\":2685:2694   */\n      dup4\n        /* \"#utility.yul\":2681:2698   */\n      add\n        /* \"#utility.yul\":2672:2678   */\n      dup5\n        /* \"#utility.yul\":2628:2699   */\n      tag_168\n      jump\t// in\n    tag_219:\n        /* \"#utility.yul\":2484:2706   */\n      swap3\n      swap2\n      pop\n      pop\n      jump\t// out\n        /* \"#utility.yul\":2712:2813   */\n    tag_169:\n        /* \"#utility.yul\":2748:2755   */\n      0x00\n        /* \"#utility.yul\":2788:2806   */\n      0xffffffffffffffff\n        /* \"#utility.yul\":2781:2786   */\n      dup3\n        /* \"#utility.yul\":2777:2807   */\n      and\n        /* \"#utility.yul\":2766:2807   */\n      swap1\n      pop\n        /* \"#utility.yul\":2712:2813   */\n      swap2\n      swap1\n      pop\n      jump\t// out\n        /* \"#utility.yul\":2819:2934   */\n    tag_170:\n        /* \"#utility.yul\":2904:2927   */\n      tag_222\n        /* \"#utility.yul\":2921:2926   */\n      dup2\n        /* \"#utility.yul\":2904:2927   */\n      tag_169\n      jump\t// in\n    tag_222:\n        /* \"#utility.yul\":2899:2902   */\n      dup3\n        /* \"#utility.yul\":2892:2928   */\n      mstore\n        /* \"#utility.yul\":2819:2934   */\n      pop\n      pop\n      jump\t// out\n        /* \"#utility.yul\":2940:3264   */\n    tag_36:\n        /* \"#utility.yul\":3057:3061   */\n      0x00\n        /* \"#utility.yul\":3095:3097   */\n      0x40\n        /* \"#utility.yul\":3084:3093   */\n      dup3\n        /* \"#utility.yul\":3080:3098   */\n      add\n        /* \"#utility.yul\":3072:3098   */\n      swap1\n      pop\n        /* \"#utility.yul\":3108:3177   */\n      tag_224\n        /* \"#utility.yul\":3174:3175   */\n      0x00\n        /* \"#utility.yul\":3163:3172   */\n      dup4\n        /* \"#utility.yul\":3159:3176   */\n      add\n        /* \"#utility.yul\":3150:3156   */\n      dup6\n        /* \"#utility.yul\":3108:3177   */\n      tag_170\n      jump\t// in\n    tag_224:\n        /* \"#utility.yul\":3187:3257   */\n      tag_225\n        /* \"#utility.yul\":3253:3255   */\n      0x20\n        /* \"#utility.yul\":3242:3251   */\n      dup4\n        /* \"#utility.yul\":3238:3256   */\n      add\n        /* \"#utility.yul\":3229:3235   */\n      dup5\n        /* \"#utility.yul\":3187:3257   */\n      tag_170\n      jump\t// in\n    tag_225:\n        /* \"#utility.yul\":2940:3264   */\n      swap4\n      swap3\n      pop\n      pop\n      pop\n      jump\t// out\n        /* \"#utility.yul\":3270:3388   */\n    tag_171:\n        /* \"#utility.yul\":3362:3363   */\n      0x03\n        /* \"#utility.yul\":3355:3360   */\n      dup2\n        /* \"#utility.yul\":3352:3364   */\n      lt\n        /* \"#utility.yul\":3342:3382   */\n      tag_227\n      jumpi\n        /* \"#utility.yul\":3378:3379   */\n      0x00\n        /* \"#utility.yul\":3375:3376   */\n      dup1\n        /* \"#utility.yul\":3368:3380   */\n      revert\n        /* \"#utility.yul\":3342:3382   */\n    tag_227:\n        /* \"#utility.yul\":3270:3388   */\n      pop\n      jump\t// out\n        /* \"#utility.yul\":3394:3571   */\n    tag_172:\n        /* \"#utility.yul\":3459:3464   */\n      0x00\n        /* \"#utility.yul\":3497:3503   */\n      dup2\n        /* \"#utility.yul\":3484:3504   */\n      calldataload\n        /* \"#utility.yul\":3475:3504   */\n      swap1\n      pop\n        /* \"#utility.yul\":3513:3565   */\n      tag_229\n        /* \"#utility.yul\":3559:3564   */\n      dup2\n        /* \"#utility.yul\":3513:3565   */\n      tag_171\n      jump\t// in\n    tag_229:\n        /* \"#utility.yul\":3394:3571   */\n      swap3\n      swap2\n      pop\n      pop\n      jump\t// out\n        /* \"#utility.yul\":3577:4089   */\n    tag_42:\n        /* \"#utility.yul\":3664:3670   */\n      0x00\n        /* \"#utility.yul\":3672:3678   */\n      dup1\n        /* \"#utility.yul\":3721:3723   */\n      0x40\n        /* \"#utility.yul\":3709:3718   */\n      dup4\n        /* \"#utility.yul\":3700:3707   */\n      dup6\n        /* \"#utility.yul\":3696:3719   */\n      sub\n        /* \"#utility.yul\":3692:3724   */\n      slt\n        /* \"#utility.yul\":3689:3808   */\n      iszero\n      tag_231\n      jumpi\n        /* \"#utility.yul\":3727:3806   */\n      tag_232\n      tag_157\n      jump\t// in\n    tag_232:\n        /* \"#utility.yul\":3689:3808   */\n    tag_231:\n        /* \"#utility.yul\":3847:3848   */\n      0x00\n        /* \"#utility.yul\":3872:3925   */\n      tag_233\n        /* \"#utility.yul\":3917:3924   */\n      dup6\n        /* \"#utility.yul\":3908:3914   */\n      dup3\n        /* \"#utility.yul\":3897:3906   */\n      dup7\n        /* \"#utility.yul\":3893:3915   */\n      add\n        /* \"#utility.yul\":3872:3925   */\n      tag_167\n      jump\t// in\n    tag_233:\n        /* \"#utility.yul\":3862:3925   */\n      swap3\n      pop\n        /* \"#utility.yul\":3818:3935   */\n      pop\n        /* \"#utility.yul\":3974:3976   */\n      0x20\n        /* \"#utility.yul\":4000:4072   */\n      tag_234\n        /* \"#utility.yul\":4064:4071   */\n      dup6\n        /* \"#utility.yul\":4055:4061   */\n      dup3\n        /* \"#utility.yul\":4044:4053   */\n      dup7\n        /* \"#utility.yul\":4040:4062   */\n      add\n        /* \"#utility.yul\":4000:4072   */\n      tag_172\n      jump\t// in\n    tag_234:\n        /* \"#utility.yul\":3990:4072   */\n      swap2\n      pop\n        /* \"#utility.yul\":3945:4082   */\n      pop\n        /* \"#utility.yul\":3577:4089   */\n      swap3\n      pop\n      swap3\n      swap1\n      pop\n      jump\t// out\n        /* \"#utility.yul\":4095:4275   */\n    tag_65:\n        /* \"#utility.yul\":4143:4220   */\n      0x4e487b7100000000000000000000000000000000000000000000000000000000\n        /* \"#utility.yul\":4140:4141   */\n      0x00\n        /* \"#utility.yul\":4133:4221   */\n      mstore\n        /* \"#utility.yul\":4240:4244   */\n      0x21\n        /* \"#utility.yul\":4237:4238   */\n      0x04\n        /* \"#utility.yul\":4230:4245   */\n      mstore\n        /* \"#utility.yul\":4264:4268   */\n      0x24\n        /* \"#utility.yul\":4261:4262   */\n      0x00\n        /* \"#utility.yul\":4254:4269   */\n      revert\n        /* \"#utility.yul\":4281:4405   */\n    tag_173:\n        /* \"#utility.yul\":4373:4374   */\n      0x03\n        /* \"#utility.yul\":4366:4371   */\n      dup2\n        /* \"#utility.yul\":4363:4375   */\n      lt\n        /* \"#utility.yul\":4353:4399   */\n      tag_237\n      jumpi\n        /* \"#utility.yul\":4379:4397   */\n      tag_238\n      tag_65\n      jump\t// in\n    tag_238:\n        /* \"#utility.yul\":4353:4399   */\n    tag_237:\n        /* \"#utility.yul\":4281:4405   */\n      pop\n      jump\t// out\n        /* \"#utility.yul\":4411:4560   */\n    tag_174:\n        /* \"#utility.yul\":4467:4474   */\n      0x00\n        /* \"#utility.yul\":4496:4501   */\n      dup2\n        /* \"#utility.yul\":4485:4501   */\n      swap1\n      pop\n        /* \"#utility.yul\":4502:4554   */\n      tag_240\n        /* \"#utility.yul\":4548:4553   */\n      dup3\n        /* \"#utility.yul\":4502:4554   */\n      tag_173\n      jump\t// in\n    tag_240:\n        /* \"#utility.yul\":4411:4560   */\n      swap2\n      swap1\n      pop\n      jump\t// out\n        /* \"#utility.yul\":4566:4715   */\n    tag_175:\n        /* \"#utility.yul\":4633:4642   */\n      0x00\n        /* \"#utility.yul\":4666:4709   */\n      tag_242\n        /* \"#utility.yul\":4703:4708   */\n      dup3\n        /* \"#utility.yul\":4666:4709   */\n      tag_174\n      jump\t// in\n    tag_242:\n        /* \"#utility.yul\":4653:4709   */\n      swap1\n      pop\n        /* \"#utility.yul\":4566:4715   */\n      swap2\n      swap1\n      pop\n      jump\t// out\n        /* \"#utility.yul\":4721:4886   */\n    tag_176:\n        /* \"#utility.yul\":4825:4879   */\n      tag_244\n        /* \"#utility.yul\":4873:4878   */\n      dup2\n        /* \"#utility.yul\":4825:4879   */\n      tag_175\n      jump\t// in\n    tag_244:\n        /* \"#utility.yul\":4820:4823   */\n      dup3\n        /* \"#utility.yul\":4813:4880   */\n      mstore\n        /* \"#utility.yul\":4721:4886   */\n      pop\n      pop\n      jump\t// out\n        /* \"#utility.yul\":4892:5360   */\n    tag_48:\n        /* \"#utility.yul\":5054:5058   */\n      0x00\n        /* \"#utility.yul\":5092:5094   */\n      0x60\n        /* \"#utility.yul\":5081:5090   */\n      dup3\n        /* \"#utility.yul\":5077:5095   */\n      add\n        /* \"#utility.yul\":5069:5095   */\n      swap1\n      pop\n        /* \"#utility.yul\":5105:5174   */\n      tag_246\n        /* \"#utility.yul\":5171:5172   */\n      0x00\n        /* \"#utility.yul\":5160:5169   */\n      dup4\n        /* \"#utility.yul\":5156:5173   */\n      add\n        /* \"#utility.yul\":5147:5153   */\n      dup7\n        /* \"#utility.yul\":5105:5174   */\n      tag_170\n      jump\t// in\n    tag_246:\n        /* \"#utility.yul\":5184:5254   */\n      tag_247\n        /* \"#utility.yul\":5250:5252   */\n      0x20\n        /* \"#utility.yul\":5239:5248   */\n      dup4\n        /* \"#utility.yul\":5235:5253   */\n      add\n        /* \"#utility.yul\":5226:5232   */\n      dup6\n        /* \"#utility.yul\":5184:5254   */\n      tag_170\n      jump\t// in\n    tag_247:\n        /* \"#utility.yul\":5264:5353   */\n      tag_248\n        /* \"#utility.yul\":5349:5351   */\n      0x40\n        /* \"#utility.yul\":5338:5347   */\n      dup4\n        /* \"#utility.yul\":5334:5352   */\n      add\n        /* \"#utility.yul\":5325:5331   */\n      dup5\n        /* \"#utility.yul\":5264:5353   */\n      tag_176\n      jump\t// in\n    tag_248:\n        /* \"#utility.yul\":4892:5360   */\n      swap5\n      swap4\n      pop\n      pop\n      pop\n      pop\n      jump\t// out\n        /* \"#utility.yul\":5366:5535   */\n    tag_177:\n        /* \"#utility.yul\":5450:5461   */\n      0x00\n        /* \"#utility.yul\":5484:5490   */\n      dup3\n        /* \"#utility.yul\":5479:5482   */\n      dup3\n        /* \"#utility.yul\":5472:5491   */\n      mstore\n        /* \"#utility.yul\":5524:5528   */\n      0x20\n        /* \"#utility.yul\":5519:5522   */\n      dup3\n        /* \"#utility.yul\":5515:5529   */\n      add\n        /* \"#utility.yul\":5500:5529   */\n      swap1\n      pop\n        /* \"#utility.yul\":5366:5535   */\n      swap3\n      swap2\n      pop\n      pop\n      jump\t// out\n        /* \"#utility.yul\":5541:5769   */\n    tag_178:\n        /* \"#utility.yul\":5681:5715   */\n      0x4f776e61626c6532537465703a2063616c6c6572206973206e6f742074686520\n        /* \"#utility.yul\":5677:5678   */\n      0x00\n        /* \"#utility.yul\":5669:5675   */\n      dup3\n        /* \"#utility.yul\":5665:5679   */\n      add\n        /* \"#utility.yul\":5658:5716   */\n      mstore\n        /* \"#utility.yul\":5750:5761   */\n      0x6e6577206f776e65720000000000000000000000000000000000000000000000\n        /* \"#utility.yul\":5745:5747   */\n      0x20\n        /* \"#utility.yul\":5737:5743   */\n      dup3\n        /* \"#utility.yul\":5733:5748   */\n      add\n        /* \"#utility.yul\":5726:5762   */\n      mstore\n        /* \"#utility.yul\":5541:5769   */\n      pop\n      jump\t// out\n        /* \"#utility.yul\":5775:6141   */\n    tag_179:\n        /* \"#utility.yul\":5917:5920   */\n      0x00\n        /* \"#utility.yul\":5938:6005   */\n      tag_252\n        /* \"#utility.yul\":6002:6004   */\n      0x29\n        /* \"#utility.yul\":5997:6000   */\n      dup4\n        /* \"#utility.yul\":5938:6005   */\n      tag_177\n      jump\t// in\n    tag_252:\n        /* \"#utility.yul\":5931:6005   */\n      swap2\n      pop\n        /* \"#utility.yul\":6014:6107   */\n      tag_253\n        /* \"#utility.yul\":6103:6106   */\n      dup3\n        /* \"#utility.yul\":6014:6107   */\n      tag_178\n      jump\t// in\n    tag_253:\n        /* \"#utility.yul\":6132:6134   */\n      0x40\n        /* \"#utility.yul\":6127:6130   */\n      dup3\n        /* \"#utility.yul\":6123:6135   */\n      add\n        /* \"#utility.yul\":6116:6135   */\n      swap1\n      pop\n        /* \"#utility.yul\":5775:6141   */\n      swap2\n      swap1\n      pop\n      jump\t// out\n        /* \"#utility.yul\":6147:6566   */\n    tag_81:\n        /* \"#utility.yul\":6313:6317   */\n      0x00\n        /* \"#utility.yul\":6351:6353   */\n      0x20\n        /* \"#utility.yul\":6340:6349   */\n      dup3\n        /* \"#utility.yul\":6336:6354   */\n      add\n        /* \"#utility.yul\":6328:6354   */\n      swap1\n      pop\n        /* \"#utility.yul\":6400:6409   */\n      dup2\n        /* \"#utility.yul\":6394:6398   */\n      dup2\n        /* \"#utility.yul\":6390:6410   */\n      sub\n        /* \"#utility.yul\":6386:6387   */\n      0x00\n        /* \"#utility.yul\":6375:6384   */\n      dup4\n        /* \"#utility.yul\":6371:6388   */\n      add\n        /* \"#utility.yul\":6364:6411   */\n      mstore\n        /* \"#utility.yul\":6428:6559   */\n      tag_255\n        /* \"#utility.yul\":6554:6558   */\n      dup2\n        /* \"#utility.yul\":6428:6559   */\n      tag_179\n      jump\t// in\n    tag_255:\n        /* \"#utility.yul\":6420:6559   */\n      swap1\n      pop\n        /* \"#utility.yul\":6147:6566   */\n      swap2\n      swap1\n      pop\n      jump\t// out\n        /* \"#utility.yul\":6572:6687   */\n    tag_180:\n        /* \"#utility.yul\":6657:6680   */\n      tag_257\n        /* \"#utility.yul\":6674:6679   */\n      dup2\n        /* \"#utility.yul\":6657:6680   */\n      tag_159\n      jump\t// in\n    tag_257:\n        /* \"#utility.yul\":6652:6655   */\n      dup3\n        /* \"#utility.yul\":6645:6681   */\n      mstore\n        /* \"#utility.yul\":6572:6687   */\n      pop\n      pop\n      jump\t// out\n        /* \"#utility.yul\":6693:6911   */\n    tag_105:\n        /* \"#utility.yul\":6784:6788   */\n      0x00\n        /* \"#utility.yul\":6822:6824   */\n      0x20\n        /* \"#utility.yul\":6811:6820   */\n      dup3\n        /* \"#utility.yul\":6807:6825   */\n      add\n        /* \"#utility.yul\":6799:6825   */\n      swap1\n      pop\n        /* \"#utility.yul\":6835:6904   */\n      tag_259\n        /* \"#utility.yul\":6901:6902   */\n      0x00\n        /* \"#utility.yul\":6890:6899   */\n      dup4\n        /* \"#utility.yul\":6886:6903   */\n      add\n        /* \"#utility.yul\":6877:6883   */\n      dup5\n        /* \"#utility.yul\":6835:6904   */\n      tag_180\n      jump\t// in\n    tag_259:\n        /* \"#utility.yul\":6693:6911   */\n      swap3\n      swap2\n      pop\n      pop\n      jump\t// out\n        /* \"#utility.yul\":6917:7033   */\n    tag_181:\n        /* \"#utility.yul\":6987:7008   */\n      tag_261\n        /* \"#utility.yul\":7002:7007   */\n      dup2\n        /* \"#utility.yul\":6987:7008   */\n      tag_162\n      jump\t// in\n    tag_261:\n        /* \"#utility.yul\":6980:6985   */\n      dup2\n        /* \"#utility.yul\":6977:7009   */\n      eq\n        /* \"#utility.yul\":6967:7027   */\n      tag_262\n      jumpi\n        /* \"#utility.yul\":7023:7024   */\n      0x00\n        /* \"#utility.yul\":7020:7021   */\n      dup1\n        /* \"#utility.yul\":7013:7025   */\n      revert\n        /* \"#utility.yul\":6967:7027   */\n    tag_262:\n        /* \"#utility.yul\":6917:7033   */\n      pop\n      jump\t// out\n        /* \"#utility.yul\":7039:7176   */\n    tag_182:\n        /* \"#utility.yul\":7093:7098   */\n      0x00\n        /* \"#utility.yul\":7124:7130   */\n      dup2\n        /* \"#utility.yul\":7118:7131   */\n      mload\n        /* \"#utility.yul\":7109:7131   */\n      swap1\n      pop\n        /* \"#utility.yul\":7140:7170   */\n      tag_264\n        /* \"#utility.yul\":7164:7169   */\n      dup2\n        /* \"#utility.yul\":7140:7170   */\n      tag_181\n      jump\t// in\n    tag_264:\n        /* \"#utility.yul\":7039:7176   */\n      swap3\n      swap2\n      pop\n      pop\n      jump\t// out\n        /* \"#utility.yul\":7182:7527   */\n    tag_109:\n        /* \"#utility.yul\":7249:7255   */\n      0x00\n        /* \"#utility.yul\":7298:7300   */\n      0x20\n        /* \"#utility.yul\":7286:7295   */\n      dup3\n        /* \"#utility.yul\":7277:7284   */\n      dup5\n        /* \"#utility.yul\":7273:7296   */\n      sub\n        /* \"#utility.yul\":7269:7301   */\n      slt\n        /* \"#utility.yul\":7266:7385   */\n      iszero\n      tag_266\n      jumpi\n        /* \"#utility.yul\":7304:7383   */\n      tag_267\n      tag_157\n      jump\t// in\n    tag_267:\n        /* \"#utility.yul\":7266:7385   */\n    tag_266:\n        /* \"#utility.yul\":7424:7425   */\n      0x00\n        /* \"#utility.yul\":7449:7510   */\n      tag_268\n        /* \"#utility.yul\":7502:7509   */\n      dup5\n        /* \"#utility.yul\":7493:7499   */\n      dup3\n        /* \"#utility.yul\":7482:7491   */\n      dup6\n        /* \"#utility.yul\":7478:7500   */\n      add\n        /* \"#utility.yul\":7449:7510   */\n      tag_182\n      jump\t// in\n    tag_268:\n        /* \"#utility.yul\":7439:7510   */\n      swap2\n      pop\n        /* \"#utility.yul\":7395:7520   */\n      pop\n        /* \"#utility.yul\":7182:7527   */\n      swap3\n      swap2\n      pop\n      pop\n      jump\t// out\n        /* \"#utility.yul\":7533:7861   */\n    tag_112:\n        /* \"#utility.yul\":7652:7656   */\n      0x00\n        /* \"#utility.yul\":7690:7692   */\n      0x40\n        /* \"#utility.yul\":7679:7688   */\n      dup3\n        /* \"#utility.yul\":7675:7693   */\n      add\n        /* \"#utility.yul\":7667:7693   */\n      swap1\n      pop\n        /* \"#utility.yul\":7703:7774   */\n      tag_270\n        /* \"#utility.yul\":7771:7772   */\n      0x00\n        /* \"#utility.yul\":7760:7769   */\n      dup4\n        /* \"#utility.yul\":7756:7773   */\n      add\n        /* \"#utility.yul\":7747:7753   */\n      dup6\n        /* \"#utility.yul\":7703:7774   */\n      tag_168\n      jump\t// in\n    tag_270:\n        /* \"#utility.yul\":7784:7854   */\n      tag_271\n        /* \"#utility.yul\":7850:7852   */\n      0x20\n        /* \"#utility.yul\":7839:7848   */\n      dup4\n        /* \"#utility.yul\":7835:7853   */\n      add\n        /* \"#utility.yul\":7826:7832   */\n      dup5\n        /* \"#utility.yul\":7784:7854   */\n      tag_180\n      jump\t// in\n    tag_271:\n        /* \"#utility.yul\":7533:7861   */\n      swap4\n      swap3\n      pop\n      pop\n      pop\n      jump\t// out\n        /* \"#utility.yul\":7867:8049   */\n    tag_183:\n        /* \"#utility.yul\":8007:8041   */\n      0x4f776e61626c653a2063616c6c6572206973206e6f7420746865206f776e6572\n        /* \"#utility.yul\":8003:8004   */\n      0x00\n        /* \"#utility.yul\":7995:8001   */\n      dup3\n        /* \"#utility.yul\":7991:8005   */\n      add\n        /* \"#utility.yul\":7984:8042   */\n      mstore\n        /* \"#utility.yul\":7867:8049   */\n      pop\n      jump\t// out\n        /* \"#utility.yul\":8055:8421   */\n    tag_184:\n        /* \"#utility.yul\":8197:8200   */\n      0x00\n        /* \"#utility.yul\":8218:8285   */\n      tag_274\n        /* \"#utility.yul\":8282:8284   */\n      0x20\n        /* \"#utility.yul\":8277:8280   */\n      dup4\n        /* \"#utility.yul\":8218:8285   */\n      tag_177\n      jump\t// in\n    tag_274:\n        /* \"#utility.yul\":8211:8285   */\n      swap2\n      pop\n        /* \"#utility.yul\":8294:8387   */\n      tag_275\n        /* \"#utility.yul\":8383:8386   */\n      dup3\n        /* \"#utility.yul\":8294:8387   */\n      tag_183\n      jump\t// in\n    tag_275:\n        /* \"#utility.yul\":8412:8414   */\n      0x20\n        /* \"#utility.yul\":8407:8410   */\n      dup3\n        /* \"#utility.yul\":8403:8415   */\n      add\n        /* \"#utility.yul\":8396:8415   */\n      swap1\n      pop\n        /* \"#utility.yul\":8055:8421   */\n      swap2\n      swap1\n      pop\n      jump\t// out\n        /* \"#utility.yul\":8427:8846   */\n    tag_150:\n        /* \"#utility.yul\":8593:8597   */\n      0x00\n        /* \"#utility.yul\":8631:8633   */\n      0x20\n        /* \"#utility.yul\":8620:8629   */\n      dup3\n        /* \"#utility.yul\":8616:8634   */\n      add\n        /* \"#utility.yul\":8608:8634   */\n      swap1\n      pop\n        /* \"#utility.yul\":8680:8689   */\n      dup2\n        /* \"#utility.yul\":8674:8678   */\n      dup2\n        /* \"#utility.yul\":8670:8690   */\n      sub\n        /* \"#utility.yul\":8666:8667   */\n      0x00\n        /* \"#utility.yul\":8655:8664   */\n      dup4\n        /* \"#utility.yul\":8651:8668   */\n      add\n        /* \"#utility.yul\":8644:8691   */\n      mstore\n        /* \"#utility.yul\":8708:8839   */\n      tag_277\n        /* \"#utility.yul\":8834:8838   */\n      dup2\n        /* \"#utility.yul\":8708:8839   */\n      tag_184\n      jump\t// in\n    tag_277:\n        /* \"#utility.yul\":8700:8839   */\n      swap1\n      pop\n        /* \"#utility.yul\":8427:8846   */\n      swap2\n      swap1\n      pop\n      jump\t// out\n\n    auxdata: 0xa26469706673582212207901167a7fa6ad54526b57ae410849c97af8730f4ebdafb679037c2e171165ea64736f6c63430008140033\n}\n",
				"bytecode": {
					"linkReferences": {},
					"object": "60806040523480156200001157600080fd5b5060405162001701380380620017018339818101604052810190620000379190620001de565b620000576200004b6200006f60201b60201c565b6200007760201b60201c565b62000068816200007760201b60201c565b5062000210565b600033905090565b600160006101000a81549073ffffffffffffffffffffffffffffffffffffffff0219169055620000ad81620000b060201b60201c565b50565b60008060009054906101000a900473ffffffffffffffffffffffffffffffffffffffff169050816000806101000a81548173ffffffffffffffffffffffffffffffffffffffff021916908373ffffffffffffffffffffffffffffffffffffffff1602179055508173ffffffffffffffffffffffffffffffffffffffff168173ffffffffffffffffffffffffffffffffffffffff167f8be0079c531659141344cd1fd0a4f28419497f9722a3daafe3b4186f6b6457e060405160405180910390a35050565b600080fd5b600073ffffffffffffffffffffffffffffffffffffffff82169050919050565b6000620001a68262000179565b9050919050565b620001b88162000199565b8114620001c457600080fd5b50565b600081519050620001d881620001ad565b92915050565b600060208284031215620001f757620001f662000174565b5b60006200020784828501620001c7565b91505092915050565b6114e180620002206000396000f3fe608060405234801561001057600080fd5b506004361061009e5760003560e01c8063c23697a811610066578063c23697a814610121578063e30c397814610152578063e71d097b14610170578063e8828ea31461018c578063f2fde38b146101be5761009e565b806301ffc9a7146100a3578063715018a6146100d357806377e41fe9146100dd57806379ba5097146100f95780638da5cb5b14610103575b600080fd5b6100bd60048036038101906100b89190611079565b6101da565b6040516100ca91906110c1565b60405180910390f35b6100db6102ac565b005b6100f760048036038101906100f2919061113a565b6102c0565b005b610101610583565b005b61010b610610565b6040516101189190611176565b60405180910390f35b61013b6004803603810190610136919061113a565b610639565b6040516101499291906111b4565b60405180910390f35b61015a61073d565b6040516101679190611176565b60405180910390f35b61018a60048036038101906101859190611202565b610767565b005b6101a660048036038101906101a1919061113a565b610d95565b6040516101b5939291906112b9565b60405180910390f35b6101d860048036038101906101d3919061113a565b610df4565b005b60007fc23697a8000000000000000000000000000000000000000000000000000000007bffffffffffffffffffffffffffffffffffffffffffffffffffffffff1916827bffffffffffffffffffffffffffffffffffffffffffffffffffffffff191614806102a557507f01ffc9a7000000000000000000000000000000000000000000000000000000007bffffffffffffffffffffffffffffffffffffffffffffffffffffffff1916827bffffffffffffffffffffffffffffffffffffffffffffffffffffffff1916145b9050919050565b6102b4610ea1565b6102be6000610f1f565b565b6102c8610ea1565b6000600260008373ffffffffffffffffffffffffffffffffffffffff1673ffffffffffffffffffffffffffffffffffffffff1681526020019081526020016000206040518060600160405290816000820160009054906101000a900467ffffffffffffffff1667ffffffffffffffff1667ffffffffffffffff1681526020016000820160089054906101000a900467ffffffffffffffff1667ffffffffffffffff1667ffffffffffffffff1681526020016000820160109054906101000a900460ff16600281111561039d5761039c611242565b5b60028111156103af576103ae611242565b5b8152505090506000816000015167ffffffffffffffff1614806103e157506000816020015167ffffffffffffffff1614155b1561042357816040517f3bee038a00000000000000000000000000000000000000000000000000000000815260040161041a9190611176565b60405180910390fd5b6040518060600160405280826000015167ffffffffffffffff1681526020014267ffffffffffffffff1681526020018260400151600281111561046957610468611242565b5b815250600260008473ffffffffffffffffffffffffffffffffffffffff1673ffffffffffffffffffffffffffffffffffffffff16815260200190815260200160002060008201518160000160006101000a81548167ffffffffffffffff021916908367ffffffffffffffff16021790555060208201518160000160086101000a81548167ffffffffffffffff021916908367ffffffffffffffff16021790555060408201518160000160106101000a81548160ff0219169083600281111561053457610533611242565b5b02179055509050508173ffffffffffffffffffffffffffffffffffffffff167f7e4b225e43d112f7188b3064745a2e7988701d3816dee2b4613507ffaff6b30260405160405180910390a25050565b600061058d610f50565b90508073ffffffffffffffffffffffffffffffffffffffff166105ae61073d565b73ffffffffffffffffffffffffffffffffffffffff1614610604576040517f08c379a00000000000000000000000000000000000000000000000000000000081526004016105fb90611373565b60405180910390fd5b61060d81610f1f565b50565b60008060009054906101000a900473ffffffffffffffffffffffffffffffffffffffff16905090565b6000806000600260008573ffffffffffffffffffffffffffffffffffffffff1673ffffffffffffffffffffffffffffffffffffffff1681526020019081526020016000206040518060600160405290816000820160009054906101000a900467ffffffffffffffff1667ffffffffffffffff1667ffffffffffffffff1681526020016000820160089054906101000a900467ffffffffffffffff1667ffffffffffffffff1667ffffffffffffffff1681526020016000820160109054906101000a900460ff16600281111561071157610710611242565b5b600281111561072357610722611242565b5b815250509050806000015192508060200151915050915091565b6000600160009054906101000a900473ffffffffffffffffffffffffffffffffffffffff16905090565b61076f610ea1565b6000600260008473ffffffffffffffffffffffffffffffffffffffff1673ffffffffffffffffffffffffffffffffffffffff1681526020019081526020016000206040518060600160405290816000820160009054906101000a900467ffffffffffffffff1667ffffffffffffffff1667ffffffffffffffff1681526020016000820160089054906101000a900467ffffffffffffffff1667ffffffffffffffff1667ffffffffffffffff1681526020016000820160109054906101000a900460ff16600281111561084457610843611242565b5b600281111561085657610855611242565b5b8152505090506000816000015167ffffffffffffffff16146108af57826040517f1bc90bc60000000000000000000000000000000000000000000000000000000081526004016108a69190611176565b60405180910390fd5b600160028111156108c3576108c2611242565b5b8260028111156108d6576108d5611242565b5b14801561097a57508273ffffffffffffffffffffffffffffffffffffffff166301ffc9a77f907e1c56000000000000000000000000000000000000000000000000000000006040518263ffffffff1660e01b815260040161093791906113a2565b602060405180830381865afa158015610954573d6000803e3d6000fd5b505050506040513d601f19601f8201168201806040525081019061097891906113e9565b155b156109de57827f907e1c56000000000000000000000000000000000000000000000000000000006040517fbe98cdba0000000000000000000000000000000000000000000000000000000081526004016109d5929190611416565b60405180910390fd5b600060028111156109f2576109f1611242565b5b826002811115610a0557610a04611242565b5b148015610aa957508273ffffffffffffffffffffffffffffffffffffffff166301ffc9a77f3fce835e000000000000000000000000000000000000000000000000000000006040518263ffffffff1660e01b8152600401610a6691906113a2565b602060405180830381865afa158015610a83573d6000803e3d6000fd5b505050506040513d601f19601f82011682018060405250810190610aa791906113e9565b155b15610b0d57827f3fce835e000000000000000000000000000000000000000000000000000000006040517fbe98cdba000000000000000000000000000000000000000000000000000000008152600401610b04929190611416565b60405180910390fd5b600280811115610b2057610b1f611242565b5b826002811115610b3357610b32611242565b5b148015610bd757508273ffffffffffffffffffffffffffffffffffffffff166301ffc9a77ff601ad15000000000000000000000000000000000000000000000000000000006040518263ffffffff1660e01b8152600401610b9491906113a2565b602060405180830381865afa158015610bb1573d6000803e3d6000fd5b505050506040513d601f19601f82011682018060405250810190610bd591906113e9565b155b15610c3b57827ff601ad15000000000000000000000000000000000000000000000000000000006040517fbe98cdba000000000000000000000000000000000000000000000000000000008152600401610c32929190611416565b60405180910390fd5b60405180606001604052804267ffffffffffffffff168152602001600067ffffffffffffffff168152602001836002811115610c7a57610c79611242565b5b815250600260008573ffffffffffffffffffffffffffffffffffffffff1673ffffffffffffffffffffffffffffffffffffffff16815260200190815260200160002060008201518160000160006101000a81548167ffffffffffffffff021916908367ffffffffffffffff16021790555060208201518160000160086101000a81548167ffffffffffffffff021916908367ffffffffffffffff16021790555060408201518160000160106101000a81548160ff02191690836002811115610d4557610d44611242565b5b02179055509050508273ffffffffffffffffffffffffffffffffffffffff167f94c109d6a0f9d39b37ec79aa4e627154250f2c29adaf10079a79e29e95fefd6260405160405180910390a2505050565b60026020528060005260406000206000915090508060000160009054906101000a900467ffffffffffffffff16908060000160089054906101000a900467ffffffffffffffff16908060000160109054906101000a900460ff16905083565b610dfc610ea1565b80600160006101000a81548173ffffffffffffffffffffffffffffffffffffffff021916908373ffffffffffffffffffffffffffffffffffffffff1602179055508073ffffffffffffffffffffffffffffffffffffffff16610e5c610610565b73ffffffffffffffffffffffffffffffffffffffff167f38d16b8cac22d99fc7c124b9cd0de2d3fa1faef420bfe791d8c362d765e2270060405160405180910390a350565b610ea9610f50565b73ffffffffffffffffffffffffffffffffffffffff16610ec7610610565b73ffffffffffffffffffffffffffffffffffffffff1614610f1d576040517f08c379a0000000000000000000000000000000000000000000000000000000008152600401610f149061148b565b60405180910390fd5b565b600160006101000a81549073ffffffffffffffffffffffffffffffffffffffff0219169055610f4d81610f58565b50565b600033905090565b60008060009054906101000a900473ffffffffffffffffffffffffffffffffffffffff169050816000806101000a81548173ffffffffffffffffffffffffffffffffffffffff021916908373ffffffffffffffffffffffffffffffffffffffff1602179055508173ffffffffffffffffffffffffffffffffffffffff168173ffffffffffffffffffffffffffffffffffffffff167f8be0079c531659141344cd1fd0a4f28419497f9722a3daafe3b4186f6b6457e060405160405180910390a35050565b600080fd5b60007fffffffff0000000000000000000000000000000000000000000000000000000082169050919050565b61105681611021565b811461106157600080fd5b50565b6000813590506110738161104d565b92915050565b60006020828403121561108f5761108e61101c565b5b600061109d84828501611064565b91505092915050565b60008115159050919050565b6110bb816110a6565b82525050565b60006020820190506110d660008301846110b2565b92915050565b600073ffffffffffffffffffffffffffffffffffffffff82169050919050565b6000611107826110dc565b9050919050565b611117816110fc565b811461112257600080fd5b50565b6000813590506111348161110e565b92915050565b6000602082840312156111505761114f61101c565b5b600061115e84828501611125565b91505092915050565b611170816110fc565b82525050565b600060208201905061118b6000830184611167565b92915050565b600067ffffffffffffffff82169050919050565b6111ae81611191565b82525050565b60006040820190506111c960008301856111a5565b6111d660208301846111a5565b9392505050565b600381106111ea57600080fd5b50565b6000813590506111fc816111dd565b92915050565b600080604083850312156112195761121861101c565b5b600061122785828601611125565b9250506020611238858286016111ed565b9150509250929050565b7f4e487b7100000000000000000000000000000000000000000000000000000000600052602160045260246000fd5b6003811061128257611281611242565b5b50565b600081905061129382611271565b919050565b60006112a382611285565b9050919050565b6112b381611298565b82525050565b60006060820190506112ce60008301866111a5565b6112db60208301856111a5565b6112e860408301846112aa565b949350505050565b600082825260208201905092915050565b7f4f776e61626c6532537465703a2063616c6c6572206973206e6f74207468652060008201527f6e6577206f776e65720000000000000000000000000000000000000000000000602082015250565b600061135d6029836112f0565b915061136882611301565b604082019050919050565b6000602082019050818103600083015261138c81611350565b9050919050565b61139c81611021565b82525050565b60006020820190506113b76000830184611393565b92915050565b6113c6816110a6565b81146113d157600080fd5b50565b6000815190506113e3816113bd565b92915050565b6000602082840312156113ff576113fe61101c565b5b600061140d848285016113d4565b91505092915050565b600060408201905061142b6000830185611167565b6114386020830184611393565b9392505050565b7f4f776e61626c653a2063616c6c6572206973206e6f7420746865206f776e6572600082015250565b60006114756020836112f0565b91506114808261143f565b602082019050919050565b600060208201905081810360008301526114a481611468565b905091905056fea26469706673582212207901167a7fa6ad54526b57ae410849c97af8730f4ebdafb679037c2e171165ea64736f6c63430008140033",
					"opcodes": "PUSH1 0x80 PUSH1 0x40 MSTORE CALLVALUE DUP1 ISZERO PUSH3 0x11 JUMPI PUSH1 0x0 DUP1 REVERT JUMPDEST POP PUSH1 0x40 MLOAD PUSH3 0x1701 CODESIZE SUB DUP1 PUSH3 0x1701 DUP4 CODECOPY DUP2 DUP2 ADD PUSH1 0x40 MSTORE DUP2 ADD SWAP1 PUSH3 0x37 SWAP2 SWAP1 PUSH3 0x1DE JUMP JUMPDEST PUSH3 0x57 PUSH3 0x4B PUSH3 0x6F PUSH1 0x20 SHL PUSH1 0x20 SHR JUMP JUMPDEST PUSH3 0x77 PUSH1 0x20 SHL PUSH1 0x20 SHR JUMP JUMPDEST PUSH3 0x68 DUP2 PUSH3 0x77 PUSH1 0x20 SHL PUSH1 0x20 SHR JUMP JUMPDEST POP PUSH3 0x210 JUMP JUMPDEST PUSH1 0x0 CALLER SWAP1 POP SWAP1 JUMP JUMPDEST PUSH1 0x1 PUSH1 0x0 PUSH2 0x100 EXP DUP2 SLOAD SWAP1 PUSH20 0xFFFFFFFFFFFFFFFFFFFFFFFFFFFFFFFFFFFFFFFF MUL NOT AND SWAP1 SSTORE PUSH3 0xAD DUP2 PUSH3 0xB0 PUSH1 0x20 SHL PUSH1 0x20 SHR JUMP JUMPDEST POP JUMP JUMPDEST PUSH1 0x0 DUP1 PUSH1 0x0 SWAP1 SLOAD SWAP1 PUSH2 0x100 EXP SWAP1 DIV PUSH20 0xFFFFFFFFFFFFFFFFFFFFFFFFFFFFFFFFFFFFFFFF AND SWAP1 POP DUP2 PUSH1 0x0 DUP1 PUSH2 0x100 EXP DUP2 SLOAD DUP2 PUSH20 0xFFFFFFFFFFFFFFFFFFFFFFFFFFFFFFFFFFFFFFFF MUL NOT AND SWAP1 DUP4 PUSH20 0xFFFFFFFFFFFFFFFFFFFFFFFFFFFFFFFFFFFFFFFF AND MUL OR SWAP1 SSTORE POP DUP2 PUSH20 0xFFFFFFFFFFFFFFFFFFFFFFFFFFFFFFFFFFFFFFFF AND DUP2 PUSH20 0xFFFFFFFFFFFFFFFFFFFFFFFFFFFFFFFFFFFFFFFF AND PUSH32 0x8BE0079C531659141344CD1FD0A4F28419497F9722A3DAAFE3B4186F6B6457E0 PUSH1 0x40 MLOAD PUSH1 0x40 MLOAD DUP1 SWAP2 SUB SWAP1 LOG3 POP POP JUMP JUMPDEST PUSH1 0x0 DUP1 REVERT JUMPDEST PUSH1 0x0 PUSH20 0xFFFFFFFFFFFFFFFFFFFFFFFFFFFFFFFFFFFFFFFF DUP3 AND SWAP1 POP SWAP2 SWAP1 POP JUMP JUMPDEST PUSH1 0x0 PUSH3 0x1A6 DUP3 PUSH3 0x179 JUMP JUMPDEST SWAP1 POP SWAP2 SWAP1 POP JUMP JUMPDEST PUSH3 0x1B8 DUP2 PUSH3 0x199 JUMP JUMPDEST DUP2 EQ PUSH3 0x1C4 JUMPI PUSH1 0x0 DUP1 REVERT JUMPDEST POP JUMP JUMPDEST PUSH1 0x0 DUP2 MLOAD SWAP1 POP PUSH3 0x1D8 DUP2 PUSH3 0x1AD JUMP JUMPDEST SWAP3 SWAP2 POP POP JUMP JUMPDEST PUSH1 0x0 PUSH1 0x20 DUP3 DUP5 SUB SLT ISZERO PUSH3 0x1F7 JUMPI PUSH3 0x1F6 PUSH3 0x174 JUMP JUMPDEST JUMPDEST PUSH1 0x0 PUSH3 0x207 DUP5 DUP3 DUP6 ADD PUSH3 0x1C7 JUMP JUMPDEST SWAP2 POP POP SWAP3 SWAP2 POP POP JUMP JUMPDEST PUSH2 0x14E1 DUP1 PUSH3 0x220 PUSH1 0x0 CODECOPY PUSH1 0x0 RETURN INVALID PUSH1 0x80 PUSH1 0x40 MSTORE CALLVALUE DUP1 ISZERO PUSH2 0x10 JUMPI PUSH1 0x0 DUP1 REVERT JUMPDEST POP PUSH1 0x4 CALLDATASIZE LT PUSH2 0x9E JUMPI PUSH1 0x0 CALLDATALOAD PUSH1 0xE0 SHR DUP1 PUSH4 0xC23697A8 GT PUSH2 0x66 JUMPI DUP1 PUSH4 0xC23697A8 EQ PUSH2 0x121 JUMPI DUP1 PUSH4 0xE30C3978 EQ PUSH2 0x152 JUMPI DUP1 PUSH4 0xE71D097B EQ PUSH2 0x170 JUMPI DUP1 PUSH4 0xE8828EA3 EQ PUSH2 0x18C JUMPI DUP1 PUSH4 0xF2FDE38B EQ PUSH2 0x1BE JUMPI PUSH2 0x9E JUMP JUMPDEST DUP1 PUSH4 0x1FFC9A7 EQ PUSH2 0xA3 JUMPI DUP1 PUSH4 0x715018A6 EQ PUSH2 0xD3 JUMPI DUP1 PUSH4 0x77E41FE9 EQ PUSH2 0xDD JUMPI DUP1 PUSH4 0x79BA5097 EQ PUSH2 0xF9 JUMPI DUP1 PUSH4 0x8DA5CB5B EQ PUSH2 0x103 JUMPI JUMPDEST PUSH1 0x0 DUP1 REVERT JUMPDEST PUSH2 0xBD PUSH1 0x4 DUP1 CALLDATASIZE SUB DUP2 ADD SWAP1 PUSH2 0xB8 SWAP2 SWAP1 PUSH2 0x1079 JUMP JUMPDEST PUSH2 0x1DA JUMP JUMPDEST PUSH1 0x40 MLOAD PUSH2 0xCA SWAP2 SWAP1 PUSH2 0x10C1 JUMP JUMPDEST PUSH1 0x40 MLOAD DUP1 SWAP2 SUB SWAP1 RETURN JUMPDEST PUSH2 0xDB PUSH2 0x2AC JUMP JUMPDEST STOP JUMPDEST PUSH2 0xF7 PUSH1 0x4 DUP1 CALLDATASIZE SUB DUP2 ADD SWAP1 PUSH2 0xF2 SWAP2 SWAP1 PUSH2 0x113A JUMP JUMPDEST PUSH2 0x2C0 JUMP JUMPDEST STOP JUMPDEST PUSH2 0x101 PUSH2 0x583 JUMP JUMPDEST STOP JUMPDEST PUSH2 0x10B PUSH2 0x610 JUMP JUMPDEST PUSH1 0x40 MLOAD PUSH2 0x118 SWAP2 SWAP1 PUSH2 0x1176 JUMP JUMPDEST PUSH1 0x40 MLOAD DUP1 SWAP2 SUB SWAP1 RETURN JUMPDEST PUSH2 0x13B PUSH1 0x4 DUP1 CALLDATASIZE SUB DUP2 ADD SWAP1 PUSH2 0x136 SWAP2 SWAP1 PUSH2 0x113A JUMP JUMPDEST PUSH2 0x639 JUMP JUMPDEST PUSH1 0x40 MLOAD PUSH2 0x149 SWAP3 SWAP2 SWAP1 PUSH2 0x11B4 JUMP JUMPDEST PUSH1 0x40 MLOAD DUP1 SWAP2 SUB SWAP1 RETURN JUMPDEST PUSH2 0x15A PUSH2 0x73D JUMP JUMPDEST PUSH1 0x40 MLOAD PUSH2 0x167 SWAP2 SWAP1 PUSH2 0x1176 JUMP JUMPDEST PUSH1 0x40 MLOAD DUP1 SWAP2 SUB SWAP1 RETURN JUMPDEST PUSH2 0x18A PUSH1 0x4 DUP1 CALLDATASIZE SUB DUP2 ADD SWAP1 PUSH2 0x185 SWAP2 SWAP1 PUSH2 0x1202 JUMP JUMPDEST PUSH2 0x767 JUMP JUMPDEST STOP JUMPDEST PUSH2 0x1A6 PUSH1 0x4 DUP1 CALLDATASIZE SUB DUP2 ADD SWAP1 PUSH2 0x1A1 SWAP2 SWAP1 PUSH2 0x113A JUMP JUMPDEST PUSH2 0xD95 JUMP JUMPDEST PUSH1 0x40 MLOAD PUSH2 0x1B5 SWAP4 SWAP3 SWAP2 SWAP1 PUSH2 0x12B9 JUMP JUMPDEST PUSH1 0x40 MLOAD DUP1 SWAP2 SUB SWAP1 RETURN JUMPDEST PUSH2 0x1D8 PUSH1 0x4 DUP1 CALLDATASIZE SUB DUP2 ADD SWAP1 PUSH2 0x1D3 SWAP2 SWAP1 PUSH2 0x113A JUMP JUMPDEST PUSH2 0xDF4 JUMP JUMPDEST STOP JUMPDEST PUSH1 0x0 PUSH32 0xC23697A800000000000000000000000000000000000000000000000000000000 PUSH28 0xFFFFFFFFFFFFFFFFFFFFFFFFFFFFFFFFFFFFFFFFFFFFFFFFFFFFFFFF NOT AND DUP3 PUSH28 0xFFFFFFFFFFFFFFFFFFFFFFFFFFFFFFFFFFFFFFFFFFFFFFFFFFFFFFFF NOT AND EQ DUP1 PUSH2 0x2A5 JUMPI POP PUSH32 0x1FFC9A700000000000000000000000000000000000000000000000000000000 PUSH28 0xFFFFFFFFFFFFFFFFFFFFFFFFFFFFFFFFFFFFFFFFFFFFFFFFFFFFFFFF NOT AND DUP3 PUSH28 0xFFFFFFFFFFFFFFFFFFFFFFFFFFFFFFFFFFFFFFFFFFFFFFFFFFFFFFFF NOT AND EQ JUMPDEST SWAP1 POP SWAP2 SWAP1 POP JUMP JUMPDEST PUSH2 0x2B4 PUSH2 0xEA1 JUMP JUMPDEST PUSH2 0x2BE PUSH1 0x0 PUSH2 0xF1F JUMP JUMPDEST JUMP JUMPDEST PUSH2 0x2C8 PUSH2 0xEA1 JUMP JUMPDEST PUSH1 0x0 PUSH1 0x2 PUSH1 0x0 DUP4 PUSH20 0xFFFFFFFFFFFFFFFFFFFFFFFFFFFFFFFFFFFFFFFF AND PUSH20 0xFFFFFFFFFFFFFFFFFFFFFFFFFFFFFFFFFFFFFFFF AND DUP2 MSTORE PUSH1 0x20 ADD SWAP1 DUP2 MSTORE PUSH1 0x20 ADD PUSH1 0x0 KECCAK256 PUSH1 0x40 MLOAD DUP1 PUSH1 0x60 ADD PUSH1 0x40 MSTORE SWAP1 DUP2 PUSH1 0x0 DUP3 ADD PUSH1 0x0 SWAP1 SLOAD SWAP1 PUSH2 0x100 EXP SWAP1 DIV PUSH8 0xFFFFFFFFFFFFFFFF AND PUSH8 0xFFFFFFFFFFFFFFFF AND PUSH8 0xFFFFFFFFFFFFFFFF AND DUP2 MSTORE PUSH1 0x20 ADD PUSH1 0x0 DUP3 ADD PUSH1 0x8 SWAP1 SLOAD SWAP1 PUSH2 0x100 EXP SWAP1 DIV PUSH8 0xFFFFFFFFFFFFFFFF AND PUSH8 0xFFFFFFFFFFFFFFFF AND PUSH8 0xFFFFFFFFFFFFFFFF AND DUP2 MSTORE PUSH1 0x20 ADD PUSH1 0x0 DUP3 ADD PUSH1 0x10 SWAP1 SLOAD SWAP1 PUSH2 0x100 EXP SWAP1 DIV PUSH1 0xFF AND PUSH1 0x2 DUP2 GT ISZERO PUSH2 0x39D JUMPI PUSH2 0x39C PUSH2 0x1242 JUMP JUMPDEST JUMPDEST PUSH1 0x2 DUP2 GT ISZERO PUSH2 0x3AF JUMPI PUSH2 0x3AE PUSH2 0x1242 JUMP JUMPDEST JUMPDEST DUP2 MSTORE POP POP SWAP1 POP PUSH1 0x0 DUP2 PUSH1 0x0 ADD MLOAD PUSH8 0xFFFFFFFFFFFFFFFF AND EQ DUP1 PUSH2 0x3E1 JUMPI POP PUSH1 0x0 DUP2 PUSH1 0x20 ADD MLOAD PUSH8 0xFFFFFFFFFFFFFFFF AND EQ ISZERO JUMPDEST ISZERO PUSH2 0x423 JUMPI DUP2 PUSH1 0x40 MLOAD PUSH32 0x3BEE038A00000000000000000000000000000000000000000000000000000000 DUP2 MSTORE PUSH1 0x4 ADD PUSH2 0x41A SWAP2 SWAP1 PUSH2 0x1176 JUMP JUMPDEST PUSH1 0x40 MLOAD DUP1 SWAP2 SUB SWAP1 REVERT JUMPDEST PUSH1 0x40 MLOAD DUP1 PUSH1 0x60 ADD PUSH1 0x40 MSTORE DUP1 DUP3 PUSH1 0x0 ADD MLOAD PUSH8 0xFFFFFFFFFFFFFFFF AND DUP2 MSTORE PUSH1 0x20 ADD TIMESTAMP PUSH8 0xFFFFFFFFFFFFFFFF AND DUP2 MSTORE PUSH1 0x20 ADD DUP3 PUSH1 0x40 ADD MLOAD PUSH1 0x2 DUP2 GT ISZERO PUSH2 0x469 JUMPI PUSH2 0x468 PUSH2 0x1242 JUMP JUMPDEST JUMPDEST DUP2 MSTORE POP PUSH1 0x2 PUSH1 0x0 DUP5 PUSH20 0xFFFFFFFFFFFFFFFFFFFFFFFFFFFFFFFFFFFFFFFF AND PUSH20 0xFFFFFFFFFFFFFFFFFFFFFFFFFFFFFFFFFFFFFFFF AND DUP2 MSTORE PUSH1 0x20 ADD SWAP1 DUP2 MSTORE PUSH1 0x20 ADD PUSH1 0x0 KECCAK256 PUSH1 0x0 DUP3 ADD MLOAD DUP2 PUSH1 0x0 ADD PUSH1 0x0 PUSH2 0x100 EXP DUP2 SLOAD DUP2 PUSH8 0xFFFFFFFFFFFFFFFF MUL NOT AND SWAP1 DUP4 PUSH8 0xFFFFFFFFFFFFFFFF AND MUL OR SWAP1 SSTORE POP PUSH1 0x20 DUP3 ADD MLOAD DUP2 PUSH1 0x0 ADD PUSH1 0x8 PUSH2 0x100 EXP DUP2 SLOAD DUP2 PUSH8 0xFFFFFFFFFFFFFFFF MUL NOT AND SWAP1 DUP4 PUSH8 0xFFFFFFFFFFFFFFFF AND MUL OR SWAP1 SSTORE POP PUSH1 0x40 DUP3 ADD MLOAD DUP2 PUSH1 0x0 ADD PUSH1 0x10 PUSH2 0x100 EXP DUP2 SLOAD DUP2 PUSH1 0xFF MUL NOT AND SWAP1 DUP4 PUSH1 0x2 DUP2 GT ISZERO PUSH2 0x534 JUMPI PUSH2 0x533 PUSH2 0x1242 JUMP JUMPDEST JUMPDEST MUL OR SWAP1 SSTORE POP SWAP1 POP POP DUP2 PUSH20 0xFFFFFFFFFFFFFFFFFFFFFFFFFFFFFFFFFFFFFFFF AND PUSH32 0x7E4B225E43D112F7188B3064745A2E7988701D3816DEE2B4613507FFAFF6B302 PUSH1 0x40 MLOAD PUSH1 0x40 MLOAD DUP1 SWAP2 SUB SWAP1 LOG2 POP POP JUMP JUMPDEST PUSH1 0x0 PUSH2 0x58D PUSH2 0xF50 JUMP JUMPDEST SWAP1 POP DUP1 PUSH20 0xFFFFFFFFFFFFFFFFFFFFFFFFFFFFFFFFFFFFFFFF AND PUSH2 0x5AE PUSH2 0x73D JUMP JUMPDEST PUSH20 0xFFFFFFFFFFFFFFFFFFFFFFFFFFFFFFFFFFFFFFFF AND EQ PUSH2 0x604 JUMPI PUSH1 0x40 MLOAD PUSH32 0x8C379A000000000000000000000000000000000000000000000000000000000 DUP2 MSTORE PUSH1 0x4 ADD PUSH2 0x5FB SWAP1 PUSH2 0x1373 JUMP JUMPDEST PUSH1 0x40 MLOAD DUP1 SWAP2 SUB SWAP1 REVERT JUMPDEST PUSH2 0x60D DUP2 PUSH2 0xF1F JUMP JUMPDEST POP JUMP JUMPDEST PUSH1 0x0 DUP1 PUSH1 0x0 SWAP1 SLOAD SWAP1 PUSH2 0x100 EXP SWAP1 DIV PUSH20 0xFFFFFFFFFFFFFFFFFFFFFFFFFFFFFFFFFFFFFFFF AND SWAP1 POP SWAP1 JUMP JUMPDEST PUSH1 0x0 DUP1 PUSH1 0x0 PUSH1 0x2 PUSH1 0x0 DUP6 PUSH20 0xFFFFFFFFFFFFFFFFFFFFFFFFFFFFFFFFFFFFFFFF AND PUSH20 0xFFFFFFFFFFFFFFFFFFFFFFFFFFFFFFFFFFFFFFFF AND DUP2 MSTORE PUSH1 0x20 ADD SWAP1 DUP2 MSTORE PUSH1 0x20 ADD PUSH1 0x0 KECCAK256 PUSH1 0x40 MLOAD DUP1 PUSH1 0x60 ADD PUSH1 0x40 MSTORE SWAP1 DUP2 PUSH1 0x0 DUP3 ADD PUSH1 0x0 SWAP1 SLOAD SWAP1 PUSH2 0x100 EXP SWAP1 DIV PUSH8 0xFFFFFFFFFFFFFFFF AND PUSH8 0xFFFFFFFFFFFFFFFF AND PUSH8 0xFFFFFFFFFFFFFFFF AND DUP2 MSTORE PUSH1 0x20 ADD PUSH1 0x0 DUP3 ADD PUSH1 0x8 SWAP1 SLOAD SWAP1 PUSH2 0x100 EXP SWAP1 DIV PUSH8 0xFFFFFFFFFFFFFFFF AND PUSH8 0xFFFFFFFFFFFFFFFF AND PUSH8 0xFFFFFFFFFFFFFFFF AND DUP2 MSTORE PUSH1 0x20 ADD PUSH1 0x0 DUP3 ADD PUSH1 0x10 SWAP1 SLOAD SWAP1 PUSH2 0x100 EXP SWAP1 DIV PUSH1 0xFF AND PUSH1 0x2 DUP2 GT ISZERO PUSH2 0x711 JUMPI PUSH2 0x710 PUSH2 0x1242 JUMP JUMPDEST JUMPDEST PUSH1 0x2 DUP2 GT ISZERO PUSH2 0x723 JUMPI PUSH2 0x722 PUSH2 0x1242 JUMP JUMPDEST JUMPDEST DUP2 MSTORE POP POP SWAP1 POP DUP1 PUSH1 0x0 ADD MLOAD SWAP3 POP DUP1 PUSH1 0x20 ADD MLOAD SWAP2 POP POP SWAP2 POP SWAP2 JUMP JUMPDEST PUSH1 0x0 PUSH1 0x1 PUSH1 0x0 SWAP1 SLOAD SWAP1 PUSH2 0x100 EXP SWAP1 DIV PUSH20 0xFFFFFFFFFFFFFFFFFFFFFFFFFFFFFFFFFFFFFFFF AND SWAP1 POP SWAP1 JUMP JUMPDEST PUSH2 0x76F PUSH2 0xEA1 JUMP JUMPDEST PUSH1 0x0 PUSH1 0x2 PUSH1 0x0 DUP5 PUSH20 0xFFFFFFFFFFFFFFFFFFFFFFFFFFFFFFFFFFFFFFFF AND PUSH20 0xFFFFFFFFFFFFFFFFFFFFFFFFFFFFFFFFFFFFFFFF AND DUP2 MSTORE PUSH1 0x20 ADD SWAP1 DUP2 MSTORE PUSH1 0x20 ADD PUSH1 0x0 KECCAK256 PUSH1 0x40 MLOAD DUP1 PUSH1 0x60 ADD PUSH1 0x40 MSTORE SWAP1 DUP2 PUSH1 0x0 DUP3 ADD PUSH1 0x0 SWAP1 SLOAD SWAP1 PUSH2 0x100 EXP SWAP1 DIV PUSH8 0xFFFFFFFFFFFFFFFF AND PUSH8 0xFFFFFFFFFFFFFFFF AND PUSH8 0xFFFFFFFFFFFFFFFF AND DUP2 MSTORE PUSH1 0x20 ADD PUSH1 0x0 DUP3 ADD PUSH1 0x8 SWAP1 SLOAD SWAP1 PUSH2 0x100 EXP SWAP1 DIV PUSH8 0xFFFFFFFFFFFFFFFF AND PUSH8 0xFFFFFFFFFFFFFFFF AND PUSH8 0xFFFFFFFFFFFFFFFF AND DUP2 MSTORE PUSH1 0x20 ADD PUSH1 0x0 DUP3 ADD PUSH1 0x10 SWAP1 SLOAD SWAP1 PUSH2 0x100 EXP SWAP1 DIV PUSH1 0xFF AND PUSH1 0x2 DUP2 GT ISZERO PUSH2 0x844 JUMPI PUSH2 0x843 PUSH2 0x1242 JUMP JUMPDEST JUMPDEST PUSH1 0x2 DUP2 GT ISZERO PUSH2 0x856 JUMPI PUSH2 0x855 PUSH2 0x1242 JUMP JUMPDEST JUMPDEST DUP2 MSTORE POP POP SWAP1 POP PUSH1 0x0 DUP2 PUSH1 0x0 ADD MLOAD PUSH8 0xFFFFFFFFFFFFFFFF AND EQ PUSH2 0x8AF JUMPI DUP3 PUSH1 0x40 MLOAD PUSH32 0x1BC90BC600000000000000000000000000000000000000000000000000000000 DUP2 MSTORE PUSH1 0x4 ADD PUSH2 0x8A6 SWAP2 SWAP1 PUSH2 0x1176 JUMP JUMPDEST PUSH1 0x40 MLOAD DUP1 SWAP2 SUB SWAP1 REVERT JUMPDEST PUSH1 0x1 PUSH1 0x2 DUP2 GT ISZERO PUSH2 0x8C3 JUMPI PUSH2 0x8C2 PUSH2 0x1242 JUMP JUMPDEST JUMPDEST DUP3 PUSH1 0x2 DUP2 GT ISZERO PUSH2 0x8D6 JUMPI PUSH2 0x8D5 PUSH2 0x1242 JUMP JUMPDEST JUMPDEST EQ DUP1 ISZERO PUSH2 0x97A JUMPI POP DUP3 PUSH20 0xFFFFFFFFFFFFFFFFFFFFFFFFFFFFFFFFFFFFFFFF AND PUSH4 0x1FFC9A7 PUSH32 0x907E1C5600000000000000000000000000000000000000000000000000000000 PUSH1 0x40 MLOAD DUP3 PUSH4 0xFFFFFFFF AND PUSH1 0xE0 SHL DUP2 MSTORE PUSH1 0x4 ADD PUSH2 0x937 SWAP2 SWAP1 PUSH2 0x13A2 JUMP JUMPDEST PUSH1 0x20 PUSH1 0x40 MLOAD DUP1 DUP4 SUB DUP2 DUP7 GAS STATICCALL ISZERO DUP1 ISZERO PUSH2 0x954 JUMPI RETURNDATASIZE PUSH1 0x0 DUP1 RETURNDATACOPY RETURNDATASIZE PUSH1 0x0 REVERT JUMPDEST POP POP POP POP PUSH1 0x40 MLOAD RETURNDATASIZE PUSH1 0x1F NOT PUSH1 0x1F DUP3 ADD AND DUP3 ADD DUP1 PUSH1 0x40 MSTORE POP DUP2 ADD SWAP1 PUSH2 0x978 SWAP2 SWAP1 PUSH2 0x13E9 JUMP JUMPDEST ISZERO JUMPDEST ISZERO PUSH2 0x9DE JUMPI DUP3 PUSH32 0x907E1C5600000000000000000000000000000000000000000000000000000000 PUSH1 0x40 MLOAD PUSH32 0xBE98CDBA00000000000000000000000000000000000000000000000000000000 DUP2 MSTORE PUSH1 0x4 ADD PUSH2 0x9D5 SWAP3 SWAP2 SWAP1 PUSH2 0x1416 JUMP JUMPDEST PUSH1 0x40 MLOAD DUP1 SWAP2 SUB SWAP1 REVERT JUMPDEST PUSH1 0x0 PUSH1 0x2 DUP2 GT ISZERO PUSH2 0x9F2 JUMPI PUSH2 0x9F1 PUSH2 0x1242 JUMP JUMPDEST JUMPDEST DUP3 PUSH1 0x2 DUP2 GT ISZERO PUSH2 0xA05 JUMPI PUSH2 0xA04 PUSH2 0x1242 JUMP JUMPDEST JUMPDEST EQ DUP1 ISZERO PUSH2 0xAA9 JUMPI POP DUP3 PUSH20 0xFFFFFFFFFFFFFFFFFFFFFFFFFFFFFFFFFFFFFFFF AND PUSH4 0x1FFC9A7 PUSH32 0x3FCE835E00000000000000000000000000000000000000000000000000000000 PUSH1 0x40 MLOAD DUP3 PUSH4 0xFFFFFFFF AND PUSH1 0xE0 SHL DUP2 MSTORE PUSH1 0x4 ADD PUSH2 0xA66 SWAP2 SWAP1 PUSH2 0x13A2 JUMP JUMPDEST PUSH1 0x20 PUSH1 0x40 MLOAD DUP1 DUP4 SUB DUP2 DUP7 GAS STATICCALL ISZERO DUP1 ISZERO PUSH2 0xA83 JUMPI RETURNDATASIZE PUSH1 0x0 DUP1 RETURNDATACOPY RETURNDATASIZE PUSH1 0x0 REVERT JUMPDEST POP POP POP POP PUSH1 0x40 MLOAD RETURNDATASIZE PUSH1 0x1F NOT PUSH1 0x1F DUP3 ADD AND DUP3 ADD DUP1 PUSH1 0x40 MSTORE POP DUP2 ADD SWAP1 PUSH2 0xAA7 SWAP2 SWAP1 PUSH2 0x13E9 JUMP JUMPDEST ISZERO JUMPDEST ISZERO PUSH2 0xB0D JUMPI DUP3 PUSH32 0x3FCE835E00000000000000000000000000000000000000000000000000000000 PUSH1 0x40 MLOAD PUSH32 0xBE98CDBA00000000000000000000000000000000000000000000000000000000 DUP2 MSTORE PUSH1 0x4 ADD PUSH2 0xB04 SWAP3 SWAP2 SWAP1 PUSH2 0x1416 JUMP JUMPDEST PUSH1 0x40 MLOAD DUP1 SWAP2 SUB SWAP1 REVERT JUMPDEST PUSH1 0x2 DUP1 DUP2 GT ISZERO PUSH2 0xB20 JUMPI PUSH2 0xB1F PUSH2 0x1242 JUMP JUMPDEST JUMPDEST DUP3 PUSH1 0x2 DUP2 GT ISZERO PUSH2 0xB33 JUMPI PUSH2 0xB32 PUSH2 0x1242 JUMP JUMPDEST JUMPDEST EQ DUP1 ISZERO PUSH2 0xBD7 JUMPI POP DUP3 PUSH20 0xFFFFFFFFFFFFFFFFFFFFFFFFFFFFFFFFFFFFFFFF AND PUSH4 0x1FFC9A7 PUSH32 0xF601AD1500000000000000000000000000000000000000000000000000000000 PUSH1 0x40 MLOAD DUP3 PUSH4 0xFFFFFFFF AND PUSH1 0xE0 SHL DUP2 MSTORE PUSH1 0x4 ADD PUSH2 0xB94 SWAP2 SWAP1 PUSH2 0x13A2 JUMP JUMPDEST PUSH1 0x20 PUSH1 0x40 MLOAD DUP1 DUP4 SUB DUP2 DUP7 GAS STATICCALL ISZERO DUP1 ISZERO PUSH2 0xBB1 JUMPI RETURNDATASIZE PUSH1 0x0 DUP1 RETURNDATACOPY RETURNDATASIZE PUSH1 0x0 REVERT JUMPDEST POP POP POP POP PUSH1 0x40 MLOAD RETURNDATASIZE PUSH1 0x1F NOT PUSH1 0x1F DUP3 ADD AND DUP3 ADD DUP1 PUSH1 0x40 MSTORE POP DUP2 ADD SWAP1 PUSH2 0xBD5 SWAP2 SWAP1 PUSH2 0x13E9 JUMP JUMPDEST ISZERO JUMPDEST ISZERO PUSH2 0xC3B JUMPI DUP3 PUSH32 0xF601AD1500000000000000000000000000000000000000000000000000000000 PUSH1 0x40 MLOAD PUSH32 0xBE98CDBA00000000000000000000000000000000000000000000000000000000 DUP2 MSTORE PUSH1 0x4 ADD PUSH2 0xC32 SWAP3 SWAP2 SWAP1 PUSH2 0x1416 JUMP JUMPDEST PUSH1 0x40 MLOAD DUP1 SWAP2 SUB SWAP1 REVERT JUMPDEST PUSH1 0x40 MLOAD DUP1 PUSH1 0x60 ADD PUSH1 0x40 MSTORE DUP1 TIMESTAMP PUSH8 0xFFFFFFFFFFFFFFFF AND DUP2 MSTORE PUSH1 0x20 ADD PUSH1 0x0 PUSH8 0xFFFFFFFFFFFFFFFF AND DUP2 MSTORE PUSH1 0x20 ADD DUP4 PUSH1 0x2 DUP2 GT ISZERO PUSH2 0xC7A JUMPI PUSH2 0xC79 PUSH2 0x1242 JUMP JUMPDEST JUMPDEST DUP2 MSTORE POP PUSH1 0x2 PUSH1 0x0 DUP6 PUSH20 0xFFFFFFFFFFFFFFFFFFFFFFFFFFFFFFFFFFFFFFFF AND PUSH20 0xFFFFFFFFFFFFFFFFFFFFFFFFFFFFFFFFFFFFFFFF AND DUP2 MSTORE PUSH1 0x20 ADD SWAP1 DUP2 MSTORE PUSH1 0x20 ADD PUSH1 0x0 KECCAK256 PUSH1 0x0 DUP3 ADD MLOAD DUP2 PUSH1 0x0 ADD PUSH1 0x0 PUSH2 0x100 EXP DUP2 SLOAD DUP2 PUSH8 0xFFFFFFFFFFFFFFFF MUL NOT AND SWAP1 DUP4 PUSH8 0xFFFFFFFFFFFFFFFF AND MUL OR SWAP1 SSTORE POP PUSH1 0x20 DUP3 ADD MLOAD DUP2 PUSH1 0x0 ADD PUSH1 0x8 PUSH2 0x100 EXP DUP2 SLOAD DUP2 PUSH8 0xFFFFFFFFFFFFFFFF MUL NOT AND SWAP1 DUP4 PUSH8 0xFFFFFFFFFFFFFFFF AND MUL OR SWAP1 SSTORE POP PUSH1 0x40 DUP3 ADD MLOAD DUP2 PUSH1 0x0 ADD PUSH1 0x10 PUSH2 0x100 EXP DUP2 SLOAD DUP2 PUSH1 0xFF MUL NOT AND SWAP1 DUP4 PUSH1 0x2 DUP2 GT ISZERO PUSH2 0xD45 JUMPI PUSH2 0xD44 PUSH2 0x1242 JUMP JUMPDEST JUMPDEST MUL OR SWAP1 SSTORE POP SWAP1 POP POP DUP3 PUSH20 0xFFFFFFFFFFFFFFFFFFFFFFFFFFFFFFFFFFFFFFFF AND PUSH32 0x94C109D6A0F9D39B37EC79AA4E627154250F2C29ADAF10079A79E29E95FEFD62 PUSH1 0x40 MLOAD PUSH1 0x40 MLOAD DUP1 SWAP2 SUB SWAP1 LOG2 POP POP POP JUMP JUMPDEST PUSH1 0x2 PUSH1 0x20 MSTORE DUP1 PUSH1 0x0 MSTORE PUSH1 0x40 PUSH1 0x0 KECCAK256 PUSH1 0x0 SWAP2 POP SWAP1 POP DUP1 PUSH1 0x0 ADD PUSH1 0x0 SWAP1 SLOAD SWAP1 PUSH2 0x100 EXP SWAP1 DIV PUSH8 0xFFFFFFFFFFFFFFFF AND SWAP1 DUP1 PUSH1 0x0 ADD PUSH1 0x8 SWAP1 SLOAD SWAP1 PUSH2 0x100 EXP SWAP1 DIV PUSH8 0xFFFFFFFFFFFFFFFF AND SWAP1 DUP1 PUSH1 0x0 ADD PUSH1 0x10 SWAP1 SLOAD SWAP1 PUSH2 0x100 EXP SWAP1 DIV PUSH1 0xFF AND SWAP1 POP DUP4 JUMP JUMPDEST PUSH2 0xDFC PUSH2 0xEA1 JUMP JUMPDEST DUP1 PUSH1 0x1 PUSH1 0x0 PUSH2 0x100 EXP DUP2 SLOAD DUP2 PUSH20 0xFFFFFFFFFFFFFFFFFFFFFFFFFFFFFFFFFFFFFFFF MUL NOT AND SWAP1 DUP4 PUSH20 0xFFFFFFFFFFFFFFFFFFFFFFFFFFFFFFFFFFFFFFFF AND MUL OR SWAP1 SSTORE POP DUP1 PUSH20 0xFFFFFFFFFFFFFFFFFFFFFFFFFFFFFFFFFFFFFFFF AND PUSH2 0xE5C PUSH2 0x610 JUMP JUMPDEST PUSH20 0xFFFFFFFFFFFFFFFFFFFFFFFFFFFFFFFFFFFFFFFF AND PUSH32 0x38D16B8CAC22D99FC7C124B9CD0DE2D3FA1FAEF420BFE791D8C362D765E22700 PUSH1 0x40 MLOAD PUSH1 0x40 MLOAD DUP1 SWAP2 SUB SWAP1 LOG3 POP JUMP JUMPDEST PUSH2 0xEA9 PUSH2 0xF50 JUMP JUMPDEST PUSH20 0xFFFFFFFFFFFFFFFFFFFFFFFFFFFFFFFFFFFFFFFF AND PUSH2 0xEC7 PUSH2 0x610 JUMP JUMPDEST PUSH20 0xFFFFFFFFFFFFFFFFFFFFFFFFFFFFFFFFFFFFFFFF AND EQ PUSH2 0xF1D JUMPI PUSH1 0x40 MLOAD PUSH32 0x8C379A000000000000000000000000000000000000000000000000000000000 DUP2 MSTORE PUSH1 0x4 ADD PUSH2 0xF14 SWAP1 PUSH2 0x148B JUMP JUMPDEST PUSH1 0x40 MLOAD DUP1 SWAP2 SUB SWAP1 REVERT JUMPDEST JUMP JUMPDEST PUSH1 0x1 PUSH1 0x0 PUSH2 0x100 EXP DUP2 SLOAD SWAP1 PUSH20 0xFFFFFFFFFFFFFFFFFFFFFFFFFFFFFFFFFFFFFFFF MUL NOT AND SWAP1 SSTORE PUSH2 0xF4D DUP2 PUSH2 0xF58 JUMP JUMPDEST POP JUMP JUMPDEST PUSH1 0x0 CALLER SWAP1 POP SWAP1 JUMP JUMPDEST PUSH1 0x0 DUP1 PUSH1 0x0 SWAP1 SLOAD SWAP1 PUSH2 0x100 EXP SWAP1 DIV PUSH20 0xFFFFFFFFFFFFFFFFFFFFFFFFFFFFFFFFFFFFFFFF AND SWAP1 POP DUP2 PUSH1 0x0 DUP1 PUSH2 0x100 EXP DUP2 SLOAD DUP2 PUSH20 0xFFFFFFFFFFFFFFFFFFFFFFFFFFFFFFFFFFFFFFFF MUL NOT AND SWAP1 DUP4 PUSH20 0xFFFFFFFFFFFFFFFFFFFFFFFFFFFFFFFFFFFFFFFF AND MUL OR SWAP1 SSTORE POP DUP2 PUSH20 0xFFFFFFFFFFFFFFFFFFFFFFFFFFFFFFFFFFFFFFFF AND DUP2 PUSH20 0xFFFFFFFFFFFFFFFFFFFFFFFFFFFFFFFFFFFFFFFF AND PUSH32 0x8BE0079C531659141344CD1FD0A4F28419497F9722A3DAAFE3B4186F6B6457E0 PUSH1 0x40 MLOAD PUSH1 0x40 MLOAD DUP1 SWAP2 SUB SWAP1 LOG3 POP POP JUMP JUMPDEST PUSH1 0x0 DUP1 REVERT JUMPDEST PUSH1 0x0 PUSH32 0xFFFFFFFF00000000000000000000000000000000000000000000000000000000 DUP3 AND SWAP1 POP SWAP2 SWAP1 POP JUMP JUMPDEST PUSH2 0x1056 DUP2 PUSH2 0x1021 JUMP JUMPDEST DUP2 EQ PUSH2 0x1061 JUMPI PUSH1 0x0 DUP1 REVERT JUMPDEST POP JUMP JUMPDEST PUSH1 0x0 DUP2 CALLDATALOAD SWAP1 POP PUSH2 0x1073 DUP2 PUSH2 0x104D JUMP JUMPDEST SWAP3 SWAP2 POP POP JUMP JUMPDEST PUSH1 0x0 PUSH1 0x20 DUP3 DUP5 SUB SLT ISZERO PUSH2 0x108F JUMPI PUSH2 0x108E PUSH2 0x101C JUMP JUMPDEST JUMPDEST PUSH1 0x0 PUSH2 0x109D DUP5 DUP3 DUP6 ADD PUSH2 0x1064 JUMP JUMPDEST SWAP2 POP POP SWAP3 SWAP2 POP POP JUMP JUMPDEST PUSH1 0x0 DUP2 ISZERO ISZERO SWAP1 POP SWAP2 SWAP1 POP JUMP JUMPDEST PUSH2 0x10BB DUP2 PUSH2 0x10A6 JUMP JUMPDEST DUP3 MSTORE POP POP JUMP JUMPDEST PUSH1 0x0 PUSH1 0x20 DUP3 ADD SWAP1 POP PUSH2 0x10D6 PUSH1 0x0 DUP4 ADD DUP5 PUSH2 0x10B2 JUMP JUMPDEST SWAP3 SWAP2 POP POP JUMP JUMPDEST PUSH1 0x0 PUSH20 0xFFFFFFFFFFFFFFFFFFFFFFFFFFFFFFFFFFFFFFFF DUP3 AND SWAP1 POP SWAP2 SWAP1 POP JUMP JUMPDEST PUSH1 0x0 PUSH2 0x1107 DUP3 PUSH2 0x10DC JUMP JUMPDEST SWAP1 POP SWAP2 SWAP1 POP JUMP JUMPDEST PUSH2 0x1117 DUP2 PUSH2 0x10FC JUMP JUMPDEST DUP2 EQ PUSH2 0x1122 JUMPI PUSH1 0x0 DUP1 REVERT JUMPDEST POP JUMP JUMPDEST PUSH1 0x0 DUP2 CALLDATALOAD SWAP1 POP PUSH2 0x1134 DUP2 PUSH2 0x110E JUMP JUMPDEST SWAP3 SWAP2 POP POP JUMP JUMPDEST PUSH1 0x0 PUSH1 0x20 DUP3 DUP5 SUB SLT ISZERO PUSH2 0x1150 JUMPI PUSH2 0x114F PUSH2 0x101C JUMP JUMPDEST JUMPDEST PUSH1 0x0 PUSH2 0x115E DUP5 DUP3 DUP6 ADD PUSH2 0x1125 JUMP JUMPDEST SWAP2 POP POP SWAP3 SWAP2 POP POP JUMP JUMPDEST PUSH2 0x1170 DUP2 PUSH2 0x10FC JUMP JUMPDEST DUP3 MSTORE POP POP JUMP JUMPDEST PUSH1 0x0 PUSH1 0x20 DUP3 ADD SWAP1 POP PUSH2 0x118B PUSH1 0x0 DUP4 ADD DUP5 PUSH2 0x1167 JUMP JUMPDEST SWAP3 SWAP2 POP POP JUMP JUMPDEST PUSH1 0x0 PUSH8 0xFFFFFFFFFFFFFFFF DUP3 AND SWAP1 POP SWAP2 SWAP1 POP JUMP JUMPDEST PUSH2 0x11AE DUP2 PUSH2 0x1191 JUMP JUMPDEST DUP3 MSTORE POP POP JUMP JUMPDEST PUSH1 0x0 PUSH1 0x40 DUP3 ADD SWAP1 POP PUSH2 0x11C9 PUSH1 0x0 DUP4 ADD DUP6 PUSH2 0x11A5 JUMP JUMPDEST PUSH2 0x11D6 PUSH1 0x20 DUP4 ADD DUP5 PUSH2 0x11A5 JUMP JUMPDEST SWAP4 SWAP3 POP POP POP JUMP JUMPDEST PUSH1 0x3 DUP2 LT PUSH2 0x11EA JUMPI PUSH1 0x0 DUP1 REVERT JUMPDEST POP JUMP JUMPDEST PUSH1 0x0 DUP2 CALLDATALOAD SWAP1 POP PUSH2 0x11FC DUP2 PUSH2 0x11DD JUMP JUMPDEST SWAP3 SWAP2 POP POP JUMP JUMPDEST PUSH1 0x0 DUP1 PUSH1 0x40 DUP4 DUP6 SUB SLT ISZERO PUSH2 0x1219 JUMPI PUSH2 0x1218 PUSH2 0x101C JUMP JUMPDEST JUMPDEST PUSH1 0x0 PUSH2 0x1227 DUP6 DUP3 DUP7 ADD PUSH2 0x1125 JUMP JUMPDEST SWAP3 POP POP PUSH1 0x20 PUSH2 0x1238 DUP6 DUP3 DUP7 ADD PUSH2 0x11ED JUMP JUMPDEST SWAP2 POP POP SWAP3 POP SWAP3 SWAP1 POP JUMP JUMPDEST PUSH32 0x4E487B7100000000000000000000000000000000000000000000000000000000 PUSH1 0x0 MSTORE PUSH1 0x21 PUSH1 0x4 MSTORE PUSH1 0x24 PUSH1 0x0 REVERT JUMPDEST PUSH1 0x3 DUP2 LT PUSH2 0x1282 JUMPI PUSH2 0x1281 PUSH2 0x1242 JUMP JUMPDEST JUMPDEST POP JUMP JUMPDEST PUSH1 0x0 DUP2 SWAP1 POP PUSH2 0x1293 DUP3 PUSH2 0x1271 JUMP JUMPDEST SWAP2 SWAP1 POP JUMP JUMPDEST PUSH1 0x0 PUSH2 0x12A3 DUP3 PUSH2 0x1285 JUMP JUMPDEST SWAP1 POP SWAP2 SWAP1 POP JUMP JUMPDEST PUSH2 0x12B3 DUP2 PUSH2 0x1298 JUMP JUMPDEST DUP3 MSTORE POP POP JUMP JUMPDEST PUSH1 0x0 PUSH1 0x60 DUP3 ADD SWAP1 POP PUSH2 0x12CE PUSH1 0x0 DUP4 ADD DUP7 PUSH2 0x11A5 JUMP JUMPDEST PUSH2 0x12DB PUSH1 0x20 DUP4 ADD DUP6 PUSH2 0x11A5 JUMP JUMPDEST PUSH2 0x12E8 PUSH1 0x40 DUP4 ADD DUP5 PUSH2 0x12AA JUMP JUMPDEST SWAP5 SWAP4 POP POP POP POP JUMP JUMPDEST PUSH1 0x0 DUP3 DUP3 MSTORE PUSH1 0x20 DUP3 ADD SWAP1 POP SWAP3 SWAP2 POP POP JUMP JUMPDEST PUSH32 0x4F776E61626C6532537465703A2063616C6C6572206973206E6F742074686520 PUSH1 0x0 DUP3 ADD MSTORE PUSH32 0x6E6577206F776E65720000000000000000000000000000000000000000000000 PUSH1 0x20 DUP3 ADD MSTORE POP JUMP JUMPDEST PUSH1 0x0 PUSH2 0x135D PUSH1 0x29 DUP4 PUSH2 0x12F0 JUMP JUMPDEST SWAP2 POP PUSH2 0x1368 DUP3 PUSH2 0x1301 JUMP JUMPDEST PUSH1 0x40 DUP3 ADD SWAP1 POP SWAP2 SWAP1 POP JUMP JUMPDEST PUSH1 0x0 PUSH1 0x20 DUP3 ADD SWAP1 POP DUP2 DUP2 SUB PUSH1 0x0 DUP4 ADD MSTORE PUSH2 0x138C DUP2 PUSH2 0x1350 JUMP JUMPDEST SWAP1 POP SWAP2 SWAP1 POP JUMP JUMPDEST PUSH2 0x139C DUP2 PUSH2 0x1021 JUMP JUMPDEST DUP3 MSTORE POP POP JUMP JUMPDEST PUSH1 0x0 PUSH1 0x20 DUP3 ADD SWAP1 POP PUSH2 0x13B7 PUSH1 0x0 DUP4 ADD DUP5 PUSH2 0x1393 JUMP JUMPDEST SWAP3 SWAP2 POP POP JUMP JUMPDEST PUSH2 0x13C6 DUP2 PUSH2 0x10A6 JUMP JUMPDEST DUP2 EQ PUSH2 0x13D1 JUMPI PUSH1 0x0 DUP1 REVERT JUMPDEST POP JUMP JUMPDEST PUSH1 0x0 DUP2 MLOAD SWAP1 POP PUSH2 0x13E3 DUP2 PUSH2 0x13BD JUMP JUMPDEST SWAP3 SWAP2 POP POP JUMP JUMPDEST PUSH1 0x0 PUSH1 0x20 DUP3 DUP5 SUB SLT ISZERO PUSH2 0x13FF JUMPI PUSH2 0x13FE PUSH2 0x101C JUMP JUMPDEST JUMPDEST PUSH1 0x0 PUSH2 0x140D DUP5 DUP3 DUP6 ADD PUSH2 0x13D4 JUMP JUMPDEST SWAP2 POP POP SWAP3 SWAP2 POP POP JUMP JUMPDEST PUSH1 0x0 PUSH1 0x40 DUP3 ADD SWAP1 POP PUSH2 0x142B PUSH1 0x0 DUP4 ADD DUP6 PUSH2 0x1167 JUMP JUMPDEST PUSH2 0x1438 PUSH1 0x20 DUP4 ADD DUP5 PUSH2 0x1393 JUMP JUMPDEST SWAP4 SWAP3 POP POP POP JUMP JUMPDEST PUSH32 0x4F776E61626C653A2063616C6C6572206973206E6F7420746865206F776E6572 PUSH1 0x0 DUP3 ADD MSTORE POP JUMP JUMPDEST PUSH1 0x0 PUSH2 0x1475 PUSH1 0x20 DUP4 PUSH2 0x12F0 JUMP JUMPDEST SWAP2 POP PUSH2 0x1480 DUP3 PUSH2 0x143F JUMP JUMPDEST PUSH1 0x20 DUP3 ADD SWAP1 POP SWAP2 SWAP1 POP JUMP JUMPDEST PUSH1 0x0 PUSH1 0x20 DUP3 ADD SWAP1 POP DUP2 DUP2 SUB PUSH1 0x0 DUP4 ADD MSTORE PUSH2 0x14A4 DUP2 PUSH2 0x1468 JUMP JUMPDEST SWAP1 POP SWAP2 SWAP1 POP JUMP INVALID LOG2 PUSH5 0x6970667358 0x22 SLT KECCAK256 PUSH26 0x1167A7FA6AD54526B57AE410849C97AF8730F4EBDAFB679037C 0x2E OR GT PUSH6 0xEA64736F6C63 NUMBER STOP ADDMOD EQ STOP CALLER "
				},
				"gasEstimates": {
					"creation": {
						"codeDepositCost": "1069000",
						"executionCost": "infinite",
						"totalCost": "infinite"
					},
					"external": {
						"acceptOwnership()": "54725",
						"addIntegration(address,uint8)": "infinite",
						"check(address)": "infinite",
						"flagIntegration(address)": "infinite",
						"listedIntegrations(address)": "infinite",
						"owner()": "2611",
						"pendingOwner()": "2544",
						"renounceOwnership()": "54692",
						"supportsInterface(bytes4)": "685",
						"transferOwnership(address)": "infinite"
					}
				},
				"methodIdentifiers": {
					"acceptOwnership()": "79ba5097",
					"addIntegration(address,uint8)": "e71d097b",
					"check(address)": "c23697a8",
					"flagIntegration(address)": "77e41fe9",
					"listedIntegrations(address)": "e8828ea3",
					"owner()": "8da5cb5b",
					"pendingOwner()": "e30c3978",
					"renounceOwnership()": "715018a6",
					"supportsInterface(bytes4)": "01ffc9a7",
					"transferOwnership(address)": "f2fde38b"
				}
			},
			"storageLayout": {
				"storage": [
					{
						"astId": 519,
						"contract": "SafeProtocolRegistry.sol:SafeProtocolRegistry",
						"label": "_owner",
						"offset": 0,
						"slot": "0",
						"type": "t_address"
					},
					{
						"astId": 632,
						"contract": "SafeProtocolRegistry.sol:SafeProtocolRegistry",
						"label": "_pendingOwner",
						"offset": 0,
						"slot": "1",
						"type": "t_address"
					},
					{
						"astId": 60,
						"contract": "SafeProtocolRegistry.sol:SafeProtocolRegistry",
						"label": "listedIntegrations",
						"offset": 0,
						"slot": "2",
						"type": "t_mapping(t_address,t_struct(IntegrationInfo)68_storage)"
					}
				],
				"types": {
					"t_address": {
						"encoding": "inplace",
						"label": "address",
						"numberOfBytes": "20"
					},
					"t_enum(IntegrationType)334": {
						"encoding": "inplace",
						"label": "enum Enum.IntegrationType",
						"numberOfBytes": "1"
					},
					"t_mapping(t_address,t_struct(IntegrationInfo)68_storage)": {
						"encoding": "mapping",
						"key": "t_address",
						"label": "mapping(address => struct SafeProtocolRegistry.IntegrationInfo)",
						"numberOfBytes": "32",
						"value": "t_struct(IntegrationInfo)68_storage"
					},
					"t_struct(IntegrationInfo)68_storage": {
						"encoding": "inplace",
						"label": "struct SafeProtocolRegistry.IntegrationInfo",
						"members": [
							{
								"astId": 62,
								"contract": "SafeProtocolRegistry.sol:SafeProtocolRegistry",
								"label": "listedAt",
								"offset": 0,
								"slot": "0",
								"type": "t_uint64"
							},
							{
								"astId": 64,
								"contract": "SafeProtocolRegistry.sol:SafeProtocolRegistry",
								"label": "flaggedAt",
								"offset": 8,
								"slot": "0",
								"type": "t_uint64"
							},
							{
								"astId": 67,
								"contract": "SafeProtocolRegistry.sol:SafeProtocolRegistry",
								"label": "integrationType",
								"offset": 16,
								"slot": "0",
								"type": "t_enum(IntegrationType)334"
							}
						],
						"numberOfBytes": "32"
					},
					"t_uint64": {
						"encoding": "inplace",
						"label": "uint64",
						"numberOfBytes": "8"
					}
				}
			},
			"userdoc": {
				"kind": "user",
				"methods": {
					"addIntegration(address,uint8)": {
						"notice": "Allows only owner to add a integration. A integration can be any address including zero address for now.         This function does not permit adding a integration twice. This function validates if integration supports expected interfaceId."
					},
					"check(address)": {
						"notice": "This function returns information about a integration"
					},
					"flagIntegration(address)": {
						"notice": "Allows only owner to flad a integration. Only previously added integration can be flagged.         This function does not permit flagging a integration twice.         A integration can be any address including zero address for now."
					}
				},
				"version": 1
			}
		}
	}
}